:020000040001F9
:10B00000584900208DB4010095B4010097B40100A7
:10B0100099B401009BB401009DB401000000000040
:10B020000000000000000000000000009FB40100CC
:10B030000000000000000000A1B40100A3B4010062
:10B04000A5B40100A5B4010049B90100A5B40100EF
:10B05000A5B40100A5B4010039B50100A5B40100F3
:10B06000A5B40100A5B40100A5B40100A5B4010078
:10B07000A5B40100A5B40100A5B40100A5B4010068
:10B08000A5B40100A1B60100A5B40100A5B401005A
:10B09000C5B60100A5B40100C9B60100A5B4010000
:10B0A000A5B40100A5B40100A5B40100A5B4010038
:10B0B000A5B40100A5B401000000000000000000DC
:10B0C000A5B40100A5B40100A5B40100A5B4010018
:10B0D000A5B40100A5B401000000000000000000BC
:10B0E0000000000000000000000000000000000060
:10B0F0000000000000000000000000000000000050
:10B10000000000000000000000000000000000003F
:10B11000000000000000000000000000000000002F
:10B40000DFF80CD000F086F80048004761E7010043
:10B4100058490020401E00BF00BF00BF00BF00BF52
:10B4200000BF00BF00BF00BF00BF00BF00BF00BF24
:10B4300000BF00BF00BF00BF00BF00BF00BF00BF14
:10B4400000BF00BF00BF00BF00BF00BF00BF00BF04
:10B4500000BF00BF00BF00BF00BF00BF00BF00BFF4
:10B4600000BF00BF00BF00BF00BF00BF00BF00BFE4
:10B4700000BF00BF00BF00BF00BF00BF00BF00BFD4
:10B4800000BF00BF00BFC5D170470000064880471D
:10B4900006480047FEE7FEE7FEE7FEE7FEE7FEE7B9
:10B4A000FEE7FEE7FEE70000EDB6010001B4010093
:10B4B00040EA01039B0703D009E008C9121F08C036
:10B4C000042AFAD203E011F8013B00F8013B521EB6
:10B4D000F9D27047D2B201E000F8012B491EFBD22D
:10B4E00070470022F6E710B513460A46044619468F
:10B4F000FFF7F0FF204610BD30B50446002003469C
:10B5000000E05B1C934203D2E05CCD5C401BF8D0B2
:10B5100030BD0000064C074D06E0E06840F0010336
:10B5200094E8070098471034AC42F6D3FFF76CFF5D
:10B53000A0FC0100C0FC01002DE9F0470025DFF868
:10B54000F090A8464FF4807601242F46304603F051
:10B550004FFB38B1D9F80403204203D0304603F042
:10B560003DFB2543361D64007F1CB6B2082FEDD38A
:10B570004FF4BE74204603F03BFB38B1204603F085
:10B580002DFB2C4845F00045D0F800802A4E15F0E0
:10B59000FF0F14D0012700242F420CD009EB8401A7
:10B5A000D1F81005D1F81015C0F3042056F8242066
:10B5B000C1F3014190477F00641C082CECD3002D9F
:10B5C00032DA0024B14609EB04004E4690F95010DF
:10B5D000491C26D090F8507027F0C005284601F08D
:10B5E000F7FC56F82060E6B1BF090120A840A90089
:10B5F00001F1A041D1F8001710EA080FC1F3014191
:10B6000002D0022902D00CE003290AD1032F05D170
:10B6100002290BD00221284603F0D1FA39462846E8
:10B62000B047641C042CCED3BDE8F0870321F2E7B9
:10B630000060004010050050D827002000F01F02D5
:10B64000012191404009800000F1E020C0F8801203
:10B65000704700F01F02012191404009800000F175
:10B66000E020C0F80011704700F01F020121914056
:10B670004009800000F1E020C0F80012704749073F
:10B68000090E002806DA00F00F0000F1E02080F833
:10B69000141D704700F1E02080F80014704700008E
:10B6A00007480021C0F84011C0F84411C0F8481103
:10B6B000C0F84C11C0F80011C0F8041104F042B8F1
:10B6C0000010014003F0DABF074810B5406830B100
:10B6D0008047002807D0BDE8104000F059BBBDE806
:10B6E000104002F0D7BE10BDE81F0020F0B58C4816
:10B6F0000022041D0378211D081D0126062B17D1E9
:10B7000025782D0714D10D78C5F30315032D03D12A
:10B71000077817F0F00F0ED0042D03D1077817F03B
:10B72000F00F08D0052D03D1057815F0F00F02D0E9
:10B73000062B09D014E04FF08055D5F84452794FCC
:10B74000C5F342353D6002E025782D0708D10D781C
:10B75000C5F30315032D03D1057815F0F00F02D0C2
:10B76000062B06D01DE0704D2F6827F080772F60E4
:10B770001AE025782D0714D10D78C5F30315032D94
:10B7800003D1077817F0F00F0ED0042D03D10778FE
:10B7900017F0F00F08D0052D03D1057815F0F00F44
:10B7A00002D0062B0AD015E04FF08045C5F80C21D9
:10B7B000C5F810215B4D2D1F2A6002E025782D076A
:10B7C00008D10D78C5F30315032D03D1057815F0C5
:10B7D000F00F02D0062B05D066E0524C03236434F0
:10B7E000236002E023781B075ED10978C1F30311BF
:10B7F000052959D1007810F0F00F55D14B48006859
:10B800004B4908604948001D0068091D0860474809
:10B8100008300068091D086044480C300068091DA4
:10B820000860424810300068091D08603F48143025
:10B830000068091D08603D48183000683C49203107
:10B8400008603A481C300068091D086037482030FD
:10B850000068091D0860354824300068091D08602B
:10B86000324828300068091D086030482C300068D4
:10B87000091D08602D48303000682D4940310860AE
:10B880002A4834300068091D0860284838300068AC
:10B89000091D086025483C300068091D08602348E0
:10B8A00040300068091D08601F487438016841F481
:10B8B00070010160BFF34F8FBFF36F8F4FF0102106
:10B8C000D1F80002002803DBD1F80402002822DAB4
:10B8D000184B1E6018480468002CFCD01524C1F8D1
:10B8E00000420568002DFCD0C1F80442016800291F
:10B8F000FCD01A6001680029FCD0BFF34F8F0A48C2
:10B90000F03801680D4A01F4E06111430160BFF3B2
:10B910004F8F00BFFDE70B4909480860F0BD0000EC
:10B92000E00F00F03C050040FCED00E004040010D6
:10B9300020C5004004E5014000E401400400FA0590
:10B940000090D003FC1F00200348007F08B104F0E2
:10B9500007B803F081BF00003028002002E008C8CB
:10B96000121F08C1002AFAD170477047002001E079
:10B9700001C1121F002AFBD170472DE9FC5F002591
:10B98000168807461580406B14468946A8464FF036
:10B990000C0A11234FF0020B98B101784846032E90
:10B9A00048D380F800B02288521C92B2228083547F
:10B9B0002288521C92B2228009F802102088401C72
:10B9C00020803A6BDAB12088494600F11205B54271
:10B9D00030D80B5420881023401C80B220800B5498
:10B9E0002088401C20800F202388155C401ECD54E9
:10B9F000238840B25B1C23800028F5DA454697F87F
:10BA00002E0030B133462246494602F0B1FD050012
:10BA100011D197F82D0030B132462146484600F04A
:10BA2000E3FE050007D1B87820B32088C846001D82
:10BA3000B04202D95046BDE8FC9F684679DF002835
:10BA4000F9D12188032008F8010020881921401C21
:10BA500080B2208008F800102088401C80B220802E
:10BA600000EB0801BDF8000003F0E6FF0146208866
:10BA700008442080F878B8B1228897F90310D31CC5
:10BA80004846B342D6D800F802B022880123521C9F
:10BA900092B2228083542288521C92B2228009F8EA
:10BAA00002102088401C20807868B8B1218890F965
:10BAB0000020CB1C4846B342BCD800F801B0218816
:10BAC0000A23491C89B2218043542188491C89B228
:10BAD000218009F801202088401C2080388950B13D
:10BAE000CDE900464B460622022107F1080004F08A
:10BAF00019F805009FD1388A50B1CDE900464B4670
:10BB00000722032107F1100004F00CF8050092D180
:10BB1000388B50B1CDE900464B461522142107F170
:10BB2000180003F0FFFF050085D1386A30B13346B5
:10BB30002246494601F0CCFB0500DBD1786A30B1E2
:10BB400033462246494602F09BFE0500D2D197F8C3
:10BB50002C0038B1334622464946384603F09CFB58
:10BB60000500C7D1387838B13346224649463846B1
:10BB700002F0B8FE0500BDD128465CE710B50122F1
:10BB80000221002001F016F808B1072810D1072281
:10BB90000221012001F00EF808B1072808D1002188
:10BBA0000A22084601F006F808B1072800D1002053
:10BBB00010BD000030B599B0382101A8FFF791FC05
:10BBC00002208DF8040001248DF8064006208DF82F
:10BBD00007000025ADF8145024210FA80695FFF7A3
:10BBE00080FC282013901E2014904FF4486016907B
:10BBF0008DF84840B42017908DF85440064B0FAA9A
:10BC00000021009501A800F0F1F9002801D000F012
:10BC1000BFF819B030BD000021EC010000F0B8B849
:10BC20001FB5044612211148FFF75BFC1048009035
:10BC3000122002900D4803900E4801900B4869466F
:10BC4000143800F01BFC08B100F0A2F824B100F099
:10BC5000F7FC08B100F09CF80448143800F0FEFC32
:10BC6000002801D000F094F81FBD0000242200201D
:10BC700055EC01001DBC010070B5084800F0ECFB5C
:10BC800008B100F085F8064D012404482C7000F03E
:10BC9000EBFB08B100F07CF86C7070BD1022002046
:10BCA000001F0020064800684FF40021044A814329
:10BCB000121D1160111D00F4002008607047000083
:10BCC00004050050100003D002490969496808477B
:10BCD00070470000481F002070B50024064D06E0A4
:10BCE0006868012110F8340002F06CFE641C2878AA
:10BCF0008442F5D3002070BDB41F0020F8B515466E
:10BD00000C460646052A01D20720F8BD02F03CFF8A
:10BD100018B902F00FFF0028F7D1104900204E603B
:10BD20000C70C1E902500E4D08610DE006EBC40035
:10BD30006968009181788DF801100078094A694698
:10BD400002F092FE0028E0D1641EE4B2EED2BDE81B
:10BD5000F840054A0021024800F052B8B41F002004
:10BD600098FC0100A5E3010095D50100BFF34F8FBA
:10BD700005480168054A01F4E06111430160BFF321
:10BD80004F8F00BFFDE700000CED00E00400FA0556
:10BD90000EB500210091CDE901106A4644F2010080
:10BDA000FFF7E4FF014B1B6818470000B427002091
:10BDB00038B50C46074BA268097802EB420253F8EB
:10BDC0002250054A126A0092024604F108002369D3
:10BDD000A84738BD1C290020901F0020074910B536
:10BDE0000A7802EB820201EB8201091DFFF7E0FFF6
:10BDF000BDE81040042003F0BFBA00005028002026
:10BE0000074B9B6823B12AB120B10068037C1BB1AA
:10BE10000820704707207047417442610020704736
:10BE2000C81F00202DE9F0478046994614460F466A
:10BE300090074FF0000634D11C4D8CB303F0DEF9AF
:10BE40000320C5F81490287004F11800002107EBB6
:10BE50004703AC6004EBC102491C16705670977022
:10BE6000506000EBC3000329F4DBEE606E70AE702F
:10BE70001420FFF7E3FB03211420FFF700FC14203C
:10BE8000FFF7E7FB0A49C1F8008003211120FFF703
:10BE9000F6FB0748001F006828610020BDE8F08716
:10BEA00001E00720FAE7AE60FBE70000C81F0020B2
:10BEB000081501402DE9F843DFF870900D4617464C
:10BEC000D9F80810044651B34CB3052D02D207200F
:10BED000BDE8F883606910B3607C012821D000269A
:10BEE00003F0EAFDD9F80810804601EBC800694666
:10BEF00003F004FEB8B1012100F8041B0C4910C086
:10BF0000096880E8E200D9F8081001EBC8009DF844
:10BF1000001041701420FFF7A7FB0020D8E708208D
:10BF2000D6E72E46DCE70420D2E70000C81F002039
:10BF300004150140F8B5124E0446B168E1B1DCB118
:10BF40006069C8B10027277403F0B6FD0546B068E4
:10BF5000694600EBC50003F0D1FD78B10221017004
:10BF60004460B0689DF8001000EBC50041701420DB
:10BF7000FFF77AFB3846F8BD0820F8BD0420F8BD6D
:10BF8000C81F0020F0B50C4693B01F210726ADF85E
:10BF90000010ADF80410002750B1C17849070DD545
:10BFA0006A4602A9FFF7E9FC002808D102AD02E0C9
:10BFB0000025ADF800706CB1E07810B1304613B0D8
:10BFC000F0BD01AA0AA92046FFF7D7FC0028F6D148
:10BFD0000AAA02E00022ADF80470BDF80400C3B262
:10BFE000BDF80000C1B2284672DFE8E770B50D4623
:10BFF00004991646040040D0F6B34148002242712D
:10C00000C0E90331242231463E48FFF751FA00F0DF
:10C01000D5F83C493431A1F1100001602031816034
:10C0200038215C38FFF75DFA3648217838380170DE
:10C03000A1788170E178C17061784170D4E904120F
:10C04000C0E90412D4E90212C0E90212D4E90612CE
:10C05000C0E90612616AD1B100F1AC0100F1B80289
:10C0600041628A60636A1B880B80616A436A8988BF
:10C0700099800021436A07E0FFE70E2070BD666AE1
:10C08000B668765C5654491C9E888E42F7D8A16AE1
:10C09000D9B11C4AAC32A2F10C018A608162A36A58
:10C0A0009B888B80A16A836A098819800021836A32
:10C0B00004E0A66AB668765C5654491C9E888E4297
:10C0C000F7D894F82C1080F82C10216A49B10C494B
:10C0D00014310162226A52884A80216A026A098800
:10C0E0001180616821B10649891D41606168416024
:10C0F0002946BDE8704003483838FFF743BF0000C9
:10C10000281F0020DC22002010B502881D4C102AB8
:10C1100018D00021112A1BD0192A18D180790028A3
:10C1200015D16079012820D0022824D0032824D0FA
:10C1300004280CD12171E2680846002A07D0BDE826
:10C1400010401047017D012901D18088208110BD58
:10C150006170808821898842F9D1012006E0216937
:10C160000029F4D0BDE810400847022000F04AF84A
:10C170000028F4D110BD0320F8E70320207104202B
:10C18000F4E70000281F002010B5022801D0032882
:10C1900010D1094C207800280CD000202070607944
:10C1A00000F030F8002805D02169002902D0BDE850
:10C1B0001040084710BD0000281F00200248002141
:10C1C0008161818381777047281F00200B4810B55B
:10C1D0000078012810D10A4C607868B9607910B1F4
:10C1E00074DF002809D101206070607900F00AF83E
:10C1F00010B1216901B18847002010BDDC22002068
:10C20000281F00202DE9F04F724C87B00026607186
:10C2100006A8069602F0CAFD0127082805D00028C6
:10C2200071D1069810B12770C0E00696FFF7C6FFDF
:10C23000694D687810B16079012804D0A87848B1B8
:10C240006079022806D1E16819B1E77008208847B3
:10C2500000E0E6706079DFF87C814FF0020A08F1B7
:10C2600018084FF0030B012806D1687840B108F197
:10C27000010002F05BFD18B16079022802D00AE0EB
:10C2800084F805A0A87820B108F1010002F04EFD65
:10C2900008B984F805B0287B4FF0040920B960790B
:10C2A000032801D184F80590287E20B960790428FC
:10C2B00001D166712671E16841B16079032801D02E
:10C2C000042803D1287808B16078C0B1A67018217D
:10C2D0006846FFF706F98DF8006001968DF8086052
:10C2E0000396607901280FD0022817D03A4E2436E1
:10C2F000A6F15C0703281ED004284DD13BE0A770AF
:10C3000007208847E3E752E0ADF81260CDF80480DB
:10C310008DF80070ADF8106027713FE0CDF8048013
:10C320008DF800702889ADF81200A888ADF81000CB
:10C3300084F804A032E0A88AADF81200288AADF88B
:10C3400010002548243003F054FC18B1287808B1B7
:10C35000607810B184F804B01EE01F488DF808A082
:10C36000039687F8039000213838FFF70BFE00286A
:10C370001DD105202BE0A88BADF81000288CADF85E
:10C3800012001548243003F034FC18B1287808B1A5
:10C39000607878B184F80490607918B1684673DFEA
:10C3A000002804D1E16809B120798847002007B04E
:10C3B000BDE8F08F08488DF808A0039687F8039031
:10C3C00000213838FFF7DEFD0028F0D1062020716B
:10C3D000E2E70000281F0020DC22002070B5134B8C
:10C3E0001A78052A01D0082070BD5C68104D04EB56
:10C3F0008402641C04F007045C6005F5237305EBFC
:10C4000082025B8A53810223D381141D14610024AC
:10C410009481012414720C78147149785171008947
:10C420001080937003F0D0F9002070BD481F0020E9
:10C43000A8230020024900890022098F00F06EBD68
:10C4400034260020034900890022B1F8441000F08E
:10C4500065BD000034260020024900890122098FB1
:10C4600000F05CBD34260020034900890122B1F8A8
:10C47000441000F053BD0000342600207CB50A684B
:10C480005AB302604A68FF24426084720025C57274
:10C490008A68C260C96801614FF6FF71104E018160
:10C4A000462130610F48FFF71CF80F4806F11401D0
:10C4B000056045600B48047001203070ADF806003F
:10C4C0004FF4F670ADF8040008480090684602F09A
:10C4D0008FFD0549A031F1607CBD07207CBD0000C7
:10C4E000481F002034260020A8230020C5BC0100DE
:10C4F00008B504228DF800208DF801106946FFF779
:10C500006DFF08BD0B4B10B55A680B4C02EB820156
:10C51000521C02F007025A6004F5237204EB8101F9
:10C52000D28B8A80008908800120887003F04CF942
:10C53000002010BD481F0020A82300202DE9F04155
:10C54000394C0A88FF232678384D082E2FD2DFE891
:10C5500006F01804324C52581A2C102A11D189882E
:10C560000181817AFF2917D0C1EBC100E16800EB9E
:10C57000800001EB400146222C48FEF799FF06207F
:10C580002070BDE8F081172A01D0142A0DD16988E6
:10C59000A1F5C052113A04D02B70BDE8F04102F071
:10C5A000BFBEBDE8F04100F007BF112AE9D1BDE8E8
:10C5B000F04101F02FBD302AF7D10B46C98819B1DF
:10C5C000BDE8F04101F01ABF197C2971D989698051
:10C5D000998941B1598AE980998A2981A91DBDE8C3
:10C5E000F04100F0FDBCD988EAE7322ADDD1BDE890
:10C5F000F04101F063BC332AD7D1BDE8F04101F02E
:10C60000D1BC392A07D0362A09D0382ACDD1BDE885
:10C61000F04103F0D9B8BDE8F04101F031BDBDE80B
:10C62000F04101F065BD0000481F002034260020C5
:10C630001278112A01D0142A01D1897881727047A9
:10C6400005480078002805D003484FF4F6711430EF
:10C6500002F0E8BB70470000481F002010B500231F
:10C660004FF4F6720C490D4802F06EFC002811D010
:10C67000094A0021143A5FF0FF03D268C1EBC104FC
:10C6800004EB8404491C02F814300729F6D305286A
:10C6900000D1002010BD00005C1F002048240020B5
:10C6A00000234FF4F6720249024802F0FBBC00007E
:10C6B000482400205C1F002008B505228DF80020CA
:10C6C0008DF801106946FFF789FE08BD0B4B10B5C8
:10C6D0005A680B4C02EB8201521C02F007025A60AE
:10C6E00004F5237204EB8101528D8A800089088051
:10C6F0000120887003F068F8002010BD481F00205A
:10C70000A823002070B5054601461C220F48FEF7FD
:10C71000CFFE0F4C00262670286830B1016861609A
:10C720004068A060201D7ADF02E00948001D7BDF21
:10C7300000280AD14FF6FF7060806670BDE8704037
:10C74000044A00210448FFF75BBB70BD9C26002013
:10C75000641F002059FA01003CFC010070B5204C18
:10C76000068800251D49E289102E15D01D4B112E7B
:10C770001ED0122E2BD0502E19D130F8061F914208
:10C7800015D1018B022912D1807E10F0010F13D038
:10C79000BDE8704000F0E2BD83884B80D0F81630D1
:10C7A000CB60D0F81A0008614D70002AF0D070BD3F
:10C7B0004FF6FF7048804D701868FFF7BBFB0028EC
:10C7C000F5D0A1690029F2D0BDE87040084750F8C3
:10C7D000062FCA6040680861DAE70000641F002085
:10C7E0009C2600203CFC01007CB5054608880C46D0
:10C7F0000930904201D90C207CBD684671DF0028C9
:10C80000FAD121880820685420881B21401C80B25E
:10C81000208029542088401C80B220802844DDF8E4
:10C8200001100160BDF8051081802088801D80B254
:10C8300020809DF8001001B1012129542088401C5E
:10C84000208000207CBD000010B5044600F0B0FF41
:10C850002046FFF783FF21460648FFF76FFE20467C
:10C8600000F08AF8204602F035FA2046BDE8104074
:10C87000FFF74ABC1022002000B585B000234822F3
:10C880001449082002F0C0FD08B1FFF781FA6A469A
:10C890000121002002F0A2FD08B1FFF779FA0E484D
:10C8A00002F0F2FC08B1FFF773FA684602F08CFD63
:10C8B00008B1FFF76DFA094802F07CFD08B1FFF7F7
:10C8C00067FA074802F0B8FD002801D0FFF760FAC8
:10C8D00005B000BD00200020001E002049C8010056
:10C8E00055F601001CB5044681786A460C4802F0F2
:10C8F0006FFA002813D160780A49C0EBC00001EB41
:10C9000080001C231A46694602F01EFB05480649B2
:10C910003830807A51F820202146684690471CBD67
:10C92000881F00207C27002050FC01007CB5114EA0
:10C930000C004FF00005306015D06946002000F073
:10C94000B1F8002815D101A9012000F0ABF80028AA
:10C950000FD19DF8041009B1022003E09DF80010EA
:10C9600001B10B202070706810B9FFF707F9054678
:10C9700028467CBD201F002010B51A4C0188606835
:10C9800010290ED011292BD1401E606028D1FFF74D
:10C99000F5F8002824D02168002921D0BDE81040F6
:10C9A0000847D0B900210122084600F003F908B178
:10C9B00007280FD107220221012000F0FBF808B15F
:10C9C000072807D104220221002000F0F3F820B14B
:10C9D000072802D0216801B188476068401C606068
:10C9E00010BD0000201F002010B5032000F074FAD5
:10C9F00008B1062800D1002010BD00002DE9F04745
:10CA000007460024244802E0641C042C41D250F85C
:10CA10002420BA42F8D1042C3BD21F48DFF87C9086
:10CA20001F4E0C38A9F1140841B301290FD0022977
:10CA30002FD104EB440030444578002D29D0D8F89C
:10CA40001010002925D02846BDE8F047084704EB20
:10CA50004401755C0E44717861B1D8F804100F4A36
:10CA600001EB81014900133A8068FFF723FA08B906
:10CA700088F80170B17809F80410DEE78068FFF7E4
:10CA800059FA04EB4401314419F804008D78A842A6
:10CA9000D3D0BDE8F08700000CFC01001C1F002073
:10CAA0007822002004280CD2074A1268074B13F89A
:10CAB000203001209840904300D0012008700020D1
:10CAC00070470020FAE70000100500500CFC010040
:10CAD00070B500230121354C001F4FF6FF720C2862
:10CAE00010D2DFE800F00A0F0F100F0F060F0F151E
:10CAF0003047BDE8704002F02BBC1321A08876DFE0
:10CB000003E0A8B970BDFFF761FB0828F9D170BD3B
:10CB1000A0889042FBD0207802280DD001280DD0AB
:10CB200021702348FFF798FC0028F0D00828EED0A9
:10CB3000BDE87040FFF72CB9217012E023701C484B
:10CB4000FFF778FCF0E7A0889042E0D060780228F8
:10CB500006D0012809D061701548FFF785FCE3E78E
:10CB60006170112000F048F8DEE763701048FFF7AD
:10CB700069FCD9E7A0889042C9D06078022801D02A
:10CB8000012808D1FF210A48FFF796FD18B10828AF
:10CB900001D0FFF7FDF82078022801D00128B6D196
:10CBA000FF210348FFF7A4FCBEE70000001F0020A0
:10CBB0001022002070B50023042810D20D4D00EB88
:10CBC0004004012A02D101290CD00022094E00EBB9
:10CBD0004000304461B1012906D0022906D0072364
:10CBE000184670BD0D30C2B22A55F9E74270F7E71A
:10CBF0008270F5E778220020044A01460020127A6C
:10CC0000D20702D0084600F055B87047081F002030
:10CC100070B50E462149054600200A61C1E901654B
:10CC2000A9071BD50024012211462046FFF7C2FFA9
:10CC3000641C042C02D20028F5D00FE070B97208F1
:10CC400004211748FFF75AF840B9FFF745F828B90B
:10CC50001348144A00211438FFF7D2F8E9070AD024
:10CC6000114A4FF4F01111600F4B00221B1D1A6086
:10CC70000D4A1032116000280FD109480B4A0021DB
:10CC80001C38FFF7BDF8002807D1BDE87040044804
:10CC90000121074A1838FFF7B3B870BD081F0020FC
:10CCA0001CFC010015CF010008050050C5E501007E
:10CCB000A5BC01002DE9F84F854EDFF810A24FF416
:10CCC000E01CF16807462CEA010C00910020716815
:10CCD0000AF10404251D7F4B4FF400324FF4802BE2
:10CCE00001EB810E8146182F16D2DFE807F00C17F2
:10CCF000173A4E607083868F868FEAA0A0A0A0A00E
:10CD0000CAD1D8E1EAEA009A4FF4F01191432160C8
:10CD1000C5F8009086F80090BDE8F88FC4F800C010
:10CD20004846C5F80090DAF800C08CF4F01C5FEAC1
:10CD30008C3C09D522602860022F02D14FF4E160BB
:10CD400008E04FF47A6005E02A602060022F3CD0B2
:10CD50004FF4C8706422B0FBF2F0414337700022F8
:10CD60005EE0C4F800C04846C5F80090DAF800C09C
:10CD70008CF4F01C5FEA8C3C04D5226028604FF4F0
:10CD80004870E7E72A6020601FE0C4F800C048460A
:10CD9000C5F80090DAF800C08CF4F01C5FEA8C3C17
:10CDA00002D522602860CCE72A602060D0E7C4F872
:10CDB00000C04846C5F80090DAF800C08CF4F01CBA
:10CDC0005FEA8C3CDED522602860C820C2E7C4F848
:10CDD00000C04846C5F80090DAF800C08CF4F01C9A
:10CDE0005FEA8C3C02D52260286001E02A60206066
:10CDF000377014E0C4F800C04DE0DAF800002BEA08
:10CE00000002226000F48020286008E0DAF80000C8
:10CE10002BEA0001216000F4802028607146002286
:10CE20001868BDE8F84FFFF745B821602EE0984636
:10CE30005868FFF77FF8D7F1110100D040B1F168D1
:10CE400001F4F0112160C5F80090C6F80C9063E77A
:10CE50004FF40022F26001290CD9C82011FB00F127
:10CE60006420B1FBF0F1706800224143D8F804005F
:10CE7000FFF720F8F16801F4F0112960C4F8009080
:10CE80004AE74FF4F0112160C5F80090377043E78E
:10CE90004FF4E01121604946C5F8009006E04FF4D8
:10CEA000D01121604946C5F800905A462A60BCE777
:10CEB0004FF4C01121604946C5F800904FF4C022DC
:10CEC000F4E74FF4F01129604946AEE7040500503D
:10CED000081F002000FC010070B500210C4D01244A
:10CEE00055F82120920002F1A042D2F8006704FA1E
:10CEF00001F3034000D0032326F4403646EA0343FF
:10CF0000C2F80037491C0429EAD3002070BD000094
:10CF10000CFC010000780221FFF770BD70B5114CC8
:10CF20002378052B01D0082070BD65680E4E05EBF7
:10CF300085036D1C05F0070506EB830365605981C9
:10CF40000221D9811C1D1C6100249C8101241C72BA
:10CF50001A71120A5A711880997002F035FC00207B
:10CF600070BD0000481F0020A823002005494FF095
:10CF7000FF32082841F8202002D3084480F84820D6
:10CF800070470000D8270020F0B54FF0FF3512B1F0
:10CF90000023082601E008230C260C4C05E000BF06
:10CFA00054F823707F1C04D05B1CB342F8D328468E
:10CFB000F0BD26185DB286F8305044F82310002AE0
:10CFC000F5D1E11881F84800F1E70000D8270020EA
:10CFD0000249084490F9300070470000D82700202B
:10CFE00030B40446008992DF010003D0204630BCF3
:10CFF00001F004BA02490320087030BC70470000F9
:10D00000481F00208A7882700A8802800A7902719B
:10D01000CA88C28009890181FF21418170470000CF
:10D020002DE9F0413B48017801EB810100EB8104DF
:10D03000D4E9030600EB40013648241DCC3000EB58
:10D040008100B0F808804589476801F048FFB6FBC9
:10D05000F0F100FB116088B35FF0000008FB05777A
:10D060006188A288DFF8B08011448D190022C8F8C9
:10D07000102040B101F033FF6188884221D0BD42C9
:10D0800001D1A088E8B1A06803281AD001F027FFD9
:10D09000A18844463144B1FBF0F200FB1210800835
:10D0A000C8F80C0001F01BFFB5FBF0F100FB1150BC
:10D0B00078B10020BD4228D068B126E0FFE701200A
:10D0C000CCE701F00CFFB6FBF0F10320C8F8141018
:10D0D0001CE00120EEE7ADB2BEB201F000FFB6FBEE
:10D0E000F0F701F0FCFEB5FBF0F0874201D1701BB8
:10D0F00009E001F0F4FE064601F0F1FEB5FBF0F1A7
:10D1000000FB1150301A800820610220BDE8F04178
:10D1100002F032B950280020901F00200648017804
:10D1200001EB810100EB81000079042801D000F0BF
:10D1300059B8012002F020B9502800200A480B4AB3
:10D14000017801EB810100EB8100C1881162007957
:10D15000012805D0032801D0042804D1FFF760BFBF
:10D16000012002F009B9704750280020901F0020CC
:10D1700000EB80020548002100EB820002220171D1
:10D18000C180C0E90321416101817047502800201E
:10D190002DE9F041114D069E6C780A2C1BD02F789A
:10D1A0003C440A2C00D30A3C04EB840405EB8404C1
:10D1B00020716261D1E90001C4E90301E3802681A5
:10D1C0006878401C68700648007808B9FFF7B6FF19
:10D1D0000020BDE8F0810420FBE70000502800207B
:10D1E000901F002010B50E4C207800EB800004EB5F
:10D1F00080010020091DFEF7DBFD2078FFF7B8FF56
:10D200006078401E60702078401CC0B220700A28F0
:10D2100001D100202070BDE81040002002F0ACB821
:10D22000502800202DE9F05F2648C168F1B3DFF8EF
:10D2300098B00E688146DBF800400769C078E11BB2
:10D2400021F07F45ED1CB0B9DFF880804FF48030CD
:10D25000C8F84403C8F804031120FEF7EFF91120C1
:10D26000FEF7F7F94FF0010AC8F800A02F20FEF7EB
:10D27000D1F889F803A0B54200D23546124BE8191F
:10D280003C3320F07F401860DBF800105A46091B41
:10D2900021F07F41001B20F07F40C91C81420FD943
:10D2A000106818602F20FEF7B5F800E004E0BDE834
:10D2B000F05F1120FEF7D8B9BDE8F05F01F09EBF26
:10D2C000BDE8F09FC81F0020041501400010014078
:10D2D0002DE9F04117880646B81D14460D469842C0
:10D2E00002D90C20BDE8F0813188072206290AD333
:10D2F0004FF4486C4FF6FF73614501D9994202D152
:10D300007088062801D21046ECE7604501D99842A2
:10D31000F9D1994203D0984201D08142F3D8052037
:10D32000E85520881221401C80B220802954208892
:10D33000401C80B220804119308802F07DFB21889A
:10D34000084480B220804119708802F075FB218862
:10D35000084420800020C5E7FEF71ABDF8B5134841
:10D3600001F0D0F8114D0026114C0C3D30B161692F
:10D37000B9B101208DF80000684611E0287820B18D
:10D38000616971B18DF80060F6E7687858B1A168FD
:10D39000084800220068FEF78DFD10B1A16901B1B7
:10D3A00088472E70F8BD6168F2E70000701F00200A
:10D3B0009C2600203CFC010010B51649044686B0AE
:10D3C0000520087014480178FF2901D1FE21017061
:10D3D000A17AFF291BD00078F02818D2FF2120461F
:10D3E000FFF786F810B1616801B18847FF21204638
:10D3F000FFF762F910B1616801B188475FF0020080
:10D400008DF8000021686846884706B010BD0020EE
:10D41000F6E70000481F00203426002070B5094BB5
:10D42000044608209E7A00250E4208D0A4F57F40CD
:10D43000FF3802D01889A04202D10020156070BDCB
:10D44000052070BDA827002000EB400207480121FD
:10D4500000EB820081724FF6FF710181FF21C172E2
:10D46000002101608180817170470000A8270020A1
:10D4700038B5438803210422A3F52854483C0BD037
:10D48000641C1BD1007A04070023002C08DA8DF8F5
:10D4900000308DF8011009E0007A04070123F4E759
:10D4A000C0060BD58DF800308DF801206946044880
:10D4B000FEF794FF002801D0FEF76AFC38BD00009B
:10D4C0001022002010B5134C207900071ED460698B
:10D4D000401C6061E06808B104200AE001F020F817
:10D4E00008B1022005E0206960B16068C10704D07E
:10D4F0000320BDE8104002F0A3B840F001006060D6
:10D500000020F6E7BDE81040FFF708BEBDE8104078
:10D5100002F08CB8901F002006494868020707D423
:10D52000820702D540F001004860022002F088B86E
:10D5300002F07CB8901F002038B504461348018FD4
:10D54000FF2904D0B0F84410FF290AD019E0C08E9A
:10D550006946401CADF80000ADF80200208993DF59
:10D5600009E0B0F842006946401CADF80000ADF893
:10D570000200208993DF010003D0204600F03EFF27
:10D5800038BD03490420087038BD0000342600204F
:10D59000481F00202DE9F04100260125144C22E00F
:10D5A0006068226900EBC607387805FA00F111427D
:10D5B00017D08A43226101F0B3FA02463878E36853
:10D5C00005FA00F1194002FA00F3994209D179787D
:10D5D000012901D0012100E0002151407A6802B107
:10D5E0009047761CF6B220788642D9D3BDE8F08108
:10D5F000B41F00202DE9FC410E46044681786A469E
:10D60000254801F0E5FB002829D16078234F00EB85
:10D61000400007EB8000807A400622D4022E20D002
:10D62000012E20D01E4D1D49A078F039C0EBC0005E
:10D6300001EB800100231C226846A847A8B1022EF6
:10D640000DD02078154900EB40000C3101EB800033
:10D650001449807A51F82020214668469047BDE859
:10D66000FC81114DDFE7114DDDE7022EF7D0607828
:10D6700000EB400007EB8000817A21F040018172CD
:10D68000064960782C39C0EBC00001EB80011C23F7
:10D690001A466846A847D4E7881F0020A82700201C
:10D6A0008DF5010040FC010075F10100A5F00100BD
:10D6B0002DE9F04705250F4F904689460646002480
:10D6C000C4EBC40007EB800036B1072231461030AE
:10D6D000FDF712FF18B106E0018B414503D100258B
:10D6E000C9F8004002E0641C072CE9D32846BDE8D5
:10D6F000F0870000B82600207CB5054681B26A4656
:10D70000074801F065FB040008D14C21684601F090
:10D7100089FB040002D1284601F012FB20467CBDA3
:10D72000881F002070B505460C46100001D0FEF79A
:10D730002FFB224629460248FEF77AFF002070BDE3
:10D74000102200201FB58DF80C0001F0CDFB08B1B0
:10D75000FEF71EFB03A800F047FA08B1FEF718FB1E
:10D760000020CDF805008DF809009DF805006946F8
:10D7700020F01E0040F001000C3020F020008DF859
:10D78000050007208DF8060010208DF807000648D8
:10D79000009001208DF80400044800F03DFB0028B3
:10D7A00001D0FEF7F5FA1FBD25D70100021F0020AA
:10D7B0002DE9F04F93B0054600200290F848FF2471
:10D7C0000E940078002856D0F64E3068002852D0CB
:10D7D00001A800F0FEF908B1FEF7DAFA281D05905D
:10D7E0002A20ADF818000027FF208DF806008DF8DC
:10D7F00004700097EB4C28880C3CBA4610280FD0D8
:10D80000A8886A460221FFF709FE48B9009800EB94
:10D81000400104EB8101C97A8DF806108DF80500EE
:10D82000DFF880B32A88ABF1380B132016230BF1F5
:10D830001C08A8F1E009172A73D010DC102A1DD0AB
:10D84000112A5CD0132A6DD0142A14D1009800EB51
:10D85000400004EB8000C07AFF287DD0ABE0D249C5
:10D86000182A7AD01C2A6FD0522A04D1B07A51F8E3
:10D87000201001A8884713B0BDE8F08F4FF6FF765F
:10D880006A4601213046FFF7C9FD0028F3D1009810
:10D89000022200EB400104EB81018A7211228DF813
:10D8A00010208DF80500A8880881D5F806000860CA
:10D8B00068898880287B8871687DC10708D0B8494D
:10D8C000083101EB50000078FF2807D00E9005E0EA
:10D8D00032460EA9A81DFFF7EBFEB8BB00990E98C3
:10D8E00001EB410104EB8101C8728A7A42F008021F
:10D8F0008A728DF8060001A8FEF7F4FF26E0009872
:10D9000000EB400004EB8001887A20F0020088726E
:10D91000010708D500060FD5002101A8FFF76AFE10
:10D920000AE0C7E057E09DF80600FF2804D001F0A8
:10D9300007FAFF208DF806000099102001EB410145
:10D9400004EB8101887212208DF810003A4604A978
:10D9500001A8FEF727FA01E00FE000E19DF81000B2
:10D96000122888D1009800EB400104EB8101897AEC
:10D97000012980D0FFF768FD7DE7EA890EA9002024
:10D98000FFF796FE78B900980E9900EB400004EB83
:10D990008000C172827A42F0080282728DF806100D
:10D9A00001A8FEF79FFF009800EB400004EB800009
:10D9B000C07AFF2805D00098C0EBC0010BEB8100B6
:10D9C000029000980023C0EBC00109EB8102A888F7
:10D9D000029982DF4FE7009A8DF8100002EB4200B7
:10D9E00004EB8001887A40F00400887291F80BC043
:10D9F000BCF1FF0F28D08DF8103008EB021340F077
:10DA00004000C3F808A0C3F80CA088720099CDF8B4
:10DA10002CA001EB410204EB8202D27ACDF828A0BF
:10DA2000C2EBC20309EB8302CDE90C2AC1EBC102B0
:10DA30000BEB8201CDE9081A321DA88808AB002142
:10DA40007FDF002898D181E70DF1380848F24303C1
:10DA500000204A46C0EBC00C02EB8C0C9CF81AC0AC
:10DA6000BCF1FF0F04D0401C0728F3D31F46CDE7BD
:10DA70000B78022B0CD0C0EBC00309EB8302FD2313
:10DA800093760B6813618B8893828979917505E091
:10DA9000C0EBC00109EB8101FE228A7688F8000004
:10DAA00000990E9801EB410104EB81018DF806000D
:10DAB000C872ABE7707A20F001007072009B03EB34
:10DAC000430204EB8200817A21F00406867214215D
:10DAD0008DF81010A97921B1C07AFFF70DFEAF794A
:10DAE00034E7E9794907AED59DF80610FF29AAD099
:10DAF00046F008068672ED7AAD0707D5C1EBC10680
:10DB000009EB8605AE7E26F00106AE76C57AFF2DBE
:10DB100099D014F82220022A0ED0C1EBC10209EBE1
:10DB2000820102680A6182888A8280798875887E8B
:10DB300020F0020088760DE0C3EBC3020BEB8200FD
:10DB4000C1EBC101428A09EB81000283817E21F091
:10DB500001018176012101A8FFF74CFDF6E6A879C5
:10DB60000122B2EB101F21D100F00F0001281DD1BE
:10DB7000009A02EB420004EB8005A87A070715D54E
:10DB800008EB021240F06000C2F808A0C2F80CA036
:10DB90008DF81030A872707A40F00200707216E0B2
:10DBA000781F0020B427002060FC0100009800EBE3
:10DBB000400004EB8000827A42F0800282721520DD
:10DBC0008DF81000B07A51F8201001A8884700277E
:10DBD000BCE630B1FF21017041708170C17000203E
:10DBE000704748F20E0070472DE9FF4105003BD019
:10DBF0002C4800240460447284722046FFF724FC01
:10DC0000284800267C38DFF8A080046644668466D5
:10DC1000FF27C466304601F093F808F80670761CBA
:10DC2000072EF7D34C20ADF804000720ADF806000E
:10DC30001E481D4900900831684601F0D9F90028B6
:10DC40000FD1194E0120083E3070287878B1BDF808
:10DC50000400BDF80610484381B206F1100001F03F
:10DC6000E1F804B0BDE8F08148F20E00F9E70D4F8D
:10DC70000025FC3F0C48A9B202AA083001F0A8F820
:10DC800048B9C5EBC50007EB800000231C2202A9A0
:10DC900001F05AF908B13470E3E76D1C072DE9D3A0
:10DCA000DFE70000B4270020801F0020B1DC010066
:10DCB0002DE9F0478046564890B01E460068189FF0
:10DCC00092468946002854D04C2F52D86846FFF718
:10DCD00080FF08B1FEF75CF800248DF800408DF855
:10DCE0000440CDE905762546A9B20DAA494801F0C0
:10DCF0006FF828B908220DA94046FDF7FDFB00B3D7
:10DD00006D1C072DF0D300BF9DF80200FF2830D016
:10DD1000202540230DF11008B9F1030F14D0DFF8CE
:10DD2000F0C01C27ACF1FC0CA6EB0C01B1FBF7F228
:10DD30000121072A2BD2CDF80880BAF1000F1BD0A1
:10DD400020E08DF80250DFE74C2F02D08DF8043030
:10DD500001E08DF804509DF8040040F0030000BF7E
:10DD60008DF80400524601A96846CDF80880FEF7F8
:10DD700019F810B0BDE8F087264A8140103A526881
:10DD80001142F6D001F05EFE8DF8045034E02048D8
:10DD90003838321AB2FBF7F23AB100F11C02B01A6D
:10DDA000000919D08DF80430E3E719498DF80450C3
:10DDB0008DF801400C31CDE90A41CDF8088007907B
:10DDC0009DF80200C0EBC0000CEB8000089007A893
:10DDD0000690182005900FE030208DF804000C48C4
:10DDE0008DF801400C388DF80310807A800703D439
:10DDF000146054609460D4609DF80400B9F1020F7F
:10DE000002D040F00200ABE740F00100A8E70000BC
:10DE1000B4270020881F0020164A10B512785AB186
:10DE200048F20E0258B151B10B6843B1124A14685E
:10DE30003CB148F2040010BD48F2080010BD104685
:10DE400010BD0D4C1360241DD1F8053023604B7AB2
:10DE500023710979917223F0050141F002011172D9
:10DE6000D17921F0040141F00301D1710021017049
:10DE7000084610BD781F0020B42700200E4910B5B9
:10DE80004A788C780023A24212D0521CD2B24A7037
:10DE9000022A00D14B70084A4B78183252F82320DE
:10DEA00002600869104420F07F400861012010BD25
:10DEB0000360002010BD0000C81F00202DE9FC5F9A
:10DEC0000E46C988DFF8D8800746B1F5857F09D0AE
:10DED000A1F58070013805D0C1B13846BDE8FC5FBE
:10DEE00000F08CBAB8F81210404669B1C18B59B134
:10DEF000418D49B1C18E39B1B8F8420020B13846E0
:10DF0000BDE8FC5FFFF718BB0521E6E724480024C5
:10DF100000F10A0101913031254600F12E0B00F18C
:10DF2000220A00F11609009118E000BF05EB8500F8
:10DF300006EB400434F80E0FA0F5285044380528AD
:10DF40000BD2DFE800F003061D23200021460198D4
:10DF500001E021460098FFF755F86D1CB089A842F2
:10DF6000E4D8B4B120896946401CADF80000B8F887
:10DF70000800ADF802003846FFF732F8BDE8FC9F14
:10DF800021465846E7E721465046E4E72146484601
:10DF9000E1E708F106013846BDE8FC5FFFF720B86D
:10DFA00034260020F0B4CA88B2F5857F08D0A2F5E7
:10DFB0008073013B04D02AB11146F0BC00F01EBAB8
:10DFC0000521FAE78B89124AA3B1CB89D68E5C1E54
:10DFD00042F60215A64204D10E8AAE4201D1138741
:10DFE00008E0B2F84260A64204D1098AA94201D1F0
:10DFF000A2F84430118FFF2906D0B2F84410FF294F
:10E0000002D0F0BCFFF7D8B9F0BCFFF795BA00001A
:10E010003426002070B504461748184D86B006789F
:10E02000012101702978FE2903D1A17AFF290ED0A0
:10E030002970C9B207290AD2C1EBC101C06801EB3E
:10E04000810100EB410046220C49FDF731FA4621DF
:10E050000A48FDF746FAFF202870E0724FF6FF717C
:10E060002181A072052E05D103208DF800002168C2
:10E070006846884706B070BD481F0020342600203F
:10E0800030B585B0044604208DF800000A8A0C31B2
:10E09000022A29D3154B0888921EDD8EA84205D18D
:10E0A00093F830008DF80400D88D08E0B3F84250A2
:10E0B000A84219D193F83C008DF80400588FADF8B0
:10E0C000020088798DF80800C8798DF80900E068A9
:10E0D000904200D202460392206908310490FDF775
:10E0E000E7F921686846884705B030BD342600202E
:10E0F00010B586B005228DF800200A8A0C31D2B105
:10E10000144A0B88D48BA34204D1137E8DF80430BB
:10E11000D28A07E0548DA3420DD192F824308DF8B5
:10E120000430528CADF80220CA88ADF808208988E6
:10E13000012904D009E001F047FB06B010BD9DF8AD
:10E14000091021F003018DF809100168684688471D
:10E15000F1E7000034260020002808D0112801D063
:10E16000FDF73CBE0248416841F00801416070473C
:10E17000901F002010B51F4C2046217840680129CF
:10E1800010D002292DD0032932D1000725D460698F
:10E19000401C606100F0C4F9D8B12078BDE810409F
:10E1A00001F0EAB8000718D41348A28B017801EBFC
:10E1B000810100EB8100C188891A0904090CC18022
:10E1C00003D0BDE8104001F0E3B9BDE81040FFF70F
:10E1D00009B8BDE81040FEF7A1BFBDE8104000F04F
:10E1E00045BB0648617850F82100BDE81040004763
:10E1F00010BD0000901F00205028002084FC01006A
:10E2000028DFFFF7A9BF29DFFFF7A6BF002070476F
:10E2100000207047002070472DE9F04705464178FF
:10E220002548002400EB0110234F01EB410110377A
:10E230004268A046264607EB810152B18B7A5FEA1D
:10E24000036C06D55B0604D4066800F108041FFAC7
:10E2500082F80889334642462146A9DF48F241093F
:10E260000B281CD000B14846012E16D168784FF615
:10E27000FF7200EB400007EB80000C210089A7DF54
:10E2800000280AD0A0F54051023913D0082811D037
:10E29000891E0FD011280DD00020BDE8F0876878C6
:10E2A000012300EB400007EB800042460089214635
:10E2B000A9DFDBE74846F0E79827002070B50C4659
:10E2C00001466078084D382305EB0010102200F05D
:10E2D0003BFE002806D1617805EB01114A68521C0B
:10E2E00000D14A6070BD0000982700202DE9FE4350
:10E2F000804603270820ADF808004878234E00EB3D
:10E30000400006EB80000C4600893B4602AA6946A5
:10E31000AADF08BB6078A6F1100505EB0010BDF878
:10E32000082069460830FDF7E7F80028607805D036
:10E3300005EB0010416881B1154E0FE000EB400184
:10E3400006EB8101897A89071DD405EB00100021B5
:10E35000016041608160C16015E00E4E0760607829
:10E36000BDF8082005EB001069464260607805EBB7
:10E3700000100830FDF79CF86078382305EB001199
:10E3800010224046B0470020BDE8FE83A8270020A9
:10E3900075F10100A5F00100FFF73EBFFFF78EBF4A
:10E3A000FFF7A4BF2DE9F041124E07460125BD40FD
:10E3B0003068FDF7BFFD00280DD10F4C20692842C1
:10E3C00007D1384600F0ACFB0028E06805D02843B0
:10E3D00004E0A8432061BDE8F081A843E060206923
:10E3E00028432061A1683068BDE8F0410022FDF7B4
:10E3F00061BD000098FC0100B41F002000B5064B71
:10E4000085B007221A7001228DF800200291016860
:10E410006846884705B000BD481F002070B51B4CFA
:10E42000207900072DD41A48017801EB810100EB17
:10E4300081052E6900F053FDE9882A89761E114472
:10E440003144B1FBF0F02169002549B16169814295
:10E4500006D1E560606840F001006060002008E0DF
:10E4600000F05EF810B10220E56002E0206920B102
:10E470000320BDE8704001F0E3B8BDE87040FEF74E
:10E480004DBEBDE8704001F0D1B80000901F0020E3
:10E4900050280020F8B51A4C207800282ED020698A
:10E4A00028B10026E06820B1002526B110E0012641
:10E4B000F8E70125F9E7684652DF052803D020B1C7
:10E4C000FDF766FC04E0012602E021690098884718
:10E4D00085B96088ADF800006946A06861DF05284D
:10E4E00003D020B1FDF754FC04E0012502E0D4E99B
:10E4F00002018847002EDED0002DD6D0F8BD0000E6
:10E50000E81F0020054940880A88904204D34988C2
:10E51000884201D80120704700207047681F002002
:10E5200070B50E48017801EB810100EB810425698B
:10E5300000F0D5FCE18822896D1E11442944B1FB0D
:10E54000F0F1074842698A4205D301D1006910B150
:10E550004FF0000070BD4FF0010070BD502800204A
:10E56000901F0020800701D00020704701207047D5
:10E5700030B51488E51C9D4201D90C2030BD022520
:10E580000D5513881C245B1C9BB21380CC5413883C
:10E590005B1C9BB21380012807D0022807D00328F8
:10E5A00007D0042807D0072030BD002004E0012058
:10E5B00002E0CD5401E00320C8541088401C1080B4
:10E5C000002030BD0348017AC90702D00078FEF769
:10E5D00071BB7047081F00202DE9F047DFF8ACA0A1
:10E5E000DAF80C009AF8004080469AF80460DAF8ED
:10E5F0000890DAF810703AE009EBC4052A7833E0A5
:10E6000002EB42016B68521C03EBC101AB78D2B242
:10E61000934200D100220B78022B02D0032B23D18E
:10E620001FE0D1F804C00346014603E0614503D072
:10E630000B46C969C1B1F9E7B1B18B4205D1C069D7
:10E6400018B9134F0126BE600027D1F800C0C96970
:10E65000D96149B10B6863440B6005E00174C0697E
:10E6600000E000210028F9D169789142C8D1641EE8
:10E67000E4B2C1D2CAE903078AF80460404502D077
:10E680000120BDE8F0870020FBE70000C81F002044
:10E69000001001402DE9F04705462F48002680462E
:10E6A0000778D0F80C904BE0D8F8080000EBC704CE
:10E6B00040E002D02846ED691EE02078616800EB5A
:10E6C0004002401CC0B201EBC2012070A27890420F
:10E6D00000D126700A784868012A2DD1027C5ABBE5
:10E6E0008A684260CA6882600A69C2604969816159
:10E6F00098F8041001B146604268D8F81030DFF88D
:10E700005CC0D11A21F07F41614502D28268114478
:10E7100006E0991A826821F07F418A4202D9511A93
:10E72000016000E006604660012186600174C661F8
:10E7300000F0EAFF002DBCD1207861788842BCD17E
:10E740007F1EFFB2B0D2D8F80C10494502D001208C
:10E75000BDE8F0870020FBE7C81F0020FFFF7F0017
:10E76000002388B0394A05211846FDF75BFB08B144
:10E77000FDF70EFB364A40F6CD410320FEF748FA7E
:10E7800008B1FDF705FB69460020FEF7CFF808B198
:10E79000FDF7FEFA9DF8000002284FD05FF000055B
:10E7A000FEF76AF82846FEF7CDFF9DF8080029A17C
:10E7B00020F00F00401C20F0F00010308DF8080011
:10E7C000132202A87CDF08B1FDF7E2FA00244FF41F
:10E7D000C87000940194ADF800004100ADF8044009
:10E7E000ADF80600ADF8021068467ADF08B1FDF713
:10E7F000CFFAFDF7DFF92846FDF712FA1C2168462B
:10E80000FCF76FFE4FF42030CDE900404FF470204C
:10E81000029003208DF80C0001208DF810001248A2
:10E82000ADF80E40CDE905406846FDF76BFF08B135
:10E83000FDF7AEFA0320FDF7E5FC02E00125AFE7A6
:10E8400048DF0028FCD0FDF7A3FAF9E748200020B4
:10E85000D1CA01004E6F726469635F416C65727466
:10E860005F4E6F7469662E0059D3010003484168FA
:10E8700021F008014160007800F07EBD901F00206B
:10E8800070B5144682880E4605462088111D014445
:10E89000921C994201D8FE2A01D90C2070BD521C4D
:10E8A00032542088FF21401C80B2208031542088BF
:10E8B000401C80B220808119288801F0BDF8218891
:10E8C000084480B22080AA8842B1A96841B130448E
:10E8D000FCF7EEFD2088A98808442080002070BD48
:10E8E000072070BDF8B50E4601781446054601298B
:10E8F00001D1687830B12088821C9A422DD8012934
:10E9000002D006E00720F8BD69780144891C9942CD
:10E9100023D8181A801E87B2ADF800702188B01C69
:10E92000084469467DDF0028EDD12878022805D10A
:10E93000BDF80010B94201D809210AE008210128D8
:10E9400005D16878B84202D8ADF8000001E0ADF812
:10E950000070BDF80000FE2801D90C20F8BD228807
:10E96000401CB0542088401C80B220803154208844
:10E97000401C2080BDF80010084420800020F8BD15
:10E980000020704700207047002070474907090E9B
:10E99000002806DA00F00F0202F1E02282F8141DCE
:10E9A00003E000F1E02282F8001400F01F020121D0
:10E9B00091404009800000F1E020C0F88012C0F8CA
:10E9C000001170472DE9F0478846814600F0D6F9DE
:10E9D0000124224E0028484618D0FEF7F9FA3044A8
:10E9E00090F848008009032802D0012806D007E0EB
:10E9F0001B48006804FA09F4204201D1022100E01A
:10EA000003214846BDE8F04700F0D9B800F0C2F94C
:10EA1000002820D04846FEF7DBFA0546114F4FF498
:10EA2000807007EB850100EB8500D1F8102580B2DE
:10EA300042F00102C1F8102500F0D0F8B8F1000F43
:10EA400009D04846FEF7C4FA56F82000002802D044
:10EA5000AC40C7F80443BDE8F0870000D827002089
:10EA600010050050006000402DE9FC41DFF8A48053
:10EA7000044608EB0400002790F930001346C01745
:10EA80000E46401C01D0082740E0F2781946204687
:10EA9000FEF77AFA0546401C37D0B07848B1A0009E
:10EAA00000F1A040D0F8001721F00201C0F80017D3
:10EAB00007E000217378204600910A46019100F09A
:10EAC0006DF8F078C0B11448317800EB8500D0F8CB
:10EAD0001025124B1A40C0F810254FF4F8524FF48D
:10EAE000403302EA042203EA01410A43D0F8101538
:10EAF0000A43C0F8102509E008EB0500327810F849
:10EB0000481F41EA8211017000E004273846BDE841
:10EB1000FC810000D827002000600040FFE0FCFFDF
:10EB200003490968C14011F0010000D0012070477D
:10EB30001005005070B5124D95F8540008B108202A
:10EB400070BD0020411E2A18401CC0B282F830104F
:10EB50002028F8D300242046FEF708FA641CE4B20B
:10EB60000C2CF8D303210620FFF710FF05494FF0C6
:10EB70000040C1F80403012085F85400002070BD56
:10EB8000D827002000600040034890F85400002877
:10EB900000D0012070470000D827002030B541EA9E
:10EBA0004201DDE9034541EA8301800041EA042195
:10EBB00000F1A04041EA0541C0F8001730BD8000D7
:10EBC00000F5E06000F1A040026822F440320260EB
:10EBD000026842EA0141016070470000034908B53C
:10EBE0000844002101600068009008BD00600040FA
:10EBF00002494058012800D00020704700600040C2
:10EC00004058002800D001207047D0F80403084085
:10EC100000D0012070474058002800D001207047E4
:10EC200010B588B1012804D0032804D004280FD1DE
:10EC300002E0052000E00220FDF7DEFF002807D0FB
:10EC4000BDE81040FDF7A4B8BDE8104000F080BB5F
:10EC500010BD000070B501781D4C062916D2DFE802
:10EC600001F02115212B032740880225A0F528510A
:10EC700045390CD0491E09D12078012806D10D2034
:10EC8000FDF7BAFF08B1FDF783F8257070BD607815
:10EC90000128FBD10E20FDF7AFFF08B1FDF778F892
:10ECA000657070BD00F0A2FCBDE87040FCF7E4BFE9
:10ECB000BDE87040FEF7DCBB002020706070FDF7FF
:10ECC0009BFF0028EDD0BDE87040FDF761B8000063
:10ECD000001F002070B505460088134C10280ED088
:10ECE000112815D03A2801D0552810D11321A08819
:10ECF00076DF00280BD0BDE87040FDF749B807204B
:10ED0000FDF77AFF08B1FDF743F8A888A08070BD31
:10ED10000020FDF771FF08B1FDF73AF84FF6FF70DC
:10ED2000A080FDF7BDFCE4E7001F00200021425C4D
:10ED30000AB101207047491C0629F8D3002070470A
:10ED400070B50546C0EBC5010B4800EB81040020FF
:10ED5000C4F81100A4F8150020461021FCF7C1FBEF
:10ED6000FF202074A0764FF6FF7020832846BDE870
:10ED7000704000F067BE0000B82600200449084437
:10ED800090F93000082801DB01207047002070470F
:10ED9000D82700200449084490F93000082801D2FF
:10EDA0000120704700207047D827002006490979C4
:10EDB000490701D40820704720B10449497801600F
:10EDC000002070470E207047901F00205028002020
:10EDD00070B5124B1B795B0701D4082070BDB8B128
:10EDE000B2B10368022B11D20D4C03EB430554F86A
:10EDF00025605EB1466804EB85000489456840895A
:10EE000001FB046100FB0450884203D8072070BD59
:10EE10000E2070BDC2E90031002070BD901F00209F
:10EE20001C290020F8B5044623480E460079400707
:10EE300001D40820F8BD24B32068022831D21F4D28
:10EE400000EB400055F8201059B305EB80004289D3
:10EE50004168008902FB00116068814221D9FFF7F7
:10EE600081FB80B1D4E9000200EB400005EB80009B
:10EE700043680189D51AB5FBF1F701FB175585B930
:10EE800003E00E20F8BD1020F8BDB6FBF1F501FB44
:10EE9000156535B92EB1408941439019194488420E
:10EEA00001D90720F8BD00200246009033462146D4
:10EEB0000320FEF76DF9F8BD901F00201C290020EB
:10EEC00010B54FF010204469601C04D000F007F822
:10EED000B4FBF0F010BD4FF08050406910BD4FF012
:10EEE0008050006980B2704770B5154800242546EF
:10EEF000047044702846FEF73BF96D1C0A2DF9D3C7
:10EF0000104D6C80FFF7DCFFC61EFFF7E8FF46439D
:10EF10000B490020AE60CC31C5F8144000EB400234
:10EF2000401C41F8224001EB8202022814815481E6
:10EF3000F4D32C70AC610420EC616860002070BDDB
:10EF400050280020901F00202DE9F84380462648D5
:10EF50001F46164600790C46400702D40820BDE83B
:10EF6000F883ECB1B8F1000F1AD02068022815D24E
:10EF70001E4D00EB400055F8201079B105EB8000E4
:10EF800042894168008902FB00116268914205D9FB
:10EF900026B1B04202D3F119814203D90720DEE73E
:10EFA0000E20DCE74046FFF7DDFAD0B13846FFF728
:10EFB000D9FAB0B16068FFF7D5FA90B1606832460F
:10EFC000C1194046FCF774FA00962068002200EB55
:10EFD0004000434655F8205002212046A847002013
:10EFE000BDE71020BBE70000901F00201C29002077
:10EFF0002DE9F041294D04460E462879400702D4F8
:10F000000820BDE8F081ECB1E6B12068D0B1FFF78F
:10F0100066FF0146A088814212D3102810D3E088F1
:10F0200070B1FFF74DFF471EFFF759FF4743E288D6
:10F03000A188A86802FB0102974201D3890703D087
:10F040000720DEE70E20DCE76988022924D0C6E924
:10F050000010134A01EB410302EB83014860206872
:10F0600042F82300A0880881E0884881FFF737FF35
:10F07000A188E288401E01FB0204FFF730FF94FBE9
:10F08000F0F4FFF72CFFA96804FB0010A860688863
:10F09000401C68800020B4E70420B2E7901F0020E5
:10F0A0001C290020F8B504461E481E461546007966
:10F0B0000F46400701D40820F8BDDFB1D4B1206865
:10F0C000022815D2184900EB400051F820207AB1EF
:10F0D00001EB800042894168008902FB00116268EF
:10F0E000914205D925B1A84202D3A919814203D979
:10F0F0000720F8BD0E20F8BD3846FFF733FA78B187
:10F100003046FFF72FFA58B16068FFF72BFA38B195
:10F110002B463A46214601200096FEF739F8F8BD05
:10F120001020F8BD901F00201C2900201049024625
:10F13000087800281AD0042818D0022A14D0032AEC
:10F1400014D10A7912070FD48A69521C8A61B2F568
:10F150007A7F06D0022801D000F00EB9487800F07E
:10F160006FBA0D20FCF73ABEFFF704B870470000F5
:10F17000901F0020F8B504461E481E46154600792B
:10F180000F46400701D40820F8BDDFB1D4B1206894
:10F19000022815D2184900EB400051F820207AB11E
:10F1A00001EB800042894168008902FB001162681E
:10F1B000914205D925B1A84202D3A919814203D9A8
:10F1C0000720F8BD0E20F8BD3846FFF7CBF978B11F
:10F1D0003046FFF7C7F958B16068FFF7C3F938B197
:10F1E0002B463A46214604200096FDF7D1FFF8BD94
:10F1F0001020F8BD901F00201C29002070B50126AA
:10F2000070044FF0E0210025C1F88001084C401047
:10F21000C4F84803C4F8080366602F20FCF7FAF826
:10F22000A660044C2F202561FCF7F4F8E57070BD52
:10F2300000100140C81F002009480A490022C37D70
:10F24000C1F8082143B1D1F81815437EC268D154E2
:10F25000417E491C41767047D1F81805704700007F
:10F2600030280020002000401FB501228DF8080042
:10F2700004488DF800200191D0E9001268469047BB
:10F280001FBD00003028002008B502490020009171
:10F2900008BD0000001F00202DE9F0410746806AEC
:10F2A00014468846C8B3002531E000BFB96A05EBB3
:10F2B000450001EB8006B088801CFE2802D90C2096
:10F2C000BDE8F0812288401C08F802002088162240
:10F2D000401C80B2208008F800202088401C80B2AA
:10F2E000208000EB0801308800F0A6FB218808444C
:10F2F00080B22080B28842B1B16871B14044FCF75D
:10F30000D7F82088B188084420806D1CEDB297F8AA
:10F310002C00A842CAD80020D2E7FFE70720CFE799
:10F3200038B5044601218DF8021041F61100ADF800
:10F33000000020896A4690DF010003D02046FFF7D5
:10F340005DF838BD01490220087038BD481F002013
:10F3500010B50020FDF750FC08B1FCF719FDFDF7D2
:10F3600043FB08B1FCF714FD3CDF002803D0BDE8E7
:10F370001040FCF70DBD10BD0C49087040B10128CC
:10F380000FD002280FD003280FD14869FEF738BFED
:10F3900000208861C86106484078002805D0FDF744
:10F3A000CDBE00F0F5B800F051B87047901F0020B6
:10F3B0005028002018B10349C860002070470E2073
:10F3C00070470000E81F00201CB50349019100911F
:10F3D000694660DF1CBD0000001F002070B50E46AE
:10F3E0000546144614211046FCF77BF801202080C6
:10F3F0000021216121732672657205B1A07200207F
:10F4000070BDFCF7B3BC000070B509B18C0701D02A
:10F41000072070BD064C0125A1606280054963602C
:10F4200010DF0028F5D1257016202EDF70BD0000FA
:10F43000E81F002003F4010018B10349086100200F
:10F4400070470E2070470000E81F00202DE9F041B2
:10F45000164C606820F0010060601548017801EBEF
:10F46000810100EB81063569FFF739FDB5FBF0F747
:10F470006761FFF734FDF1886D1E2944B1FBF0F0A0
:10F480008742606802D140F0020001E020F00200F3
:10F4900060602079E16800F00200084304D0002099
:10F4A000BDE8F04100F0CCB80220F9E7901F002041
:10F4B0005028002001484069FEF7A2BE901F00209E
:10F4C00010B5FFF7FDFC441EFFF709FD4443FFF7AD
:10F4D00006FD05494A69521E5043CA682146BDE8E7
:10F4E0001040FEF790BE0000901F00202DE9F04173
:10F4F0001048017801EB810100EB81042569FFF7D9
:10F50000EEFCE188228911442944B1FBF0F200FBB2
:10F510001216FFF7D5FC471EFFF7E1FC07FB006161
:10F52000E08822891044044A28441269BDE8F04169
:10F53000FEF769BE50280020901F002010B5FFF78D
:10F54000BFFC441EFFF7CBFC4443FFF7C8FCB4FBF1
:10F55000F0F0BDE81040FEF753BE000070B5FFF7B5
:10F56000BEFC8608FFF7BBFC0749496900FB01F4B4
:10F57000FFF7A6FC451EFFF7B2FC68433246214662
:10F58000BDE87040FEF73FBE901F0020002070478E
:10F5900070B51448017801EB810100EB8104241D52
:10F5A000FFF79DFC6188104E884211D2FFF797FC4F
:10F5B00061880D1AFFF793FC8208A188E06808446F
:10F5C000216928442944FEF71EFEFFF788FC07E066
:10F5D000A288E06810448A082169FEF714FE60885A
:10F5E000F06170BD50280020901F002010B5084821
:10F5F000FCF788FF08B1FCF7CBFB0548FDF766F880
:10F60000002803D0BDE81040FCF7C2BB10BD0000CD
:10F610001022002004480079000702D4012000F0E5
:10F620000FB800F003B80000901F002003484168A5
:10F6300021F008014160407800F002B8901F0020DE
:10F6400002494870024951F820000047901F0020ED
:10F6500070FC010010B50446FFF768FD2046BDE8C8
:10F660001040FCF791BD000003480079000701D469
:10F67000FDF754BDFFF7DABF901F00202DE9F84FCA
:10F68000204C00256846D4E903B6FEF7F7FB804618
:10F69000FEF7A2FF0746A946B8F1000F25D00023C8
:10F6A000009ACC46E06819E007680146974202D903
:10F6B000BA1A026014E0C1F800C0D1F80C80D21B65
:10F6C000C8693B448A46B8F1000F07D0F71827F005
:10F6D0007F47C1E90178CAF81C500D460028E3D1E4
:10F6E000E0602846FEF7D6FF04E02846FEF7D2FF8A
:10F6F00000B917B15846FDF795FD84F80490BDE8B0
:10F70000F88F0000C81F00200D4B10B5D96831B12B
:10F7100002680C68A24204D8A21A0A60C161D860CB
:10F7200010BD0B4603E00B46C969121B21B10C68E2
:10F730009442F8D3A41A0C600260C161D86110BD74
:10F74000C81F00202DE9F0411D4DEC68002C35D07C
:10F750001C48002700682969B846401A20F07F46F7
:10F760002068B04215D82246361A0744E469107C56
:10F7700068B182F810806B6933B1D2E9050198470E
:10F7800028B1FCF705FB02E0D2E905108847002C00
:10F79000E6D16978A878814206D1401CC0B2A87031
:10F7A000022801D185F802800548A978183040F870
:10F7B0002170BDE8F0411420FBF756BFBDE8F08191
:10F7C000C81F00200415014010B50F4CD4E90110EA
:10F7D000884212D000EB80020C4800EB82018B784B
:10F7E000012B0BD030F82200083198DF002804D11B
:10F7F000207A401C00F00700A06010BD30F8220005
:10F800008988002296DFF1E7481F0020A823002006
:10F81000064A0020C2F81C010548838A8168C95C39
:10F82000838A5B1C8382C2F81C157047002000404D
:10F83000302800201FB500218DF8080005488DF8FC
:10F840000010826801928175D0E9001268469047E5
:10F850001FBD0000302800202DE9FF413E4D4FF430
:10F8600000712846FFF7D1F901273C4C4FF401788D
:10F87000002600B34FF492712846FFF7C1F9D0B1CA
:10F88000C5F82461C5F80883A07E00B96F60022026
:10F890008DF80000D5F88004C5F880040390E07D61
:10F8A0008DF80800E0680190E6752676D4E900122C
:10F8B0006846904724E004212846FFF7A6F9F8B1EE
:10F8C0004FF484712846FFF79BF9C8B1FFF7B4FCE9
:10F8D000E07D617E884213D1227E3AB1607EE1688C
:10F8E000E2752269E2602676667607E0A07E00B9BE
:10F8F0006F60C5F80883E675607EE168FFF7B4FCC9
:10F900004FF48E712846FFF77BF958B1A18AA07D8C
:10F91000814202D2FFF77CFF04E0C5F81C6108B108
:10F92000FFF788FF4FF4A2712846FFF769F9002816
:10F930000FD0C5F84461A07E00B12F60E07D0028A3
:10F9400007D0E675607EE16804B0BDE8F041FFF7DE
:10F950008BBCBDE8FF810000002000403028002063
:10F960007FB5334C4FF492712046FFF754F9314D77
:10F970000026B0B1C4F8246102208DF80000D4F84C
:10F980008004C4F880040390D4F83C058DF8080086
:10F99000E8680190EE752E76D5E90012684690472A
:10F9A0001FE04FF488712046FFF735F9C8B1C4F85D
:10F9B0001061D4F83C05E97DC0B2814211D12A7EA4
:10F9C0005AB1E968D4F8003223F02003C4F80032B9
:10F9D000EA752A69EA602E7601E0EE75E968FFF7BC
:10F9E00043FC4FF4A2712046FFF715F950B1C4F85B
:10F9F0004461E87D30B1EE75D4F83C05E968C0B2E9
:10FA0000FFF732FC4FF490712046FFF704F900280D
:10FA10000CD0C4F82061A87D002807D0D4F84C058C
:10FA200004B0C0B2BDE87040FFF704BF7FBD000066
:10FA300000200040302800200870000A4870022092
:10FA40007047000001218140024842688A434260B9
:10FA500070470000781F002038B515494888A0F588
:10FA60007F42FF3A23D04A78124C521CD2B24A70DD
:10FA7000237B93420AD3091D75DF002817D0A169A3
:10FA8000002914D001B0BDE83040084700254D7072
:10FA9000217C29B13B2176DF10B1A16901B18847F2
:10FAA0006169002903D08DF800506846884738BD49
:10FAB000641F00209C2600200F480068C005C00D70
:10FAC00013D0103840B2002806DA00F00F0000F121
:10FAD000E02090F8140D03E000F1E02090F800041D
:10FAE0004009012803D0032803D0022070470020DA
:10FAF000704701207047000004ED00E042788378F1
:10FB0000521CD2B2934200D100220378934201D119
:10FB1000002070470A704168407800EB400001EB1C
:10FB2000C00070472DE9FC411646DDE90854CDE9D7
:10FB300000541F468046022200F00CF8002807D12E
:10FB4000CDE900543B4610223146404600F002F811
:10FB5000BDE8FC812DE9FC5F0026DDE90C4B9946F0
:10FB600092468E4680462788354630E0D8F8040015
:10FB7000002200EB850069460068019001A865DF5E
:10FB8000002830D19DF8000050451FD10EB1002152
:10FB900000E00221228808441118594522D846B9AC
:10FBA000521C90B2208009F800E02088401C208080
:10FBB0000126218801A801EB0902694665DF0028BA
:10FBC00011D120889DF80010084420806D1CB8F8E1
:10FBD0000000A842CADC56B12088C01B401E80B27B
:10FBE000FF2802D90C20BDE8FC9F09F8070000207F
:10FBF000F9E7017911B9007B002800D00120704796
:10FC00003822002058220020842200200D0000000D
:10FC10000E0000000F000000100000000D000300A7
:10FC2000FDC901000E000300FDC901000F00030023
:10FC3000FDC9010010000300FDC901007C26002061
:10FC400089E90100EDE2010015E20100A1E30100F4
:10FC500085E90100BDE2010011E201009DE3010020
:10FC600081E9010019E201000DE2010099E30100C0
:10FC70003DF501005DF50100B5F40100EDF4010072
:10FC8000C1F4010015F6010019D50100C5D4010029
:10FC900069F601001DE40100342900200300000082
:10FCA000C0FC0100001F0020000100005CB9010041
:10FCB000C0FD010000200020582900006CB901009F
:10FCC00000000000FFFF0000000000000000000036
:10FCD0000000000000000000000000000000000024
:10FCE0000000000000000000000000000000000014
:10FCF000FFFF000000000000000000000000000006
:10FD000000000000000000000000000000000000F3
:10FD100000000000000000000000000000000000E3
:10FD200000000000000000000000000000000000D3
:10FD300000000000000000000000000000000000C3
:10FD400000000000000000000000000000000000B3
:10FD500000000000000000000000000000000000A3
:10FD60000000000000000000000000000000000093
:10FD70000000000000000000000000000000000083
:10FD80000000000000000000000000000000000073
:10FD90000000000000000000000000000000000063
:10FDA0000000000000000000000000000000000053
:10FDB0000000000000000000000000000090D003E0
:040000050001B40141
:00000001FF
