:020000040001F9
:10B00000084A002039B5010041B5010043B50100EF
:10B0100045B5010047B5010049B501000000000039
:10B020000000000000000000000000004BB501001F
:10B0300000000000000000004DB501004FB5010008
:10B0400051B5010051B5010059BA010051B50100D7
:10B0500051B5010051B5010049B6010051B50100DB
:10B0600051B5010051B5010051B5010051B50100C4
:10B0700051B5010051B5010051B5010051B50100B4
:10B0800051B50100B1B7010051B5010051B5010042
:10B09000D5B7010051B50100D9B7010051B5010084
:10B0A00051B5010051B5010051B5010051B5010084
:10B0B00051B5010051B50100000000000000000082
:10B0C00051B5010051B5010051B5010051B5010064
:10B0D00051B5010051B50100000000000000000062
:10B0E0000000000000000000000000000000000060
:10B0F0000000000000000000000000000000000050
:10B10000000000000000000000000000000000003F
:10B11000000000000000000000000000000000002F
:10B40000DFF80CD000F0F0F800480047A5F101008B
:10B41000084A0020401E00BF00BF00BF00BF00BFA1
:10B4200000BF00BF00BF00BF00BF00BF00BF00BF24
:10B4300000BF00BF00BF00BF00BF00BF00BF00BF14
:10B4400000BF00BF00BF00BF00BF00BF00BF00BF04
:10B4500000BF00BF00BF00BF00BF00BF00BF00BFF4
:10B4600000BF00BF00BF00BF00BF00BF00BF00BFE4
:10B4700000BF00BF00BF00BF00BF00BF00BF00BFD4
:10B4800000BF00BF00BFC5D170470000401E00BF15
:10B4900000BF00BF00BF00BF00BF00BF00BF00BFB4
:10B4A00000BF00BF00BF00BF00BF00BF00BF00BFA4
:10B4B00000BF00BF00BF00BF00BF00BF00BF00BF94
:10B4C00000BF00BF00BF00BF00BF00BF00BF00BF84
:10B4D00000BF00BF00BF00BF00BF00BF00BF00BF74
:10B4E00000BF00BF00BF00BF00BF00BF00BF00BF64
:10B4F00000BF00BF00BF00BF00BF00BF00BFC5D17D
:10B5000070470000056885F308884068FF2464B22E
:10B51000EFF30585002D01D1A646004725460646D6
:10B5200021273FBAF0B40024002500260027F0B4FC
:10B53000F92040B20047000006488047064800470F
:10B54000FEE7FEE7FEE7FEE7FEE7FEE7FEE7FEE7D3
:10B55000FEE70000FDB7010001B4010010B5431A79
:10B56000934209D28318881803E010F8011D03F8EC
:10B57000011D521EF9D210BD40EA01039B0703D002
:10B5800009E008C9121F08C0042AFAD203E011F822
:10B59000013B00F8013B521EF9D210BDD2B201E0CE
:10B5A00000F8012B491EFBD270470022F6E710B5C8
:10B5B00013460A4604461946FFF7F0FF204610BD21
:10B5C000421C10F8011B0029FBD1801A704730B5CE
:10B5D00004460020034600E05B1C934203D2E05C7B
:10B5E000CD5C401BF8D030BD064C074D06E0E0684E
:10B5F00040F0010394E8070098471034AC42F6D3BA
:10B60000FFF702FF680A0200880A020030B58C18B2
:10B6100010F8012B12F00F0301D110F8013B1209B1
:10B6200006D110F8012B03E010F8015B01F8015B73
:10B630005B1EF9D101E001F8013B521EFBD1A14292
:10B64000E6D3002030BD00002DE9F0470025DFF8EB
:10B65000F090A8464FF4807601242F46304603F040
:10B66000F3FF38B1D9F80403204203D0304603F089
:10B67000E1FF2543361D64007F1CB6B2082FEDD3D1
:10B680004FF4BE74204603F0DFFF38B1204603F0CC
:10B69000D1FF2C4845F00045D0F800802A4E15F027
:10B6A000FF0F14D0012700242F420CD009EB840196
:10B6B000D1F81005D1F81015C0F3042056F8242055
:10B6C000C1F3014190477F00641C082CECD3002D8E
:10B6D00032DA0024B14609EB04004E4690F95010CE
:10B6E000491C26D090F8507027F0C005284601F07C
:10B6F000B9FE56F82060E6B1BF090120A840A900B4
:10B7000001F1A041D1F8001710EA080FC1F301417F
:10B7100002D0022902D00CE003290AD1032F05D15F
:10B7200002290BD00221284603F075FF394628462E
:10B73000B047641C042CCED3BDE8F0870321F2E7A8
:10B740000060004010050050C026002000F01F02DD
:10B75000012191404009800000F1E020C0F88012F2
:10B76000704700F01F02012191404009800000F164
:10B77000E020C0F80011704700F01F020121914045
:10B780004009800000F1E020C0F80012704749072E
:10B79000090E002806DA00F00F0000F1E02080F822
:10B7A000141D704700F1E02080F80014704700007D
:10B7B00007480021C0F84011C0F84411C0F84811F2
:10B7C000C0F84C11C0F80011C0F8041104F072BEAA
:10B7D0000010014004F00ABE074810B5406830B1BF
:10B7E0008047002807D0BDE8104000F0FCBABDE853
:10B7F000104003F071BB10BD54200020F0B58C4800
:10B800000022041D0378211D081D0126062B17D1D7
:10B8100025782D0714D10D78C5F30315032D03D119
:10B82000077817F0F00F0ED0042D03D1077817F02A
:10B83000F00F08D0052D03D1057815F0F00F02D0D8
:10B84000062B09D014E04FF08055D5F84452794FBB
:10B85000C5F342353D6002E025782D0708D10D780B
:10B86000C5F30315032D03D1057815F0F00F02D0B1
:10B87000062B06D01DE0704D2F6827F080772F60D3
:10B880001AE025782D0714D10D78C5F30315032D83
:10B8900003D1077817F0F00F0ED0042D03D10778ED
:10B8A00017F0F00F08D0052D03D1057815F0F00F33
:10B8B00002D0062B0AD015E04FF08045C5F80C21C8
:10B8C000C5F810215B4D2D1F2A6002E025782D0759
:10B8D00008D10D78C5F30315032D03D1057815F0B4
:10B8E000F00F02D0062B05D066E0524C03236434DF
:10B8F000236002E023781B075ED10978C1F30311AE
:10B90000052959D1007810F0F00F55D14B48006847
:10B910004B4908604948001D0068091D08604748F8
:10B9200008300068091D086044480C300068091D93
:10B930000860424810300068091D08603F48143014
:10B940000068091D08603D48183000683C492031F6
:10B9500008603A481C300068091D086037482030EC
:10B960000068091D0860354824300068091D08601A
:10B97000324828300068091D086030482C300068C3
:10B98000091D08602D48303000682D49403108609D
:10B990002A4834300068091D08602848383000689B
:10B9A000091D086025483C300068091D08602348CF
:10B9B00040300068091D08601F487438016841F470
:10B9C00070010160BFF34F8FBFF36F8F4FF01021F5
:10B9D000D1F80002002803DBD1F80402002822DAA3
:10B9E000184B1E6018480468002CFCD01524C1F8C0
:10B9F00000420568002DFCD0C1F80442016800290E
:10BA0000FCD01A6001680029FCD0BFF34F8F0A48B0
:10BA1000F03801680D4A01F4E06111430160BFF3A1
:10BA20004F8F00BFFDE70B4909480860F0BD0000DB
:10BA3000E00F00F03C050040FCED00E004040010C5
:10BA400020C5004004E5014000E401400400FA057F
:10BA50000090D003682000200348007F08B104F064
:10BA600051BE04F0CBBD00001827002002E008C83A
:10BA7000121F08C1002AFAD170477047002001E068
:10BA800001C1121F002AFBD170472DE9FC5F002580
:10BA9000168807461580406B14468946A8464FF025
:10BAA0000C0A11234FF0020B98B101784846032E7F
:10BAB00048D380F800B02288521C92B2228083546E
:10BAC0002288521C92B2228009F802102088401C61
:10BAD00020803A6BDAB12088494600F11205B54260
:10BAE00030D80B5420881023401C80B220800B5487
:10BAF0002088401C20800F202388155C401ECD54D8
:10BB0000238840B25B1C23800028F5DA454697F86D
:10BB10002E0030B133462246494603F04BFA050069
:10BB200011D197F82D0030B132462146484600F039
:10BB300079FE050007D1B87820B32088C846001DDB
:10BB4000B04202D95046BDE8FC9F684679DF002824
:10BB5000F9D12188032008F8010020881921401C10
:10BB600080B2208008F800102088401C80B220801D
:10BB700000EB0801BDF8000004F030FE014620880B
:10BB800008442080F878B8B1228897F90310D31CB4
:10BB90004846B342D6D800F802B022880123521C8E
:10BBA00092B2228083542288521C92B2228009F8D9
:10BBB00002102088401C20807868B8B1218890F954
:10BBC0000020CB1C4846B342BCD800F801B0218805
:10BBD0000A23491C89B2218043542188491C89B217
:10BBE000218009F801202088401C2080388950B12C
:10BBF000CDE900464B460622022107F1080004F079
:10BC000063FE05009FD1388A50B1CDE900464B460E
:10BC10000722032107F1100004F056FE050092D11F
:10BC2000388B50B1CDE900464B461522142107F15F
:10BC3000180004F049FE050085D1386A30B133465A
:10BC40002246494601F0BEFD0500DBD1786A30B1DD
:10BC500033462246494603F031FB0500D2D197F81E
:10BC60002C0038B1334622464946384604F01CF9C8
:10BC70000500C7D1387838B13346224649463846A0
:10BC800003F04EFB0500BDD128465CE710B501224C
:10BC90000221002001F000FA08B1072810D1072284
:10BCA0000221012001F0F8F908B1072808D100218C
:10BCB0000A22084601F0F0F908B1072800D1002057
:10BCC00010BD0000064800684FF40021044A81437B
:10BCD000121D1160111D00F4002008607047000063
:10BCE0000405005070B50024064D06E06868012187
:10BCF00010F8340003F092FB641C28788442F5D3DA
:10BD0000002070BD18200020F8B515460C460646E8
:10BD1000052A01D20720F8BD03F062FC18B903F030
:10BD200035FC0028F7D1104900204E600C70C1E9A5
:10BD300002500E4D08610DE006EBC40069680091E9
:10BD400081788DF801100078094A694603F0B8FB44
:10BD50000028E0D1641EE4B2EED2BDE8F840054A06
:10BD60000021024800F078B818200020600A020084
:10BD700061EC010075D901003EB504460420019034
:10BD8000174802906946204602F0B0F838B1A0F595
:10BD90000041403902D000BF00F025F83EBD1048F8
:10BDA0000C38017BC90715D04FF6FF720C21808833
:10BDB000A7DF78B1A0F5405102390BD0082809D08F
:10BDC000891E07D0112805D043F20141884201D0D5
:10BDD00000F009F8204602F03FF80028DCD13EBD13
:10BDE0000C1F002070470EB500210091CDE9011015
:10BDF0006A4644F20100FFF7F5FF0EBD014B1B68D8
:10BE0000184700009C26002038B50C46074BA26856
:10BE1000097802EB420253F82250054A126A009256
:10BE2000024604F108002369A84738BD9429002080
:10BE3000F41F0020074910B50A7802EB820201EBDB
:10BE40008201091DFFF7E0FFBDE81040042004F067
:10BE50003FB9000038270020074B9B6823B12AB167
:10BE600020B10068037C1BB1082070470720704791
:10BE700041744261002070472C2000202DE9F047DA
:10BE80008046994614460F4690074FF0000634D17D
:10BE90001C4D8CB303F04AFF0320C5F814902870A2
:10BEA00004F11800002107EB4703AC6004EBC1026A
:10BEB000491C167056709770506000EBC300032940
:10BEC000F4DBEE606E70AE701420FFF73FFC0321D0
:10BED0001420FFF75CFC1420FFF743FC0A49C1F86B
:10BEE000008003211120FFF752FC0748001F006863
:10BEF00028610020BDE8F08701E00720FAE7AE6086
:10BF0000FBE700002C200020081501402DE9F84334
:10BF1000DFF870900D461746D9F80810044651B363
:10BF20004CB3052D02D20720BDE8F883606910B339
:10BF3000607C012821D0002604F090FCD9F808107C
:10BF4000804601EBC800694604F0AAFCB8B10121A3
:10BF500000F8041B0C4910C0096880E8E200D9F819
:10BF6000081001EBC8009DF8001041701420FFF785
:10BF700003FC0020D8E70820D6E72E46DCE70420A3
:10BF8000D2E700002C20002004150140F8B5124E25
:10BF90000446B168E1B1DCB16069C8B1002727741B
:10BFA00004F05CFC0546B068694600EBC50004F08F
:10BFB00077FC78B1022101704460B0689DF80010F0
:10BFC00000EBC50041701420FFF7D6FB3846F8BDE2
:10BFD0000820F8BD0420F8BD2C20002010B5144C1A
:10BFE00000224FF480312068FFF790FF08B1FFF77F
:10BFF000FAFE00224FF400416068FFF787FF08B1A6
:10C00000FFF7F1FE002242F26661A068FFF77EFFB3
:10C0100008B1FFF7E8FE00224FF42031E068FFF797
:10C0200075FF002803D0BDE81040FFF7DCBE10BD4F
:10C03000A40902002DE9F0430546007D93B00E46A9
:10C040000024A0B107949DF81C0020F00F00401CB4
:10C0500020F0F00010308DF81C00707B8DF81D0072
:10C060009DF81E0020F00600801C8DF81E001C218B
:10C070006846FFF79AFA9DF8000040F002008DF83C
:10C080000000297D11B140F0100001E020F0100007
:10C090008DF80000019403940494287D00B107A852
:10C0A000CDE9050401278DF8427042F61920ADF85C
:10C0B00040000D94B07B8DF83400F07B8DF8350096
:10C0C0009DF83600142120F00600801C20F0190095
:10C0D0008DF83600307B8DF8440008A8FFF765FA2C
:10C0E0000DF140080DF13409ADF8287011A8CDE923
:10C0F0000889ADF82A40ADF82C700C90A888AB1DCB
:10C1000008AA6946A2DF002838D1B06898B38DF834
:10C11000427042F60810ADF840000D94307C8DF866
:10C1200034009DF8350020F0FF008DF835009DF8B3
:10C13000360020F00600801C20F019008DF8360033
:10C140000EA8B16800F0CAFD0646142108A8FFF742
:10C150002CFAADF828600EA8CDE90889ADF82A4080
:10C16000ADF82C600C90E88805F10E0208A9A3DF59
:10C17000002803D101E0FFE7EC81002013B0BDE807
:10C18000F083000010B50D490D4803F080FEC1B2E8
:10C190000A48683800F042FA00280DD008280BD071
:10C1A000A0F54051043907D043F20141884203D041
:10C1B000BDE81040FFF717BE10BD0000642300204B
:10C1C000101F0020F0B50C4693B01F210726ADF8D4
:10C1D0000010ADF80410002750B1C17849070DD503
:10C1E0006A4602A9FFF751FC002808D102AD02E01F
:10C1F0000025ADF800706CB1E07810B1304613B096
:10C20000F0BD01AA0AA92046FFF73FFC0028F6D19D
:10C210000AAA02E00022ADF80470BDF80400C3B21F
:10C22000BDF80000C1B2284672DFE8E770B50D46E0
:10C2300004991646040040D0F6B3414800224271EA
:10C24000C0E90331242231463E48FFF787F900F068
:10C25000D5F83C493431A1F11000016020318160F2
:10C2600038215C38FFF7A1F9364821783838017059
:10C27000A1788170E178C17061784170D4E90412CD
:10C28000C0E90412D4E90212C0E90212D4E906128C
:10C29000C0E90612616AD1B100F1AC0100F1B80247
:10C2A00041628A60636A1B880B80616A436A89887D
:10C2B00099800021436A07E0FFE70E2070BD666A9F
:10C2C000B668765C5654491C9E888E42F7D8A16A9F
:10C2D000D9B11C4AAC32A2F10C018A608162A36A16
:10C2E0009B888B80A16A836A098819800021836AF0
:10C2F00004E0A66AB668765C5654491C9E888E4255
:10C30000F7D894F82C1080F82C10216A49B10C4908
:10C3100014310162226A52884A80216A026A0988BD
:10C320001180616821B10649891D416061684160E1
:10C330002946BDE8704003483838FFF743BF000086
:10C34000541F00206824002010B502881D4C102ABC
:10C3500018D00021112A1BD0192A18D18079002861
:10C3600015D16079012820D0022824D0032824D0B8
:10C3700004280CD12171E2680846002A07D0BDE8E4
:10C3800010401047017D012901D18088208110BD16
:10C390006170808821898842F9D1012006E02169F5
:10C3A0000029F4D0BDE810400847022000F04AF808
:10C3B0000028F4D110BD0320F8E7032020710420E9
:10C3C000F4E70000541F002010B5022801D0032814
:10C3D00010D1094C207800280CD000202070607902
:10C3E00000F030F8002805D02169002902D0BDE80E
:10C3F0001040084710BD0000541F002002480021D3
:10C400008161818381777047541F00200B4810B5EC
:10C410000078012810D10A4C607868B9607910B1B1
:10C4200074DF002809D101206070607900F00AF8FB
:10C4300010B1216901B18847002010BD6824002097
:10C44000541F00202DE9F04F724C87B00026607118
:10C4500006A8069603F008FA0127082805D0002848
:10C4600071D1069810B12770C0E00696FFF7C6FF9D
:10C47000694D687810B16079012804D0A87848B176
:10C480006079022806D1E16819B1E7700820884771
:10C4900000E0E6706079DFF87C814FF0020A08F175
:10C4A00018084FF0030B012806D1687840B108F155
:10C4B000010003F07DF918B16079022802D00AE08A
:10C4C00084F805A0A87820B108F1010003F070F904
:10C4D00008B984F805B0287B4FF0040920B96079C9
:10C4E000032801D184F80590287E20B960790428BA
:10C4F00001D166712671E16841B16079032801D0EC
:10C50000042803D1287808B16078C0B1A67018213A
:10C510006846FFF74AF88DF8006001968DF80860CC
:10C520000396607901280FD0022817D03A4E24369E
:10C53000A6F15C0703281ED004284DD13BE0A7706C
:10C5400007208847E3E752E0ADF81260CDF8048099
:10C550008DF80070ADF8106027713FE0CDF80480D1
:10C560008DF800702889ADF81200A888ADF8100089
:10C5700084F804A032E0A88AADF81200288AADF849
:10C5800010002548243004F006FA18B1287808B1C4
:10C59000607810B184F804B01EE01F488DF808A040
:10C5A000039687F8039000213838FFF70BFE002828
:10C5B0001DD105202BE0A88BADF81000288CADF81C
:10C5C00012001548243004F0E6F918B1287808B1B3
:10C5D000607878B184F80490607918B1684673DFA8
:10C5E000002804D1E16809B120798847002007B00C
:10C5F000BDE8F08F08488DF808A0039687F80390EF
:10C6000000213838FFF7DEFD0028F0D10620207128
:10C61000E2E70000541F00206824002073B586B0B4
:10C62000040034D0217C9DF81C20002091422CD0A5
:10C63000002501260095ADF8006007A8ADF802506E
:10C640000190E188608A6A46A4DF00281DD19DF828
:10C650001C002074608AA0F57F41FF3919D0207D2D
:10C66000B8B10295039504950595E088ADF80800EA
:10C67000BDF80200ADF80C0001988DF80A60CDF805
:10C6800010D00590608A02A9A6DF08B070BD0E2008
:10C69000FBE70820F9E738B50D4604001BD0D5B1FB
:10C6A000286820604FF6FF70608228792075FF208F
:10C6B000207401208DF8020041F60F00ADF8000053
:10C6C000221D69460120A0DF002803D1294620460B
:10C6D000FFF7B0FC38BD0E2038BD08B5002821D0CA
:10C6E00000291FD00A88102A17D0112A17D0502AE3
:10C6F00018D1027D002A15D031F8062F43899A42BD
:10C7000010D10A8B022A0DD10268002A0AD0897E34
:10C7100011F0010F07D0002106E0898801E04FF6F3
:10C72000FF71418208BD01218DF8001069469047D4
:10C7300008BD000070B5054601461C220F48FEF7F3
:10C740000DFF0F4C00262670286830B1016861602B
:10C750004068A060201D7ADF02E00948001D7BDFF1
:10C7600000280AD14FF6FF7060806670BDE8704007
:10C77000044A00210448FFF76FBB70BD5425002018
:10C78000741F0020FD070200F009020070B5204C64
:10C79000068800251D49E289102E15D01D4B112E4B
:10C7A0001ED0122E2BD0502E19D130F8061F9142D8
:10C7B00015D1018B022912D1807E10F0010F13D008
:10C7C000BDE8704001F044B883884B80D0F8163043
:10C7D000CB60D0F81A0008614D70002AF0D070BD0F
:10C7E0004FF6FF7048804D701868FFF7CFFB0028A8
:10C7F000F5D0A1690029F2D0BDE87040084750F893
:10C80000062FCA6040680861DAE70000741F002044
:10C8100054250020F009020001480068FFF7B6BB6C
:10C82000F00902007CB5054608880C4609309042A4
:10C8300001D90C207CBD684671DF0028FAD121881F
:10C840000820685420881B21401C80B22080295475
:10C850002088401C80B220802844DDF8011001604F
:10C86000BDF8051081802088801D80B220809DF851
:10C87000001001B1012129542088401C2080002093
:10C880007CBD000030B585B00D46040039D0BDB385
:10C890006868A8B31C4B4FF6FF7020800FCB0DF1DA
:10C8A000040C8CE80F0041F23050ADF8000001A8F4
:10C8B000811E63DF002821D1221D69460120A0DFEF
:10C8C00000281BD19DF80200A071204601F026FA35
:10C8D000002813D1204601F0D3F900280ED12946B3
:10C8E000204601F069FA002808D16868A062A868AB
:10C8F00000B1E062054901200870002005B030BD9C
:10C90000FFE70E20FAE70000F4090200881F00206C
:10C910003EB500283CD000293AD0826A002A37D0A0
:10C920000A88102A23D0112A33D0502A21D0512A24
:10C930002ED104460A4611F8060F022828D148884D
:10C94000238A984224D1907A042821D006281FD027
:10C9500005281DD02046891C02F0AEFE002817D005
:10C96000E16A002914D003B0BDE830400847898847
:10C9700011E0CA8803899A420AD108228DF8002062
:10C980008A7F20318DF808200191826A694690479C
:10C990003EBD4FF6FF7101803EBD000030B585B051
:10C9A00028B30388A3F57F44FF3C22D0124B1B78A9
:10C9B000FBB1114B10255B1C00241D7059709A703F
:10C9C00001250321ADF81010009401940294039402
:10C9D000018AADF8001004A9CDE902138DF80250C8
:10C9E000ADF8044000886946A6DF05B030BD0E20D2
:10C9F000FBE70820F9E70000881F00207FB5044608
:10CA000001208DF8060041F60A00ADF80400454A01
:10CA100001A90120A0DF00287ED1228804F13C0575
:10CA200052B140482B46801C009042F62920616894
:10CA300000F020FD002873D1228952B139482B46DD
:10CA40000A30009042F62420E16800F013FD00282F
:10CA500066D1228A52B133482B461230009042F6FA
:10CA60002520616900F006FD002859D1228B52B1C2
:10CA70002C482B461A30009042F62720E16900F03E
:10CA8000F9FC00284CD1228C52B126482B4622308A
:10CA9000009042F62620616A00F0ECFC00283FD1AD
:10CAA000228D52B11F482B462A30009042F6282092
:10CAB000E16A00F0DFFC002832D1216B71B102A8DD
:10CAC00003F069FC17482B4632300090082202A977
:10CAD00042F6232000F0CEFC002821D1606B58B133
:10CAE00010492B463A3100910279016842F62A201A
:10CAF00000F0C0FC002813D1A16B81B102A802F0A4
:10CB000099FE08482B4642300090072202A942F6BF
:10CB1000502000F0AFFC00E002E0002800D100202F
:10CB200004B070BD901F002070B5044601F0B4FA47
:10CB30002146154800F086F8134821461838FFF7BB
:10CB4000CCFD2046FFF722FE204600F0DBF90E4820
:10CB500021468030FFF7DCFE20880C4D102802D0E3
:10CB600011280BD107E0072000F0B8FA08B1FFF751
:10CB70003AF9A08801E04FF6FF70A8802046BDE892
:10CB80007040FFF7E1BB000014230020001F0020CD
:10CB900030B50446008C8BB0A0F57F42FF3A23D01D
:10CBA00005AA204602F04FF90546ADF80000002026
:10CBB00001900290039004902189ADF804100121A6
:10CBC000ADF808008DF8061005A8CDF80CD004903B
:10CBD000208C01A9A6DF002804D1BDF80010A942CD
:10CBE00000D00C200BB030BD0820FBE738B5044660
:10CBF00008682060087960714FF6FF70208400207B
:10CC000084F82200A4F84C0001208DF8020041F6BF
:10CC10000D000D46ADF80000A21D69460120A0DF01
:10CC200000280ED12946204602F0ACF8002808D191
:10CC3000A86828B12946204600F090F8002800D1C5
:10CC4000002038BD08B50A88102A14D0112A14D043
:10CC5000502A15D131F8062F83899A4210D10A8BB8
:10CC6000022A0DD10268002A0AD0897E11F0010F34
:10CC700007D0002106E0898801E04FF6FF710184AA
:10CC800008BD01218DF800106946904708BD70B5B8
:10CC90000446B0F84C000D4614280AD104F12601D0
:10CCA0002622881EFEF75AFCB4F84C00401EA4F859
:10CCB0004C00B4F84C0004EB4001401CA4F84C00BC
:10CCC0008D8470BD80F82210704770B504460D4603
:10CCD0000846FEF775FC2080656070BD0A7802701A
:10CCE000497841700220704700B585B00023482282
:10CCF0001649082003F034FA08B1FFF774F86A46C1
:10CD00000121002003F016FA08B1FFF76CF80120AA
:10CD10008DF80C000E4803F04FF808B1FFF763F8E8
:10CD2000684603F0FDF908B1FFF75DF8094803F024
:10CD3000EDF908B1FFF757F8074803F029FA002882
:10CD400001D0FFF750F805B000BD0000B42200206C
:10CD5000001E002029CB010085030200F0B58FB032
:10CD60000D4606461C216846FEF71FFC00249DF870
:10CD70000000039440F002008DF8000001270194A8
:10CD80008DF8367042F63820049405940694ADF878
:10CD900034000C94E87B8DF83000287C8DF831004D
:10CDA0009DF83200142120F00600801C20F01900AC
:10CDB0008DF8320007A8FEF7F8FB0DA807900CA825
:10CDC000ADF824700890ADF82640ADF82870A8683A
:10CDD0000B90F08806F1100307AA6946A2DF0FB096
:10CDE000F0BD00001CB5044681786A460C4802F08C
:10CDF0004DFD002813D160780A49C0EBC00001EB5B
:10CE000080001C231A46694602F0FCFD05480649CD
:10CE10004C30807A51F820202146684690471CBD4E
:10CE2000EC1F002050260020180A0200F8B5054625
:10CE30000820ADF8000001236A461C492846AADFF5
:10CE40001B4800688047B12044DF08B1FEF7CBFFE4
:10CE500011DF08B1FEF7C7FF4FF01024606913DF40
:10CE600008B1FEF7C0FF284600F0B4FE01204FF0E5
:10CE7000E0218205C1F88022D1F800315FF0000185
:10CE800000FA01F21A420AD04AB202F01F0600FA72
:10CE900006F55209920002F1E022C2F88051491CC5
:10CEA0002029EDD3606900F005F8F8BD002A0020C4
:10CEB0004C200020FEF726BB7CB5114E0C004FF035
:10CEC0000005306015D06946002000F0B1F8002858
:10CED00015D101A9012000F0ABF800280FD19DF871
:10CEE000041009B1022003E09DF8001001B10B20ED
:10CEF0002070706810B9FEF7C9FE054628467CBD53
:10CF00004C1F002010B51A4C0188606810290ED003
:10CF100011292BD1401E606028D1FEF7B7FE0028F2
:10CF200024D02168002921D0BDE810400847D0B99D
:10CF300000210122084600F0AFF808B107280FD100
:10CF400007220221012000F0A7F808B1072807D125
:10CF500004220221002000F09FF820B1072802D00F
:10CF6000216801B188476068401C606010BD000006
:10CF70004C1F002010B5032000F020FA08B106284D
:10CF800000D1002010BD00002DE9F0470746002425
:10CF9000244802E0641C042C41D250F82420BA42F8
:10CFA000F8D1042C3BD21F48DFF87C901F4E0C3880
:10CFB000A9F1140841B301290FD002292FD104EBA4
:10CFC000440030444578002D29D0D8F810100029AD
:10CFD00025D02846BDE8F047084704EB4401755CBE
:10CFE0000E44717861B1D8F804100F4A01EB810149
:10CFF0004900133A8068FEF789FF08B988F8017084
:10D00000B17809F80410DEE78068FEF7BFFF04EB93
:10D010004401314419F804008D78A842D3D0BDE80A
:10D02000F0870000C0090200481F002004240020EF
:10D0300004280CD2074A1268074B13F8203001204D
:10D040009840904300D001200870002070470020D5
:10D05000FAE7000010050050C009020010B50428CE
:10D0600007D0072810D00A2812D1BDE8104003F0DD
:10D070001BB808481321808876DF07E0002807D016
:10D08000BDE81040FEF7AFBEFFF7C0F90828F5D1A4
:10D0900010BD0000001F002070B50023042810D22E
:10D0A0000D4D00EB4004012A02D101290CD00022D1
:10D0B000094E00EB4000304461B1012906D002293D
:10D0C00006D00723184670BD0D30C2B22A55F9E7C5
:10D0D0004270F7E78270F5E704240020044A014615
:10D0E0000020127AD20702D0084600F055B87047E7
:10D0F000341F002070B50E462149054600200A6104
:10D10000C1E90165A9071BD500240122114620466B
:10D11000FFF7C2FF641C042C02D20028F5D00FE0F8
:10D1200070B9720804211748FEF7EEFD40B9FEF70A
:10D13000D9FD28B91348144A00211438FEF78CFE93
:10D14000E9070AD0114A4FF4F01111600F4B002289
:10D150001B1D1A600D4A1032116000280FD10948BA
:10D160000B4A00211C38FEF777FE002807D1BDE8E6
:10D17000704004480121074A1838FEF76DBE70BDA3
:10D18000341F0020D0090200F9D301000805005027
:10D1900009F00100C5BC01002DE9F84F854EDFF80C
:10D1A00010A24FF4E01CF16807462CEA010C009134
:10D1B000002071680AF10404251D7F4B4FF40032F2
:10D1C0004FF4802B01EB810E8146182F16D2DFE839
:10D1D00007F00C17173A4E607083868F868FEAA08F
:10D1E000A0A0A0A0CAD1D8E1EAEA009A4FF4F011B9
:10D1F00091432160C5F8009086F80090BDE8F88F53
:10D20000C4F800C04846C5F80090DAF800C08CF4B5
:10D21000F01C5FEA8C3C09D522602860022F02D105
:10D220004FF4E16008E04FF47A6005E02A60206086
:10D23000022F3CD04FF4C8706422B0FBF2F041439F
:10D24000377000225EE0C4F800C04846C5F8009080
:10D25000DAF800C08CF4F01C5FEA8C3C04D5226044
:10D2600028604FF44870E7E72A6020601FE0C4F8A8
:10D2700000C04846C5F80090DAF800C08CF4F01CF5
:10D280005FEA8C3C02D522602860CCE72A602060EF
:10D29000D0E7C4F800C04846C5F80090DAF800C0EE
:10D2A0008CF4F01C5FEA8C3CDED522602860C8203C
:10D2B000C2E7C4F800C04846C5F80090DAF800C0DC
:10D2C0008CF4F01C5FEA8C3C02D52260286001E0FF
:10D2D0002A602060377014E0C4F800C04DE0DAF82E
:10D2E00000002BEA0002226000F48020286008E0A1
:10D2F000DAF800002BEA0001216000F480202860A9
:10D30000714600221868BDE8F84FFEF7FFBD2160A6
:10D310002EE098465868FEF739FED7F1110100D08B
:10D3200040B1F16801F4F0112160C5F80090C6F831
:10D330000C9063E74FF40022F26001290CD9C82059
:10D3400011FB00F16420B1FBF0F170680022414351
:10D35000D8F80400FEF7DAFDF16801F4F011296055
:10D36000C4F800904AE74FF4F0112160C5F800902E
:10D37000377043E74FF4E01121604946C5F800904B
:10D3800006E04FF4D01121604946C5F800905A4696
:10D390002A60BCE74FF4C01121604946C5F80090EF
:10D3A0004FF4C022F4E74FF4F01129604946AEE78C
:10D3B00004050050341F0020B409020070B500219C
:10D3C0000C4D012455F82120920002F1A042D2F820
:10D3D000006704FA01F3034000D0032326F440362B
:10D3E00046EA0343C2F80037491C0429EAD3002067
:10D3F00070BD0000C009020000780221FFF7C4BD23
:10D4000005494FF0FF32082841F8202002D3084494
:10D4100080F8482070470000C0260020F0B54FF08B
:10D42000FF3512B10023082601E008230C260C4C1E
:10D4300005E000BF54F823707F1C04D05B1CB3428E
:10D44000F8D32846F0BD26185DB286F8305044F86F
:10D450002310002AF5D1E11881F84800F1E7000017
:10D46000C02600200249084490F9300070470000AF
:10D47000C02600202DE9F0438FB01E46DDF85890FD
:10D4800015460F00804602D10020FEF7ACFC15B90E
:10D490000020FEF7A8FC1C216846FEF786F8002451
:10D4A0009DF80000039440F002008DF80000012078
:10D4B00001948DF83600049405940694ADF83480F8
:10D4C0000C9430788DF8300070788DF831009DF82C
:10D4D0003200142120F00600801C20F019008DF885
:10D4E000320007A8FEF761F80DA807900CA8089075
:10D4F0000748ADF82450ADF82640ADF828500B97FA
:10D500004B4607AA69460088A2DF0FB0BDE8F0834A
:10D51000901F00202DE9F0413A48017801EB81018C
:10D5200000EB8104D4E9030600EB40013648241DDA
:10D5300000EB8100B0F808804589476802F02DFAB9
:10D54000B6FBF0F100FB116080B3002008FB05770B
:10D550006188A288DFF8B48011448D190022C8F8D0
:10D56000102040B102F019FA6188884221D0BD42F2
:10D5700001D1A088E8B1A06803281AD002F00DFA02
:10D58000A18844463144B1FBF0F200FB1210800840
:10D59000C8F80C0002F001FAB5FBF0F100FB1150E5
:10D5A00078B10020BD4228D068B126E0FFE7012015
:10D5B000CCE702F0F2F9B6FBF0F10320C8F8141042
:10D5C0001CE00120EEE7ADB2BEB202F0E6F9B6FB18
:10D5D000F0F702F0E2F9B5FBF0F0874201D1701BE1
:10D5E00009E002F0DAF9064602F0D7F9B5FBF0F1EE
:10D5F00000FB1150301A800820610220BDE8F04184
:10D6000002F066BD3827002094290020F41F002076
:10D610000648017801EB810100EB810000790428C4
:10D6200001D000F059B8012002F052BD3827002087
:10D630000A480B4A017801EB810100EB8100C188A7
:10D6400011620079012805D0032801D0042804D1F3
:10D65000FFF760BF012002F03BBD70473827002074
:10D66000F41F002000EB80020548002100EB82003F
:10D6700002220171C180C0E903214161018170472B
:10D68000382700202DE9F041114D069E6C781E2CA4
:10D690001BD02F783C441E2C00D31E3C04EB84048A
:10D6A00005EB840420716261D1E90001C4E9030142
:10D6B000E38026816878401C68700648007808B9C5
:10D6C000FFF7B6FF0020BDE8F0810420FBE7000073
:10D6D00038270020F41F002010B50E4C207800EBF6
:10D6E000800004EB80010020091DFEF78DFB2078EF
:10D6F000FFF7B8FF6078401E60702078401CC0B211
:10D7000020701E2801D100202070BDE810400020AC
:10D7100002F0DEBC382700202DE9F05F2648C16802
:10D72000F1B3DFF898B00E688146DBF80040076976
:10D73000C078E11B21F07F45ED1CB0B9DFF8808097
:10D740004FF48030C8F84403C8F804031120FDF7F3
:10D75000FDFF1120FEF705F84FF0010AC8F800A000
:10D760002F20FDF793FE89F803A0B54200D235467D
:10D77000124BE8193C3320F07F401860DBF80010B2
:10D780005A46091B21F07F41001B20F07F40C91C35
:10D7900081420FD9106818602F20FDF777FE00E056
:10D7A00004E0BDE8F05F1120FDF7E6BFBDE8F05FE3
:10D7B00002F0BCBABDE8F09F2C2000200415014007
:10D7C000001001402DE9F04117880646B81D1446A7
:10D7D0000D46984202D90C20BDE8F081318807221D
:10D7E00006290AD34FF4486C4FF6FF73614501D9FF
:10D7F000994202D17088062801D21046ECE76045B4
:10D8000001D99842F9D1994203D0984201D081427E
:10D81000F3D80520E85520881221401C80B22080D2
:10D8200029542088401C80B220804119308802F0A1
:10D83000D5FF2188084480B220804119708802F009
:10D84000CDFF2188084420800020C5E7FEF7CBBA31
:10D85000F8B5134801F078FB114D0026114C0C3D32
:10D8600030B16169B9B101208DF80000684611E05E
:10D87000287820B1616971B18DF80060F6E76878A9
:10D8800058B1A168084800220068FEF73FFB10B1BC
:10D89000A16901B188472E70F8BD6168F2E7000008
:10D8A000801F002054250020F009020070B5094BAC
:10D8B000044608209E7A00250E4208D0A4F57F4039
:10D8C000FF3802D01889A04202D10020156070BD37
:10D8D000052070BD9026002000EB40020748012182
:10D8E00000EB820081724FF6FF710181FF21C1724E
:10D8F0000021016081808171704700009026002026
:10D9000010B5134C207900071ED46069401C60617B
:10D91000E06808B104200AE001F024FB08B102200D
:10D9200005E0206960B16068C10704D00320BDE84C
:10D93000104002F01DBD40F0010060600020F6E7DD
:10D94000BDE81040FFF764BEBDE8104002F006BD20
:10D95000F41F002006494868020707D4820702D551
:10D9600040F001004860022002F002BD02F0F6BC67
:10D97000F41F00202DE9F04100260125144C22E07F
:10D980006068226900EBC607387805FA00F1114299
:10D9900017D08A43226101F0EFFD02463878E36830
:10D9A00005FA00F1194002FA00F3994209D1797899
:10D9B000012901D0012100E0002151407A6802B123
:10D9C0009047761CF6B220788642D9D3BDE8F08124
:10D9D000182000202DE9FC410E46044681786A4655
:10D9E000254801F053FF002828D16078234F00EB31
:10D9F000400007EB8000807A400621D4022E1FD021
:10DA0000012E1FD01E4DA0781E49C0EBC00001EBB7
:10DA1000800100231C226846A847A8B1022E0DD021
:10DA20002078164900EB40000C3101EB80001649CC
:10DA3000807A51F82020214668469047BDE8FC8155
:10DA4000124DE0E7124DDEE7022EF7D0607800EBD2
:10DA5000400007EB8000817A21F040018172074984
:10DA600060784039C0EBC00001EB80011C231A46EE
:10DA70006846A847D4E70000EC1F0020902600204D
:10DA8000E50202008C250020080A020031FC01009A
:10DA900061FB01002DE9F04705250F4F90468946AF
:10DAA00006460024C4EBC40007EB800036B1072211
:10DAB00031461030FDF78BFD18B106E0018B414572
:10DAC00003D10025C9F8004002E0641C072CE9D30B
:10DAD0002846BDE8F08700008C2500207CB505466F
:10DAE00081B26A46074801F0D1FE040008D17421D2
:10DAF000684601F0F5FE040002D1284601F062FEFE
:10DB000020467CBDEC1F002070B505460C46100079
:10DB100001D0FEF768F92078152802D12846FEF7D3
:10DB20002BF9002070BD00001FB58DF80C0001F02E
:10DB300039FF08B1FEF757F903A800F061FD08B1FD
:10DB4000FEF751F90020CDF805008DF809009DF889
:10DB50000500694620F01E0040F001000C3020F066
:10DB600020008DF8050007208DF8060010208DF8A4
:10DB700007000648009001208DF80400044800F0DA
:10DB8000A7FE002801D0FEF72EF91FBD09DB01001A
:10DB9000021F002001B50449684600F063FA00281E
:10DBA00001D0FEF720F908BD5020002010B50978FB
:10DBB00049B103220121FEF7F1FE002808D0BDE89B
:10DBC0001040FEF710B90088BDE81040FFF72EB9ED
:10DBD00010BD000030B58BB000242349009400F044
:10DBE000E3FC002811D101A91F4800F081FC70B1AD
:10DBF0001E491D4800F068FD08B1FEF7F4F81B4807
:10DC000000DF002801D0FEF7EEF80BB030BD05981C
:10DC1000164D102201692960818AA980807DA87132
:10DC2000E81D0599FDF79AFC112205F118000199EC
:10DC3000FDF794FC019850F8121F45F82A1F41681F
:10DC4000696000892881094800DF08B1FEF7CBF838
:10DC50000120009004200890CDF824D007A90248A4
:10DC6000079400F097F9CCE750200020CC29002041
:10DC70007047000001490860704700004C200020F8
:10DC800030B58FB005461C216846FDF78EFC002498
:10DC90009DF80000019440F018008DF800000394F6
:10DCA000049405940694A8798DF8360041F2315019
:10DCB000ADF834000C949DF83000142120F0FF00E2
:10DCC0008DF830009DF8310020F00F00401C20F04E
:10DCD000F00010308DF831009DF8320020F0060081
:10DCE000801C20F0080040F011008DF8320007A8D9
:10DCF000FDF75BFC0DA807900CA80890ADF8244038
:10DD00001720ADF82640ADF828000B94A88805F13F
:10DD1000100307AA6946A2DF0FB030BD30B58FB03F
:10DD200005461C216846FDF740FC00249DF80000D4
:10DD3000019440F004008DF80000039404940594CD
:10DD40000694A8798DF8360041F23250ADF83400CF
:10DD50000C949DF83000142120F0FF008DF8300065
:10DD60009DF8310020F00F00401C20F0F000103032
:10DD70008DF831009DF8320020F00600801C20F064
:10DD8000180040F001008DF8320007A8FDF70DFCE7
:10DD90000DA807900CA80890ADF824401420ADF809
:10DDA0002640ADF828000B94A88805F1080307AABF
:10DDB0006946A2DF0FB030BD70B58EB00E46054685
:10DDC0001C216846FDF7F1FB00249DF8000001943A
:10DDD00040F002008DF8000003940494059406942A
:10DDE000A8798DF8360041F23450ADF834000C9427
:10DDF0009DF83000142120F00F00401C20F0F000AE
:10DE000010308DF830009DF8310020F0FF008DF8C3
:10DE100031009DF8320020F00600801C20F0180030
:10DE200040F001008DF8320007A8FDF7BEFB0DA8F9
:10DE300007900CA808900220ADF82400ADF8264009
:10DE4000ADF828000B96A88805F1200307AA6946BB
:10DE5000A2DF0EB070BD00003EB504461F48017839
:10DE600048F20800002930D084B3217800292CD151
:10DE70001B4900250968002927D0A178072929D244
:10DE8000184AC1EBC10002EB8000807EFF2821D040
:10DE900012486A46103001F0F9FC002815D16023C1
:10DEA0000422694602A801F0ADFD0299491C0CD07C
:10DEB000602304220C49684601F0BAFE002804D110
:10DEC000084AA1781C3A42F821503EBDFFE748F2CB
:10DED0000E00FAE748F21000F7E70000DC1F002010
:10DEE0009C2600208C250020040A02003EB50C462A
:10DEF00025490A7848F208015AB38A1D18B114B1AD
:10DF0000027832BB01E010463EBD204A126802B3DF
:10DF1000817807291FD21E4BC1EBC10203EB82029D
:10DF2000927EFF2A17D01A4AA3681C3AB3B142F86E
:10DF30002130817814486A46103001F0A7FC00288F
:10DF4000E2D160230422694602A801F05BFD48B1DA
:10DF500016E008463EBD48F210003EBD52F82110C2
:10DF6000A160E6E70298401C0AD0642310226946AB
:10DF7000A06801F047FD0028EFD1029961603EBD25
:10DF800048F240003EBD0000DC1F00209C2600201F
:10DF90008C250020FEB505462D480C46017848F238
:10DFA0000800002924D0811D1DB314B3A26802B358
:10DFB000297800291CD127490968002918D0A97897
:10DFC000072918D2244BC1EBC10203EB8202927ED7
:10DFD000FF2A10D06A7803F5827302EB420203EB4A
:10DFE0008202927A120703D56068042806D20720BD
:10DFF000FEBD0846FEBD48F21000FEBD1448174E97
:10E000006A46103001F042FC0028F6D16023042259
:10E01000694602A801F0F6FC18B90298401C00D02D
:10E020000F4E60230422211D6846B0470028E4D12A
:10E03000642310226846A16801F0FAFD0028DCD1B3
:10E04000054BAA781C3BA16843F82210FEBD0000D6
:10E05000DC1F00209C2600208C25002061FB010095
:10E0600031FC01000A4A137848F208026BB1931D93
:10E0700019B110B1007840B901E018467047054B5E
:10E080001B6813B1087000207047104670470000ED
:10E09000DC1F00209C2600202DE9F04F054693B0A0
:10E0A000FA48FF240E9400784FF0000A002858D058
:10E0B000DFF8DC83D8F80000002852D001A800F077
:10E0C00093FA08B1FDF78FFE281D05902A20ADF8C0
:10E0D00018000027FF208DF806008DF804700097C7
:10E0E000EB4C28880C3CBB4610280FD0A8886A4609
:10E0F0000221FFF7DBFB48B9009800EB400104EB7D
:10E100008101C97A8DF806108DF80500DFF880933B
:10E110002888A9F14C09132109F11C02A2F1E0069B
:10E12000172875D010DC10281ED011285ED01328B7
:10E130006FD0142815D1009800EB400004EB80004C
:10E14000C07AFF287DD09AE0D24B182877D01C28BF
:10E1500076D0522805D198F80A0053F8201001A86B
:10E16000884713B0BDE8F08F4FF6FF766A4601216D
:10E170003046FFF79BFB0028F3D10099022201EB08
:10E18000410004EB8000827211228DF810208DF87E
:10E190000510A9880181D5F8061001606989818080
:10E1A000297B8171687DC10708D0B849083101EB2E
:10E1B00050000078FF2808D00E9006E032460EA9E5
:10E1C000A81DFFF767FC00280FD100990E9801EBFE
:10E1D000410104EB8101C8728A7A42F008028A7216
:10E1E0008DF8060001A8FEF7FDFD6BE1009800EB3D
:10E1F000400004EB8001887A20F002008872010759
:10E2000008D500060FD5002101A8FFF7E3FB0AE0BF
:10E21000B8E043E09DF80600FF2804D001F0D2FAF0
:10E22000FF208DF806000099102001EB410104EB5E
:10E230008101887212208DF8100043E101E0F9E0BD
:10E240003EE1EA890EA90020FFF724FC78B9009985
:10E250000E9801EB410104EB8101C8728A7A42F009
:10E2600008028A728DF8060001A8FEF7BBFD00982F
:10E2700000EB400004EB8000C07AFF2804D0009837
:10E28000C0EBC00109EB810A00980023C0EBC0007D
:10E2900006EB8002A888514682DF62E700988DF87D
:10E2A000101000EB400104EB81018B7A43F0040372
:10E2B0008B72CB7AFF2B32D0162100EBC0008DF889
:10E2C000101002EB80001A210830FDF76EF900985B
:10E2D00000EB400004EB8000817A41F04001817244
:10E2E0000099CDF82CB001EB410204EB820208AB9F
:10E2F000D27ACDF828B0C2EBC20206EB8202CDE999
:10E300000C2BC1EBC10209EB8201CDE9081BA888E7
:10E3100008F1040200217FDF0028BED1D2E00DF118
:10E32000380C48F243020020C0EBC00306EB830325
:10E330009B7EFF2B04D0401C0728F5D31746CFE760
:10E340000A78022A0CD0C0EBC00206EB8202FD2341
:10E3500093760B6813618B8893828979917505E0B8
:10E36000C0EBC00106EB8101FE228A768CF800002A
:10E3700000990E9801EB410104EB81018DF8060034
:10E38000C872ADE798F8091021F0010188F809106A
:10E39000DDF800C00CEB4C0304EB8300817A21F024
:10E3A0000402827214218DF81010A97921B1C07A6B
:10E3B000FFF794FBAF7985E0E979490739D59DF8F6
:10E3C0000610FF297ED042F008028272EA7A920794
:10E3D00007D5C1EBC10206EB8202957E25F001054F
:10E3E0009576C27AFF2A6DD014F82320022A0ED027
:10E3F000C1EBC10106EB810102680A6182888A8251
:10E4000080798875887E20F0020088760DE0CCEB5C
:10E41000CC0209EB8200428AC1EBC10006EB80000E
:10E420000283817E21F001018176012101A8FFF79D
:10E43000D1FA47E0A8790121B1EB101F2CD100F0EF
:10E440000F00012828D1009800EB400104EB810166
:10E45000897A090720D500EBC00002EB80001A2161
:10E460000830FDF7A2F816208DF81000009800EB98
:10E47000400004EB8000817A41F06001817298F8DD
:10E48000091041F0020188F8091017E0DC1F002094
:10E490009C260020280A0200009800EB400004EBB4
:10E4A0008000817A41F08001817215208DF8100082
:10E4B00098F80A0053F8201001A88847002701E0C7
:10E4C0008DF810103A4604A901A8FDF797FC9DF8B5
:10E4D000100012287FF4E1AE009800EB400104EB3D
:10E4E0008101897A01293FF4D8AEFFF7F5F938E6C2
:10E4F0002DE9F043064629480C4689B0017848F2D8
:10E50000080000293FD0811DF6B3ECB33178002913
:10E5100039D1234900250968002934D0B07807286B
:10E5200038D2204FC0EBC00007EB8000807EFF2870
:10E5300030D0E560B07807F58E79C0EBC00007EB0E
:10E540008000C4E90405E846A5601448C4E90089D0
:10E55000B17807AA103001F099F9002813D11C23D3
:10E560001A4607A9684601F04DFA00280BD1E5606C
:10E57000B178C1EBC10107EB8101C4E90415C4F80E
:10E580000080C4E9019500E002E009B0BDE8F08335
:10E590000846F8E748F21000F5E70000DC1F00200D
:10E5A0009C2600208C25002030B5044611B1087847
:10E5B000A0B902E048F20E0030BD0A48002300680E
:10E5C00060B1084AFF200C3A887015890520A542E1
:10E5D000F2D14B70D07A8870002030BD48F208002C
:10E5E00030BD00009C26002030B1FF210170417039
:10E5F0008170C1700020704748F20E007047000023
:10E600002DE9FF4105003AD02B48002404604472F4
:10E6100084722046FFF760F9274824213038FCF740
:10E62000C4FF0026DFF89480FF27304601F0CAF8C7
:10E6300008F80670761C072EF7D37420ADF8040096
:10E640000720ADF806001E481C49009008316846B6
:10E6500001F02CFA00280FD1184E0120083E30702E
:10E66000287878B1BDF80400BDF80610484381B29F
:10E6700006F1100001F034F904B0BDE8F08148F271
:10E680000E00F9E70F4F00250C48A9B202AA083086
:10E6900001F0FCF848B9C5EBC50007EB800000238A
:10E6A0001C2202A901F0AEF908B13470E4E76D1C38
:10E6B000072DE9D3E0E700009C260020E41F00209E
:10E6C00045E701008C2500201B4A137848F2080218
:10E6D000F3B1931D18B111B10378CBB901E018461D
:10E6E0007047164B1B689BB1837848F20502FF2BDD
:10E6F00010D01348C3EBC30300EB8300837E9B075A
:10E7000006D402690A60828A8A80807D887100222C
:10E71000104670474078FF28FAD000EB40030748C6
:10E720000C3800EB8300837A9B07F1D502680A60FE
:10E7300082888A808079E9E7DC1F00209C260020FF
:10E740008C2500202DE9F04F80465D488FB01E4695
:10E750000068189F93468A46002870D0742F6ED8A0
:10E760006846FFF741FF08B1FDF73DFB00248DF837
:10E7700000408DF80440CDE905762546A9B20DAAE2
:10E78000504801F083F828B908220DA94046FCF74B
:10E790001EFFE0B16D1C072DF0D300BF9DF80200F5
:10E7A000FF284CD04FF020094FF0400C04ADBAF1D7
:10E7B000030F0FD0444A1C27B11AB1FBF7F1012314
:10E7C00007291AD20295BBF1000F0BD010E08DF88B
:10E7D0000250E3E7742F02D08DF804C067E08DF893
:10E7E000049064E037498340103949680B425BD09C
:10E7F00001F0FAFF8DF8049046E031494C39A6EB60
:10E800000108B8FBF7F7DFB101F11C02B11A2427A8
:10E81000B1FBF7F702F1240147B32C4A8DF804C08D
:10E82000964244D0A1F5907252F82020B2423BD1DA
:10E830000295C97A884227D18DF8014024E033E05F
:10E840001F488DF804908DF801400C30CDE90A4046
:10E850009DF802000295C0EBC00002EB800008901A
:10E8600007A806901820079105900DE030208DF83C
:10E8700001408DF804008DF80330887A800703D4B6
:10E8800010462421FCF791FE9DF80400BAF1020F16
:10E8900012D040F0020000BF8DF804005A4601A9D2
:10E8A00068460295FDF7AAFA0FB0BDE8F08F9DF813
:10E8B000040040F00300EFE740F00100ECE7000047
:10E8C0009C260020EC1F00208C250020040A02005A
:10E8D000174A10B512785AB148F20E0258B151B128
:10E8E0000B6843B1134A14683CB148F2040010BDF0
:10E8F00048F2080010BD104610BD0E4C13602C3CB1
:10E90000D1F8053023634B7A84F834300979917259
:10E9100023F0050141F002011172D17921F00401C7
:10E9200041F00301D17100210170084610BD0000C3
:10E93000DC1F00209C2600200E4910B54A788C78F8
:10E940000023A24212D0521CD2B24A70022A00D135
:10E950004B70084A4B78183252F82320026008693D
:10E96000104420F07F400861012010BD03600020AA
:10E9700010BD00002C200020002808D0112801D054
:10E98000FDF758BA0248416841F0080141607047FC
:10E99000F41F002010B51F4C204621784068012943
:10E9A00010D002292DD0032932D1000725D4606967
:10E9B000401C606100F0D6FAD8B12078BDE8104064
:10E9C00001F086BB000718D41348A28B017801EB35
:10E9D000810100EB8100C188891A0904090CC180FA
:10E9E00003D0BDE8104001F07FBCBDE81040FEF749
:10E9F00073BEBDE81040FEF70BBEBDE8104000F04E
:10EA000053BC0648617850F82100BDE8104000472B
:10EA100010BD0000F41F0020382700204C0A02001F
:10EA200028DFFFF7A9BF29DFFFF7A6BF0EB517A1A3
:10EA30009DF8080020F00F00401C20F0F00010307E
:10EA40008DF808000A2202A87CDF08B1FDF7CBF997
:10EA500040F2413078DF08B1FDF7C5F900200090A1
:10EA600001904FF4A071ADF80400ADF800104FF420
:10EA7000C8704FF40271ADF80600ADF80210684698
:10EA80007ADF002801D0FDF7AEF90EBD4E6F72643B
:10EA900069635F48524D00000020704700207047B6
:10EAA000002070472DE9F0474178DFF8A490054633
:10EAB00001EBC10209EB8200002401EB410109F1E5
:10EAC000240A4368274626460AEB810163B191F880
:10EAD0000AC05FEA0C6807D55FEA4C6C04D459F8A9
:10EAE000226000F108049FB20889D04633463A46B6
:10EAF0002146A9DF48F241090B281CD000B1484645
:10EB0000012E16D168784FF6FF7200EB400008EB3B
:10EB100080000C210089A7DF00280AD0A0F5405111
:10EB2000023913D0082811D0891E0FD011280DD01A
:10EB30000020BDE8F0876878012300EB400008EB77
:10EB400080003A4600892146A9DFDBE74846F0E726
:10EB50006C26002070B50C46014660780A4D00EB2B
:10EB6000C00005EB80003823242200F04BFF002872
:10EB700008D1617801EBC10105EB81014A68521CA3
:10EB800000D14A6070BD00006C2600202DE9F041E4
:10EB900088B0804603271A20ADF81C0048782A4E1A
:10EBA00000EB400006EB80000D4600893B4607AABB
:10EBB0006946AADF28BB6878A6F1240400EBC000F0
:10EBC00004EB8000BDF81C2069460830FCF7FFFC10
:10EBD0000028687807D000EBC00004EB800149688A
:10EBE00081B11A4E0FE000EB400106EB8101897AFA
:10EBF000890724D400EBC00004EB80002421FCF73B
:10EC0000D4FC1CE0124E44F820706878BDF81C203B
:10EC100000EBC00004EB800069464260687800EBBE
:10EC2000C00004EB80000830FCF798FC68783823BB
:10EC300000EBC00004EB800124224046B04708B03E
:10EC40000020BDE8F08100009026002031FC01008A
:10EC500061FB0100FFF726BFFFF77CBFFFF796BF00
:10EC60002DE9F041124E07460125BD403068FDF701
:10EC70008DF900280DD10F4C2069284207D1384664
:10EC800000F07AFC0028E06805D0284304E0A8439F
:10EC90002061BDE8F081A843E0602069284320613D
:10ECA000A1683068BDE8F0410022FDF72FB90000EF
:10ECB000600A02001820002070B51B4C2079000764
:10ECC0002DD41A48017801EB810100EB81052E69F2
:10ECD00000F063FEE9882A89761E11443144B1FBB5
:10ECE000F0F02169002549B16169814206D1E560F2
:10ECF000606840F001006060002008E000F032F938
:10ED000010B10220E56002E0206920B10320BDE8D7
:10ED1000704001F02DBBBDE87040FEF779BCBDE846
:10ED2000704001F01BBB0000F41F002038270020BA
:10ED300010B51249124801F0AAF8114C81B2183CE2
:10ED4000A068401CA0600D486038FDF721FF58B155
:10ED5000082809D0A0F54051043905D043F20141FB
:10ED6000884201D0FDF73FF8A0680321B0FBF1F223
:10ED700001FB120000B10120207010BD742300209F
:10ED8000181F002070B594B00024054607949DF824
:10ED90001C000E4620F00F00401C20F0F000103048
:10EDA0008DF81C00087B8DF81D009DF81E001C21AD
:10EDB00020F00600801C8DF81E006846FCF7F5FB6D
:10EDC0009DF80000019440F010008DF8000007A8A5
:10EDD000CDE9044001208DF84E00039442F637201F
:10EDE0000694ADF84C000D94707B8DF83400B07B28
:10EDF0008DF835009DF83600142120F00600801CA7
:10EE000020F0180040F001008DF8360008A8FCF74B
:10EE1000CCFB13A808900DA809900EAA0021284643
:10EE200000F011F8ADF828001420ADF82C000EA861
:10EE3000ADF82A400C90E88805F1080308AA694655
:10EE4000A2DF14B070BD2DE9F04104464079904630
:10EE5000002500B1042594F8220008B145F0020510
:10EE6000CAB2FF2908D9090A88F8012045F001052E
:10EE700088F80210032602E088F801200226B4F880
:10EE80004C0008B145F01005002718E0B01C14280C
:10EE90000BD9B4F84C0004EB4701C01B420004F14D
:10EEA00024002431FCF75AFB0DE004EB470108EB8A
:10EEB0000602898C1170090A5170C6B27F1CB4F821
:10EEC0004C00B842E2DC34F84C0FC01B208088F8BC
:10EED00000503046BDE8F081F8B51A4C2078002883
:10EEE0002ED0206928B10026E06820B1002526B187
:10EEF00010E00126F8E70125F9E7684652DF05280A
:10EF000003D020B1FCF76FFF04E0012602E0216985
:10EF10000098884785B96088ADF800006946A06808
:10EF200061DF052803D020B1FCF75DFF04E0012577
:10EF300002E0D4E902018847002EDED0002DD6D0B1
:10EF4000F8BD000054200020054940880A889042FE
:10EF500004D34988884201D80120704700207047B7
:10EF6000781F002070B50E48017801EB810100EB9D
:10EF70008104256900F011FDE18822896D1E11448C
:10EF80002944B1FBF0F1074842698A4205D301D117
:10EF9000006910B14FF0000070BD4FF0010070BD6E
:10EFA00038270020F41F0020800701D00020704780
:10EFB0000120704730B51488E51C9D4201D90C2012
:10EFC00030BD02250D5513881C245B1C9BB2138099
:10EFD000CC5413885B1C9BB21380012807D00228F5
:10EFE00007D0032807D0042807D0072030BD002011
:10EFF00004E0012002E0CD5401E00320C854108851
:10F00000401C1080002030BD0348017AC90702D09F
:10F010000078FEF7C1B87047341F00202DE9F04793
:10F02000DFF8ACA0DAF80C009AF8004080469AF8B5
:10F030000460DAF80890DAF810703AE009EBC405D9
:10F040002A7833E002EB42016B68521C03EBC101EA
:10F05000AB78D2B2934200D100220B78022B02D0BF
:10F06000032B23D11FE0D1F804C00346014603E07F
:10F07000614503D00B46C969C1B1F9E7B1B18B4213
:10F0800005D1C06918B9134F0126BE600027D1F819
:10F0900000C0C969D96149B10B6863440B6005E0E0
:10F0A0000174C06900E000210028F9D1697891421B
:10F0B000C8D1641EE4B2C1D2CAE903078AF8046069
:10F0C000404502D00120BDE8F0870020FBE70000AA
:10F0D0002C200020001001402DE9F04705462F4864
:10F0E000002680460778D0F80C904BE0D8F808004E
:10F0F00000EBC70440E002D02846ED691EE020780E
:10F10000616800EB4002401CC0B201EBC2012070FC
:10F11000A278904200D126700A784868012A2DD141
:10F12000027C5ABB8A684260CA6882600A69C2600F
:10F130004969816198F8041001B146604268D8F8C5
:10F140001030DFF85CC0D11A21F07F41614502D256
:10F150008268114406E0991A826821F07F418A4250
:10F1600002D9511A016000E0066046600121866004
:10F170000174C66101F080F9002DBCD1207861785E
:10F180008842BCD17F1EFFB2B0D2D8F80C104945DE
:10F1900002D00120BDE8F0870020FBE72C200020F2
:10F1A000FFFF7F0098B001F0C7F9394A40F6CD4122
:10F1B0000320FDF79FFF08B1FCF715FE694600200C
:10F1C000FDF77AFE08B1FCF70EFE9DF8000002285C
:10F1D00056D00024FDF788FD2046FEF7A5FCFFF77A
:10F1E00025FC382101A8FCF7E0F902208DF8040085
:10F1F00001248DF8064006208DF8070025480325D8
:10F200000690ADF8145024210FA8FCF7CEF98DF824
:10F2100048404FF4967000241390B420009414904A
:10F220001D4B0FAA214601A8FDF700F808B1FCF715
:10F23000DAFD00F07DFE00F0D3FD1C216846FCF7EE
:10F24000B4F94FF42030CDE900404FF47020029023
:10F2500012488DF80C508089ADF80E0010480590CA
:10F26000104806908DF810406846FDF763FA08B123
:10F27000FCF7B9FDFCF7B2FE0320FDF7E3F802E06E
:10F280000124A7E748DF0028FCD0FCF7ACFDF9E734
:10F290005DD00100281F002079F601001423002012
:10F2A0009DF601004DD801000348416821F0080196
:10F2B0004160007800F00CBFF41F002070B51446C8
:10F2C00082880E4605462088111D0144921C9942F1
:10F2D00001D8FE2A01D90C2070BD521C325420885E
:10F2E000FF21401C80B2208031542088401C80B215
:10F2F00020808119288801F071FA2188084480B2A1
:10F300002080AA8842B1A96841B13044FCF726F9AF
:10F310002088A98808442080002070BD072070BD87
:10F32000F8B50E46017814460546012901D16878E2
:10F3300030B12088821C9A422DD8012902D006E0E3
:10F340000720F8BD69780144891C994223D8181A0E
:10F35000801E87B2ADF800702188B01C0844694651
:10F360007DDF0028EDD12878022805D1BDF80010F6
:10F37000B94201D809210AE00821012805D168789D
:10F38000B84202D8ADF8000001E0ADF80070BDF859
:10F390000000FE2801D90C20F8BD2288401CB05482
:10F3A0002088401C80B2208031542088401C20805E
:10F3B000BDF80010084420800020F8BD00207047F0
:10F3C000002070470020704731B540F2E73404E078
:10F3D000401E00902046FCF71DF800980028F7D149
:10F3E00038BD4907090E002806DA00F00F0202F1C5
:10F3F000E02282F8141D03E000F1E02282F80014FC
:10F4000000F01F02012191404009800000F1E0203E
:10F41000C0F88012C0F80011704700002DE9F047D5
:10F420008846814600F0EEF90124224E0028484625
:10F4300018D0FEF717F8304490F8480080090328E8
:10F4400002D0012806D007E01B48006804FA09F43E
:10F45000204201D1022100E003214846BDE8F047E7
:10F4600000F0D9B800F0DAF9002820D04846FDF7BE
:10F47000F9FF0546114F4FF4807007EB850100EB53
:10F480008500D1F8102580B242F00102C1F81025A4
:10F4900000F0D0F8B8F1000F09D04846FDF7E2FFC0
:10F4A00056F82000002802D0AC40C7F80443BDE85D
:10F4B000F0870000C02600201005005000600040CA
:10F4C0002DE9FC41DFF8A480044608EB0400002786
:10F4D00090F930001346C0170E46401C01D0082793
:10F4E00040E0F27819462046FDF798FF0546401C9B
:10F4F00037D0B07848B1A00000F1A040D0F8001794
:10F5000021F00201C0F8001707E0002173782046BF
:10F5100000910A46019100F06DF8F078C0B11448EE
:10F52000317800EB8500D0F81025124B1A40C0F856
:10F5300010254FF4F8524FF4403302EA042203EA54
:10F5400001410A43D0F810150A43C0F8102509E01C
:10F5500008EB0500327810F8481F41EA821101706B
:10F5600000E004273846BDE8FC810000C0260020EA
:10F5700000600040FFE0FCFF03490968C14011F052
:10F58000010000D0012070471005005070B5124DE9
:10F5900095F8540008B1082070BD0020411E2A18BB
:10F5A000401CC0B282F830102028F8D30024204636
:10F5B000FDF726FF641CE4B20C2CF8D303210620CF
:10F5C000FFF70FFF05494FF00040C1F80403012089
:10F5D00085F85400002070BDC02600200060004067
:10F5E000034890F85400002800D001207047000024
:10F5F000C026002030B541EA4201DDE9034541EA79
:10F600008301800041EA042100F1A04041EA054164
:10F61000C0F8001730BD800000F5E06000F1A040A8
:10F62000026822F440320260026842EA014101604D
:10F6300070470000034908B50844002101600068D4
:10F64000009008BD0060004002494058012800D0E9
:10F6500000207047006000404058002800D0012082
:10F660007047D0F80403084000D00120704740588C
:10F67000002800D00120704710B550B103280CD1EC
:10F680000220FDF72BFD002807D0BDE81040FCF755
:10F69000AABBBDE8104000F007BD10BD00780028EF
:10F6A00007D104483B21808876DF002801D0FCF791
:10F6B0009ABB7047001F0020F0B58BB001274FF0B8
:10F6C000020E05468DF80CE08DF81270C88AADF870
:10F6D0001400088BADF8160001F11A0000260896F8
:10F6E0000690ADF820E007A8ADF8226009900C461E
:10F6F000A98A288808AAA5DF18B1E96AC9B188478C
:10F7000017E09DF81C0010F0010F12D0ADF810604A
:10F71000288803A9A8DF002812D1A17E04F11B00CC
:10F72000092943D2DFE801F0420E1D2326282A4092
:10F730002C0040F2FD10ADF81000288803A9A8DFC6
:10F740000BB0F0BD8DF800600DE006221DE000BF9B
:10F750008DF808700190AA6A6946284690470020F3
:10F76000EEE78DF80070228B022AF1D2EDE78DF8DA
:10F7700000E0F0E7032012E0042010E005200EE096
:10F78000208B032805D2032208212846FDF706F91D
:10F79000D6E7B4F81B00ADF8040018B106208DF8C8
:10F7A0000000D8E70720FAE70920F8E70322ECE792
:10F7B0000021425C0AB101207047491C0629F8D398
:10F7C0000020704770B50546C0EBC5010C48002607
:10F7D00000EB81042046C4F81160A4F815601021E4
:10F7E000FBF7E3FEFF202074A0764FF6FF70208326
:10F7F000284600F0F9FF02481C3840F8256070BD2B
:10F800008C2500200449084490F93000082801DBC9
:10F810000120704700207047C0260020044908449A
:10F8200090F93000082801D201207047002070476D
:10F83000C026002070B50D00044602D10020FCF760
:10F84000D2FA14B90020FCF7CEFA28782070698823
:10F850006170090AA170A988E170090A2171E8881C
:10F860006071000AA07170BD06490979490701D489
:10F870000820704720B10449497801600020704792
:10F880000E207047F41F00203827002070B5124B5F
:10F890001B795B0701D4082070BDB8B1B2B1036811
:10F8A000022B11D20D4C03EB430554F825605EB1D9
:10F8B000466804EB850004894568408901FB0461C2
:10F8C00000FB0450884203D8072070BD0E2070BD95
:10F8D000C2E90031002070BDF41F002094290020EF
:10F8E000F8B5044623480E460079400701D40820A5
:10F8F000F8BD24B32068022831D21F4D00EB400030
:10F9000055F8201059B305EB800042894168008901
:10F9100002FB00116068814221D9FFF745FB80B1ED
:10F92000D4E9000200EB400005EB80004368018948
:10F93000D51AB5FBF1F701FB175585B903E00E2089
:10F94000F8BD1020F8BDB6FBF1F501FB156535B922
:10F950002EB14089414390191944884201D90720AA
:10F96000F8BD002002460090334621460320FDF7F3
:10F9700089FEF8BDF41F00209429002010B54FF037
:10F9800010204469601C04D000F007F8B4FBF0F0CC
:10F9900010BD4FF08050406910BD4FF0805000699D
:10F9A00080B2704770B51448002425460470447036
:10F9B0002846FDF757FE6D1C1E2DF9D30F4D6C80A8
:10F9C000FFF7DCFFC61EFFF7E8FF46430C49AE60B9
:10F9D00000206C6100EB4002401C41F8224001EB2A
:10F9E0008202022814815481F4D32C70AC6104206B
:10F9F000EC616860002070BD38270020F41F0020F3
:10FA0000942900202DE9F843804626481F461646D3
:10FA100000790C46400702D40820BDE8F883ECB119
:10FA2000B8F1000F1AD02068022815D21E4D00EB45
:10FA3000400055F8201079B105EB800042894168FB
:10FA4000008902FB00116268914205D926B1B042DB
:10FA500002D3F119814203D90720DEE70E20DCE74B
:10FA60004046FFF7A1FAD0B13846FFF79DFAB0B192
:10FA70006068FFF799FA90B160683246C119404654
:10FA8000FBF76CFD00962068002200EB4000434627
:10FA900055F8205002212046A8470020BDE710203D
:10FAA000BBE70000F41F0020942900202DE9F0415D
:10FAB000294D04460E462879400702D40820BDE8A7
:10FAC000F081ECB1E6B12068D0B1FFF766FF0146E6
:10FAD000A088814212D3102810D3E08870B1FFF7BC
:10FAE0004DFF471EFFF759FF4743E288A188A868EA
:10FAF00002FB0102974201D3890703D00720DEE70A
:10FB00000E20DCE76988022924D0C6E90010134AD8
:10FB100001EB410302EB83014860206842F82300B7
:10FB2000A0880881E0884881FFF737FFA188E28834
:10FB3000401E01FB0204FFF730FF94FBF0F4FFF7D7
:10FB40002CFFA96804FB0010A8606888401C68802E
:10FB50000020B4E70420B2E7F41F0020942900201D
:10FB6000F8B504461E481E46154600790F46400764
:10FB700001D40820F8BDDFB1D4B12068022815D225
:10FB8000184900EB400051F820207AB101EB8000C9
:10FB900042894168008902FB00116268914205D9DF
:10FBA00025B1A84202D3A919814203D90720F8BD83
:10FBB0000E20F8BD3846FFF7F7F978B13046FFF769
:10FBC000F3F958B16068FFF7EFF938B12B463A46C0
:10FBD000214601200096FDF755FDF8BD1020F8BD27
:10FBE000F41F0020942900201049024608780028BC
:10FBF0001AD0042818D0022A14D0032A14D10A7962
:10FC000012070FD48A69521C8A61B2F57A7F06D036
:10FC1000022801D000F05CBA487800F0A9BB0D20A2
:10FC2000FCF708B9FEF7B6BE70470000F41F0020CD
:10FC3000F8B504461E481E46154600790F46400793
:10FC400001D40820F8BDDFB1D4B12068022815D254
:10FC5000184900EB400051F820207AB101EB8000F8
:10FC600042894168008902FB00116268914205D90E
:10FC700025B1A84202D3A919814203D90720F8BDB2
:10FC80000E20F8BD3846FFF78FF978B13046FFF700
:10FC90008BF958B16068FFF787F938B12B463A46BF
:10FCA000214604200096FDF7EDFCF8BD1020F8BDBC
:10FCB000F41F002094290020104810B58088A0F57A
:10FCC0007F41FF3905D0132176DF03E0FCF78BF885
:10FCD00002E074DF0028F9D10020FDF7FFF908B138
:10FCE000FCF781F8FCF798FD08B1FCF77CF8BDE85B
:10FCF00010404FF4FA70FFF767BB0000001F0020B0
:10FD0000084810B5007800280BD006480649203076
:10FD100000F0BDF881B20448BDE810407038FCF72F
:10FD2000B6BF10BD001F00208423002070B501263F
:10FD300070044FF0E0210025C1F88001084C40100C
:10FD4000C4F84803C4F8080366602F20FBF79EFB45
:10FD5000A660044C2F202561FBF798FBE57070BD71
:10FD6000001001402C20002009480A490022C37DD0
:10FD7000C1F8082143B1D1F81815437EC268D154A7
:10FD8000417E491C41767047D1F818057047000044
:10FD900018270020002000401FB501228DF8080020
:10FDA00004488DF800200191D0E900126846904780
:10FDB0001FBD00001827002008B50249002000914F
:10FDC00008BD0000001F00200348417881F00101B8
:10FDD00041700248FCF776BF001F0020142300206A
:10FDE00070B515480124512164258460C0E90015CF
:10FDF00004730146114800F03FF80F488C21103081
:10FE0000002601604FF4967141600A2181600673FB
:10FE100001460A48083000F02FF807484FF4FA71FD
:10FE200020300560C0E9011406730146BDE870404A
:10FE30000248103000F020B864230020101F00207A
:10FE400010B503680A6889689C1A8C4202D9591A4D
:10FE5000016010BD01210260017110BD10B54B6839
:10FE6000026889689C1A8C4202D91144016010BD55
:10FE700000210360017110BD0A7B1AB1496801605D
:10FE8000002102E00968016001210171704710B58D
:10FE9000044600790028204602D0FFF7DFFF01E08A
:10FEA000FFF7CEFF206810BD2DE9F0410746806ABC
:10FEB00014468846C8B3002531E000BFB96A05EB97
:10FEC000450001EB8006B088801CFE2802D90C207A
:10FED000BDE8F0812288401C08F802002088162224
:10FEE000401C80B2208008F800202088401C80B28E
:10FEF000208000EB0801308800F070FC2188084465
:10FF000080B22080B28842B1B16871B14044FBF741
:10FF100025FB2088B188084420806D1CEDB297F83D
:10FF20002C00A842CAD80020D2E7FFE70720CFE77D
:10FF300030B59FB003208DF8680014216846FBF7A8
:10FF400034FB1AA802909DF80C00002420F00F004A
:10FF5000401C20F0F00010308DF80C009DF80D00D2
:10FF6000012520F0FF008DF80D009DF80E00009493
:10FF700020F0FF008DF80E009DF80F008DF8045062
:10FF800020F00F00401C20F0F00010308DF80F0022
:10FF90009DF81000694620F0FF008DF810003948E8
:10FFA000FCF724FE08B1FBF71EFF142105A8FBF7A0
:10FFB000FCFA9DF82100059420F00F00401C20F071
:10FFC000F00010308DF821009DF822008DF81850B7
:10FFD00020F00F00401C20F0F00010308DF82200BF
:10FFE0009DF82300079420F0FF008DF823009DF872
:10FFF000240005A920F00F00401C20F0F000103074
:020000040002F8
:100000008DF8240064208DF820001E481838FCF775
:1000100042FB08B1FBF7E7FE40210AA8FBF7C5FA4F
:1000200019A10AA8FCF751FE9DF8640020F00F000A
:10003000401C20F0F00010308DF864009DF8650041
:1000400020F0FF008DF865000AA8FCF7D7FC08B186
:10005000FBF7C9FE1148CDE91C040A481B94ADF812
:100060006C501BA98030FCF70DFC08B1FBF7BBFE00
:100070000B48FDF7FFFD0B488078FDF78BFD1FB0A7
:1000800030BD0000142300204E6F72646963536515
:100090006D69636F6E647563746F7200ADDB010030
:1000A000B9FC0100001F002010B50020FDF716F874
:1000B00008B1FBF798FEFCF75DFF08B1FBF793FE74
:1000C0003CDF002803D0BDE81040FBF78CBE10BD1C
:1000D0000C49087040B101280FD002280FD0032826
:1000E0000FD14869FEF79CBC00208861C8610648B2
:1000F0004078002805D0FDF79BBA00F0F5B800F075
:1001000051B87047F41F00203827002018B1034968
:10011000C860002070470E20704700005420002067
:100120001CB5034901910091694660DF1CBD0000C8
:10013000001F002070B50E460546144614211046D7
:10014000FBF733FA01202080002121612173267200
:10015000657205B1A072002070BDFBF743BE0000C0
:1001600070B509B18C0701D0072070BD064C012580
:10017000A16062800549636010DF0028F5D1257019
:1001800016202EDF70BD0000542000205B0102000D
:1001900018B103490861002070470E207047000025
:1001A000542000202DE9F041164C606820F0010039
:1001B00060601548017801EB810100EB810635692B
:1001C000FFF7EBFBB5FBF0F76761FFF7E6FBF188A4
:1001D0006D1E2944B1FBF0F08742606802D140F007
:1001E000020001E020F0020060602079E16800F088
:1001F0000200084304D00020BDE8F04100F0B8B888
:100200000220F9E7F41F0020382700200148406948
:10021000FEF706BCF41F002010B5FFF7AFFB441E2D
:10022000FFF7BBFB4443FFF7B8FB05494A69521E81
:100230005043CA682146BDE81040FEF7F4BB0000F9
:10024000F41F00202DE9F0411048017801EB8101F5
:1002500000EB81042569FFF7A0FBE18822891144A6
:100260002944B1FBF0F200FB1216FFF787FB471E93
:10027000FFF793FB07FB0061E08822891044044AE2
:1002800028441269BDE8F041FEF7CDBB38270020B5
:10029000F41F002010B5FFF771FB441EFFF77DFB34
:1002A0004443FFF77AFBB4FBF0F0BDE81040FEF7E3
:1002B000B7BB000070B5FFF770FB8608FFF76DFB5A
:1002C0000749496900FB01F4FFF758FB451EFFF79A
:1002D00064FB684332462146BDE87040FEF7A3BB8D
:1002E000F41F00200020704770B51448017801EB1E
:1002F000810100EB8104241DFFF74FFB6188104E44
:10030000884211D2FFF749FB61880D1AFFF745FBC0
:100310008208A188E0680844216928442944FEF73E
:1003200082FBFFF73AFB07E0A288E06810448A08E6
:100330002169FEF778FB6088F06170BD38270020E6
:10034000F41F002004480079000702D4012000F0C7
:100350000FB800F003B80000F41F00200348416804
:1003600021F008014160407800F002B8F41F00203D
:1003700002494870024951F820000047F41F00204C
:10038000380A020010B50446FFF72EFC2046BDE8EF
:100390001040FCF719B870B50C00054602D10020DA
:1003A000FBF721FD15B90020FBF71DFD2078287013
:1003B0002088000A68702068000CA8702068000E71
:1003C000E87020792871207A68712089000AA87164
:1003D000A068000CE87170BD03480079000701D4E3
:1003E000FDF716B9FFF7BABFF41F00202DE9F84F4B
:1003F000204C00256846D4E903B6FEF79DFA8046F6
:10040000FEF70CFE0746A946B8F1000F25D00023E1
:10041000009ACC46E06819E007680146974202D985
:10042000BA1A026014E0C1F800C0D1F80C80D21BE7
:10043000C8693B448A46B8F1000F07D0F71827F087
:100440007F47C1E90178CAF81C500D460028E3D166
:10045000E0602846FEF740FE04E02846FEF73CFE3A
:1004600000B917B15846FDF757F984F80490BDE874
:10047000F88F00002C2000200D4B10B5D96831B149
:1004800002680C68A24204D8A21A0A60C161D8604E
:1004900010BD0B4603E00B46C969121B21B10C6865
:1004A0009442F8D3A41A0C600260C161D86110BDF7
:1004B0002C2000202DE9F0411D4DEC68002C35D09A
:1004C0001C48002700682969B846401A20F07F467A
:1004D0002068B04215D82246361A0744E469107CD9
:1004E00068B182F810806B6933B1D2E90501984791
:1004F00028B1FBF778FC02E0D2E905108847002C10
:10050000E6D16978A878814206D1401CC0B2A870B3
:10051000022801D185F802800548A978183040F8F2
:100520002170BDE8F0411420FBF726B9BDE8F08149
:100530002C2000200415014010B50023174A052186
:100540001846FBF79BFC08B1FBF74DFC144A012150
:100550001448FBF781FC08B1FBF745FC1148124A2F
:100560000121001DFBF778FC08B1FBF73CFC0D48AE
:100570000E4A01210830FBF76FFC08B1FBF733FC92
:1005800008480B4A01210C30FBF766FC002803D019
:10059000BDE81040FBF727BC10BD0000EC20002098
:1005A00085C10100A409020031ED010001FD010037
:1005B000C9FD0100064A0020C2F81C010548838AD3
:1005C0008168C95C838A5B1C8382C2F81C157047F2
:1005D00000200040182700201FB500218DF80800DA
:1005E00005488DF80010826801928175D0E90012EB
:1005F000684690471FBD0000182700202DE9FF41E5
:100600003E4D4FF400712846FFF72BF801273C4C74
:100610004FF40178002600B34FF492712846FFF79B
:100620001BF8D0B1C5F82461C5F80883A07E00B9D5
:100630006F6002208DF80000D5F88004C5F88004B2
:100640000390E07D8DF80800E0680190E67526765D
:10065000D4E900126846904724E004212846FFF7B9
:1006600000F8F8B14FF484712846FEF7F5FFC8B1E1
:10067000FFF77AFBE07D617E884213D1227E3AB19A
:10068000607EE168E2752269E2602676667607E0C0
:10069000A07E00B96F60C5F80883E675607EE168EA
:1006A000FFF77AFB4FF48E712846FEF7D5FF58B15D
:1006B000A18AA07D814202D2FFF77CFF04E0C5F849
:1006C0001C6108B1FFF788FF4FF4A2712846FEF7BE
:1006D000C3FF00280FD0C5F84461A07E00B12F6091
:1006E000E07D002807D0E675607EE16804B0BDE8D3
:1006F000F041FFF751BBBDE8FF8100000020004042
:10070000182700207FB5334C4FF492712046FEF736
:10071000AEFF314D0026B0B1C4F8246102208DF83F
:100720000000D4F88004C4F880040390D4F83C0599
:100730008DF80800E8680190EE752E76D5E9001274
:10074000684690471FE04FF488712046FEF78FFF00
:10075000C8B1C4F81061D4F83C05E97DC0B281424B
:1007600011D12A7E5AB1E968D4F8003223F020036F
:10077000C4F80032EA752A69EA602E7601E0EE7567
:10078000E968FFF709FB4FF4A2712046FEF76FFFFF
:1007900050B1C4F84461E87D30B1EE75D4F83C0541
:1007A000E968C0B2FFF7F8FA4FF490712046FEF7FF
:1007B0005EFF00280CD0C4F82061A87D002807D077
:1007C000D4F84C0504B0C0B2BDE87040FFF704BFD8
:1007D0007FBD000000200040182700200870000A9C
:1007E00048700220704700000121814002484268A1
:1007F0008A43426070470000DC1F002038B515496D
:100800004888A0F57F42FF3A23D04A78124C521C08
:10081000D2B24A70237B93420AD3091D75DF0028A8
:1008200017D0A169002914D001B0BDE830400847B5
:1008300000254D70217C29B13B2176DF10B1A169E3
:1008400001B188476169002903D08DF800506846DE
:10085000884738BD741F0020542500200F480068C9
:10086000C005C00D13D0103840B2002806DA00F0E1
:100870000F0000F1E02090F8140D03E000F1E020FB
:1008800090F800044009012803D0032803D0022077
:1008900070470020704701207047000004ED00E021
:1008A00042788378521CD2B2934200D1002203785E
:1008B000934201D1002070470A704168407800EBF4
:1008C000400001EBC00070472DE9FC411646DDE910
:1008D0000854CDE900541F468046022200F00CF86F
:1008E000002807D1CDE900543B461022314640464E
:1008F00000F002F8BDE8FC812DE9FC5F0026DDE98F
:100900000C4B994692468E4680462788354630E005
:10091000D8F80400002200EB8500694600680190C9
:1009200001A865DF002830D19DF8000050451FD197
:100930000EB1002100E00221228808441118594517
:1009400022D846B9521C90B2208009F800E02088D5
:10095000401C20800126218801A801EB090269467C
:1009600065DF002811D120889DF800100844208000
:100970006D1CB8F80000A842CADC56B12088C01B24
:10098000401E80B2FF2802D90C20BDE8FC9F09F868
:1009900007000020F9E7017911B9007B002800D099
:1009A000012070476C2000208C200020AC2000200B
:1009B000CC200020C4230020E423002010240020A9
:1009C0000D0000000E0000000F00000010000000ED
:1009D0000D00030089CF01000E00030089CF010044
:1009E0000F00030089CF01001000030089CF010030
:1009F0003425002023D1BCEA5F782315DEEF1212E4
:100A000000000000FFFFFFFFC5F301008DEB0100B8
:100A1000A1EA01005DEC0100C1F3010055EB01000A
:100A20009DEA010059EC0100BDF30100A5EA0100B7
:100A300099EA010055EC010095020200B50202009E
:100A40000D020200450202001902020045030200E5
:100A500055D9010001D90100D9030200B9EC010008
:100A6000AC29002003000000880A0200001F0020BB
:100A70006C0100000CB60100A80A02006C200020E6
:100A80009C2900007CBA010042010323FFFF0C2ACD
:100A90000D1801000F1801000A180103EFFFFF04F1
:080AA0001B71DC011490D0036E
:040000050001B40141
:00000001FF
