:020000040001F9
:10B00000382F0020F5B001000FB1010011B101008F
:10B010000000000000000000000000000000000030
:10B0200000000000000000000000000013B101005B
:10B03000000000000000000015B1010017B1010080
:10B0400019B1010019B1010081B9010019B1010064
:10B0500019B101000000000001B7010019B10100A1
:10B0600019B1010019B1010019B1010019B10100B4
:10B0700019B1010019B1010019B1010019B10100A4
:10B0800019B1010099B8010019B1010019B101000D
:10B09000B9B8010019B10100C1B8010019B101002E
:10B0A00019B1010019B1010000000000000000000A
:10B0B0000000000000000000000000000000000090
:10B0C0000348854600F076FA004800476DD301003A
:10B0D000382F0020401E00BF00BF00BF00BF00BFD0
:10B0E00000BF00BF00BF00BF00BF00BF00BFF1D165
:10B0F000704700000321094802680A4302600848BB
:10B1000002680A4302600748804707480047FEE795
:10B11000FEE7FEE7FEE7FEE7FEE70000240500404D
:10B1200054050040E1B80100C1B0010030B50B4644
:10B13000014600202022012409E00D46D5409D4211
:10B1400005D31D469540491B254695404019154697
:10B15000521E002DF1DC30BD03460B439B0703D08C
:10B1600009E008C9121F08C0042AFAD203E00B78CC
:10B170000370401C491C521EF9D27047D2B201E044
:10B180000270401C491EFBD270470022F6E710B542
:10B1900013460A4604461946FFF7F0FF204610BD45
:10B1A000421C0178401C0029FBD1801A704730B541
:10B1B00004460020034600E05B1C934203D2E05C9F
:10B1C000CD5C401BF8D030BDF0B51FB40646002062
:10B1D00082B005464024019100901BE0019922466F
:10B1E0000F46304600F008FA049A059B801A9941F0
:10B1F00010D310461946224600F0EEF9361A8F4158
:10B200000197224601200021009F00F0E5F938183F
:10B210004D4100902046641E0028DFDC019B009811
:10B220002946324607B0F0BDF0B5074608465840FB
:10B2300087B0C00F049048000E46590040084908E6
:10B24000BC1A884105D2384631461E4617460B4681
:10B2500002465800400810434CD0300D0390400582
:10B260005900400D490D0590401A0290402872DAAD
:10B2700018030121000B090508430190049800926E
:10B28000002805D001995242002088410092019087
:10B29000029840210A1A0199009800F09DF905468C
:10B2A0000C466B4607CB00F0B8F9C0197141039A00
:10B2B0000E0D0023D71756401A467A40164344D045
:10B2C000049A002A2DD0029A012A039A15DC12054D
:10B2D000C01A914101263605001C7141D20F059E0E
:10B2E000D2070093019202962A46234600F0B5F950
:10B2F00007B0F0BD38463146FAE71605224A0F4638
:10B30000B218C01AB74101210905001C4F410018AD
:10B310007F41114618187941E20F10436D196441BD
:10B3200013E0E2076D0815436408C2071443039A4B
:10B3300001261205C01A91413605001C7141CE0745
:10B34000400830434908C01851412A46234600F0BE
:10B3500077F9CDE7FFE7049801224000C117121AE0
:10B3600000238B4104983146C417381AA141EEE7F7
:10B3700030B40124E407634030BC55E730B4012405
:10B38000E407614030BC4FE70000E0FFF0B51FB4B8
:10B3900088B00B990998002448400999C00F4900CA
:10B3A00049080991C0070B990090490049080B9181
:10B3B00009990898A64608431CD00B990A98084397
:10B3C00018D0099801244000420D4800410D099809
:10B3D00024050003000B204309900B980003000B89
:10B3E00020430B9050181C4940180022019014462D
:10B3F000104605E0002001460DB0F0BD032801DA3B
:10B40000034600E003239C46C11A0AAE0AE05F002F
:10B4100008ADED5B4F00F75B7D430027AA187C4128
:10B42000491C5B1E6145F2DD410004AB5A52210408
:10B43000120C0A43240C401C0828DFDB0198029000
:10B440000099704601910090059B049A079906980F
:10B4500000F003F9D0E700000DFCFFFFF0B50C464B
:10B460005C4085B0E40FE40703944C0000266408B8
:10B4700059009446490802460296224321D062466A
:10B480000A431ED06200570D4A000E032303550DD8
:10B49000012402462C492405781B1B0B360B40184F
:10B4A00023432643614600901C46501AB44103D3FF
:10B4B0000098401C009002E0921800985B41002820
:10B4C00003DA0020014605B0F0BD00200121090586
:10B4D0000746864611E064461D46141BB54106D357
:10B4E0006546521BB341744607430C43A646CD073D
:10B4F00040084908284392185B4105460D43EAD1AC
:10B500001046184313D06046194650407140084316
:10B5100006D06046101AB34106D20122002306E08D
:10B5200000220123DB0702E00122D24353100098DE
:10B5300074460105381C6141029C039D0019694154
:10B5400000F07EF8BFE70000FD0300004A00090399
:10B550000123090B1B0519430A4B10B5520D9A42E2
:10B5600002DA0020014610BD064B34339A4203DC58
:10B570009A1A00F041F810BD034BD21800F02CF8D5
:10B5800010BD0000FF030000CDFBFFFF10B5002938
:10B5900004DB0124E40740428C412146002B04DBFC
:10B5A0001C460123DB075242A341994200D190423D
:10B5B00010BD0000064C0125064E05E0E36807CCEF
:10B5C0002B430C3C98471034B442F7D3FFF77CFD73
:10B5D000B8E30100D8E3010010B5202A04DB0146DE
:10B5E000203A9140002010BD914020239C1A034630
:10B5F000E3401943904010BD10B5202A04DB0846F3
:10B60000203AD040002110BD0B46D340D04020242A
:10B61000A21A91400843194610BD10B5202A06DB36
:10B62000CB170846203A1041C1170B4306E00B46E2
:10B630001341D0402024A21A91400843194610BD5E
:10B6400010B5002B08DA0024401C614192185B41C0
:10B650001A4301D14008400010BDF0B51FB482B0BC
:10B6600005460C0003D0084600F09EF902E000F009
:10B670009BF920300246009021462846FFF7ACFF98
:10B68000049B059A04460F4618431143084314D0FF
:10B69000184610431BD0009840210A1A18460599F5
:10B6A000FFF7AAFF05460E46009A05990498FFF792
:10B6B00093FF084305D0012004E02046394607B037
:10B6C000F0BD0020C11705430E432C4337430099BA
:10B6D0000E986305401A7905E40A00220C43FD0A1E
:10B6E0000A3002D500200146E9E701051019694139
:10B6F0000C9C0D9D00196941FFF7A2FFDFE70000D8
:10B70000F0B50025FF248BB0013401262F460195AA
:10B71000204602F033F8002808D0474840683042FD
:10B7200004D046480021201835430160241D7600CE
:10B730007F1CA4B2042FEBD3FF207D3002F01EF853
:10B74000002807D03E4800210160400705433D48DE
:10B75000006901903C4C280712D0012700262F4297
:10B760000AD03A48B200111808690969C004C00E2D
:10B770008903A258890F90477F00761C042EEED3D0
:10B78000002D57DA00200590401E4DE0A1194031F0
:10B7900008788506AD0E42B2521C39D00121A9406D
:10B7A000089A0091114233D080090390284601F095
:10B7B0002BFB800020580490002802D10398032816
:10B7C00026D103980099032802D1059808430590D3
:10B7D0001F4AA80080180068019A8003800F114258
:10B7E00002D0022802D013E0032811D103990329C3
:10B7F00007D102281CD00221284601F0AFFF7F1C90
:10B80000FFB20498002803D0049A28460399904771
:10B81000761C042EBAD3002F0CD00A480069019977
:10B82000884207D00190059800273E460890ADE772
:10B830000321E1E70BB0F0BD006300400060004071
:10B840007C61004000050050D026002000650040CB
:10B85000000700508307FF22DB0E9A408907090E7C
:10B86000994000280BDA0007000F083883080848C1
:10B870009B001818C36993430B43C3617047830847
:10B8800004489B001B1818689043084318607047D1
:10B8900000ED00E000E400E010B50649002008607B
:10B8A00048608860C860034940390860486002F019
:10B8B00069FB10BD4011014010B502F0F9FA10BD4E
:10B8C00010B506484068002805D08047002801D000
:10B8D00000F044FD10BD01F0F3FB10BD081F002077
:10B8E00010B501F04BFC002805D01F491D484860E9
:10B8F000C8131E4988611E48018CC9B201290BD1A9
:10B90000828C120708D1028D1206120F042A03D16D
:10B91000828D1206120F0AD0012921D1818C0907CC
:10B920001ED1018D0906090F0A2904D007E0114A2A
:10B9300001219160F5E7828D1206120F05D00D29C5
:10B940000ED1808D0006000F0AD10B480168012935
:10B9500004D00A49016001680129FCD1C02141617C
:10B9600010BD0000DFFF07C000050040006C004074
:10B97000C00F00F00006004000EC06407593000088
:10B9800010B502F0E9FB10BD0FB410B503A9044BCC
:10B99000044A029800F0F6F810BC08BC04B018473E
:10B9A000B3D00100041F00202021020C01D010217F
:10B9B0001046020A01D010460839020901D010468B
:10B9C000091F820801D01046891E420801D0881E36
:10B9D0007047081A704730B47446641E2578641C9A
:10B9E000AB4200D21D46635D5B00E31830BC1847D4
:10B9F00002E008C8121F08C1002AFAD17047704738
:10BA0000002001E001C1121F002AFBD17047000095
:10BA1000F0B51FB486B00998089A030D00210243BF
:10BA200014D05148514A1818504305141198012850
:10BA300010981AD0281A401C00264D4F4D490096E8
:10BA400001910490002812DA444211E01198012477
:10BA500049A3012801D11098C1430698119A846026
:10BA60000360C26041600BB0F0BD4042E4E70446B1
:10BA7000210500203F4A001C51410391029012E031
:10BA8000E00707D032463B4601990098FFF77EFC5D
:10BA90000191009032463B4610461946FFF776FC6E
:10BAA00006460F466410002CEAD10498039B002838
:10BAB000029A0999089806DAFFF768FC019B009A38
:10BAC000FFF764FC05E0FFF7C9FC019B009AFFF754
:10BAD000C5FC04460E460022284BFFF757FD03D84D
:10BAE0000020C043014607E00022254B2046314696
:10BAF000FFF79AFBFFF72AFD102409E0002C0ADB70
:10BB00000A220023FFF760FB079B30321A55641EA0
:10BB100002460A43F2D11122641C079B121B1C1916
:10BB2000119B012B03D0012308430ED10AE00843E7
:10BB300004D0112010900020119077E71098151A6A
:10BB40006D1E0BE01098824202DD00236D1C03E0A5
:10BB5000824201DA00236D1E002BEED00698119967
:10BB60008260C16030C07EE701FCFFFF104D000025
:10BB7000000014400000F03F300000000000F043DF
:10BB80000000E03FFFB597B00646002518E22528E3
:10BB900077D100242746FD49049400E00443761C35
:10BBA00032780120203A90400842F7D130782A2894
:10BBB0000ED00222307801463039092916D804996E
:10BBC0000A235943303940181443761C0490F1E796
:10BBD000189802C804911890002904DA0120400343
:10BBE00004434842049002200443761C30782E28F7
:10BBF00014D1042004437078761C2A2809D118989F
:10BC0000761C80C8189009E00A214F43303FC719BD
:10BC1000761C3078014630390929F5D930786C28FE
:10BC200010D006DC4C281AD068280ED06A2817D10C
:10BC300004E0742813D07A2812D110E001204005C6
:10BC400004430CE00121090501E0032109050C432F
:10BC50007178814203D1012000052418761C761CDE
:10BC60003078119066280BD013DC58287DD009DC81
:10BC700000287BD04528F6D04628F4D047281AD192
:10BC8000A5E118E0632835D0642870D0652812D16A
:10BC90009DE170286CD008DC6728F1D069287BD042
:10BCA0006E280DD06F2806D1BAE073282ED07528E3
:10BCB00071D0782859D01A9A199990476D1C7EE155
:10BCC0006002400F022809D003280DD004281898DC
:10BCD00001680DD00D60001D189070E11898EA17EA
:10BCE00001680D604A60F6E7189801680D80F2E778
:10BCF0000D70F0E718986A4601781172001D1890CF
:10BD00000020507202A80090012005E0189802C897
:10BD1000189000200091C04361070DD5002101E07B
:10BD20000199491C0191B94212DA8142F8DB009A6B
:10BD3000515C0029F4D10BE0002101E00199491C7C
:10BD400001918142FADB019A0099895C0029F5D1C1
:10BD5000019904981A9B471A21463846199A00F00F
:10BD600097FA0199401945180BE04FE02CE113E0D8
:10BD70004EE0009800990078491C00911A9A199990
:10BD800090470198401E0190401CF2D12146384650
:10BD90001A9B199A10E137E00A20002100900191C6
:10BDA0006002410F022907D0189A01CA1892C217DF
:10BDB0009446032908D00AE01898C01DC108C9009C
:10BDC00005C91891944607E000B2C21794460429A9
:10BDD00002D140B2C1178C4600226146944506DA72
:10BDE0000A460021404291418C462D2102E0210566
:10BDF00004D52B216A461173012103E0E10701D02C
:10BE00002021F7E7029155E00A200AE0102008E01F
:10BE1000102000900021042004430191082703E032
:10BE200008200021019100906002410F022907D0F3
:10BE3000189A01CA189200229446032908D008E0F3
:10BE40001898C01DC108C90005C91891944603E09F
:10BE500080B2042900D1C0B200210291210729D566
:10BE60001199702906D0009A1021019B4A401A436B
:10BE700005D00EE040216A461173012108E06146B9
:10BE8000014306D030216A46117311995173022182
:10BE90000291009A0821019B4A401A430AD1614647
:10BEA000014301D1610705D530216A461173012193
:10BEB0007F1E02911199582904D035A10E910DA928
:10BEC0000D910DE037A1F9E76146019B009AFFF75C
:10BED0007BF90E9B8C469B5C0D9A521E0D92137043
:10BEE00061460143F0D10D9805A9081A2030019050
:10BEF000600703D501200004844300E00127019876
:10BF0000874201DD381A00E00020019900904118B5
:10BF1000029809180498401A0490E00306D42146B8
:10BF20001A9B199A049800F0B3F94519002706E006
:10BF300003A81A9AC05D199990476D1C7F1C02983E
:10BF40008742F5DBE0030CD521461A9B199A049829
:10BF500000F09EF9451904E01A9A3020199990478B
:10BF60006D1C0099481E00900029F5DC08E00D9832
:10BF70000D990078491C0D911A9A199990476D1CDA
:10BF80000199481E01900029F1DC63E109280100B4
:10BF9000303132333435363738396162636465663F
:10BFA0000000000030313233343536373839414201
:10BFB000434445460000000000F05AF94519761C3C
:10BFC0003078002800D0E2E528461BB0F0BD6007BD
:10BFD00000D406271898C01DC108C90048680A681F
:10BFE0000831C30FDB071891190001D09CA108E0AC
:10BFF000210501D59BA104E0E10701D09AA100E051
:10C000009AA1430011985B08109165280CD006DCBA
:10C01000452809D046281DD0472841D141E066284F
:10C0200018D067283CD13CE00021112F01DB112002
:10C0300000E0781C0191009008A911A8FFF7E8FC26
:10C04000139905910021119A15927F1C129801975E
:10C05000009150E00120C00703900120019008A941
:10C06000009711A8FFF7D4FC139A149905920022A7
:10C07000119B009212981593059A0192002901D004
:10C08000104602E0791C40180190381A01D5019839
:10C0900004E04042401E0090781C0190C01B0290BA
:10C0A00043E0012F00DA01270021112F01DD1120CB
:10C0B00000E038460191009008A911A8FFF7A8FCFC
:10C0C00013990591119A00211298159200910197E8
:10C0D00021070CD40599B94201DB019900E00191D7
:10C0E000012904DD159A491E515C302906D0B84259
:10C0F00001DA011D05DA0121029115E00199491EBD
:10C10000EDE7002805DC0099411800910199091A12
:10C1100003E0019A411C914200DD01910099401A0F
:10C12000401C02900120C0070390200706D402990A
:10C130000198814202DB0020C04302900020694642
:10C14000C87707AF012103980337C907884224D075
:10C15000022011902B201290039800280CDA404204
:10C1600003902D20129007E00A210398FEF7DEFFCE
:10C1700030317F1E039039701199481E11900029AB
:10C18000F2DC03980028EFD1791E129808703078FD
:10C19000202108404530BF1E387006A8C01BC01DB6
:10C1A000039010980078002800D0012001994118D0
:10C1B0000298C0170918039809180498401A401EDD
:10C1C0000490E00306D421461A9B199A049800F0C3
:10C1D0005FF8451910980078002803D01A9A199929
:10C1E00090476D1CE00324D521461A9B199A0498A8
:10C1F00000F04EF845191CE00098002807DB009974
:10C200000598884203DD1598405C199901E0199959
:10C2100030201A9A904700986D1C401C009002989C
:10C22000401E0290002804D11A9A2E201999904796
:10C230006D1C0199481E01900029DDDC05E038786D
:10C240001A9A7F1C199990476D1C0399481E0390F8
:10C250000029F4DC21461A9B199A0498ACE60000E8
:10C260002D0000002B000000200000000000000056
:10C27000F8B5044600251E461746880404D405E098
:10C2800039462020B0476D1C641EF9D52846F8BDFC
:10C29000FFB50446002581B01E46C80301D53027EE
:10C2A00000E02027880404D505E038460399B0470C
:10C2B0006D1C641EF9D5284605B0F0BD70B500238D
:10C2C0000D884C680DE0E6187678E15C864206D170
:10C2D000E018801C491E50601180002070BD5B1862
:10C2E0005B1C9D42EFD8052070BD10B501220221D4
:10C2F000002000F05DFC002801D0072812D10722A1
:10C300000221012000F054FC002801D0072809D1A7
:10C3100000210A22084600F04BFC002801D0072823
:10C3200000D1002010BD0000044842680121C90569
:10C330000B46934383600A40C2607047000500507B
:10C34000BFF34F8F04490348C860BFF34F8F00BF4E
:10C35000FDE700000400FA0500ED00E00EB5002145
:10C36000029000916A4601910148FFF7E9FF0EBD76
:10C370000140000010B58268C368934203D000F00A
:10C3800085FE002010BD052010BD002906D0002A22
:10C3900002D0531E134203D0092070470E2070476D
:10C3A0000160838000218160C1600846704710B53C
:10C3B0008268C3689A1A83889A4203D800F070FE94
:10C3C000002010BD042010BD094B9B68002B07D036
:10C3D000002A07D0002805D00068037C002B03D07A
:10C3E0000820704707207047417442610020704761
:10C3F000E41E0020FFB59007002581B014460E46CC
:10C40000002832D11B4F002C31D001F051FC049890
:10C4100078610320387033461821224600204B43B0
:10C42000BC601834C10089180D704D708E704C605E
:10C430001C19401C0328F5DBFD607D7001240E48AB
:10C44000BD702405046003211420FFF703FA0B4894
:10C4500004600B4C0198A06003211120FFF7FAF94A
:10C4600060683861002005B0F0BD0720FBE7BD60C3
:10C47000FBE70000E41E002080E200E000E100E0B5
:10C4800000150140FEB50D461B4917468968044654
:10C4900000292AD0002C28D0052D01D20720FEBD6E
:10C4A0006069002821D0607C012820D0002601F09E
:10C4B000E7FEC0001049019089684018694601F004
:10C4C00009FF002815D0012101700C49446049681A
:10C4D0000830E2C008490198896841186846007828
:10C4E000487001F027FD0020FEBD0820FEBD2E464D
:10C4F000DDE70420FEBD0000E41E00200015014021
:10C50000F8B5134D0446A96800291CD0002C1AD098
:10C510006069002817D00026267401F0B1FEC7001C
:10C52000A8686946381801F0D5FE00280DD0022110
:10C5300001704460A868391868460078487001F0B6
:10C54000F9FC3046F8BD0820F8BD0420F8BD000015
:10C55000E41E002010B5044609488168C26880883E
:10C56000511A814207D10121064800F0FDFF002841
:10C5700001D0052010BD21460148FFF7FBFE10BD8C
:10C58000B0260020DD1E002070B50446224888B089
:10C590001E460D0042601CD0A888296882B21F4840
:10C5A000FFF7F3FE002815D1A889A96882B21B48BD
:10C5B0001030FFF7EAFE00280CD120221849684607
:10C5C000FEF7CAFDA06806902079002804D001215A
:10C5D00003E0072008B070BD0021684601750677AA
:10C5E0006079002800D00E2069464875E0780290F6
:10C5F000A0780390207801906078009009496846FF
:10C6000000F04EFF0028E5D100F0D4FF02480121E0
:10C61000401C00F0A9FFDDE7DC1E0020B026002052
:10C6200078E30100A9E0010010B501460A48FFF7D0
:10C63000BEFE04000ED101F063F800280AD10749BC
:10C640000548FFF797FE002804D10121034801F0B7
:10C650000BF80446204610BDC0260020DC1E00203A
:10C6600070B500280AD00F4D2978002908D004465B
:10C6700001F002FB002805D0002070BD0E2070BD27
:10C68000082070BDE868062809D2074A8100891889
:10C6900022880A8062884A80401CE860ECE7042017
:10C6A00070BD0000CC1E0020B8240020002808D057
:10C6B000002205490123CA600B708A604860104659
:10C6C00070470E2070470000CC1E002010B50028D7
:10C6D00011D000290FD0124A1278002A0BD00A88F4
:10C6E000112A11D0302A07D0322A09D0332A02D198
:10C6F000091D01F0F3F910BD091D01F04FFA10BD3D
:10C70000091D01F073F910BD8A88FF21AB31095A68
:10C710008A42F8D10021FF30A130C17110BD000064
:10C72000CC1E002010B50B4600280ED0144A1178FC
:10C7300000290CD0D168002909D00446FF34A13467
:10C74000E179002905D0112010BD0E2010BD082070
:10C7500010BDFF21AB310B520021916002462172C6
:10C760000848A17101881180408850800121184635
:10C7700090DF0028ECD10120E071002010BD000006
:10C78000CC1E0020B824002010B5044601F00EF89D
:10C79000204600F0A1F921460448FFF797FF03481F
:10C7A0002146103800F086F810BD0000CC22002091
:10C7B00070B5054608780C46012809D0022819D022
:10C7C000032804D112A0FFF7DFF801F0CBFA70BD07
:10C7D000224661880A32284600F036F8002801D047
:10C7E000FFF7BCFD284600F0CFF80028EFD0FFF798
:10C7F000B5FD70BD002506E06068405DFFF714FFE1
:10C800000028F9D16D1C207AA842F5D870BD00002F
:10C8100020202020202020202020202020202044F4
:10C820006973636F6E6E65637465642020202020D9
:10C8300020202020202020202020202020202020F8
:10C8400020200D0A0000000000280AD04180002AA4
:10C8500005D05188C1801188818091880181002094
:10C8600070470E207047000030B5114B0D46040094
:10C870000FCB85B003936B4607C317D0002D15D09F
:10C880002146684663DF00280ED12178684681740E
:10C8900001210182881E60802868E0600020A0805D
:10C8A000208104A8FFF7DCFE05B030BD0E20FBE7B9
:10C8B00050E301001FB500282DD000292BD042885D
:10C8C000154B9A4202D08C88A24224D10C88112C9C
:10C8D00014D0392C1FD18288002A1CD08B89934216
:10C8E00019D1C268002A16D002236A4613700A467C
:10C8F00012320192097C6A46117209E089889142DC
:10C9000009D1C168002906D003216A46117043800D
:10C91000C268694690471FBDFFFF00007FB5002237
:10C9200000920192029203920B460A780E33002A7B
:10C9300029D18A88012A26D18A790478A24222D173
:10C94000002213E00C2454431D5B022D02D0032D62
:10C950000BD104E0E41824896D46EC8105E0E4186D
:10C9600026896D466E816489AC81521C0C7A944292
:10C97000E8D8C268002A06D04A8869464A8001225F
:10C980000A70C26890477FBD1FB5010018D0488863
:10C990000D4A904216D0C988002913D001236A4657
:10C9A000137300235373094B1A695B690092019357
:10C9B0006A46518003A90291694698DF04B010BD10
:10C9C0000E20FBE70820F9E7FFFF000050E301001D
:10C9D0003EB5002803D0142A03D907203EBD0E20FF
:10C9E0003EBD4388094CA34201D108203EBD084DFD
:10C9F00038CD00930295019404896B465C80DA80FF
:10CA000002914088694698DF3EBD0000FFFF0000AC
:10CA10006CE3010000B5174887B00068059000235B
:10CA20004822154905A801F029FA002801D0FFF78E
:10CA300095FC6A460021012001F008FA002801D087
:10CA4000FFF78CFC0D4801F09FF9002801D0FFF79B
:10CA500085FC684601F0F0F9002801D0FFF77EFC64
:10CA6000074801F0DFF9002801D0FFF777FC07B095
:10CA700000BD0000FCE201003C1F0020E01C002083
:10CA800089C701007CB5134E00250C463060002993
:10CA900018D06946002000F065F8002819D101A9D6
:10CAA000012000F05FF8002813D1684601790020CA
:10CAB000002901D0022004E069460978002900D04D
:10CAC0000B2020707068002802D1FFF70EFC05468D
:10CAD00028467CBDC41E002010B51C4C018860682F
:10CAE00010290DD011290AD1401E606007D1FFF72F
:10CAF000FCFB002803D02168002900D0884710BD26
:10CB000000281ED100210122084600F051F800281B
:10CB100001D0072811D107220221012000F048F896
:10CB2000002801D0072808D104220221002000F0AB
:10CB30003FF8002805D0072803D02168002900D03D
:10CB400088476068401C606010BD0000C41E002063
:10CB500010B5032000F056F9002801D0062800D1B6
:10CB6000002010BD002008707047000010B5042898
:10CB700013D00A2810D1002000F01CF8002801D0A2
:10CB8000FFF7ECFBFFF7E4FF002801D0FFF7E6FB1F
:10CB90003CDF08E0FFF7E2FB10BD044813214088AA
:10CBA00076DF0828F8D00028F4D110BDBC22002080
:10CBB0000720704710B5054A0146127A0020D207B7
:10CBC00002D0084600F02AF810BD0000B41E002074
:10CBD00010B50D4A51609060C00706D007210B4880
:10CBE000490581600022C2608161094A002109482B
:10CBF000FFF7EAFB002805D10648074A0121001D7E
:10CC0000FFF7E2FB10BD0000B41E0020000500503D
:10CC1000C5D1010048E3010029C30100FEB5764DEE
:10CC20000322EB6892059A4302936B6800939C0081
:10CC300006461B19002001210193490507466F4C48
:10CC40003300FEF7C8FE180D1515374755677C7F72
:10CC5000887F88D69595959595BFC5C8CFD6D614AB
:10CC60000721029A49059143A160E7602F70FEBD3C
:10CC7000A260E7606068072252055040800209D533
:10CC8000A160E760022E02D1E120C0000AE07D2011
:10CC9000400107E0E160A760022E01D1C82001E059
:10CCA000FF2091302E706421FEF740FA0099414335
:10CCB00000223FE0A260E760606807225205504012
:10CCC000800204D5A160E76019204001EAE7E16035
:10CCD000A760E3E7A260E760606807225205504062
:10CCE000800202D5A160E760D1E7E160A760D7E7E5
:10CCF000A260E7606068072252055040800202D5BA
:10CD0000A160E76001E0E160A7602E70009841003B
:10CD100000220FE0A260E7606068072252055040E1
:10CD2000800202D5A160E76001E0E160A7602E709B
:10CD30000099002232480068FFF7A4FBFEBDA26004
:10CD4000E76012E06068012189050A468243A2601B
:10CD50000840E060ECE76068012189050A468243EB
:10CD6000A2600840E0600199D2E7E160A7602DE091
:10CD700023484068FFF7C4FB11218A1B01D000281B
:10CD800007D00722E96852051140A160E760EF6013
:10CD9000FEBD0121C905E960012A0CD91046C82150
:10CDA00048436421FEF7C2F96968002241431448F0
:10CDB0004068FFF767FB0722E96852051140E16010
:10CDC000A760FEBD07214905A160E7602E70FEBD8A
:10CDD00003229205B3E705214905A160E76001211F
:10CDE0008905C2E70121C905A160E7600321490562
:10CDF000BBE707214905B8E7B41E00200005005035
:10CE000048E301000620704702490918202008560F
:10CE100070470000D026002038B50B460146FF3190
:10CE20000246A13188794624604380184A79002A55
:10CE300008D0521ED2B20C214A431118498A6A46C0
:10CE4000491C01E0C1886A46118000895080114662
:10CE5000184692DF38BD0000F8B52348C1680029A4
:10CE60003ED00E6821494C680769C078E11B0D026D
:10CE70002D0AED1C002814D101201D4A0004506029
:10CE80001B4A403A50601B49400008601A4908603C
:10CE90001A49012008602F20FEF71CF912490120D1
:10CEA000C870B54200D23546E81900020F4B000A9F
:10CEB000403318600D4A5168001B091B0902090A1A
:10CEC0000002000AC91C814209D9506818602F204D
:10CED000FEF700F901200749400480390860F8BDD9
:10CEE00000F0E6FEF8BD0000E41E00200015014041
:10CEF0004013014080E200E000E100E0001001404A
:10CF000010B501460148FFF709FD10BDBC22002005
:10CF1000F7B50546FF350646A135A87946214843B1
:10CF200087196C790C206043C1193A79601C0A3169
:10CF300082B0904226D101AB0022304600F0FCF8CE
:10CF4000002822D010E0401EA04201D1002003E0C2
:10CF50000C206043C01916300246009001AB3046E9
:10CF600000F0EAF8002807D003980021017001A919
:10CF7000049893DF05B0F0BD68790099401C641CEB
:10CF80006871E4B23879A042DDD8039801210170BC
:10CF90000020EFE7F7B5FF21A7311446095C4622D0
:10CFA00051430F18384600F067FE060033D01A4A86
:10CFB000906806282FD22146144650225043174D20
:10CFC0004622401941803946001DFEF7C5F80198F8
:10CFD0000027002804D0A068502148432F5404E0C3
:10CFE000A0680221502250432954A0685021414397
:10CFF0004919401CCE64A060E16888420BD100262C
:10D0000005E0502070434019C16C8847761CE068E9
:10D010008642F6D3A760FEBDCC1E0020D02400209F
:10D0200030B50D46FF21A7311446095C4622514315
:10D0300093B0081800F020FE030005D06846448035
:10D04000012101700195984713B030BD10B50E490C
:10D0500000234A788C78A24212D0521CD2B24A7075
:10D06000022A00D14B704A78074B920018339A5825
:10D070000260086910180002000A0861012010BD52
:10D080000360002010BD0000E41E00208268838839
:10D090001A4003689A5C0A708168491C8160704775
:10D0A000C26883881A4003689954C168491CC160EA
:10D0B000704710B50446C0B2FFF7B6FA204610BD5F
:10D0C000F8B51C4C2078002833D02069002807D000
:10D0D0000026E068002805D00025002E04D011E0CD
:10D0E0000126F6E70125F8E7684652DF052804D057
:10D0F000002804D0FFF732F904E0012602E021699C
:10D1000000988847002D10D1608869460880A06883
:10D1100061DF052804D0002804D0FFF71FF904E0E0
:10D12000012502E0E168A0688847002EDCD0002DD0
:10D13000D3D0F8BD081F002030B50989002A05D0DA
:10D14000D088491C814213D1002030BD0246FF32F5
:10D15000A132947946256C4324182489A142F3D046
:10D16000491C19809179462251430818008902E030
:10D170001980D088401E5880012030BD1048018C95
:10D18000C9B2012917D1818C090714D1018D090673
:10D190000A0F03D1828D1206120F0ED0090F01293A
:10D1A00003D1828D1206120F07D0032903D1808D7F
:10D1B0000006000F01D000207047012070470000DA
:10D1C000C00F00F010B50448017AC90702D00078FA
:10D1D000FFF724FD10BD0000B41E0020F8B52C4957
:10D1E000C8680A690C780F79896886469446009168
:10D1F0003EE00099E20055182A7836E018235343A0
:10D200006968521CC918AB78D2B2934200D100228F
:10D210000B78022B02D0032B27D123E04E68034664
:10D22000014603E0B14204D00B46C96900291CD075
:10D23000F8E7002919D08B4208D1C069002805D130
:10D24000144F0126BE600026B44601270E68C96946
:10D25000D961002909D00B689B190B6005E00174A6
:10D26000C06900E000210028F9D169789142C5D158
:10D270002146641EE4B20029BBD1054962460A6119
:10D28000C8600F71704501D00120F8BD0020F8BDC5
:10D29000E41E002000100140F8B504463148002685
:10D2A000C168009107784EE02E48F90080680D189B
:10D2B00043E0002C02D02046E4691FE028781821C2
:10D2C00041436A68401CC0B251182870AA78904245
:10D2D00000D12E700A784868012A30D1027C002AD9
:10D2E0002DD18A684260CA6882600A69C260496951
:10D2F00081611C490979002900D0466019494368B9
:10D300000A699C46991A0902174B090A994202D2E6
:10D310008268891807E06146511A09028268090A81
:10D320008A4202D9511A016000E00660466001217C
:10D3300086600174C66100F005FE002CB9D1287822
:10D3400069788842BAD138467F1EFFB20028ABD137
:10D350000448C1680098814201D00120F8BD002036
:10D36000F8BD0000E41E0020FFFF7F00002388B00E
:10D37000264A03211846FFF73DF8002801D0FEF7A2
:10D38000EDFF234A04AB07CA07C3FF21013121483F
:10D390000090401801910391029003231E4A6946B0
:10D3A00004A8FFF7F1F8002801D0FEF7D7FF1B4AC9
:10D3B0001B490120FFF70CFC002801D0FEF7CEFF2F
:10D3C00069460020FFF75EFB002801D0FEF7C6FF8C
:10D3D0001448FFF76BF9002801D0FEF7BFFFFFF7F5
:10D3E00019FB1148009069461048FFF73DFA0028E4
:10D3F00001D0FEF7B3FF00F0B5FC0DA0FEF7C4FAB4
:10D4000048DF0028FCD0FEF7A9FFF9E784210020BF
:10D410003CE30100841F002051E001006DCB0100BE
:10D42000CD0C000001CF0100B1C70100BC220020DB
:10D430005363616E20737461727465640D0A000039
:10D440008207D30EFF229A408907090E10B5994032
:10D4500000280BDA03071B0F083B9C080C4BA400A9
:10D46000E318DC6994430C43DC6107E08408094B52
:10D47000A400E418236893430B432360C106C90E3C
:10D4800001208840044908600449086010BD00007C
:10D4900000ED00E000E400E080E200E000E100E0F8
:10D4A000F3B52A4C0746E07E81B0002801D0082061
:10D4B000FEBD002F00D1264F01263878314681402D
:10D4C00024488160386800F03EF90021786800F057
:10D4D00031F9214DB8696862787D397D0843E86685
:10D4E00003CFE8606961387B083F01280FD1002134
:10D4F000B86800F01FF9387B3146814015488160DB
:10D50000F86800F020F9F968B868A9602861029805
:10D5100060603969216000280ED0FF230F481D3359
:10D52000397F0022C250FF234533C2500D4A0C48B8
:10D5300050600220FFF784FF042028600020E0757F
:10D540002076A075E676A076FEBD000018270020A4
:10D5500098E3010000050050002500400020004035
:10D560008000020000230040F8B5104B81245E6863
:10D570000022A4000E4D002E00D0AC60DF7D002FF5
:10D580000BD01A7E002A04D0002E00D06C6011202F
:10D59000F8BD18610122197604E0D9750024D8601D
:10D5A0005C761C7600F012F8F8BD00001827002009
:10D5B0000023004010B5044CA07E002803D100F0E9
:10D5C000C3FB0120A07610BD18270020F8B5234D1D
:10D5D000A87E104301D100F0B7FB6868204C0028FA
:10D5E00005D081201F49800048600020F8BDFF2041
:10D5F000453000212150FF212531204600F0C8F898
:10D600000546FF210931204600F0C2F80746FF21F8
:10D610004531204600F0BCF80646394631432943DF
:10D62000E9D02846304306D100F064FB0B48C17DA9
:10D63000407E8142DFD800210848002DC17501D00D
:10D640000320F8BD002E01D00F20F8BD817E0120FF
:10D65000002901D02060C8E76060C6E718270020D5
:10D66000002000400023004010B5034600F048F8B9
:10D67000002801D0112010BD034A0020917593604D
:10D68000908200F003F810BD18270020F8B500269E
:10D69000194FFF251D357E510120B86000F0B2FC06
:10D6A000164C6168002910D022E0FF270137294677
:10D6B000114800F06DF8002802D1A08AB842F6D1D6
:10D6C000A08AB84201D000F09DFCA08AA17D8842CA
:10D6D000EBD3A18AC81FF9380CD0074F294638462A
:10D6E00000F056F80028F9D00120F8600020A0755D
:10D6F0003046F8BD0F26F9E700200040182700202B
:10D700000248807D002800D00120704718270020A3
:10D7100030B552000A439900039C0A432102049D3C
:10D720000A4329040A43024980004018026030BDC0
:10D73000000700501CB500220B46009211460192D2
:10D74000FFF7E6FF1CBD1CB5002100910B4601222E
:10D7500001911146FFF7DCFF1CBD00008200064866
:10D760001018026803231B049A430260026809042C
:10D770000A43026070470000000700500349401848
:10D780000068012800D000207047000000600040C1
:10D790004058002800D00120704703221202801850
:10D7A0004068084000D001207047000030B50446B2
:10D7B000011D0088002587B01B2878D009DC1028BF
:10D7C0007DD0132879D10023A0881A4685217FDFD8
:10D7D00083E01D2805D01F286FD10888091D75DF3B
:10D7E0007BE008460D300490087B0C1DC00869469C
:10D7F000888105AA03A90920FEF760FD002806D04C
:10D8000005AA03A90820FEF759FD002855D13D4877
:10D81000FDF7C6FC002850D009223A480699FDF7CA
:10D82000C6FC002804D1374937A0FEF7ADF8012522
:10D83000344809220B300699FDF7B9FC002805D1C0
:10D84000304931A00B31FEF79FF801252D48092200
:10D8500016300699FDF7ABFC002805D129492AA00E
:10D860001631FEF791F801252CA00699FEF78CF8E9
:10D87000002D22D0234A2046083A11462C318CDF55
:10D88000054601462BA0FEF77FF8002D15D100209C
:10D89000FFF790F9002801D0FEF760FD2079A2790A
:10D8A00061796B4607C3E378A278617802E019E0FA
:10D8B00005E002E025A0FEF767F807B030BD2FA015
:10D8C000FEF762F80720FFF775F9002801D0FEF790
:10D8D00045FDA1883348FEF725FF0028EDD0FEF76F
:10D8E0003DFDEAE70879022805D00328E5D12EA0FE
:10D8F000FEF74AF8E1E736A0FEF746F800F032FA04
:10D90000DBE7000008E30100436F6E6E6563746936
:10D910006E6720746F2025730A0000002025732095
:10D920006973207468652057726F6E67204E616D51
:10D93000652E0000436F6E6E6563742065727263BE
:10D940006F6465203D2025780A000000436F6E6EED
:10D95000656374696E6720746F20746172676574A3
:10D960002025303278253032782530327825303213
:10D970007825303278253032780D0A00202020209A
:10D980002020202020436F6E6E65637465642074D0
:10D990006F20746172676574202020202020202071
:10D9A000200D0A00CC2200205B4150504C5D3A20F3
:10D9B000436F6E6E656374696F6E20526571756535
:10D9C00073742074696D6564206F75742E0D0A0080
:10D9D0005B4150504C5D3A205363616E2074696D19
:10D9E0006564206F75742E0D0A000000F3B583B0D6
:10D9F00003980C46FF3081300988408D81425BD10D
:10DA0000039F4621FF37A137B87948430399461849
:10DA1000608800283DD12046083001903579207A71
:10DA20002818052800D9052030710020009014E046
:10DA300000980A21484301990A2241180C206843A2
:10DA4000801902900A30891CFDF786FB029800219C
:10DA500081820098401C6D1C00903079A842E7D864
:10DA60000C204543A819C288B87946230399584326
:10DA70004018008982420CD23079052809D078718B
:10DA800021880398FFF7C8F9010015D00020F8712C
:10DA900009E000257D71228869460398FFF738FA6E
:10DAA00001000BD0FD7122880398FFF7B9FA0A48EC
:10DAB000032101702188418005B0F0BD68460078DF
:10DAC0000028F9D0228801210398FFF763FA218802
:10DAD000039800F09BF8EFE7D0240020F8B5054646
:10DAE000FF300C4681300988408D814243D12E465B
:10DAF000FF36A136B07946214843421970790C238C
:10DB0000584380180A30864621466088083100282C
:10DB100013D10F881F4BBC460DE0062747437F18E3
:10DB2000BF889F4206D1062358434018418870465B
:10DB3000418102E0401C8445EFD800276846077009
:10DB400070791179401C884203D101206946087020
:10DB500016E07071228869462846FFF7D9F901005E
:10DB60000AD0F77122882846FFF75AFA0A4803219B
:10DB7000017021884180F8BD684600780028FAD0FD
:10DB8000228801212846FFF705FA2188284600F05F
:10DB90003DF8F8BD02290000D024002070B50646EB
:10DBA000FF360C460546A136B07946214843411957
:10DBB000FF20AB302288405B82420AD16088002877
:10DBC00008D000212846FFF7E5F92188284600F013
:10DBD0001DF870BD62890A80A2894A80E289CA80E4
:10DBE000208A088121882846FFF716F90100F0D025
:10DBF0000020F07122882846FFF712FA024803211C
:10DC000001702188418070BDD0240020F8B5044601
:10DC1000FF340646A134207A0F46401CC0B2144996
:10DC20002072C968002588421FD26571A0794621FB
:10DC3000401CC0B241438A19A0710E4980004018AF
:10DC4000018811804088508015710121384690DF8D
:10DC5000010009D0E5713A463046FFF7E1F9054881
:10DC60000321183001704780F8BDE571F7E7000027
:10DC7000CC1E0020B8240020F0B50C4B00210A4A2D
:10DC8000DC680CE08D00AE18B6788778BE4205D10E
:10DC9000555B0688B54201D15868F0BD491CA142C8
:10DCA000F0D30020F0BD0000B8240020CC1E0020DE
:10DCB00070B501240B49600408600B49401088606E
:10DCC000094940398860094D6C602F20FDF702FA40
:10DCD000AC60074D00242F202C61FDF7FBF9EC70A0
:10DCE00070BD000080E100E04013014000100140E1
:10DCF000E41E002030B50A48FF21C57D0022094CF2
:10DD00000931094B002D625007D09969437EC268E2
:10DD1000D154417E491C417630BD986930BD000028
:10DD20001827002000200040002500401FB50123D7
:10DD30006A46137010720348019106C868469047FE
:10DD40001FBD000018270020FF22054825320021B2
:10DD50008150FF220932815001210160704700008B
:10DD60000020004010B507488ADF002801D0FEF7E8
:10DD7000F5FA0120FEF71EFF002801D0FEF7EEFAAB
:10DD800010BD00002CE3010008B5024900200091FD
:10DD900008BD0000B01E002010B50121202805DAC2
:10DDA0001A4A8140114201D1194810BD8107C90E9C
:10DDB000002808DA0207120F083A9208154B920061
:10DDC000D218D26904E08208134B9200D21812686C
:10DDD000CA401106890F042911D200290FD0022947
:10DDE0000DD00E494C68C306DB0E01229A40002C70
:10DDF00008D0400980000B5813430B5004E004483E
:10DE0000401C10BD06480260002010BDFC06FFBC8F
:10DE10000120000000ED00E000E400E01C1F0020F5
:10DE200000E100E0002803D00249C86000207047EC
:10DE30000E207047081F00201CB503490191009176
:10DE4000694660DF1CBD0000B01E002070B50E46A4
:10DE50000546144614211046FDF797F901200021CC
:10DE600020802161217326726572002D00D0A0727E
:10DE7000002070BD10B5FEF763FA10BD70B5002923
:10DE800001D08C0701D0072070BD074C0125A1608F
:10DE900062800649636010DF0028F5D125701620E6
:10DEA000FFF77AFF70BD0000081F002075DE01003B
:10DEB000FEB51F4C00252769E06802906846FFF711
:10DEC000C5F80190FFF78AF906460198002822D08C
:10DED00000230098E16817E00E680A46864202D9DE
:10DEE000301A086012E0801BF31800261660D6680E
:10DEF000D169B446002E07D0FE183602360A5660A5
:10DF000066469660D56115460029E5D12846E16050
:10DF1000FFF7C2F906E02846FFF7BEF9002801D155
:10DF2000002E02D00298FEF797FF00202071FEBD60
:10DF3000E41E00200120024900050860704700002F
:10DF400000E200E010B50E4BD968002906D0026847
:10DF50000C68A24204D8A21A0A60C161D86010BD40
:10DF60000B4604E00B46C969121B002904D00C685B
:10DF70009442F7D3A41A0C600260C161D86110BD4D
:10DF8000E41E0020F8B51D4DEC68002C34D01C4870
:10DF9000002740682969401A0602360A2068B04204
:10DFA00018D8361AC7192246107CE46900280FD009
:10DFB000002010746B69002B07D091695069984755
:10DFC000002805D0FEF7CAF902E051699069884738
:10DFD000002CE3D16978A878814206D1401CC0B2F8
:10DFE000A870022801D10020A87004490006800D05
:10DFF00018310F50FFF79EFFF8BD0000E41E00200F
:10E0000000150140FF2107481D31002242500648FB
:10E01000828A8168895C828A521C82820348C1613B
:10E020007047000000200040182700200025004015
:10E030001FB500216A46117010720448826801926F
:10E04000817506C8684690471FBD0000182700204C
:10E0500070B50178002907D0012901D0022902D129
:10E060004068FEF77BF970BD0D4C0C4D20782818E8
:10E07000FEF770FA2078401CC0B2291820702039B1
:10E08000C97F0A2901D01428EDD322780349054815
:10E09000FEF79EFC0028F8D1207070BD281F0020DC
:10E0A000B01E0020BC2200207CB50178284D01293B
:10E0B0000AD002292FD000292CD129462548FEF765
:10E0C00059F9002833D036E04068017821481038EB
:10E0D000FEF76DF91F4C103C002805D001216A465F
:10E0E00011700190684608E0A068E168081A0128EC
:10E0F00005D1002069460870684669688847A068AD
:10E10000E168081AA188884204D811480121401CFE
:10E11000FFF72AFA7CBD02216A461170C06801909F
:10E120000B480121401CFFF71FFA68460CE0012153
:10E130000748FFF799FA07488168C0688842E9D123
:10E140000320694608706846696888477CBD0000FE
:10E15000DC1E0020C0260020F0B5454D012185B011
:10E1600049022846FFF719FB01270026414C0028E9
:10E1700024D0FF2125312846FFF70AFB00281DD0B7
:10E18000FF2025302E5081203B4980008860A07EF2
:10E19000002800D16F600221684601703749086885
:10E1A00008600390E17D68460172E0680190E675C1
:10E1B000267606CC6846083C90472BE0042128468A
:10E1C000FFF7EBFA002825D0FF2109312846FFF799
:10E1D000DFFA00281ED0FFF78DFDE07D617E8842CA
:10E1E00018D1207E002808D0627EE168E0752069A1
:10E1F000E0602676667610460AE0A07E002800D110
:10E200006F6081201C4980008860E675607EE1684F
:10E21000FFF78CFDFF211D312846FFF7B9FA0028D2
:10E220000DD0A18AA07D814202D2FFF7EBFE06E06D
:10E23000FF211D316E50002801D0FFF7F9FEFF21AC
:10E2400045312846FFF7A4FA00280ED0FF204530BC
:10E250002E50A07E002800D02F60E07D002804D042
:10E26000E675607EE168FFF761FD05B0F0BD000076
:10E270000020004018270020002300408024004098
:10E28000EFF30580C005C00D1AD0103840B2002849
:10E2900008DA0107090F083989080C4A890089182A
:10E2A000C96904E081080A4A890089180968800759
:10E2B000C00EC1400806800F012803D0032803D0F8
:10E2C00002207047002070470120704700ED00E0F9
:10E2D00000E400E042788378521CD2B2934200D12D
:10E2E00000220378934201D1002070470A704168F0
:10E2F00040781822504308187047000001000007BA
:10E300001000C800000090014C6576656C20313922
:10E310004231004C6576656C2036444137004C65CF
:10E3200076656C2043464137000000000100000084
:10E3300000000000A0005000000000000B09080AC7
:10E340000000000000E0D70178240020982400207D
:10E350009ECADC240EE5A9E093F3A3B50000406E4D
:10E3600001010000000002000000000002010000A6
:10E37000000000000000000000000000000000009D
:10E38000000000000000000000000000000000008D
:10E3900000E0D701030000000000000000000000C2
:10E3A000000000000000000000000000000000006D
:10E3B00000E0D70103000000D8E30100B01E0020F8
:10E3C00078000000F0B9010050E40100281F00208F
:10E3D0001010000000BA0100000000000000000062
:10E3E000000000000000000000000000000000002D
:10E3F000000000000000000000000000000000001D
:10E40000000000000000000000000000000000000C
:10E4100000000000000000000000000000000000FC
:10E4200000000000000000000000000000000000EC
:10E4300000000000000000000000000000000000DC
:10E440000000000000000000000000000024F400B4
:040000050001B0C185
:00000001FF
