:020000040007F3
:10A000005054002059A5070061A5070063A507006B
:10A0100065A5070067A5070069A507000000000007
:10A0200000000000000000000000000015A4070070
:10A0300000000000000000006DA507006FA50700EC
:10A0400071A5070071A5070071A5070071A507009C
:10A0500071A5070071A5070071A5070071A507008C
:10A0600071A5070071A5070071A5070071A507007C
:10A0700071A5070071A5070071A5070071A507006C
:10A0800071A507000DA7070071A5070071A50700BE
:10A0900031A7070071A5070035A7070071A50700C4
:10A0A00071A5070071A5070071A5070071A507003C
:10A0B00071A5070071A50700000000000000000066
:10A0C00071A5070071A5070071A5070071A507001C
:10A0D00071A5070071A50700000000000000000046
:10A0E0000000000000000000000000000000000070
:10A0F0000000000000000000000000000000000060
:10A10000000000000000000000000000000000004F
:10A11000000000000000000000000000000000003F
:10A40000DFF80CD000F0ECF80048004705CC07005E
:10A41000505400206FF00200704502D1EFF3098123
:10A4200001E0EFF30881886902380078004A10479C
:10A4300005A60700401E00BF00BF00BF00BF00BF51
:10A4400000BF00BF00BF00BF00BF00BF00BF00BF14
:10A4500000BF00BF00BF00BF00BF00BF00BF00BF04
:10A4600000BF00BF00BF00BF00BF00BF00BF00BFF4
:10A4700000BF00BF00BF00BF00BF00BF00BF00BFE4
:10A4800000BF00BF00BF00BF00BF00BF00BF00BFD4
:10A4900000BF00BF00BF00BF00BF00BF00BF00BFC4
:10A4A00000BF00BF00BFC5D170470000401E00BF05
:10A4B00000BF00BF00BF00BF00BF00BF00BF00BFA4
:10A4C00000BF00BF00BF00BF00BF00BF00BF00BF94
:10A4D00000BF00BF00BF00BF00BF00BF00BF00BF84
:10A4E00000BF00BF00BF00BF00BF00BF00BF00BF74
:10A4F00000BF00BF00BF00BF00BF00BF00BF00BF64
:10A5000000BF00BF00BF00BF00BF00BF00BF00BF53
:10A5100000BF00BF00BF00BF00BF00BF00BFC5D16C
:10A5200070470000056885F308884068FF2464B21E
:10A53000EFF30585002D01D1A646004725460646C6
:10A5400021273FBAF0B40024002500260027F0B4EC
:10A55000F92040B2004700000648804706480047FF
:10A56000FEE7FEE7FEE7FEE7FEE7FEE7FEE7FEE7C3
:10A57000FEE7000059A7070001A4070040EA010315
:10A580009B0703D009E008C9121F08C0042AFAD2A9
:10A5900003E011F8013B00F8013B521EF9D270476D
:10A5A000D2B201E000F8012B491EFBD27047002215
:10A5B000F6E710B513460A4604461946FFF7F0FFC2
:10A5C000204610BD30B504460020034600E05B1C69
:10A5D000934203D2E05CCD5C401BF8D030BD00005C
:10A5E000064C074D06E0E06840F0010394E80700E0
:10A5F00098471034AC42F6D3FFF706FFD8DA0700CD
:10A60000F8DA070010B50C4610B10120086010BD43
:10A61000216891B11148421A814213D03C2A0ED2CE
:10A6200001223C3011F13C0111F8013900F80139E7
:10A630001346521C3C2BF7D904E00E200BE03C22C1
:10A64000FFF79CFF00223C21044801F07BFA0349FC
:10A65000891E08800020206010BD0000827F00203D
:10A6600000F01F02012191404009800000F1E0202C
:10A67000C0F88012704700F01F020121914040098C
:10A68000800000F1E020C0F80011704700F01F02C8
:10A69000012191404009800000F1E020C0F8001243
:10A6A00070474907090E002806DA00F00F0000F194
:10A6B000E02080F8141D704700F1E02080F80014BD
:10A6C00070470000BFF34F8F05480168054A01F449
:10A6D000E06111430160BFF34F8F00BFFDE7000051
:10A6E0000CED00E00400FA05BFF34F8F0548016848
:10A6F000054A01F4E06111430160BFF34F8F00BFD1
:10A70000FDE700000CED00E00400FA050748002119
:10A71000C0F84011C0F84411C0F84811C0F84C11FD
:10A72000C0F80011C0F8041103F062B80010014035
:10A7300002F0FABF074810B5406830B180470028E2
:10A7400007D0BDE8104000F043BBBDE8104002F068
:10A7500087B810BDC02C00202DE9F041914800229F
:10A76000041D0378211D081D0125062B17D126780D
:10A77000360714D10E78C6F30316032E03D10778DB
:10A7800017F0F00F0ED0042E03D1077817F0F00F5A
:10A7900008D0052E03D1067816F0F00F02D0062B54
:10A7A00009D014E04FF08056D6F844627E4FC6F3CD
:10A7B00042363E6002E02678360708D10E78C6F3AE
:10A7C0000316032E03D1067816F0F00F02D0062BE5
:10A7D00006D01DE0754E376827F0807737601AE0A5
:10A7E0002678360714D10E78C6F30316032E03D14C
:10A7F000077817F0F00F0ED0042E03D1077817F06A
:10A80000F00F08D0052E03D1067816F0F00F02D015
:10A81000062B0AD015E04FF08046C6F80C21C6F88A
:10A820001021614E361F326002E02678360708D1CB
:10A830000E78C6F30316032E03D1067816F0F00F38
:10A8400002D0062B05D066E0574C03236434236006
:10A8500002E023781B075ED10978C1F303110529B3
:10A8600059D1007810F0F00F55D151480068514986
:10A8700008604F48001D0068091D08604C480830FA
:10A880000068091D08604A480C300068091D08600E
:10A89000474810300068091D0860454814300068BA
:10A8A000091D08604248183000684249203108609C
:10A8B0003F481C300068091D08603D482030006892
:10A8C000091D08603A4824300068091D08603848AE
:10A8D00028300068091D086035482C300068091DC3
:10A8E00008603348303000683249403108603048F1
:10A8F00034300068091D08602D4838300068091D93
:10A9000008602B483C300068091D0860284840302A
:10A910000068091D086025487438016841F4700119
:10A920000160BFF34F8FBFF36F8F4FF01021D1F84D
:10A930000C02214BC407214811D01D600468002C73
:10A94000FCD0D1F80C4224F00104C1F80C4201689B
:10A950000029FCD01A6001680029FCD01AE0D1F867
:10A960000042002C03DBD1F80042002C14DA1D60F9
:10A970000468002CFCD01524C1F800420568002DA5
:10A98000FCD0C1F8044201680029FCD01A600168BB
:10A990000029FCD0FFF7A8FE0A4909480860BDE875
:10A9A000F0810000E00F00F03C050040FCED00E00D
:10A9B0000404001020C5004004E5014000E401400B
:10A9C0000090D003EC2C002002E008C8121F08C140
:10A9D000002AFAD170477047002001E001C1121F20
:10A9E000002AFBD170472DE9FC5F00251688074639
:10A9F0001580406B14468946A8464FF00C0A112377
:10AA00004FF0020B98B101784846032E48D380F8E6
:10AA100000B02288521C92B2228083542288521C99
:10AA200092B2228009F802102088401C20803A6BE4
:10AA3000DAB12088494600F11205B54230D80B54EE
:10AA400020881023401C80B220800B542088401C9A
:10AA500020800F202388155C401ECD54238840B2EF
:10AA60005B1C23800028F5DA454697F82E0030B1AC
:10AA700033462246494601F03FFF050011D197F8C1
:10AA80002D0030B132462146484600F017FC050043
:10AA900007D1B87820B32088C846001DB04202D93B
:10AAA0005046BDE8FC9F684679DF0028F9D121882F
:10AAB000032008F8010020881921401C80B2208062
:10AAC00008F800102088401C80B2208000EB0801AC
:10AAD000BDF8000002F0CEFE014620880844208028
:10AAE000F878B8B1228897F90310D31C4846B342CE
:10AAF000D6D800F802B022880123521C92B22280DC
:10AB000083542288521C92B2228009F802102088B5
:10AB1000401C20807868B8B1218890F90020CB1CB7
:10AB20004846B342BCD800F801B021880A23491C2A
:10AB300089B2218043542188491C89B2218009F8B7
:10AB400001202088401C2080388950B1CDE9004682
:10AB50004B460622022107F1080002F0FCFE050028
:10AB60009FD1388A50B1CDE900464B4607220321D8
:10AB700007F1100002F0EFFE050092D1388B50B1C2
:10AB8000CDE900464B461522142107F1180002F0CA
:10AB9000E2FE050085D1386A30B133462246494687
:10ABA00000F05CFF0500DBD1786A30B13346224605
:10ABB000494602F0BFF80500D2D197F82C0038B111
:10ABC000334622464946384602F0C0FC0500C7D14C
:10ABD000387838B1334622464946384602F0DCF828
:10ABE0000500BDD128465CE710B50446114890B079
:10ABF000382180798DF83A0041F23050ADF83800B4
:10AC00006846FFF7D4FC02208DF8000000208DF884
:10AC100002000120ADF808000EA803908DF8034053
:10AC20000021684600F0A2FA002801D000F0D0F818
:10AC300010B010BDD83300202DE9F043264C8BB066
:10AC4000A078002834D118212448FFF7B0FCA04692
:10AC5000E078224C00254FF02809012698B304F132
:10AC6000480700950195029510226946F81D039545
:10AC7000FFF7A8FCF8B1F81DCDE9080709A8049072
:10AC800008A806908DF814608DF81C600420FFF76A
:10AC9000ABFF25700220207204A8E060A4F8109099
:10ACA00065820E4873DF08B100F092F888F8026000
:10ACB0000BB0BDE8F0830520FFF796FF26706760B4
:10ACC00025722582ECE7FFE70620FFF78DFF257050
:10ACD00065602572E2E700009C2C0020C033002054
:10ACE0002DE9FF410546087A0E4681070AD0032266
:10ACF0001146284600F012FC002801D000F068F848
:10AD0000BDE8FF812849009001F054FD010011D1F8
:10AD1000254C7168143C009A6069FFF72FFC00987D
:10AD200001F014FD010005D169461F4801F01EFD28
:10AD3000010003D0284601F0C5F8E1E704200190A6
:10AD40000098800802906069039001A801F084F8DF
:10AD500007000BD0092F10D0606901F0C1FC010081
:10AD600002D0284601F0AEF83946E3E7307A21698F
:10AD7000084420616069A061C2E7307A216901441A
:10AD8000216160780028BBD06089401E0004000C5F
:10AD90006081B5D1284600F089FB08B100F018F8B1
:10ADA00020896081ACE70000B02C0020BFF34F8FFA
:10ADB00005480168054A01F4E06111430160BFF3F1
:10ADC0004F8F00BFFDE700000CED00E00400FA0526
:10ADD0000EB500210091CDE901106A4644F2010050
:10ADE000FFF7E4FF0EBD000038B50C46064BE268E5
:10ADF000097853F8225062680092024604F10C0070
:10AE00006369A84738BD0000282C002070B50F4B9F
:10AE1000054605201C785E78A64216D01C78187866
:10AE20009E88B04201DA401C00E0002018705E8865
:10AE3000D86804FB06002860986800EBC4039B8870
:10AE40000B8050F834001060002070BD302C0020C2
:10AE50002DE9F84F254C8146924660880E46814286
:10AE600041D800274FF6FF788DF80070684600F053
:10AE70003FF922786078A188884201DA401C00E01E
:10AE80000020C0B2904204D19DF8000000F054F9B7
:10AE900027E065786078884201DA401C00E00020F5
:10AEA00060709DF8000000F047F9454519D0A06892
:10AEB000B9F1000F40F835A00DD066B16188E068A7
:10AEC000324605FB01004946FFF758FBA06800EB3E
:10AED000C500868002E000EBC50087800020BDE849
:10AEE000F88F0420FBE70920F9E70000302C002050
:10AEF0000EB504E0029ABDF804100098904702AA2B
:10AF000001A96846FFF782FF0028F3D00EBD0000BC
:10AF100030B5CB0008339DB293074FF0000401D049
:10AF2000072030BD044B9A602A44DA605C701C70C4
:10AF300058809980002030BD302C0020074B9B6842
:10AF400023B12AB120B10068037C1BB108207047EF
:10AF5000072070474174426100207047402C002058
:10AF600010B50446082902D00020FFF731FFD4E9CC
:10AF70000010BDE8104008471CB5044ACDE90001A7
:10AF800008216846FFF764FF1CBD000061AF0700A1
:10AF90002DE9F0478046994614460F4690074FF03A
:10AFA000000634D11C4D8CB302F01EFA0320C5F804
:10AFB0001490287004F11800002107EB4703AC60DF
:10AFC00004EBC102491C167056709770506000EB7C
:10AFD000C3000329F4DBEE606E70AE701420FFF73F
:10AFE0003FFB06211420FFF75CFB1420FFF743FB17
:10AFF0000A49C1F8008006211120FFF752FB0748DB
:10B00000001F006828610020BDE8F08701E00720EC
:10B01000FAE7AE60FBE70000402C00200815014075
:10B020002DE9F843DFF870900D461746D9F808105F
:10B03000044651B34CB3052D02D20720BDE8F88376
:10B04000606910B3607C012821D0002602F050FC1A
:10B05000D9F80810804601EBC800694602F067FC89
:10B06000B8B1012100F8041B0C4910C0096880E840
:10B07000E200D9F8081001EBC8009DF800104170FB
:10B080001420FFF703FB0020D8E70820D6E72E4660
:10B09000DCE70420D2E70000402C0020041501402A
:10B0A000F8B5124E0446B168E1B1DCB16069C8B1CF
:10B0B0000027277402F01CFC0546B068694600EBC7
:10B0C000C50002F034FC78B1022101704460B06820
:10B0D0009DF8001000EBC50041701420FFF7D6FA70
:10B0E0003846F8BD0820F8BD0420F8BD402C0020EB
:10B0F00030B5EFF3108172B60D4A9468012324B184
:10B100000370002900D162B630BD93604FF0E02398
:10B11000D3F88051074C25401560C3F88041D3F81F
:10B12000844154605A17C3F8842100220270E8E772
:10B1300044340020FC06FFBC0B498A68002A11D069
:10B1400000280FD1EFF3108072B60B684FF0E022A9
:10B15000C2F800314B68C2F8043100228A6000282E
:10B1600000D162B67047000044340020F0B50C46B0
:10B1700093B01F210726ADF80010ADF8041000278A
:10B1800050B1C17849070DD56A4602A9FFF72BFCDB
:10B19000002808D102AD02E00025ADF800706CB1C6
:10B1A000E07810B1304613B0F0BD01AA0AA92046DC
:10B1B000FFF719FC0028F6D10AAA02E00022ADF838
:10B1C0000470BDF80400C3B2BDF80000C1B2284647
:10B1D00072DFE8E770B5054601461C220F48FFF70D
:10B1E000CDF90F4C00262670286830B101686160E7
:10B1F0004068A060201D7ADF02E00948001D7BDF67
:10B2000000280AD14FF6FF7060806670BDE870407C
:10B21000044A00210448FFF791BE70BD9030002021
:10B22000042C002091D8070060DA070070B51E4C8E
:10B23000068800251B49E289102E15D01B4B112EC4
:10B240001CD0122E29D0502E17D130F8061F914253
:10B2500013D14189022910D1007B10F0010F11D0C8
:10B26000BDE8704000F040BC83884B808369CB60B0
:10B27000C06908614D70002AF2D070BD4FF6FF70B2
:10B2800048804D701868FFF70BFF0028F5D0A169C2
:10B290000029F2D0BDE8704008478268CA60C068E3
:10B2A0000861DDE7042C00209030002060DA070000
:10B2B00001480068FFF7F4BE60DA07007CB5054678
:10B2C00008880C460930904201D90C207CBD6846A4
:10B2D00071DF0028FAD121880820685420881B21BA
:10B2E000401C80B2208029542088401C80B22080DD
:10B2F0002844DDF801100160BDF805108180208828
:10B30000801D80B220809DF8001001B101212954D8
:10B310002088401C208000207CBD0000F0B585B056
:10B320000A4605002FD02888A0F57F41FF392CD090
:10B330001748007848B3164C1020641C0127207071
:10B3400007206070A7700320ADF810000026E11CF4
:10B35000104602F094FABDF8101000960844ADF8BB
:10B360001000019602960396288AADF8000004A802
:10B37000CDE902048DF80270ADF8046028886946B2
:10B38000A6DF05B0F0BD0E20FBE70820F9E70000BE
:10B39000182C002030B585B00D46040039D0BDB35F
:10B3A0006868A8B31C4B4FF6FF7020800FCB0DF1DF
:10B3B000040C8CE80F0041F23050ADF8000001A8F9
:10B3C000811E63DF002821D1221D69460120A0DFF4
:10B3D00000281BD19DF80200A071204600F098FEC5
:10B3E000002813D1204600F0E8FC00280ED12946A1
:10B3F000204600F019FF002808D16868A062A868FC
:10B4000000B1E062054901200870002005B030BDA0
:10B41000FFE70E20FAE7000064DA0700182C00208E
:10B420003EB500283CD000293AD0826A002A37D0A5
:10B430000A88102A23D0112A33D0502A21D0512A29
:10B440002ED104460A4611F8060F022828D1488852
:10B45000238A984224D1907B042821D006281FD02B
:10B4600005281DD02046891C01F0F4FD002817D0C6
:10B47000E16A002914D003B0BDE83040084789884C
:10B4800011E0CA8803899A420AD108228DF8002067
:10B490000A7C12318DF808200191826A6946904732
:10B4A0003EBD4FF6FF7101803EBD0000F0B585B096
:10B4B0000A4605002BD02888A0F57F41FF3928D007
:10B4C0001548007828B3144C1120641C0127207003
:10B4D0000026ADF81070611C104602F0D0F9BDF8DE
:10B4E000101000960844ADF81000019602960396DD
:10B4F000288AADF8000004A8CDE902048DF8027096
:10B50000ADF8046028886946A6DF05B0F0BD0E20BE
:10B51000FBE70820F9E70000182C002030B585B0C3
:10B5200028B30388A3F57F44FF3C22D0124B1B783D
:10B53000FBB1114B10255B1C00241D7059709A70D3
:10B5400001250321ADF81010009401940294039496
:10B55000018AADF8001004A9CDE902138DF802505C
:10B56000ADF8044000886946A6DF05B030BD0E2066
:10B57000FBE70820F9E70000182C002010B504466E
:10B58000FFF754FE21460448FFF74AFF2046BDE876
:10B59000104001F0ABBC0000D833002030B51D498D
:10B5A0008BB001F108020DF1140C3CCA8CE83C0090
:10B5B0004968099120B105A818DF08B1FFF708FC18
:10B5C0004FF4F42013DF08B1FFF702FC124B4822BE
:10B5D000124909A802F03AF808B1FFF7F9FB012176
:10B5E0006A46084602F00CF808B1FFF7F1FB0120AB
:10B5F0008DF80C00684601F0F9FF08B1FFF7E8FB91
:10B60000074802F03DF8002801D0FFF7E1FB0BB03E
:10B6100030BD000048DA070039D60700D82E0020D8
:10B6200015D7070038B50068401C18D000246846BC
:10B6300000F048F90098017801290FD1418851B1F3
:10B6400081684FF440500022806800F07BFA009936
:10B650004988814201D1012400E00024204638BD00
:10B6600070B511DF08B1FFF7B3FB4FF0E021002008
:10B67000D1F800315FF0010404FA00F21A420AD056
:10B6800042B202F01F0504FA05F15209920002F1DC
:10B69000E022C2F88011401C2028EDD34FF4405422
:10B6A000A06813DF08B1FFF793FBA068BDE8704006
:10B6B00000F006B908B5684600F004F90098017872
:10B6C000A52904D00079AA2801D0002008BD0120B6
:10B6D00008BD10B500F034FE18B900F0CDFA00280E
:10B6E00013D0642001F0A6FB00F0EDFD08B1FFF7D8
:10B6F0006FFB00F025FE08B1FFF76AFB00F09AFA35
:10B70000040001D0FFF764FB204610BD00B587B0F0
:10B710001422084901A8FEF731FF05980DF1040C29
:10B7200000909CE80F0000F013F802F07BF907B0DE
:10B73000002000BD80DA070010B500F00FFC0028E3
:10B7400005D100F005FF044602F06CF9204610BD5B
:10B750002DE9F84304460E4617461D466846DDF8B7
:10B76000208000F0AFF814F0FF024FEA14412F4C94
:10B770002F484FF001034FF0FF0C10D0012A14D0D6
:10B78000032A23D00021022A2DD0052A3FD0042AE3
:10B7900044D0062A01D104202070BDE8F8834180FE
:10B7A0008560037080F804C00BE04180F1192944E2
:10B7B0008160A521017080F804C0C0F81880C660BF
:10B7C0000EE023701A4800F063F8E6E700990A7863
:10B7D00002704A88428089688160AA210171C6602E
:10B7E000C0E90475EDE7009A1578A52D0AD005701B
:10B7F000558845809268826080F804C0C16001610C
:10B800004161DEE74180816080F800C0F4E700F02C
:10B810007FFE08B1FFF7DCFA0320BDE741808160BD
:10B8200080F800C0009909790171CBE7602C0020F5
:10B83000A03100200EB5084A07CA8DE8070001F0C4
:10B840003BFD002806D105494FF4FE2048606846BC
:10B8500001F052FD0EBD000074DA0700642C0020D8
:10B8600038B50446684600F02DF80098017821703C
:10B87000418861808168A16001792171C168E160BE
:10B8800001692161416961618069A06138BD000081
:10B8900010B504461C21094801F004FD08B1FFF76A
:10B8A00097FA00231C222146044801F037FD0028A6
:10B8B00003D0BDE81040FFF78BBA10BD642C002008
:10B8C000FEF730BE014901607047000000F007003C
:10B8D00070B5174C0F20217801EB410104EBC10238
:10B8E0001449536912F8045F4968012D0ED0032DE5
:10B8F0000BD14FF08050006980B2B3FBF0F00844E8
:10B9000028DF002801D10121A17070BD0803516812
:10B9100056690D1A3118926818441044B5F5805FC5
:10B9200002D2AA0829DFECE74FF4806229DFE8E7BA
:10B93000AC300020202C002000EB40020548002104
:10B9400000EBC200022201718160C0E90421816123
:10B95000C1607047AC3000202DE9F041134C069EC9
:10B9600065780A2D1FD027783D44EDB20A2D01D30A
:10B970000A3DEDB205EB450504EBC5052871AA614A
:10B98000D1E90001C5E90401C5E90236A17800202A
:10B9900021B9FFF79DFF112800D100206178491CD3
:10B9A0006170BDE8F0810420FBE70000AC300020AE
:10B9B0002DE9F05F2648C168F1B3DFF898B00E6852
:10B9C0008146DBF800400769C078E11B21F07F4524
:10B9D000ED1CB0B9DFF880804FF48030C8F8440324
:10B9E000C8F804031120FEF73BFE1120FEF743FECA
:10B9F0004FF0010AC8F800A02F20FEF757FD89F884
:10BA000003A0B54200D23546124BE8193C3320F072
:10BA10007F401860DBF800105A46091B21F07F4177
:10BA2000001B20F07F40C91C81420FD910681860AC
:10BA30002F20FEF73BFD00E004E0BDE8F05F1120A1
:10BA4000FEF724BEBDE8F05F01F0CEBCBDE8F09F7C
:10BA5000402C002004150140001001402DE9F04168
:10BA600017880646B81D14460D46984202D90C2088
:10BA7000BDE8F0813188072206290AD34FF4486CCB
:10BA80004FF6FF73614501D9994202D170880628AB
:10BA900001D21046ECE7604501D99842F9D19942AC
:10BAA00003D0984201D08142F3D80520E855208880
:10BAB0001221401C80B2208029542088401C80B272
:10BAC00020804119308801F0D5FE2188084480B2D9
:10BAD00020804119708801F0CDFE21880844208023
:10BAE0000020C5E7FFF774B9F8B5134800F0F0FE81
:10BAF000114D0026114C0C3D30B16169B9B10120E6
:10BB00008DF80000684611E0287820B1616971B1B4
:10BB10008DF80060F6E7687858B1A16808480022FF
:10BB20000068FFF77DFA10B1A16901B188472E7056
:10BB3000F8BD6168F2E70000102C00209030002072
:10BB400060DA070010B5044612B11088002211E037
:10BB50004FF6FF70FAE7030A43EA0023A05C58405F
:10BB6000C0F30313584080EA003080B2C3B280EAC9
:10BB70004310521C8A42EED310BD000030B5164C63
:10BB800087B01648E16801F08DFB08B1FFF720F996
:10BB90001248E268083800234168083001F0BEFB13
:10BBA000050015D1142101A8FEF701FD00208DF834
:10BBB00004000A480DF1040C20388088ADF8060016
:10BBC000E0680490059800909CE80F00FFF7C0FD26
:10BBD00007B0284630BD0000DC3100208C2C00204E
:10BBE000032161F3070008B50549064B898861F315
:10BBF0001F400ECB0094FFF7ABFD002008BD0000F6
:10BC00006C2C0020E0310020012138B561F30700E1
:10BC10000649074B898861F31F404FF440518C68F7
:10BC20000ECB0094FFF794FD002038BD6C2C002053
:10BC3000E031002000B58BB004A8FFF711FE089892
:10BC400000280CD0079860B107990A980844002191
:10BC5000CDE90010089880080290684618DF0BB004
:10BC600000BD4FF440508068C0F5F421C1F30C02D0
:10BC7000891A00EB5100EAE700B58BB004A8FFF782
:10BC8000EFFD089800280FD0079878B107990A9817
:10BC90000844032100914FF4F421CDE901100898E4
:10BCA00080080390684618DF0BB000BD4FF4405089
:10BCB0008068C0F5F421C1F30C02891A00EB510031
:10BCC000E7E7000070B504000BD000223C210B48D0
:10BCD000FFF738FF094DAD1E2988884203D00B209D
:10BCE00070BD0E2070BD3C2204492046FEF746FC84
:10BCF0002888401C2880002070BD0000827F002022
:10BD000070B515460A4603281FD0042824D1134CC9
:10BD100039B1E088A0F57F41FF391DD0132176DFCE
:10BD20000DE0284600F0DCFC08B1FFF751F8A069EF
:10BD3000A84211D1012203210948FFF7EFFB002897
:10BD40000AD0BDE87040FFF743B80121104601F06A
:10BD50007EF802460121EFE770BD00009C2C002018
:10BD6000D833002000B587B01422074901A8FEF798
:10BD700005FC05980DF1040C00909CE80F00FFF7FE
:10BD8000E7FC07B000BD000098DA070070471FB558
:10BD900003230093CDE9010190080390684618DF62
:10BDA00004B010BD1FB501230093CDE90101900837
:10BDB0000390684618DF04B010BD30B58FB005465B
:10BDC0001C216846FEF7F3FB00249DF80000019457
:10BDD00040F018008DF80000039404940594069434
:10BDE000A8798DF8360041F23150ADF834000C944A
:10BDF0009DF83000142120F0FF008DF830009DF8F0
:10BE0000310020F00F00401C20F0F00010308DF8C1
:10BE100031009DF8320020F00600801C20F0080060
:10BE200040F011008DF8320007A8FEF7C0FB0DA806
:10BE300007900CA80890ADF824401720ADF82640D4
:10BE4000ADF828000B94A88805F1100307AA6946ED
:10BE5000A2DF0FB030BD000070B5050004D0287A15
:10BE6000800703D0102070BD0E2070BD144C607888
:10BE7000032803D0042801D0052801D0082070BD74
:10BE80006868E1688600A0683044884204D94FF0B1
:10BE9000FF30A0600C2070BD00F01CFB0028FAD120
:10BEA000A9683246A368206901F038FA0028F2D167
:10BEB000A1683144A160E2689142ECD0092070BDD4
:10BEC0006C2C002010B50A4604460321104600F0F1
:10BED000BEFF024603212046FFF720FB002803D0C7
:10BEE000BDE81040FEF774BF10BD0000094810B552
:10BEF0004078072801D0082010BD07480068FFF7E8
:10BF0000CFF808B1FEF764FF04488068BDE8104030
:10BF1000004700006C2C002094DA07006C320020EF
:10BF200010B50D4C6078052813D1D4E90201884280
:10BF30000FD10620607000F0CDFA002808D12069EA
:10BF4000E168406800F092F8002801D10721617093
:10BF500010BD082010BD00006C2C0020FEB51D4E49
:10BF60001D4C06F11800002507C88DE80700A570D4
:10BF7000A58004F12001684601F0BEF908B16570A2
:10BF8000FEBD15494FF44050203180684860216A59
:10BF9000A161C0F5F421C1F30C02891A00EB510034
:10BFA0000D490E4A1831486000210A48FEF7C6FFC5
:10BFB00008B1FEF70DFF00224FF470113068FFF753
:10BFC0002FF808B1FEF704FF0120A5606070002083
:10BFD000FEBD000094DA07006C2C0020B9C40700F5
:10BFE00010B5094C0820A16801B110BD6178042981
:10BFF000FBD1A178054800F047F810B10021A170ED
:10C0000010BD0521617010BD6C2C0020EC310020AA
:10C010002DE9F041134C07466078032805D0042829
:10C0200005D008252846BDE8F08104206070A0688E
:10C0300008B10820F7E700F04DFA0500F3D1786861
:10C040008600A0788119802901D90920EBE7064AEA
:10C05000B96810443246FEF791FAA0783044A070D7
:10C06000E0E700006C2C0020EC31002010B500222D
:10C07000FFF768FD03490988884201D00B2010BDF5
:10C08000002010BD7832002070B500250C290ED399
:10C0900043180189044600EB4101581A0A38C2B21C
:10C0A0001948022A027002D30A318B4201D20920B8
:10C0B00070BD1648FEF762FA4FF010214FF6FF7080
:10C0C000B1F88020824202D02388934219D1B1F87E
:10C0D0008210814202D06088884212D120894FF6B6
:10C0E000FE724FF44053A8420BD904EB4501498935
:10C0F000914204D09E896D1CB6B2B142F3D10020AA
:10C1000070BD0B2070BD0000942C00207832002000
:10C1100030B58FB005461C216846FEF748FA00246A
:10C120009DF80000019440F004008DF80000039495
:10C13000049405940694A8798DF8360041F23250A3
:10C14000ADF834000C949DF83000142120F0FF006D
:10C150008DF830009DF8310020F00F00401C20F0D9
:10C16000F00010308DF831009DF8320020F006000C
:10C17000801C20F0180040F001008DF8320007A864
:10C18000FEF715FA0DA807900CA80890ADF824400A
:10C190001420ADF82640ADF828000B94A88805F1CE
:10C1A000080307AA6946A2DF0FB030BD084910B5E1
:10C1B000A1F12000016102214170C168203001F02D
:10C1C00071F8002803D0BDE81040FEF701BE10BD95
:10C1D0008C2C00200C4910B5A1F11800016102213E
:10C1E00041704FF440508068C0F5F420C0F30C015A
:10C1F000401A4108044801F055F8002803D0BDE872
:10C200001040FEF7E5BD10BD842C002001494861B7
:10C21000704700006C2C002038B5062565F3070038
:10C220000094FFF795FA38BD70B58EB00E460546FE
:10C230001C216846FEF7BBF900249DF8000001941C
:10C2400040F002008DF800000394049405940694D5
:10C25000A8798DF8360041F23450ADF834000C94D2
:10C260009DF83000142120F00F00401C20F0F00059
:10C2700010308DF830009DF8310020F0FF008DF86F
:10C2800031009DF8320020F00600801C20F01800DC
:10C2900040F001008DF8320007A8FEF788F90DA8DC
:10C2A00007900CA808900220ADF82400ADF82640B5
:10C2B000ADF828000B96A88805F1200307AA694667
:10C2C000A2DF0EB070BD2DE9F04188B06846FFF7DF
:10C2D000C7FA039800282BD0069A00F580504FF437
:10C2E0008051904227D9A2F5805044081046039A05
:10C2F00000EB440687184FF440500D46806801EB70
:10C30000440890420ED204F5805004220146FFF703
:10C3100049FD00280CD1294604220846FFF742FDBA
:10C32000002805D1BA1B23464146304600F038F8B4
:10C3300008B0BDE8F081039A0698FFF733FDF7E7F0
:10C3400030B58FB002A8FFF78BFA0598002817D0F8
:10C35000089A00F580504FF48051904216D9A2F50A
:10C360008050430810464FF44054059AA468059D38
:10C37000024400EB430001EB4301AC4202D20E2029
:10C380000FB030BD121A00F00BF8F9E70BAB032029
:10C3900083E80700059880080E900BA818DFEFE7E8
:10C3A0002DE9F0411C4617460D460646FFF7EFFC07
:10C3B000002818D0B5F5805F07D92346291B301B0C
:10C3C0001A46FFF7EDFF00280DD13A4629463046C0
:10C3D000FFF7E8FC002806D13A4629463046BDE87A
:10C3E000F041FFF7D4BCBDE8F081000070B54268B1
:10C3F0002848D2E90043D2E90212C0E90212C0E99A
:10C4000000430078440701D5840705D19C0703D178
:10C410008C0701D1940701D0062070BD1E4D0B443E
:10C420001A44EA60B1F5A04F1AD81A4CC3074FF46A
:10C43000405104F190040AD08868C0F5F42090427D
:10C440000ED31648206016486060164813E08968CD
:10C45000C1F5F421C1F30C03C91AB2EB510F01D994
:10C460000C2070BD1049216010496160800701D522
:10C470000F4800E00F48A0606878012802D0082625
:10C48000304670BD00F026F80600FAD12168E86851
:10C490008847F5E7DC3100206C2C0020ADC1070097
:10C4A00065BD070009BC0700D5C107008DBD0700A9
:10C4B000E1BB07007DBB070068B5054E012535705F
:10C4C000052565F307000094FFF742F968BD0000F9
:10C4D0006C2C00200C4810B5007808B1082010BD65
:10C4E0000A4C2068FEF7DCFD08B1FEF771FC002263
:10C4F0004FF470112068FEF793FD040001D0FEF7A1
:10C5000067FC204610BD00006C2C002094DA070068
:10C5100010B50E4C01202070E088A0F57F41FF3956
:10C5200005D0132176DF50B1FEF752FC07E0A0786A
:10C5300028B174DF08B1FEF74BFC0020A070FEF7B5
:10C54000B7FE08B1FEF744FC002010BD9C2C002073
:10C5500030B53F4D87B000242C702C713D4801F060
:10C560003BF800286FD13C48FFF750FE00F0A4F8DC
:10C57000002868D13948FFF7A5FB002865D0684638
:10C5800071DF08B1FEF724FC9DF801006946401CEC
:10C590008DF80100002070DF08B1FEF719FC9DF84E
:10C5A00008002FA120F00F00401C20F0F0001030F8
:10C5B0008DF80800082202A87CDF08B1FEF708FC0D
:10C5C00000940C20ADF8000018200194ADF8020092
:10C5D000ADF804404FF4C870ADF8060068467ADF45
:10C5E00008B1FEF7F5FB08200094ADF800001F48E5
:10C5F00001901F480290194869463038FEF7CAFE7C
:10C6000008B1FEF7E5FB1C216846FDF7D0FF40F6B8
:10C61000CD40CDE900404FF48040029003208DF8DA
:10C620000C001448ADF80E408DF81040CDE90540DF
:10C630006846FEF7CFFD08B1FEF7CAFB00F046FFE3
:10C64000FEF7FAFA002007B030BD0120E870A6E737
:10C650009C2C00207DB5070001BD07000834002098
:10C660004177617265444655000000004DD10700D6
:10C67000D5D50700E5BA07000E4910B54A788C7881
:10C680000023A24212D0521CD2B24A70022A00D118
:10C690004B70084A4B78183252F823200260086920
:10C6A000104420F07F400861012010BD036000208D
:10C6B00010BD0000402C002007480021074A0170EF
:10C6C00002F5907002600822C0E90121C160016199
:10C6D0004161816108467047952C0020843200201A
:10C6E000F0B5194A0646916861B355691020691A78
:10C6F00001F00701D2F800700B46012401EBC10CD8
:10C7000007EB8C0CB44506D1956904FA01F6754027
:10C710000020956104E0491C01F007018D42EDD134
:10C72000491C956901F0070104FA03F31D420AD17F
:10C730009368002B07D05B1E936053685B1C5360AB
:10C740000B46F1E70420F0BDA43300200649202366
:10C750000A7C0968521E02F0070202EBC20203EBD8
:10C760008202885000207047A433002070B5D0B1F9
:10C77000C9B10F4AD368C3B15B1ED36093685B1C19
:10C7800093605369156803EBC30405EB84060660E8
:10C79000202000EB84005B1C2858086003F0070091
:10C7A0005061002070BD0E2070BD042070BD0000DF
:10C7B000A433002010B5E9B100220A60104A536882
:10C7C000E3B1202818D85B1E5360D068401CD060AD
:10C7D0001069136800EBC00403EB84030B600123B2
:10C7E00083409169401C194300F00700916110617A
:10C7F000002010BD0E2010BD0C2010BD042010BD67
:10C80000A4330020FEB50446087A82070ED000F05B
:10C810000302C2F104030022154604E04E683554B9
:10C82000401CC0B2521C9A42F8D3087201200090FA
:10C8300048680290087A800801906846FFF7E8FB94
:10C8400000280BD0022100F002FB02460221204604
:10C85000FEF764FE002801D0FEF7BAFAFEBD000024
:10C86000F8B51A4C207800282ED0206928B100266F
:10C87000E06820B1002526B110E00126F8E7012587
:10C88000F9E7684652DF052803D020B1FEF7A0FA89
:10C8900004E0012602E021690098884785B9608894
:10C8A000ADF800006946A06861DF052803D020B11B
:10C8B000FEF78EFA04E0012502E0D4E90201884780
:10C8C000002EDED0002DD6D0F8BD0000C02C0020F8
:10C8D000054940880A88904204D34988884201D893
:10C8E0000120704700207047082C0020800701D0ED
:10C8F000002070470120704730B51488E51C9D4228
:10C9000001D90C2030BD02250D5513881C245B1C59
:10C910009BB21380CC5413885B1C9BB213800128FC
:10C9200007D0022807D0032807D0042807D0072003
:10C9300030BD002004E0012002E0CD5401E00320DE
:10C94000C8541088401C1080002030BD10B5264C03
:10C95000A07818B9E07808B9207958B10B2000F018
:10C96000BDFAA07840B1132000F0A5FA132000F022
:10C97000ADFA08E00B2022E00021132000F092FA2B
:10C98000132000F0ABFAE07830B1142000F093FAF5
:10C99000142000F09BFA06E00021142000F082FA37
:10C9A000142000F09BFA207968B1112000F083FA7E
:10C9B000112000F08BFA122000F07DFA1220BDE861
:10C9C000104000F083BA0021112000F06BFA112012
:10C9D00000F084FA0021122000F064FABDE8104053
:10C9E000122000F07BBA0000D42C002070B5164C49
:10C9F00060700025257060780B2000F05CFA0B2039
:10CA000000F064FA132000F056FA132000F066FAE2
:10CA1000142000F050FA142000F060FA112000F009
:10CA20004AFA112000F05AFA122000F044FA1220BB
:10CA300000F054FAA570E5702571FFF787FF01201B
:10CA40002070607870BD0000D42C002010B508B1B3
:10CA5000012300E000230848837001B10121C17067
:10CA60000AB1012100E0002101710B2000F036FA2B
:10CA7000BDE81040FFF76ABFD42C00202DE9F04735
:10CA8000DFF8ACA0DAF80C009AF8004080469AF87B
:10CA90000460DAF80890DAF810703AE009EBC4059F
:10CAA0002A7833E002EB42016B68521C03EBC101B0
:10CAB000AB78D2B2934200D100220B78022B02D085
:10CAC000032B23D11FE0D1F804C00346014603E045
:10CAD000614503D00B46C969C1B1F9E7B1B18B42D9
:10CAE00005D1C06918B9134F0126BE600027D1F8DF
:10CAF00000C0C969D96149B10B6863440B6005E0A6
:10CB00000174C06900E000210028F9D169789142E0
:10CB1000C8D1641EE4B2C1D2CAE903078AF804602E
:10CB2000404502D00120BDE8F0870020FBE700006F
:10CB3000402C0020001001402DE9F04705462F4809
:10CB4000002680460778D0F80C904BE0D8F8080013
:10CB500000EBC70440E002D02846ED691EE02078D3
:10CB6000616800EB4002401CC0B201EBC2012070C2
:10CB7000A278904200D126700A784868012A2DD107
:10CB8000027C5ABB8A684260CA6882600A69C260D5
:10CB90004969816198F8041001B146604268D8F88B
:10CBA0001030DFF85CC0D11A21F07F41614502D21C
:10CBB0008268114406E0991A826821F07F418A4216
:10CBC00002D9511A016000E00660466001218660CA
:10CBD0000174C66100F0EEFD002DBCD120786178B3
:10CBE0008842BCD17F1EFFB2B0D2D8F80C104945A4
:10CBF00002D00120BDE8F0870020FBE7402C002098
:10CC0000FFFF7F0045480168B1294AD00024002079
:10CC1000FFF7ECFE4FF010204069B0F5F42F02D082
:10CC20000020FEF7D5F84FF080500069B0F5805F26
:10CC300002D00020FEF7CCF8394B3A4A05210020FB
:10CC4000FEF7A6F908B1FEF7C3F8374A01213748C5
:10CC5000FEF774F908B1FEF7BBF8344D3449286883
:10CC60000860FEF7E7FDFEF725FDF0B10022114652
:10CC70000120FFF7EBFEFEF72CFD08B1FEF7A8F848
:10CC800084F00100FEF78AFC00F0CCFBFEF73EFDCD
:10CC900008B1FEF79DF8002211461046FFF7D6FEB8
:10CCA00008E0012400210160B1E70120FEF776FCD5
:10CCB00000F0B8FB4FF44056FCB100224FF4F011E5
:10CCC0002868FEF7ADF908B1FEF782F800220121CD
:10CCD0001046FFF7BBFEFEF72FFD08B1FEF778F810
:10CCE000002211461046FFF7B1FEB068FEF79AFC2D
:10CCF00060B1FEF7DFFC30B108E0B068FEF792FCEF
:10CD00000028E3D0F1E7B068FEF7AAFC0122114643
:10CD10001046FFF79BFEFDF7D5FC00001C05004008
:10CD200079AF0700102D002019D7070048DA070057
:10CD3000002C002070B5144682880E4605462088D7
:10CD4000111D0144921C994201D8FE2A01D90C20E0
:10CD500070BD521C32542088FF21401C80B22080BC
:10CD600031542088401C80B220808119288800F02E
:10CD700081FD2188084480B22080AA8842B1A96838
:10CD800041B13044FDF7FAFB2088A988084420808F
:10CD9000002070BD072070BDF8B50E46017814461E
:10CDA0000546012901D1687830B12088821C9A4259
:10CDB0002DD8012902D006E00720F8BD697801448A
:10CDC000891C994223D8181A801E87B2ADF80070CA
:10CDD0002188B01C084469467DDF0028EDD1287801
:10CDE000022805D1BDF80010B94201D809210AE096
:10CDF0000821012805D16878B84202D8ADF80000B2
:10CE000001E0ADF80070BDF80000FE2801D90C204B
:10CE1000F8BD2288401CB0542088401C80B220807D
:10CE200031542088401C2080BDF800100844208028
:10CE30000020F8BD31B540F2E73404E0401E009018
:10CE40002046FDF7F7FA00980028F7D138BD0828EA
:10CE50000BD003DC38B106280FD108E00B280AD02C
:10CE60000C280AD105E001207047022070470320FA
:10CE7000704704207047042901D006207047052020
:10CE8000704730B541EA4201DDE9034541EA8301DB
:10CE9000800041EA042100F1A04041EA0541C0F8C8
:10CEA000001730BD1CB500220B46009211460192BE
:10CEB000FFF7E7FF1CBD1CB5002100910B460122C6
:10CEC00001911146FFF7DDFF1CBD000001218140EB
:10CED00001480160704700000C05005001218140AD
:10CEE00001480160704700000805005030B5564CFD
:10CEF00002880021E588A7B0192A0AD01EDC112A71
:10CF00003DD008DC022A7DD0102A02D18088E08042
:10CF1000A17027B030BD4D49132A01F1180443D048
:10CF2000142AF6D1028A4B8D00259A4200D125465B
:10CF30000023CA1D8088294686DF1BE0512A65D060
:10CF40000EDC1A2A7DD01B2AE3D1007A0028E0D11A
:10CF5000A170E068401EE06047D0FDF76DFED8E7A5
:10CF6000522A6ED0552AD4D180790028D1D11321EC
:10CF7000284676DF0028CCD0FDF72AFFC9E78020BD
:10CF8000ADF894003220E060012325AA05A92846C7
:10CF9000AADF08B1FDF71CFF207808B9FDF74CFEA9
:10CFA0004FF6FF70E080B4E72848C91D483850F8B4
:10CFB000482F09928288ADF8282080798DF82A00C0
:10CFC000102205A8FDF7DAFA1C22214614A8FDF765
:10CFD000D5FA05A810901C4A14A81C320F900BAB70
:10CFE000852128467FDFC5E70CE01422184905A8F3
:10CFF000FDF7C4FA099805AC009094E80F00FEF71D
:10D00000A7FB86E70021284667DFB3E7817900297F
:10D01000A5D0807B042803D0062801D005289ED106
:10D0200002290CD05FF001008DF804004FF4C170AC
:10D03000ADF8080001A92846A8DF9BE701E002201F
:10D04000F2E700F053FA95E79C2C0020083400200A
:10D05000C4DA0700F0B58BB001274FF0020E054689
:10D060008DF80CE08DF812700889ADF8140048892D
:10D07000ADF8160001F10C00002608960690ADF8F8
:10D0800020E007A8ADF8226009900C46A98A2888FC
:10D0900008AAA5DF18B1E96AC9B1884717E09DF869
:10D0A0001C0010F0010F12D0ADF81060288803A901
:10D0B000A8DF002812D1217B04F10D00092943D2F9
:10D0C000DFE801F0420E1D2326282A402C0040F202
:10D0D000FD10ADF81000288803A9A8DF0BB0F0BD43
:10D0E0008DF800600DE006221DE000BF8DF808708D
:10D0F0000190AA6A6946284690470020EEE78DF81D
:10D1000000706289022AF1D2EDE78DF800E0F0E7C5
:10D11000032012E0042010E005200EE060890328BF
:10D1200005D2032208212846FEF7F8F9D6E7B4F81D
:10D130000D00ADF8040018B106208DF80000D8E706
:10D140000720FAE70920F8E70322ECE770B50D465F
:10D15000064609780120344C0A2916D2DFE801F08E
:10D160001F243E050D16565B415FFEF7D9FE0421D4
:10D17000FFF76DFE0246042127E0FFF7C9F908B169
:10D18000FDF726FEFEF7B2FE28B970BDFFF7C0F925
:10D1900008B1FDF71DFEBDE87040FFF73DB82071F6
:10D1A00068680078607170BD20480068FDF778FFFE
:10D1B00002202071686800780128F4D1FEF710FF82
:10D1C0000221FFF744FE024602213046FEF7A6F98F
:10D1D0000028E8D0BDE87040FDF7FABD03202071BB
:10D1E00070BD227930462946012A07D0022A09D08B
:10D1F000032AF5D1BDE87040FDF772BDBDE870406F
:10D2000000F048BABDE87040FFF7FCBA6070A8882B
:10D210002081608170BD00206070208170BD30462B
:10D220002169FEF77BF8D3E79C2C0020002C00201E
:10D2300006480378012B03D1012901D10221017095
:10D24000100001D0FDF7C4BD70470000602C002025
:10D2500070B5124C1E4615466078012902D003298C
:10D2600014D107E0052811D163697BB13246294604
:10D2700004200AE0022809D10948406880470320B9
:10D280006070636913B1324629469847280003D07D
:10D29000BDE87040FDF79CBD70BD00006C2C002007
:10D2A0006C32002008B50B46002201460320009294
:10D2B000FEF752FB08BD000070B50D4E00240D486E
:10D2C000746025460470447084702846FEF734FB71
:10D2D0006D1C0A2DF9D306493460002008317460B2
:10D2E00041F82040401C0228FAD3002070BD000005
:10D2F000202C0020AC300020074B1A68022A09D0ED
:10D300000A6003F10801006841F82200521C002065
:10D310001A60704704207047202C0020F8B507469B
:10D320001D4616460C460846FFF7E0FA58B160194C
:10D33000FFF7DCFA38B13346224639460120009522
:10D34000FEF70AFBF8BD1020F8BD000070B5244CB4
:10D3500006460022A078012841D100232146A3706F
:10D360000D78022E05EB450001EBC00103D0032E22
:10D3700035D10D202EE01B484668761C4660896832
:10D38000B1EB063F15D843606078401E6070681CA2
:10D39000C0B220700A2801D30A38207005EB45007E
:10D3A00004EBC0011046091DFDF71EFD2846FEF7DF
:10D3B000C3FA6078002812D0A07800280FD1FEF7B9
:10D3C00087FA00280BD0112809D0217801EB410100
:10D3D00004EBC101BDE87040091DFDF705BD70BD3E
:10D3E000AC300020202C002070B5012670044FF0D6
:10D3F000E0210025C1F88001084C4010C4F8480322
:10D40000C4F8080366602F20FDF750F8A660044CAE
:10D410002F202561FDF74AF8E57070BD001001402E
:10D42000402C002010B5064A14210820FDF770FD9D
:10D43000002803D0BDE81040FDF7CABC10BD0000B5
:10D44000202F002010B50121202803DA1D4A814039
:10D45000114004E0402803DAA0F12002914041B1DC
:10D46000002809DA00F00F0101F1E02191F8141D04
:10D4700006E042F2010010BD00F1E02191F8001435
:10D480004909082914D299B1012911D004290FD0D2
:10D4900005290DD00C4A946800F01F030121994022
:10D4A000400944B152F820300B4342F8203007E0E5
:10D4B00042F2020010BD800000F1E020C0F800112F
:10D4C000002010BDFC06FFBC443400200648017853
:10D4D00021F07F01303121F080010170072141707E
:10D4E0001021817070470000B82C002070B5154CD9
:10D4F0004FF6FF75E088A84201D1082070BDE178A1
:10D50000D1B1012308221049A9DF0028F6D1022356
:10D5100000221146E088A9DF0028EFD12A460C211D
:10D52000E088A7DFA0F54051023903D0082801D0D8
:10D53000891EE3D1002070BD00231A461946A9DFD9
:10D5400070BD00009C2C00203C3400202DE9F041EF
:10D550000746806A14468846C8B3002531E000BFFC
:10D56000B96A05EB450001EB8006B088801CFE28F7
:10D5700002D90C20BDE8F0812288401C08F8020086
:10D5800020881622401C80B2208008F800202088C5
:10D59000401C80B2208000EB0801308800F06AF95E
:10D5A0002188084480B22080B28842B1B16871B14C
:10D5B0004044FCF7E3FF2088B188084420806D1CBC
:10D5C000EDB297F82C00A842CAD80020D2E7FFE7B6
:10D5D0000720CFE7FDF7FCBB18B10349C860002066
:10D5E00070470E2070470000C02C00201CB5034976
:10D5F00001910091694660DF1CBD0000002C0020F5
:10D6000070B50E460546144614211046FCF7CFFFB0
:10D61000012020800021216121732672657205B1ED
:10D62000A072002070BD10B511B10020FDF7D0FB35
:10D63000BDE81040FFF714B90021024A0846FDF783
:10D6400007BC000027D60700FDF7B0BB30B409B116
:10D650008C0702D0072030BC7047074C0125A16021
:10D6600062800649636010DF0028F4D1257030BC69
:10D670001620FFF7E7BE0000C02C002049D60700A7
:10D6800018B103490861002070470E207047000060
:10D69000C02C002010B588B00446002000900190F6
:10D6A0000290039019481A4A40798DF800001068DA
:10D6B000926804906846CDE90502087A0C2805D0E6
:10D6C00003221CE0FDF784FB08B010BD4868C27857
:10D6D000016862F31F610191C279416862F31F61C1
:10D6E0000291C17A806861F31F60039004A8FEF77D
:10D6F0007DFE0028E8D00121FFF7A9FB02460121A9
:10D700002046FDF70BFF0028DCD1DDE79C2C002034
:10D71000B8DA0700FFF71ABE012211461046FFF7DC
:10D7200095F9FCF7CFFF00002DE9F84F204C0025BC
:10D730006846D4E903B6FEF79FFF8046FFF79EF9DF
:10D740000746A946B8F1000F25D00023009ACC4621
:10D75000E06819E007680146974202D9BA1A0260E8
:10D7600014E0C1F800C0D1F80C80D21BC8693B445A
:10D770008A46B8F1000F07D0F71827F07F47C1E9B4
:10D780000178CAF81C500D460028E3D1E060284615
:10D79000FFF7D2F904E02846FFF7CEF900B917B138
:10D7A0005846FEF705F984F80490BDE8F88F0000AC
:10D7B000402C00200D4B10B5D96831B102680C68BF
:10D7C000A24204D8A21A0A60C161D86010BD0B46FB
:10D7D00003E00B46C969121B21B10C689442F8D3CF
:10D7E000A41A0C600260C161D86110BD402C0020F9
:10D7F0002DE9F0411D4DEC68002C35D01C48002768
:10D8000000682969B846401A20F07F462068B04277
:10D8100015D82246361A0744E469107C68B182F8AC
:10D8200010806B6933B1D2E90501984728B1FDF743
:10D83000CFFA02E0D2E905108847002CE6D16978DA
:10D84000A878814206D1401CC0B2A870022801D13C
:10D8500085F802800548A978183040F82170BDE8A5
:10D86000F0411420FCF712BFBDE8F081402C0020ED
:10D87000041501400870000A4870022070470870C3
:10D88000020A4A70020C8A70000EC87004207047A9
:10D8900038B515494888A0F57F42FF3A23D04A7829
:10D8A000124C521CD2B24A70237B93420AD3091DF8
:10D8B00075DF002817D0A169002914D001B0BDE898
:10D8C0003040084700254D70217C29B13B2176DF8F
:10D8D00010B1A16901B188476169002903D08DF8B1
:10D8E00000506846884738BD042C00209030002046
:10D8F000EFF30580C005C00D13D0103840B20028EA
:10D9000006DA00F00F0000F1E02090F8140D03E0BB
:10D9100000F1E02090F800044009022803D0062816
:10D9200003D00220704700207047012070474278E2
:10D930008378521CD2B2934200D1002203789342E2
:10D9400001D1002070470A704168407800EB400028
:10D9500001EBC00070472DE9FC411646DDE9085493
:10D96000CDE900541F468046022200F00CF8002842
:10D9700007D1CDE900543B4610223146404600F025
:10D9800002F8BDE8FC812DE9FC5F0026DDE90C4BC7
:10D99000994692468E4680462788354630E0D8F82C
:10D9A0000400002200EB850069460068019001A890
:10D9B00065DF002830D19DF8000050451FD10EB121
:10D9C000002100E00221228808441118594522D87C
:10D9D00046B9521C90B2208009F800E02088401C13
:10D9E00020800126218801A801EB0902694665DF34
:10D9F000002811D120889DF80010084420806D1C5B
:10DA0000B8F80000A842CADC56B12088C01B401EEE
:10DA100080B2FF2802D90C20BDE8FC9F09F807005E
:10DA20000020F9E710B5074C48DF08B1FDF7D0F941
:10DA3000FDF75EFA2078022803D0032801D00428DD
:10DA4000F2D110BD602C0020F02C00200100000756
:10DA500002000000000000000000000000000000C4
:10DA60007030002023D1BCEA5F782315DEEF12125C
:10DA70000000000031D2070000000000000000009C
:10DA80000200000000000000000000000000000094
:10DA900000000000BC310020040000000000000075
:10DAA00000000000000000000000000051D207004C
:10DAB0000000000000000000030000000000000063
:10DAC0000000000005000000000000000000000051
:10DAD0000000000000000000F8DA0700002C002021
:10DAE000F0000000C8A90700E8DB0700F02C0020C8
:10DAF00060270000D8A90700000000000000000017
:10DB00000000000000000000000000000000000015
:10DB10000000000000000000000000000000000005
:10DB200000000000000000000000000000000000F5
:10DB300000000000000000000000000000000000E5
:10DB400000000000000000000000000000000000D5
:10DB500000000000000000000000000000000000C5
:10DB600000000000000000000000000000000000B5
:10DB700000000000000000000000000000000000A5
:10DB80000000000000000000000000000000000095
:10DB900000000000000000000000FFFF0000000087
:10DBA0003200000000000000000000000000000043
:10DBB0000000000000000000000000000000000065
:10DBC0000000000000000000000000000000000055
:10DBD0000000000000000000000000000000000045
:08DBE000000000000090D003DA
:020000041000EA
:0410140000A0070031
:020000041000EA
:0410180000E00700ED
:040000050007A4014B
:00000001FF
