:020000040001F9
:10F00000C87A00207DF5010085F5010087F5010033
:10F0100089F501008BF501008DF50100000000006D
:10F020000000000000000000000000008FF501005B
:10F03000000000000000000091F5010093F50100C0
:10F0400095F5010095F5010001020200C9FE0100DD
:10F0500095F5010095F501003DFB010029FD01003A
:10F0600095F5010095F5010095F5010095F5010074
:10F0700095F5010095F5010095F5010095F5010064
:10F0800095F5010079FC010095F5010095F5010069
:10F09000FDFF010095F501000100020095F501005A
:10F0A00095F5010095F5010095F5010095F5010034
:10F0B00095F5010095F5010000000000000000003A
:10F0C00095F5010095F5010095F5010095F5010014
:10F0D00095F5010095F5010000000000000000001A
:10F0E0000000000000000000000000000000000020
:10F0F0000000000000000000000000000000000010
:10F1000000000000000000000000000000000000FF
:10F1100000000000000000000000000000000000EF
:10F40000DFF80CD000F05CFB00480047A160020070
:10F41000C87A0020401E00BF00BF00BF00BF00BF71
:10F4200000BF00BF00BF00BF00BF00BF00BF00BFE4
:10F4300000BF00BF00BF00BF00BF00BF00BF00BFD4
:10F4400000BF00BF00BF00BF00BF00BF00BF00BFC4
:10F4500000BF00BF00BF00BF00BF00BF00BF00BFB4
:10F4600000BF00BF00BF00BF00BF00BF00BF00BFA4
:10F4700000BF00BF00BF00BF00BF00BF00BF00BF94
:10F4800000BF00BF00BFC5D170470000401E00BFD5
:10F4900000BF00BF00BF00BF00BF00BF00BF00BF74
:10F4A00000BF00BF00BF00BF00BF00BF00BF00BF64
:10F4B00000BF00BF00BF00BF00BF00BF00BF00BF54
:10F4C00000BF00BF00BF00BF00BF00BF00BF00BF44
:10F4D00000BF00BF00BF00BF00BF00BF00BF00BF34
:10F4E00000BF00BF00BF00BF00BF00BF00BF00BF24
:10F4F00000BF00BF00BF00BF00BF00BF00BFC5D13D
:10F5000070470000401E00BF00BF00BF00BF00BF2B
:10F5100000BF00BF00BF00BF00BF00BF00BF00BFF3
:10F5200000BF00BF00BF00BF00BF00BF00BF00BFE3
:10F5300000BF00BF00BF00BF00BF00BF00BF00BFD3
:10F5400000BF00BF00BF00BF00BF00BF00BF00BFC3
:10F5500000BF00BF00BF00BF00BF00BF00BF00BFB3
:10F5600000BF00BF00BF00BF00BF00BF00BF00BFA3
:10F5700000BF00BF00BFC5D17047000006488047EC
:10F5800006480047FEE7FEE7FEE7FEE7FEE7FEE788
:10F59000FEE7FEE7FEE700008500020001F401003F
:10F5A00010B5431A934209D28318881803E010F863
:10F5B000011D03F8011D521EF9D210BD40EA0103DE
:10F5C0009B0703D009E008C9121F08C0042AFAD219
:10F5D00003E011F8013B00F8013B521EF9D210BDC7
:10F5E000D2B201E000F8012B491EFBD27047002285
:10F5F000F6E710B513460A4604461946FFF7F0FF32
:10F60000204610BD421C10F8011B0029FBD1801AB6
:10F61000704730B504460020034600E05B1C93426F
:10F6200003D2E05CCD5C401BF8D030BD2DE9FE4F2D
:10F6300081EA030404F0004421F0004100944FF0FB
:10F64000000B23F0004350EA01045ED052EA0304A9
:10F650005BD0C3F30A54C1F30A552C44A4F2F3342B
:10F660000194A0FB0254C1F3130141F48011C3F3D0
:10F67000130343F4801301FB024400FB034E840A8E
:10F68000970A44EA815447EA8357A4FB0768029526
:10F690008D0A05FB07854FEA932C04FB0C542705C4
:10F6A000029D4FEA065847EA1637B5EB08056EEBA0
:10F6B000070C870E920E47EA811742EA8312A7FBD6
:10F6C0000201B6EB0B0164EB00042B0D43EA0C3393
:10F6D0005E1844EB1C50DA465146E7FB0201C5F3C5
:10F6E00013044FEA0B3343EA14534FEA0432019CEC
:10F6F00043EA0603A4F10C040294009CCDE900B493
:10F7000000F03EF903B0BDE8F08F00200146F9E7B4
:10F710002DE9F04D81EA030404F0004B21F000458F
:10F7200014464FF0000A23F0004150EA050220D0B1
:10F7300054EA01021DD0C5F30A570246C5F313036C
:10F74000C1F31300C1F30A5640F4801543F480134B
:10F75000A7EB0608101BD64608F2FD3873EB050030
:10F7600002D308F1010801E092185B41B8F1000FE3
:10F7700003DA00200146BDE8F08D00204FF480112F
:10F78000064684460EE0171B73EB050705D3121BD4
:10F7900063EB050306434CEA010C49084FEA3000CD
:10F7A00092185B4150EA0107EDD152EA030012D0F2
:10F7B00082EA040083EA0501084305D0101BAB412F
:10F7C00006D20122002306E000224FF0004302E0AF
:10F7D0006FF0010253101AEB06004CEB085110EBCE
:10F7E0000A0041EB0B01BDE8F04D00F0BAB80EB5D0
:10F7F00040F2334102910021CDE900110A460B4647
:10F8000000F0BEF803B000BDC1F30A5210B5C1F359
:10F81000130140F2FF3341F480119A4201DA0020D3
:10F8200010BD40F233439A42A2F2334203DC52420B
:10F8300000F050F810BD904010BD01F0004330B40E
:10F8400021F0004150EA010206D00A0DA2F56072D3
:10F85000C1F31301002A02DC30BC00207047440FC2
:10F8600044EAC104C100E01830BC00EBC25000F013
:10F8700041B82DE9F05F0546002092469B46884638
:10F880000646814640241BE028464146474622461C
:10F8900000F020F853465A46C01A914110D3114641
:10F8A0001846224600F01EF92D1A67EB01084F4654
:10F8B00022460120002100F015F917EB00094E4106
:10F8C000201EA4F10104DFDC484631462A464346A7
:10F8D000BDE8F09F202A04DB203A21FA02F0002143
:10F8E000704721FA02F3D040C2F120029140084350
:10F8F000194670470029A8BF7047401C490008BF3F
:10F9000020F00100704710B4B0FA80FC00FA0CF04F
:10F9100050EA010404BF10BC704749B1CCF1200487
:10F9200021FA04F411FA0CF118BF01212143084314
:10F93000A3EB0C01CB1D4FEA00614FEA102042BF40
:10F94000002010BC704700EBC35010440029A4BF36
:10F9500010BC7047401C490008BF20F0010010BCDB
:10F96000704710B5141E73F1000408DA401C41F111
:10F97000000192185B411A4301D120F0010010BD33
:10F980002DE9F04D92469B4611B1B1FA81F202E0A9
:10F99000B0FA80F22032904600F0A4F804460F46F8
:10F9A00040EA0A0041EA0B0153465A46084313D085
:10F9B000114653EA010019D0C8F140025046FFF742
:10F9C00089FF05460E4650465946424600F08AF8E1
:10F9D000084305D0012004E020463946BDE8F08DFB
:10F9E0000020054346EAE0762C4337430A98630536
:10F9F000E40AA0EB08000022FD0A44EA47540A305A
:10FA000002D500200146E9E7010510196941DDE949
:10FA1000084500196941BDE8F04DA2E72DE9F04D18
:10FA200000231A461B1A8A4103DB00200146BDE869
:10FA3000F08DC1F30A52C1F3130141F480154FF068
:10FA4000000BD10702D100186D41521E0027044659
:10FA500040F2FF11384601EB620A3E4680460246FC
:10FA600000204FF48011FFF735FFC2197141BB1818
:10FA700046EB0100B4EB030C75EB000C04D3E41A65
:10FA800065EB000517460E46241908F101006D418B
:10FA900080463428E3DDF91946EB0600091BA8412E
:10FAA00003D24FF0FF32134601E0002213461BEB56
:10FAB000070046EB0A51BDE8F04DFFF752BF0000CA
:10FAC000064C074D06E0E06840F0010394E80700AB
:10FAD00098471034AC42F6D3FFF796FCD4B002003E
:10FAE000F4B00200202A04DB203A00FA02F10020E0
:10FAF00070479140C2F1200320FA03F3194390406C
:10FB0000704730B58C1810F8012B12F00F0301D19B
:10FB100010F8013B120906D110F8012B03E010F890
:10FB2000015B01F8015B5B1EF9D101E001F8013BCB
:10FB3000521EFBD1A142E6D3002030BD2DE9F8438F
:10FB400000250121484C2E464FF480702B46AC46D0
:10FB50004FEA010700F1804202F5C042D2F800806E
:10FB6000B8F1010F09D1D4F8048318EA010F04D0C9
:10FB7000C2F800C012680D430092001D49005B1CD2
:10FB800080B2082BE6D339480168012907D1C0F8B3
:10FB900000C000680090364845F000450668DFF870
:10FBA000D49015F0FF0F1CBF4FF00108002417D0B0
:10FBB00018EA050F0FD0A00000F1804101F5C04107
:10FBC000D1F81005D1F81015C0F3042059F82420FD
:10FBD000C1F301419047641C4FEA4808082CE7D361
:10FBE00015F0004F14BF0024BDE8F88309EB0400B2
:10FBF00090F95010B1F1FF3F20D090F8501021F053
:10FC0000C00009EB000292F9302059F822C0BCF183
:10FC1000000F13D0890907FA00F5820002F1A04213
:10FC2000D2F800373542C3F3014302D0022B02D091
:10FC300004E0032B02D1032905D0E047641C042C07
:10FC4000D4D3BDE8F883022B14BF02230323D2F8D8
:10FC5000005725F44035C2F80057D2F8005745EA5E
:10FC60000343C2F80037E8E7006000407C610040D1
:10FC700010050050B42F00202DE9F04126484FF028
:10FC80000008C0F84081C0F84481C0F84881C0F83D
:10FC90004C81C0F80081C0F80481204FFC68002C22
:10FCA00008BFBDE8F08100261D4800683969401A88
:10FCB00020F07F452068A84216D822462D1A064417
:10FCC000E469107C70B182F810807B693BB1D2E9A5
:10FCD00005019847002818BF01F032F902E0D2E987
:10FCE00005108847002CE5D17978B878814206D193
:10FCF000401CC0B2B870022808BF87F802800948CB
:10FD0000B97840F821604FF0E0214FF48010C1F83D
:10FD10000002BDE8F081000000100140D82800205A
:10FD200004150140F02800202DE9F043634D83B015
:10FD3000D5F804010026624C0127002871D0C5F8CF
:10FD40000461214694F82A304A68C868898A012BE0
:10FD500017D063895B1C63816389B4F808C09C4534
:10FD60001FD18DF8006001922289ADF8082084F837
:10FD70002760002818BF07F005FA68462168884701
:10FD800064E08DF8006001922289ADF80820002817
:10FD90001FBF60602181E6602F6008BF84F8276084
:10FDA000EBE794F829000023010101F1804101F5FE
:10FDB000E041C1F81435C1F810356189414B02EBBF
:10FDC000410101221960191D0A60401CC0B284F86B
:10FDD000290008281DD2C0B204EB4001897D91B1F1
:10FDE000020604EB4001120D02F18042887D02F50B
:10FDF000E042C97DC2F81415C2F810052F606F608B
:10FE000003B0BDE8F083401CC0B284F82900082884
:10FE1000E1D3002004EB4001897D19B184F8290069
:10FE200004E013E0401CC0B20828F3D394F8290082
:10FE300004EB4002000100F18040917D00F5E040BC
:10FE4000D27DC0F81425C0F810152F60D5F8140124
:10FE500000281FBFC5F8146184F8276003B0BDE80F
:10FE6000F0832569002D19BF4FF000484FF48C79BD
:10FE700003B0BDE8F08300BFB5FA85F028FA00F1C1
:10FE80008D4309EB800101F1804000F5E0400268FC
:10FE900072B10660A1F58C70C1088DF8041027EAD4
:10FEA00090008DF800708DF805002168684688473D
:10FEB000002DE1D103B0BDE8F083000000700040E8
:10FEC000583500202C7600402DE9F043494885B094
:10FED000D0F824C1022501210023474ABCF1000FBC
:10FEE00006D0C0F82431D0F804C1BCF1000F32D0E4
:10FEF000D0F80491404CB9F1000FD4E9047694F89D
:10FF00000CC0D4F80C8094F8254030D0C0F80431EF
:10FF1000CDE90276CDF8048092F82360A6B1BCF159
:10FF2000010F0CBFD0F83C75D0F84C75FFB28DF8BE
:10FF30000670BCF1020F0CBFD0F83CC5D0F84CC520
:10FF40000CF0FF0C8DF807C0C0F86031C0F85C31D0
:10FF50004CB38EB327E09368C0F80833956092687D
:10FF6000C0F804230162416105B0BDE8F083C0F828
:10FF70004831BCF1000F11D04FF40073C0F80032CB
:10FF80009B1C93604FF0FF33C0F808339268C0F8B1
:10FF900004238160016205B0BDE8F083CDE90276FB
:10FFA000CDF8048044B94FF0000CC0F800C2936053
:10FFB0004FF0FF3CC0F808C3D0F8C4C4C0F8C4C4B4
:10FFC0001CF0020F18BF8DF800100AD0002C08BFDB
:10FFD00082F82430516812686846904705B0BDE841
:10FFE000F0831CF0040F14BF8DF800508DF8003022
:10FFF000ECE70000003000400C3000200AF014B99B
:020000040002F8
:10000000F8B51F4C606838B18047002808BFF8BDBC
:10001000BDE8F84000F094BF2078002808BFF8BD84
:10002000206900280CBF01250025E06800280CBFCE
:100030000126002665B9684652DF052808BF01255C
:1000400006D010B100F07CFF02E0216900988847DB
:1000500086B96088ADF800006946A06861DF0528B0
:1000600008BF012606D010B100F06AFF02E0D4E913
:1000700002018847002DDED0002EDBD0F8BD000045
:100080000029002070B453485349012400780A1D08
:10009000131D4FF0000C062804BF0D7815F00F0F4C
:1000A00008D1157805F0F005302D04BF1D7815F046
:1000B000F00F06D0062804BF0D7815F00F0F4AD1B7
:1000C00040E04648016821F0807101604449032006
:1000D000C1F800004FF08040C0F80CC1C0F810C15A
:1000E0004048016841F470010160BFF34F8FBFF3D6
:1000F0006F8F4FF01025D5F80C023B4910F0010F1F
:100100003A4A3B4B3B4818BF1C6034D00468002C73
:10011000FCD0D5F80C4224F00104C5F80C42046868
:10012000002CFCD0C3F800C00368002BFCD0BFF348
:100130004F8F086800F4E06010430860BFF34F8FF2
:1001400000BFFDE7157805F0F005302D04BF1D78E0
:1001500015F0F00FBAD0062804BF087810F00F0F82
:10016000BED1107800F0F000302804BF187810F0ED
:10017000F00FB5D1AEE7D5F8006216F0004F06BF1C
:10018000D5F8006216F0004F1C601DD00468002CEA
:10019000FCD01526C5F800620468002CFCD0C5F818
:1001A00004620468002CFCD0C3F800C00368002B74
:1001B000FCD0BFF34F8F086800F4E0601043086084
:1001C000BFF34F8F00BFFDE70C490B48086070BCC0
:1001D00070470000E00F00F0E40F00F0FCED00E0DD
:1001E000A005004088ED00E00CED00E00400FA05F9
:1001F00004E5014000E401400090D003402A0020C3
:100200002DE9F04F974C0025214694F81C90D1E938
:10021000030891F817C00B7E4A68934E01270968BE
:1002200085B04FF0020AB9F1000F73D0D6F82491CF
:10023000B9F1000F12D0C6F824518DF800A0D6F8FD
:100240008034C6F880340393D6F83C3501908DF89D
:100250000830E57525766846904727E0D6F8109176
:10026000B9F1000F22D0C6F81051D6F83C9509F02C
:10027000FF09CC451AD18BB1D6F800C22CF0200C66
:10028000C6F800C2E375C4F80C80257601908DF89D
:1002900000708DF808906846904707E0E57501907A
:1002A0008DF800708DF8089068469047D6F84401A4
:1002B00080B1C6F84451E07D60B1E575D6F83C05E3
:1002C000E1688DF808008DF800700191D4E9001202
:1002D00068469047D6F82001002804BF05B0BDE865
:1002E000F08FC6F82051A07D002804BF05B0BDE8FE
:1002F000F08FD6F84C058DF800508DF80800A068F6
:100300000190A575D4E900126846904705B0BDE894
:10031000F08FFFE7D6F8049319F4007FDFF84491DB
:1003200099F81A901CBFD6F824B1BBF1000F18D071
:10033000C6F824514FF40173C6F80833B9F1000F21
:1003400008BF77608DF800A0D6F88034C6F88034F6
:10035000019003938DF808C0E575257668469047AF
:100360003FE0D6F804A31AF0040F1CBFD6F808A18A
:10037000BAF1000F35D0BCF1000FC6F80851D6F81D
:1003800018A509D094F819B000F80BA094F819A09A
:100390000AF1010A84F819A094F819A0D44520D1D3
:1003A00073B194F819C0E375C4F80C8025766576AE
:1003B00001908DF800708DF808C06846904710E0F5
:1003C000B9F1000F08BF77604FF40173C6F8083326
:1003D000E575637E01908DF800708DF808306846F1
:1003E0009047D6F81C01D0B1A18AA07DC6F81C5157
:1003F000814208D2A18AA068405CA18A491CA182DE
:100400001A4908600BE050B18DF800508DF80800D3
:10041000A0680190A575D4E9001268469047D6F807
:100420004401002804BF05B0BDE8F08FC6F8445170
:10043000A07E002818BF3760E07D002804BF05B00B
:10044000BDE8F08FE575607EE1688DF808008DF8F5
:1004500000700191D4E900126846904705B0BDE8EC
:10046000F08F000034300020002000401C250040A8
:100470000FB4054B10B503A9044A029800F060F8C8
:1004800010BC5DF814FB00002D3C0200D4280020B5
:100490000021016081808171704700B52DED048BD2
:1004A000B0EE409AF0EE609A83B051EC190BFFF772
:1004B000B5FA41EC180B18EE100A18EE901A8DEDF3
:1004C000008B002818BF0120084320F00040C0F135
:1004D0007F6000F1E040C00F14D019EE101A19EE41
:1004E000900A8DED009B002918BF0121084320F0E0
:1004F0000040C0F17F6000F1E040C00F04BF012068
:1005000000F018F8B0EE480A03B0F0EE680ABDEC4F
:10051000048B00BD02E008C8121F08C1002AFAD1EE
:1005200070477047002001E001C1121F002AFBD173
:10053000704700000149086070470000442A00200D
:100540002DE9FF4F8DB00F460546002606E0252811
:100550000BD0DDE90F1290476D1C761C287800281F
:10056000F5D111B03046BDE8F08F0024A246A14677
:100570000122EC4900E0044315F8013F203B02FA58
:1005800003F00842F7D128782A2810D06FF02F0204
:100590002878A0F13001092914D80AEB8A0102EB6E
:1005A000410144F0020400EB010A6D1CF0E701CFA9
:1005B0005FEA000A03D544F40054CAF1000A44F08B
:1005C00002046D1C28782E2817D115F8010F44F06D
:1005D00004042A280ED06FF02F022878A0F13001F1
:1005E00009290AD809EB890102EB410100EB010955
:1005F0006D1CF2E757F8049B6D1C28786C280FD00F
:1006000006DC4C2817D068280DD06A2814D104E0E5
:10061000742810D07A280FD10DE044F400140AE0B9
:1006200044F4801401E044F440146978814202D11A
:1006300004F580146D1C6D1C2A786E2A1FD00CDC0A
:10064000632A31D004DC002A8BD0582A11D1A3E0D0
:10065000642A68D0692A0CD165E0732A2ED004DCA4
:100660006F2A73D0702A04D19BE0752A6FD0782A44
:100670006ED01046DDE90F129047761C50E1C4F3AE
:100680000250022806D0032809D0042801CF09D03F
:10069000066045E101CFF117C0E9006140E101CFFB
:1006A00006803DE106703BE117F8040B8DF8000071
:1006B00000208DF80100EB46012003E057F804BB51
:1006C0004FF0FF3061074FF0000102D40DE008F158
:1006D0000101884649450FDA8045F8DB1BF8081010
:1006E0000029F4D108E008F1010188468142FADBD3
:1006F0001BF808100029F6D1DDE90F23AAEB08004A
:100700008146214600F036F9304400EB080604E04B
:10071000DDE90F121BF8010B9047B8F10108F7D281
:1007200021464846F7E00A21C4F302534FF0000B7C
:100730000891022B04D001CFC117032B09D00AE086
:10074000FF1D27F00707F7E8020108E032E01FE08D
:1007500020E000B2C117042B01D140B2C117031E23
:1007600071F1000307DA4FF0000CD0EB0C006CEBDA
:1007700001012D2302E0230504D52B238DF824301D
:10078000012303E0E30701D02023F7E7984658E070
:100790000A2110E010210EE010204FF0000B08900D
:1007A0000CE010214FF0000B44F004044FF0080956
:1007B000089103E008214FF0000B0891C4F30253A5
:1007C000022B04D001CF0021032B06D006E0FF1D31
:1007D00027F00707F7E8020103E080B2042B00D1FD
:1007E000C0B24FF0000823072BD5702A07D0DDF8E0
:1007F00020C08CF0100C5CEA0B0C05D00EE04023FE
:100800008DF82430012308E050EA010306D030239C
:100810008DF824308DF8252002239846DDF820C07D
:100820008CF0080C5CEA0B0C0BD150EA010301D1EF
:10083000630706D530238DF824304FF00108A9F165
:100840000109582A04D038A20B9208AA0A920BE098
:100850003AA2F9E75B46089AFFF70BF80B9B9B5C03
:100860000A9A521E0A92137050EA0102F2D10A98B3
:10087000ADEB000000F1200B600702D524F48034BA
:1008800001E04FF00109D94502DDA9EB0B0000E0C2
:10089000002000EB0B0141440890AAEB010AE003A1
:1008A00006D4DDE90F232146504600F063F80644E4
:1008B0004FF0000908E009A911F80900DDE90F125D
:1008C000904709F10109761CC145F4DBE0030CD522
:1008D000DDE90F232146504600F04CF8064404E0C1
:1008E000DDE90F1230209047761C0899481E0890C9
:1008F0000029F5DC08E00A980A990078491C0A9159
:10090000DDE90F129047761CBBF10001ABF1010B42
:10091000F1DC21465046DDE90F2300F019F80644CA
:100920006D1C1BE60928010030313233343536376F
:10093000383961626364656600000000303132332B
:1009400034353637383941424344454600000000CB
:100950002DE9F041044600251E461746880404D4BC
:1009600005E039462020B0476D1C641EF9D52846A5
:10097000BDE8F0812DE9F041044600251E46904671
:10098000C80301D5302700E02027880404D505E0FE
:1009900041463846B0476D1C641EF9D52846BDE86F
:1009A000F081000001498860704700001429002090
:1009B0002DE9F04103F0C0F92B4C08262B4FE268DB
:1009C000217C042512784FF0000891423ED1D4E9F1
:1009D00000120A44824208D2226061612089208389
:1009E000A4F808800120BDE8F081814238D9206058
:1009F0003878002834D01EA123A0FFF739FD2FE05E
:100A000006EBC0000858D4E900130B4498420AD3FF
:100A1000616160680844206020892083A4F8088010
:100A20000120BDE8F081884205D3012A09D120893F
:100A3000401C208105E0387818B10DA112A0FFF705
:100A400017FD207C401C00F01F002074207CE16812
:100A500005EBC0028A5C022A1CBF0B789842CFD1FA
:100A60000020BDE8F0810000A85A002004280020E2
:100A7000492057696C6C204E65766572205072690A
:100A80006E742121210D0000257300002DE9F04F27
:100A900083B04FF0000816880D46A2F80080074684
:100AA000416B14464FF00C0911204FF0020A91B12E
:100AB0000978032EC0F0F18185F800A02288521C2D
:100AC00092B22280A8542288521C92B22280A95449
:100AD0002188491C2180396B31B3228802F112032D
:100AE000B34200F2DA81A85420881023401C80B25F
:100AF00020802B542088401C20800F2022880B5CF3
:100B0000AB5422880B18521C92B2228013F801CCED
:100B100005F802C02288801E521C40B22280B0F12B
:100B2000FF3FEBDC4FF0000897F82E004FF0070B6B
:100B30004FF0010E38B32188CA1CB24200F2AD81D9
:100B400005F801A021881C22491C89B221806A5421
:100B50002188491C89B22180012808BF00200ED0BD
:100B6000022808BF05F801E00AD0032808BF05F8ED
:100B700001A005D0042808BF032040F085816854F7
:100B80002088401C208097F82D0070B32088093001
:100B9000B04200F28281684671DF00281CBF03B0BA
:100BA000BDE8F08F08212288A9542088401C81B21A
:100BB00021801B2068542088401C80B2208028445B
:100BC000DDF801100160BDF8051081802088801DCE
:100BD00080B220809DF80010002912BF05F800E0C7
:100BE000002129542088401C2080B87808B3208830
:100BF000001DB04200F25181684679DF00281CBF19
:100C000003B0BDE8F08F032022881921A854208862
:100C1000401C80B2208029542088401C80B2208053
:100C20002844BDF800100170090A41702088801C1A
:100C30002080F878B0B1218897F90300CA1CB2422D
:100C400000F22B8105F801A02188491C89B221807E
:100C500005F801E02188491C89B221806854208868
:100C6000401C20807868B0B190F900102088C21C28
:100C7000B24200F2128105F800A020880A23401C2D
:100C800082B22280AB542088401C82B22280A954B8
:100C90002088401C2080388970B1CDE900462B4661
:100CA0000622022107F1080009F0EEFF5FEA0008C2
:100CB0001CBF03B0BDE8F08F388A70B1CDE90046A3
:100CC0002B460722032107F1100009F0DDFF5FEA40
:100CD00000081CBF03B0BDE8F08F388B70B1CDE9C0
:100CE00000462B461522142107F1180009F0CCFF0D
:100CF0005FEA00081CBF03B0BDE8F08F386AD0B3CC
:100D0000B4F800C00CF106018E427DD30288062A99
:100D10007BD34FF6FF73B2F5486F01D99A4274D175
:100D20004188062971D3B1F5486F01D999426CD138
:100D30009A421CBF99428A4267D8052205F80C20C6
:100D400021881223491C89B221806B542188491CB7
:100D50008AB222802A4401881170090A51702188C0
:100D6000891C89B22180294440880870000A487093
:100D70002088801C2080D7F824A0BAF1000F2DD045
:100D8000BAF804002188021D0A44801CB24298BFB0
:100D9000FE2839D8401C68542088FF22401C80B2AD
:100DA00020802A542088401C81B221802944BAF82E
:100DB00000000870000A48702088801C80B22080E3
:100DC000BAF8042052B1DAF80810F1B12844FEF75D
:100DD000E7FB2088BAF804100844208097F82C001C
:100DE000E8B3B96A89B14FF0000A00283CD900BFC6
:100DF000B86A0AEB4A0100EB8108B8F80400801CCD
:100E0000FE284AD8228801E047E03DE0401CA85473
:100E100020881621401C80B2208029542088401C44
:100E200081B221802944B8F800000870000A487097
:100E30002088801C80B22080B8F8042052B1D8F8F5
:100E4000081009B32844FEF7ABFB2088B8F804105B
:100E5000084420800AF1010000F0FF0A00E005E0EC
:100E600097F82C005045C3D84FF000083978E1B30B
:100E7000012904BF7878002806D02088821CB2425D
:100E80000BD801290DD103E003B05846BDE8F08F1F
:100E900079780144891CB14203D903B04846BDE8C2
:100EA000F08F301A801E86B2ADF800602088A91C31
:100EB000084469467DDF00281CBF03B0BDE8F08F01
:100EC0003978022905D1BDF80000B04298BF092049
:100ED0000AD90820012905D17978B14298BFADF827
:100EE000001001D9ADF8006000E012E0BDF800107C
:100EF000FE29D2D82288491CA9542188491C89B2CC
:100F0000218068542088401C2080BDF800100844CF
:100F1000208003B04046BDE8F08F0000BFF34F8F44
:100F200005480168054A01F4E06111430160BFF31F
:100F30004F8F00BFFDE700000CED00E00400FA0554
:100F400084B000210091CDE901106A4644F201000D
:100F5000FFF7E4FF8268C368934204BF052070472F
:100F6000826883881A4003689A5C0A708168491C09
:100F7000816000207047002904BF0E20704712B125
:100F8000531E134201D00920704701608380002165
:100F90008160C160084670478268C3689B1A828876
:100FA000934284BF04207047C3681A400368995471
:100FB000C168491CC160002070470000084B9B6855
:100FC0003BB1002A12BF0028072070470068037C4D
:100FD0000BB1082070474174426100207047000047
:100FE000D82800202DE9FF5F14460F46804612F0F6
:100FF000030F1EBF072004B0BDE8F09F00252B4E55
:10100000002C01BF0720B56004B0BDE8F09F4FF091
:10101000010B4FF0E0294FF40030C9F88001DFF8F0
:1010200090A04010CAF84803CAF80803CAF804B0F0
:101030002F20FEF767FACAF808B02F203561FEF7B7
:1010400061FAF5700398706103203070B460257008
:1010500004F118006570A770606007EB4702257205
:1010600000EBC2016572A772E160257401EBC2005A
:101070006574A7746061F5607570B5704FF4801188
:10108000C9F880120B4A602082F80004C9F80011E8
:101090000949C1F80080D11E81F8000407480068A2
:1010A000306104B00020BDE8F09F0000D828002087
:1010B0000010014014E000E0081501400415014053
:1010C0002DE9F001334BD3F808C0BCF1000F18BF75
:1010D000002856D005293EBF0720BDE8F001704723
:1010E0004369002B4DD0437C012B0CBF0E460026DC
:1010F000294B1B684FF00405DB05DB0D15D0103BB9
:101100005BB2002BB8BF03F00F0303F1E023B4BFC1
:1011100093F8143D93F800345B09012B08BF0023BA
:1011200004D0032B08BF012300D002230CEBC30C17
:101130009CF801309CF802705C1CE4B2A74208BF26
:1011400000249CF800800027A0451ED0DCF8048015
:1011500003EB430318EBC30317D001251D70586040
:101160000E480068C3E90201C3E904624FF0E022BF
:101170008CF8014029053846C2F80012BDE8F0019C
:101180007047BDE8F001082070472846BDE8F0012F
:1011900070470000D828002004ED00E0041501404D
:1011A00026498A68002A1DBF0028416900290820B5
:1011B00008BF704730B44FF0000C214980F810C0D0
:1011C00009684FF00404C905C90D15D0103949B29A
:1011D0000029B8BF01F00F0101F1E021B4BF91F87F
:1011E000141D91F800144909012908BF002104D0F9
:1011F000032908BF012100D0022102EBC1014B7875
:101200008D785A1CD2B2954208BF00220D789542C3
:1012100011D04D6803EB430315EBC3030BD002243D
:101220001C7058604A704FF0E022E1046046C2F83A
:10123000001230BC7047204630BC7047D8280020D0
:1012400004ED00E02DE9F0410446294888B01E462F
:101250000D00426002BF072008B0BDE8F081A888F9
:10126000296882B22348FFF786FE00281CBF08B019
:10127000BDE8F081A889A96882B21F48FFF77BFE0C
:1012800000281CBF08B0BDE8F0811C4890E8AF11F1
:101290008DE8AF11A06806902079002818BF0120C2
:1012A0008DF814008DF81C606079002818BF0E209E
:1012B0008DF81500E0780290A078039020780190D6
:1012C000607800900E49684606F09CFA00281CBF22
:1012D00008B0BDE8F0819DF81D00002808BF06F0A9
:1012E000F3FB0121074806F01DFB08B0BDE8F081C3
:1012F000F8280020843500209435002080AE0200BC
:10130000D9A50200FA28002010B50446074801219B
:101310004470401C06F0EEFB112818BF10BD21469A
:10132000BDE810400248FFF737BE0000F828002053
:101330009435002010B50F4C0188227804EBC202CE
:10134000A2F801102278418804EBC202A2F803102F
:101350002178808804EBC101A1F80500207804EB16
:10136000C000401C01F07EFB2078401C00F07F0094
:10137000207010BDAC36002010B50F4C01882278CB
:1013800004EBC202A2F801102278418804EBC202E9
:10139000A2F803102178808804EBC101A1F80500B0
:1013A000207804EBC000401C01F05CFB2078401C5E
:1013B00000F07F00207010BDAD3A002070B51A4CCF
:1013C0000546207900281CBF18A0FFF751F828789F
:1013D00040B12079002808BF70BD19A0BDE8704059
:1013E000FFF746B8207900281CBF16A0FFF740F889
:1013F0000121686805F0C6FE002818BFFFF7A0FDB0
:101400006868124A0188607822F81010401CC0B247
:101410006070032824BF002060704FF480600C4986
:10142000086001206071D4E71C2A00206261747496
:101430006572795F63616C6C6261636B3A20000076
:101440000A0D0000636F6E76657274002C2A00200E
:101450000C0500502DE9F041464C84B00546217141
:10146000207928B144A0FFF703F848A0FFF700F85F
:101470004748E5600025C0F8005746484FF48067AC
:10148000076045490320C1F8000705F06FFE0028FA
:1014900018BFFFF755FD414805F0EEFD002818BFC5
:1014A000FFF74EFDE07805F043FE3D48D0E901121C
:1014B000CDE90212006801903A4901A805F030FF19
:1014C000002818BFFFF73CFD02A9052005F0D4FE57
:1014D000002818BFFFF734FD0121334805F052FE04
:1014E000002818BFFFF72CFD0220A0716571DFF8FE
:1014F000BC8000266571207928B12D48FEF7B8FF21
:101500002C48FEF7B5FFC8F8007005F041FF002831
:1015100018BFFFF715FD6079002829D00A2005F0D3
:101520006BFC6571761C032EE4DB01202070657076
:10153000E068FFF735FE002818BFFFF701FD002225
:101540004FF42031E068FFF7BBFD002818BFFFF71C
:10155000F7FC2079002804BF04B0BDE8F08116A094
:10156000FEF786FF09A0FEF783FF04B0BDE8F08117
:1015700048DFD0E71C2A0020626174746572795FCD
:10158000696E69743A207374617274000A0D000008
:10159000240000500C050050280000501F2A002095
:1015A000C8B00200BD130200242A00200805005024
:1015B000BC160200E0160200626174746572795F05
:1015C000696E69743A20646F6E6500000148407965
:1015D000704700001C2A002070B52149081F00F048
:1015E000A1F8204C207900280DD0A278A1691E48CE
:1015F000FEF73EFFA07901282DD002280CBF1B4822
:101600001B48FEF735FFA1781A4800F08FFB050054
:1016100043F201461CBF082DB54208D0207918B10D
:1016200029461548FEF724FF2846FFF789FCA179D3
:10163000104800F0BAFB05001ABF082DB54270BD76
:10164000207918B129460D48FEF712FF2846BDE85B
:101650007040FFF775BC0A48FEF70AFFD3E70000A9
:101660000628002000280020206B0200546B020096
:10167000646B02004C2E0020746B0200986B020019
:10168000646C02000C4810B500214171007928B14A
:101690000AA0FEF7EDFE12A0FEF7EAFE11494FF494
:1016A0008060086005F074FE002808BF10BDBDE82A
:1016B0001040FFF745BC00001C2A002062617474D2
:1016C0006572795F6C6576656C5F74696D65725F74
:1016D00068616E646C65723A2073746172740000A4
:1016E0000A0D00000805005070B50D4C0546207825
:1016F000002808BF70BDE068FFF752FD002818BF42
:10170000FFF71EFC00224FF42031E068FFF7D8FC01
:10171000002808BF70BDBDE87040FFF711BC000095
:101720001C2A00202DE9F04385B03D4F0026A7F18B
:10173000180502960096DFF8E4C06B78A7F1080858
:10174000009A1A44ACFB02946408A4EB840422447B
:10175000039200BF009A039C57F8222038F81440E7
:10176000DDF8089002FB0492029200BF009A521C1E
:101770000092032AE4D3029A40F6F223B2FBF3F27A
:101780004FF4E15302925A43120B03926423A2F6E0
:10179000EA325A4340F2B63392FBF3F24FF0640C54
:1017A0000192642A34DC002A35DB1E4B039C0222A2
:1017B00041F2CC079B78BC420FD91B4A1268C2F396
:1017C00040220492012A06BF042280F800C00122B0
:1017D00001989842C8BFA87007E0DDF804C09C4596
:1017E00003DC80F800C085F802C00A70AA716E712F
:1017F0002879002804BF05B0BDE8F0830092DDE938
:1018000002120AA0019BFEF733FE05B0BDE8F0838B
:10181000CDF804C0C9E70196C7E70000ABAAAAAAA1
:10182000342A00201C2A00201005005062617474C4
:101830006572795F7374617475735F6C6576656CDE
:101840003A20256920636F756E74732C20256920FA
:10185000766F6C74732C202569206C6566742C205F
:1018600025692073746174650A0D0000F0B50C469B
:1018700095B01F2107250027ADF84810ADF84C1092
:10188000002804BF0026ADF848700CD0C17811F0D4
:10189000040F10D012AA01A9FFF7F8F800280EBF14
:1018A00001AE15B0F0BD002C04BF0022ADF84C70A5
:1018B0000ED0E07810B115B02846F0BD13AA09A9E2
:1018C0002046FFF7E3F800280EBF09AA15B0F0BDC7
:1018D000BDF84C00C3B2BDF84800C1B2304672DF5B
:1018E00015B0F0BD002812BF002A0E2070472DE968
:1018F000F05F04464E480E4600270A994771C0E93A
:10190000033192E80B1F4B4D05F1380E8EE80B1F8B
:10191000106AA8654848FEF7BBFD05F16C01A1F10E
:101920001000016000F1300181602F606F60AF60D6
:10193000EF602F616F61AF61EF612F626F62AF6225
:10194000EF622F636F63A1F18C0C20788CF800009C
:10195000A0788CF80200E0788CF8030060788CF8AE
:101960000100D4E90401C5E90401D4E90201C5E993
:101970000201D4E90601C5E90601606AD0B105F1AA
:10198000AC0000F10C01CCF824008160616A098888
:101990000180606ADCF824108088888050B1616A18
:1019A00005F1B802D1F80810401E11F8013B02F809
:1019B000013BF9D1A06AF8B12049A1F10C00816086
:1019C000CCF82800A16A89888180A06ADCF82810F8
:1019D00000880880DCF82800808848B1A16A174B8D
:1019E000D1F80820401E12F8011B03F8011BF9D1A1
:1019F00094F82C008CF82C00206A50B11048CCF8D8
:101A00002000216A49884180206ADCF82010008883
:101A10000880606828B10B48CCF804006068CCF8F6
:101A200004003146BDE8F05F0248FFF71FBF000029
:101A300024280020742E00203C280020582F00204D
:101A4000382800202A28002010B50288284C102AA7
:101A50001AD00021112A1DD0192A06BF807900282A
:101A600010BD6079012826D002282DD0032834D05B
:101A7000042818BF10BD2171E2680846002A08BF7B
:101A800010BDBDE810401047017D012904BF8088CA
:101A9000208110BD617080882189884218BF10BDE7
:101AA000012000F027F800281ABF2169002910BD85
:101AB000BDE810400847022000F01CF800281CBFB9
:101AC00021690029F4D110BD032000F013F800288B
:101AD0001CBF21690029EBD110BD03202071042017
:101AE00000F008F800281CBF21690029E0D110BDD2
:101AF000242800202DE9F04F884C87B00027607122
:101B000006A8069706F0AEFE4FF00108082808BFA9
:101B100006970DD000281CBF07B0BDE8F08F0698CF
:101B200000281FBF84F80080002007B0BDE8F08FB8
:101B30007B4D2846FEF7ACFC7A4E707810B1607988
:101B4000012804D0B07858B16079022808D1E16842
:101B5000002908BFE77003D084F803800820884775
:101B600060794FF002094FF0030B012802D00228E0
:101B700017D02DE0707890B16978681C002904BFF7
:101B80004178002924D18178002904BFC178002937
:101B90001ED10179002904BF4079002818D184F8AA
:101BA0000590B07890B16978681C002904BF41782D
:101BB00000290DD18178002904BFC178002907D1FF
:101BC0000179002904BF4079002801D184F805B0CB
:101BD000307B4FF0040A002802BF6079032884F8A4
:101BE00005A0307E002801BF607904286771277145
:101BF000E16841B16079032818BF042803D1307827
:101C000008B16078B8B1A77000970297059701975F
:101C1000039704978DF800708DF808706279012A97
:101C20000ED0022A16D04049032A01F15C001DD0D3
:101C3000042A50D03DE084F8028007208847E3E77B
:101C4000ADF8127001958DF80080ADF8107084F831
:101C5000048030E001958DF800803089ADF81200E5
:101C6000B088ADF8100084F8049024E0B28AADF892
:101C70001220328AADF810200279002A07BF027BB9
:101C8000002A3278002A01D0627812B184F804B0B8
:101C900011E003908DF8089081F803A000212248FC
:101CA000FFF7E4FD00280EBF052007B0BDE8F08F68
:101CB0002071607930B1684673DF00281CBF07B01F
:101CC000BDE8F08FE16800291CBF2079884700201B
:101CD00007B0BDE8F08FB28BADF81020328CADF8B4
:101CE00012200279002A07BF027B002A3278002ADC
:101CF00001D0627812B184F804A0DCE703908DF87B
:101D0000089081F803A000210748FFF7AFFD0028E5
:101D100008BF0620CCD007B0BDE8F08F24280020F3
:101D20003C280020AC2E0020742E002073B487B015
:101D300004469DF82010227E00208A4202BF09B08E
:101D400070BC7047002501260095ADF8006008A81A
:101D5000ADF8025001902176E188608B6A46A4DFDD
:101D600000281EBF09B070BC7047608BA0F57F4192
:101D7000FF3901BF082009B070BC70470295039578
:101D800004950595E088ADF80800BDF80200ADF8AF
:101D90000C0001988DF80A60CDF810D00590608B8A
:101DA00002A9A6DF09B070BC704773B487B00446BF
:101DB0009DF82010627E00208A4202BF09B070BCEC
:101DC0007047002501260095ADF8006008A8ADF821
:101DD000025001906176E189608B6A46A4DF002899
:101DE0001EBF09B070BC7047608BA0F57F41FF3902
:101DF00001BF082009B070BC704702950395049597
:101E00000595E089ADF80800BDF80200ADF80C00BA
:101E100001988DF80A60CDF810D00590608B02A96A
:101E2000A6DF09B070BC70472DE9F047044694B0B6
:101E3000086820604FF6FF706083FF202076607690
:101E400001268DF8426041F60F000D46ADF84000C6
:101E5000221D10A93046A0DF00281CBF14B0BDE829
:101E6000F08700270E979DF838000DF1440920F007
:101E70000F00401C20F0F00010308DF83800A87AD8
:101E80008DF839009DF83A00079720F00600801C75
:101E90008DF83A009DF81C00089740F012008DF86C
:101EA0001C000EA80C900A978DF8466042F6192087
:101EB00009970B970D97ADF844000097E87A8DF8D5
:101EC0000000287B8DF801009DF80200EA4620F012
:101ED0000600801C20F019008DF80200287A8DF889
:101EE00048000497CDE9029A0597ADF8106012A852
:101EF000ADF81270ADF814600690A088A31D02AA78
:101F000007A9A2DF00281CBF14B0BDE8F08742F685
:101F100008186868002808BFE78230D08DF846604E
:101F2000ADF844800097287C8DF800009DF80100F2
:101F300020F0FF008DF801009DF8020020F006005F
:101F4000801C20F019008DF8020013A8696800F0C9
:101F500039FC04970597ADF81000CDE9029AADF869
:101F6000140013A8ADF812700690E08804F1160270
:101F700002A9A3DF00281CBF14B0BDE8F0870F97AB
:101F80009DF83C000DF1440920F00F00401C20F0AA
:101F9000F00010308DF83C00687B8DF83D009DF816
:101FA0003E00079720F00600801C8DF83E009DF84B
:101FB0001C00089740F012008DF81C000FA80C9030
:101FC00009978DF8466042F620200A970B970D97E7
:101FD000ADF844000E97A87B8DF83800E87B8DF8AB
:101FE00039009DF83A000DF1380A20F00600801CF7
:101FF00020F019008DF83A00687A8DF848000497AF
:10200000CDE9029A0597ADF8106012A8ADF81270EC
:10201000ADF814600690A08804F10E0302AA07A987
:10202000A2DF00281CBF14B0BDE8F0876868002854
:1020300008BFE78230D08DF84660ADF844800E9737
:10204000687C8DF838009DF8390020F0FF008DF88D
:1020500039009DF83A0020F00600801C20F019009D
:102060008DF83A0013A8696800F0ACFB0497059757
:10207000ADF81000CDE9029AADF8140013A8ADF840
:1020800012700690E08904F1160202A9A3DF00286D
:102090001CBF14B0BDE8F087002014B0BDE8F08785
:1020A000F8B50A88102A08BF898813D0112A08BFFA
:1020B0004FF6FF710ED0502A18BFF8BD05468C1D93
:1020C000C888698900260127884204BF208B02281E
:1020D0000FD101E04183F8BD2A6852B1A07E10F013
:1020E000010F0CBF8DF800708DF80060694628461E
:1020F00090472088698A884206BF208B0228F8BD55
:102100002A68002A08BFF8BDA07E10F0010F0CBF9E
:102110008DF800708DF80060694628469047F8BD3C
:10212000F0B490E8FC10104981E8FC100F4C002539
:102130002570006840B1016840686160A060201DA2
:102140007ADF38B1F0BC704709487BDF00281CBF3C
:10215000F0BC70474FF6FF7060806570F0BC054AB8
:1021600000210548FEF72ABF982F002044280020B0
:10217000482800201DAC020004AE020070B52A4CB5
:10218000058800232749E289102D17D0DFF89CC06D
:10219000112D23D0122D3BD0502D18BF70BD30F81B
:1021A000061F914206BF018B022970BD807E10F090
:1021B000010F23D0BDE8704001F0A6BAB0F804C00A
:1021C000A1F802C0D0F816C0D0F81A00C1F80CC0AF
:1021D00008614B70002A18BF70BDEBE74FF6FF7027
:1021E00048804B70DCF80000FEF7DAFF00281ABFC9
:1021F000A169002970BDBDE870400847DCF8000007
:10220000FEF7CEFF00281CBFA1690029F3D170BDE5
:10221000D0F80620D0F80A00CA600861BDE8704016
:1022200001F072BA44280020982F002004AE02006A
:1022300010B584B0044601208DF8060041F60A006E
:10224000ADF80400634A01A90120A0DF00281CBFEB
:1022500004B010BD228862B15F48009004F13C03D5
:1022600042F62920616800F065FD00281CBF04B01B
:1022700010BD228962B15948009004F13C0342F636
:102280002420E16800F056FD00281CBF04B010BDFA
:10229000228A62B15248009004F13C0342F62520A4
:1022A000616900F047FD00281CBF04B010BD228BFF
:1022B00062B14C48009004F13C0342F62720E169EA
:1022C00000F038FD00281CBF04B010BD228C62B1A4
:1022D0004548009004F13C0342F62620616A00F074
:1022E00029FD00281CBF04B010BD228D62B13F48FB
:1022F000009004F13C0342F62820E16A00F01AFD48
:1023000000281CBF04B010BD206B50B301788DF8BD
:102310000810018804F13C03090A8DF809100168CE
:102320000822090C8DF80A100168090E8DF80B10AF
:1023300001798DF80C10017A8DF80D100189090AC8
:102340008DF80E10806802A9000C8DF80F00284847
:10235000009042F6232000F0EDFC00281CBF04B0E2
:1023600010BD606B68B1234900910279016804F1E6
:102370003C0342F62A2000F0DDFC00281CBF04B01C
:1023800010BDA06B10B301788DF8081041888DF84E
:102390000910090A8DF80A1081888DF80B10090AB6
:1023A0008DF80C10C0888DF80D00000A8DF80E0015
:1023B0001148009004F13C03072202A942F6502084
:1023C00000F0B8FC00281CBF04B010BD002004B011
:1023D00010BD0000582800205A2800206228002044
:1023E0006A280020722800207A28002082280020F5
:1023F0008A280020922800209A28002070B52B4CB3
:102400000546207918B1298829A0FEF731F8284619
:10241000FFF7B4FE29462D4800F072F929462C48F2
:10242000FFF73EFE2846FFF70FFB288800261028FE
:1024300006D011280FD0132818D0522823D030E00E
:1024400024A0FEF715F829A0FEF712F8A88820812D
:1024500001F02CFB08E026A0FEF70AF823A0FEF707
:1024600007F84FF6FF70208126701AE027A0FDF7CD
:10247000FFFF1EA0FDF7FCFF00231A4685212089DF
:102480007FDF60B90DE027A0FDF7F2FF17A0FDF791
:10249000EFFF00231A4619462089A9DF08B1FEF78D
:1024A0004FFD2888012808BF267070BD0028002035
:1024B000426C65204576742044697370617463686A
:1024C0003A203078253032580A0D0000302E002096
:1024D0004C2E00204F6E20426C65204576743A20C9
:1024E000436F6E6E65637465640000000A0D000042
:1024F0004F6E20426C65204576743A2044697363C0
:102500006F6E6E6563746564000000004F6E20425C
:102510006C65204576743A20506172616D7320526B
:10252000657100004F6E20426C65204576743A203C
:1025300041747473204D697373696E670000000005
:10254000F0B404006D4896B090E80D108DE80D10C1
:1025500011BF00290E2016B0F0BC08BF70474FF61F
:10256000FF70A0820868A0610025A5752146684615
:1025700063DF00281EBF16B0F0BC7047207801262C
:102580008DF83200ADF83060A21C0CA93046A0DFF7
:1025900000281EBF16B0F0BC704712959DF8480089
:1025A000059520F00F00401C20F0F00010308DF851
:1025B00048009DF84900069520F00F00401C20F0CF
:1025C000F00010308DF849009DF84A00079520F082
:1025D0000600801C8DF84A009DF81400089540F014
:1025E00010008DF8140012A809950B950A90207818
:1025F0008DF852000320ADF8500013959DF84C0063
:102600000F9520F00F00401C20F0F00010308DF8E6
:102610004C009DF84D00109520F00F00401C20F05C
:10262000F00010308DF84D009DF84E00ADF83C6084
:1026300020F00600801C20F0180040F001008DF80A
:102640004E0014A80D9013A8142711950E90ADF804
:102650003E50ADF84070608804F10C030DAA05A946
:10266000A2DF00281EBF16B0F0BC704705950A9582
:102670009DF81400069540F00C0007950895099503
:102680000B958DF8140020788DF84E000220ADF8DF
:102690004C0012959DF848000F9520F00F00401C4B
:1026A00020F0F00010308DF848009DF8490010959A
:1026B00020F00F00401C20F0F00010308DF8490091
:1026C0009DF84A00ADF83C6020F00600801C20F028
:1026D000180040F001008DF84A0013A80D9012A8D0
:1026E00011950E90ADF83E50ADF840706088231DF6
:1026F0000DAA05A9A2DF16B0F0BC704708AE020013
:10270000002814BF002970470A88102A08BF89884A
:102710001AD0112A08BF4FF6FF7115D0502A18BFE2
:10272000704731F8062F038A9A4204BF0B8B022BA5
:102730000CD083889A4218BF70478369002B08BF6A
:1027400070470A8B1A31184781827047897E11F0D1
:10275000010118BF01218175704707B485B00028B9
:1027600002BF0E2008B07047828AA2F57F43FF3B6C
:1027700019BF827D002A082008B008BF7047BDF845
:102780001C20142A82BF072008B070470022009244
:102790000192029203928289039107A90291ADF8F6
:1027A000002001218DF80210808A6946A6DF08B05A
:1027B000704770B504460D460846FCF723FF20809D
:1027C000656070BD0A7802704978417002207047D8
:1027D00010B50A4601460748FFF7BFFF010004D0C5
:1027E00005A0FDF745FE002010BD09490120087035
:1027F00010BD0000302E00204E55532053656E64EE
:10280000204572723A203078253032580A0D000087
:102810000028002070B48F488D4D0021C38895F8A2
:1028200001C0C3EBC303A5F1080200EB8304BCF1B4
:10283000000F7CD0884BB2F804C002F1180603EBFD
:10284000CC0396ED000AB3F901C000EE90CAB3F9CB
:1028500003C0B3F9053001EE10CAF8EEE00AB0F893
:1028600000C0B8EEC11A60EE200A60EE011A01EE57
:10287000103AA0F10C03B8EEC11A20EE011A93ED44
:10288000000A70EEC00A00EE10CAB8EE400A60EE10
:10289000800A93ED010A71EEC01A00EE10CAB8EE7C
:1028A000400A21EE800AD3ED021AC3ED000A83ED3F
:1028B000010A71EE611A01EE10CAB8EE411A21EE5A
:1028C000811A83ED021A137893B300F5EB63D3ED0D
:1028D000071A20EE212AD3ED051A01EE612AD6ED62
:1028E000011A22EE212ABDEEC22A12EE10CAA4F865
:1028F00014C093ED022AC48821EE021A93ED062A31
:10290000C4EBC40400EB840400EEC21A21EE211AC9
:10291000BDEEC11A11EE10CAA4F816C093ED031A49
:1029200060EE810A93ED011A40EE410A01E01FE0DA
:102930000EE020EEA10AB0F806C0CCEBCC0CBDEE48
:10294000C00A00EB8C0C10EE103AACF818301DE009
:10295000A182C388C3EBC30300EB8303D982C3887E
:10296000C3EBC30300EB83031983012313700DE052
:10297000A182C388C3EBC30300EB8303D982C3885E
:10298000C3EBC30300EB8303198311702B78002B77
:1029900043D0C38831495288C3EBC30301EBC20261
:1029A00000EB8303B2F90110B3F914C0A1EB0C01E1
:1029B000B1F5803FA8BF4FF6FF7102DA11F5803FF5
:1029C0003FDD9981C388B2F90310C3EBC30300EB69
:1029D0008303B3F916C0A1EB0C01B1F5803FA8BF8A
:1029E0004FF6FF7102DA11F5803F2CDDD981C188E5
:1029F000B2F90520C1EBC10100EB8101B1F918006A
:102A0000101AB0F5803FA8BF4FF6FF7002DA10F53C
:102A1000803F1ADD088270BC7047C288C2EBC202D8
:102A200000EB82029181C288C2EBC20200EB8202FB
:102A3000D181C288C2EBC20200EB8200018270BC6D
:102A400070470749BDE70649D0E70548E2E70000BF
:102A50006C290020BC420020AD3A0020AC3600209A
:102A60000100FFFF10B50446008810FB00F16088EC
:102A700010FB0010A18811FB0100FCF7B8FE41EC2F
:102A8000100BFDF70AFD51EC100BFCF7BDFEE080CA
:102A900010BD00000000000070B501F011F90446FF
:102AA00001F0DFF82449054688802046FCF79FFEA8
:102AB0009FED231B53EC112BFCF7B8FD9FED221B60
:102AC00053EC112BFCF724FE9FED211B53EC112B33
:102AD000FCF7ACFDFCF7B1FE1F4C20602846FCF76C
:102AE00086FE9FED1F1B53EC112BFCF711FEFCF72C
:102AF000A4FE60601D489FED1C0ADFED1D0A80EDFD
:102B0000000AC0ED010ADFED1B0AC0ED020ADFED8D
:102B10001A0AC0ED030ADFED190A80ED040AC0EDC0
:102B2000050ADFED170AC0ED060AC0ED070A80EDC1
:102B3000080A70BD00000000BC4200200000000038
:102B40006E861BF0F92109400000000000806640FD
:102B5000000000000000003F7C2900200000000071
:102B600077BE9F1A2F9D234000000000144A0020CA
:102B70008FC275BDB81E85BD0AD7A3BC0AD723BDB9
:102B80009A99993D2DE9F04F0024DFF88CA1DFF8E8
:102B90008CE1A146002C08BF614E0BD0012C08BF70
:102BA000604E07D0022C08BF5F4E03D04FF0FF30BD
:102BB000BDE8F08F30783AF81450401B00F07F0CDD
:102BC000BCF1000F75D0494648460A464B464FF0C7
:102BD000000815DD06EBC50705F10105B7F901B0E1
:102BE00008F101085844B7F903B005F07F055944CE
:102BF000B7F905B0B7F807705A443B44C445E9DC5F
:102C000090FBFCF02EF8340091FBFCF00EEBC401BD
:102C1000488092FBFCF0888093FBFCF0C8800EEBB0
:102C200004100022C0F81890C0F81C90C0F8209042
:102C3000BCF1000F3DDD00BF3AF814503EF934807E
:102C400006EBC503521CB3F90170A7EB08077F43DD
:102C500097FBFCF7D0F8188047448761B3F90370FD
:102C6000B1F90280A7EB08077F4397FBFCF7D0F888
:102C70001C804744C761B3F90570B1F90480A7EB24
:102C800008077F4397FBFCF7D0F820804744076292
:102C9000B3F80730CF88DB1B5B4393FBFCF3476A39
:102CA0003B4443626B1C03F07F032AF814309445C5
:102CB000C2DC601CC4B2022C7FF66CAFBEF8000010
:102CC000404201B2BEF90600C1EB013191FBF0F0C8
:102CD00000210028BCBF40426FF0B30140F6FF72F4
:102CE0009042A8BF002010DAB0F57C6F06DB0F4AD7
:102CF0001044A0F5805090F8400006E0C21700EBA9
:102D000012700B4A02EB201000780844AEF848001D
:102D10000020BDE8F08F000074290020C849002081
:102D2000AC360020AD3A0020AE3E002064B0020078
:102D300064AF02002DE9F0418EB01D46DDF85080F1
:102D400014460E00074604BF0020FEF7F9F8002CD9
:102D500004BF0020FEF7F4F80022009205929DF8CF
:102D60000000039240F002008DF800000120019263
:102D700002928DF8360004920692ADF834700C92EF
:102D800028788DF8300068788DF831009DF8320091
:102D9000099220F00600801C20F019008DF8320006
:102DA0000DA807900CA808900A92ADF82440074897
:102DB000ADF82620ADF828400B96434607AA694691
:102DC0000088A2DF0EB0BDE8F08100005828002086
:102DD0002DE9F04F00242DED028B91B00A9400F004
:102DE000ABFF01900AA800F03EFFDFF83884002610
:102DF00006EBC60508EB4514607B012840F07D8298
:102E0000B4F91810481E00B22083002900F36C8228
:102E1000E18A08442083E078062880F06582DFE8B4
:102E200000F0F7F70343F8F5FDF7C2FD40B3FE48A5
:102E3000B0F818C0BCF1000F02D0E18919B107E069
:102E4000E08928B91CE0F94900228A704069A06233
:102E5000CDF80CC0207C68B12C2203A902EB4513ED
:102E6000E28911F8015B4244D554E289521CE281A7
:102E7000401EF5D1BCF1000F07D0EC49002088704E
:102E8000EB490020885500F02FBAE849207C8A7869
:102E90001044C0B288700C28F2D3E189081AE0818E
:102EA000204607F00FF9EBE7E148815D012907D1E2
:102EB00000218155E08900281CBF204607F002F957
:102EC000A07F012804D10020A077DA480078A083F1
:102ED0009DF8280000287CD0E089002804BF0198D4
:102EE000A06200F0B7FE618BB0FBF1F000EE100ABB
:102EF000B8EE408A00F0B3FEA178B0FBF1F010F01C
:102F0000FF0508BF0125CB4FA08B3978884200F020
:102F1000EB81E089217C0844618A884200F2E481E7
:102F2000E07F401CC0B2E077A8425DD14FF00009BD
:102F300084F81F90B4F91C10CC464B464A464846CC
:102F4000002D13DD07EBC10A491EBAF901B0401C80
:102F5000D944BAF903B001F07F01DC44BAF905B0F5
:102F6000BAF807A05B4452448542EBDC99FBF5F0CC
:102F700000EE100AB8EEC00A20EE080ABDEEC00A44
:102F800010EE100AADF830009CFBF5F000EE100AD0
:102F9000B8EEC00A20EE080ABDEEC00A10EE100A14
:102FA000ADF8320093FBF5F000EE100AB8EEC00A5F
:102FB00020EE080ABDEEC00A10EE100AADF834008B
:102FC00092FBF5F000EE100AB8EEC00A20EE080AF7
:102FD00000E00FE0BCEEC00A0CA910EE100AADF83C
:102FE0003600204606F026F8207F401C00F07F00C7
:102FF000A08389E78F480078A083E089002800F04B
:103000007381204607F05EF800F06EB9B0E000E092
:1030100060E18748815D012907D100218155E08960
:1030200000281CBF204607F04DF8A07F012804D1DE
:103030000020A07780480078A0839DF82900002810
:103040007DD0E089002804BF0198A06200F038FE1E
:10305000618BB0FBF1F000EE100AB8EE408A00F090
:1030600031FEA178B0FBF1F010F0FF0508BF01259B
:10307000714FA08B3978884200F03681E089217C3D
:103080000844618A884200F22F81E07F401CC0B270
:10309000E077A8425ED14FF0000A84F81FA0B4F98F
:1030A0001C20D146D44653465146002D14DD00BFA6
:1030B00007EBC200491CB0F901B0DA44B0F903B023
:1030C000D944B0F905B0B0F80700DC440344501E01
:1030D00000F07F028D42EBDC9AFBF5F000EE100A67
:1030E000B8EEC00A20EE080ABDEEC00A10EE100AC3
:1030F000ADF8300099FBF5F000EE100AB8EEC00A0A
:1031000020EE080ABDEEC00A10EE100AADF832003B
:103110009CFBF5F000EE100AB8EEC00A20EE080A9B
:10312000BDEEC00A10EE100AADF8340093FBF5F0C6
:1031300000EE100AB8EEC00A20EE080A00E00FE028
:10314000BCEEC00A0CA910EE100AADF836002046FD
:1031500005F070FF207F401C00F07F00A08388E70F
:1031600035480078A083E08900287FF44AAFBBE0AF
:103170002F48815D012907D100218155E089002870
:103180001CBF204606F09EFFA07F012804D100202E
:10319000A0772A480078A0839DF82A0000287DD0D7
:1031A000E089002804BF0198A06200F085FD618BD2
:1031B000B0FBF1F000EE100AB8EE408A00F07EFDA0
:1031C000A178B0FBF1F010F0FF0508BF01251B4FFF
:1031D000A08B397888427DD0E189207C0844618ABF
:1031E000884277D8E07F401CC0B2E077A8426CD11B
:1031F0004FF0000A84F81FA0B4F91C20D146D44631
:1032000053465146002D22DD07EBC200B0F901B054
:10321000DA44B0F903B0D944B0F905B0B0F807000A
:10322000DC440DE0A8510020A85A0020F02900201D
:10323000F8290020AC360020AD3A0020AE3E002038
:103240000344501E491C00F07F028D42DCDC9AFBD7
:10325000F5F000EE100AB8EEC00A20EE080ABDEE46
:10326000C00A10EE100AADF8300099FBF5F000EE40
:10327000100AB8EEC00A20EE080ABDEEC00A10EE31
:10328000100AADF832009CFBF5F000EE100AB8EE23
:10329000C00A20EE080ABDEEC00A00E01DE010EEF4
:1032A000100A0CA9ADF8340093FBF5F000EE100AFB
:1032B000B8EEC00A20EE080ABCEEC00A10EE100AF2
:1032C000ADF83600204605F0B5FE207F401C00F02A
:1032D0007F0000E008E0A0837AE70C480078A08334
:1032E000E08900287FF48DAEE089217C0844618A62
:1032F000884284BF204606F0E5FE761C082EFFF6C5
:1033000077AD11B0BDEC028BBDE8F08FAE3E002072
:103310002DE9F0033948017801EB410100EBC100D0
:10332000011D3748D1E9035C00EB0510D0E90232FA
:1033300044684FF080500669B6B2BCFBF6F706FB56
:1033400017C6002E0CBF0126002603FB0242D1E95E
:1033500001742C4B39194FF000086144C3F81480F4
:103360003EB10669B6B2BE422DD0914208BF002CD4
:1033700029D0422D27D00569A444ADB2BCFBF5F499
:1033800005FB14CC4FEA9C0CC3F810C0D0F810C059
:103390001FFA8CFCB1FBFCF40CFB141CBCF1000FFD
:1033A00018BF914224D0D0F810C004691FFA8CFCD9
:1033B000B2FBFCFCA4B2B1FBF4F4A4450DD1501A4D
:1033C0008008586114E0006980B2BCFBF0F098619D
:1033D000BDE8F003032006F0CBB90269006992B2A0
:1033E00080B2B1FBF0FC00FB1C10101A8008586181
:1033F000BDE8F003022006F0BBB900005430002005
:1034000048310020A428002070B5DFF870C0049D6A
:103410009CF801400A2C04BF042070BD9CF8006099
:1034200034440A2C28BF0A3C04EB44040CEBC404CB
:103430002071A261D1E90001C4E90401C4E90235A7
:103440009CF801000E49401C8CF80100087898B9DE
:103450009CF8000000EB40000CEBC00082684A6260
:103460000079012805D0032814BF0428FFF750FF76
:1034700002E0012006F07CF9002070BD54300020ED
:10348000A428002010B502F0C1F840B210BD000021
:1034900038B5194C002204F1F40C207800EB400000
:1034A00004EBC00010F8041F50F80C3F0CEB0313A2
:1034B000D3F800C0114B5B6A00938368E047217822
:1034C000002001EB410104EBC10141220871886039
:1034D000C1E904208861C8606178491E6170217863
:1034E000491CC9B221700A2908BF20700020BDE81C
:1034F000384006F03DB9000054300020A4280020D8
:1035000010B53E483E4C012900781BD0022931D02D
:10351000032942D0042958D000281CBF39A0FCF749
:10352000A7FF206820F001002060606820F0010003
:103530006060A06820F00100A060E06820F0010059
:10354000E06010BD216821F0010121604AB100282E
:103550001CBF31A0FCF78CFF206820F00200206027
:1035600010BD00281CBF34A0FCF782FF206840F08B
:103570000200F4E76168002A21F00101616008BFE0
:1035800041F0020007D000281CBF32A0FCF770FFFA
:10359000606820F00200606010BDA16821F00101A8
:1035A000A1604AB100281CBF32A0FCF761FFA068EF
:1035B00020F00200A06010BD00281CBF35A0FCF761
:1035C00057FFA06840F00200F4E7E16821F0010134
:1035D000E16042B100281CBF35A0FCF749FFE0685C
:1035E00020F00200ACE700281CBF39A0FCF740FF28
:1035F000E06840F00200E06010BD000004280020F8
:10360000885100206366675F63625F68616E646C07
:1036100065723A203F0A0D006366675F63625F6808
:10362000616E646C65723A2073746F7265206661B6
:10363000696C65640A0D00006366675F63625F68BA
:10364000616E646C65723A2073746F7265640A0D02
:10365000000000006366675F63625F68616E646CB0
:1036600065723A206C6F6164206661696C65640AFA
:103670000D0000006366675F63625F68616E646C83
:1036800065723A20636C656172206661696C65647D
:103690000A0D00006366675F63625F68616E646C59
:1036A00065723A20636C65617265640A0D00000002
:1036B0006366675F63625F68616E646C65723A201F
:1036C000757064617465206661696C65640A0D00DB
:1036D0006366675F63625F68616E646C65723A20FF
:1036E000757064617465640A0D0000000448817897
:1036F000002904BF0020704700218170012070471D
:10370000AC290020FDF71CBCF8B51748174C002663
:1037100042880838051F038861699A4224BF40889F
:10372000904207D3012019B18DF800006846884700
:103730002E70F8BD287830B10029F9D08DF80060DE
:1037400068468847F4E76878002814BFA168616874
:10375000002207480068FDF7B3FC00281EBFA169DE
:1037600000298847E4E7000050280020982F002017
:1037700004AE0200F0B42C482C49436813F0080F43
:1037800007D023F008024260407851F82000F0BCD6
:1037900000478269541C8461026922B1042242708C
:1037A0000869F0BC0047224A4FF0805692F800C0EA
:1037B00036690CEB4C0C02EBCC0202F1040C55699F
:1037C000DCE9017CBC446D1EB6B2AC44BCFBF6F532
:1037D000DFF854C0AC42DCF814C00ED308BFBCF113
:1037E000000F0AD0BCF1000F14D013F0010F09D064
:1037F00003224270C868F0BC004702224270886809
:10380000F0BC004743F001024260002242700868A9
:10381000F0BC00471079042802D0F0BCFFF738BE96
:10382000F0BC012005F0A4BFA428002054AE020083
:10383000543000200B480C4A416811F0080F06D0A4
:1038400021F008014160407852F82000004711F053
:10385000020F1CBF41F001014160022141709068DC
:1038600000470000A428002054AE020010B5174CF9
:103870000828217808D3002908BF10BD14A1BDE88D
:1038800010401AA0FCF7F4BD00EBC002184800EB92
:103890004210828A002A1CBF511E818204D119B1B4
:1038A00014A112A0FCF7E4FD1849486800281EBFC7
:1038B000401E486010BD2078002808BF10BD14A12C
:1038C000BDE8104009A0FCF7D3BD0000042800208B
:1038D0005265706F7274733A20496E7374616E63CF
:1038E00065204572726F720D0000000025730000A4
:1038F000A85100205265706F7274733A204C656E47
:10390000677468204572726F720D0000F029002004
:103910005265706F7274733A20546F74616C2052E8
:1039200065636F726473204572726F720D000000E0
:10393000012002F0F9BA00002DE9F04F85B0002611
:1039400081468DF808608DF800608DF8046000F005
:10395000F3F9DFF824810025DFF820A1012708F121
:10396000080B039007FA05F08DF8080005EBC50079
:103970000AEB4014207B012818BF8DF8006005D1A8
:103980009DF8080009EA00008DF80000E07878B1A1
:1039900002289DF800000DD000284ED0B4F8090090
:1039A000A18A401E81429CBF607B00283CD04DE034
:1039B000667355E0002828D0B4F80910A08A491E83
:1039C000814224BF98F80100FF283FD32C4800789B
:1039D00018B12CA130A0FCF74BFDE68126832F49BE
:1039E000677303980860A07848606278022A03D160
:1039F000C0EB0010800048600E81C8680078087431
:103A00000BF8056088F8015023E098F80100A842FF
:103A1000CED1FF2088F80100E08900281CBF204695
:103A200006F050FBE681C3E7E6812683A683A777ED
:103A30006773E6770BF805600BE0E08900281CBF90
:103A4000204606F03FFBE681667309E0607B0128B3
:103A500006D19DF804009DF8001008438DF804007D
:103A60006D1C082DFFF67EAF9DF8040088F800005D
:103A700005B0BDE8F08F0000F0290020A85100201B
:103A80000428002053746570205265706F7274654D
:103A900072204F6E0D00000025730000A85A002010
:103AA0000149012088707047AC2900200648012197
:103AB00000F110024170002181701170817101715B
:103AC000C1704171704700008C29002070B53D4DD8
:103AD0004FF0805629462878D1F804C03A492CF096
:103AE000080301280A7802EB420201EBC20208D067
:103AF00002285FD0032818BF70BD1CF0080F03D147
:103B000032E01CF0080F04D06B60BDE8704005F097
:103B10002FBE101D92682B6AD21A42603DD00878E1
:103B200000EB400001EBC000041D306980B2904200
:103B300010D2306980B2111A3069A368C0F38D02C7
:103B40002069184463690844194400F041F8306959
:103B500080B207E0A168206992080844616900F01A
:103B600037F86068286270BDA9694B1CAB61D2F858
:103B700014C03469111DACF1010CD1E9016131446B
:103B8000A4B26144B1FBF4F18B420FD304BF696965
:103B900000290BD01079042803D0BDE87040FFF74E
:103BA00077BCBDE87040012005F0E2BDBDE8704083
:103BB00005F0DEBD0548697850F82100BDE8704089
:103BC00000470000A42800205430002068AE020006
:103BD00038B529DF002808BF38BD114B11281AD08D
:103BE00002461048104C017801EB410100EBC10C7A
:103BF0001CF8041FDCF80C0004EB00100468586A81
:103C000000900CF10C00DCF81430A047BDE83840FF
:103C1000042005F0ADBD586840F00800586038BD7C
:103C2000A4280020543000204831002010B504465C
:103C3000C0B2FDF769FB204610BD00000148406E90
:103C400070470000384A0020014880697047000032
:103C50000028002010B501F017FDC0B210BD01F022
:103C600019BD01F01DBD10B5044600202070607024
:103C7000A07001F0C7FA10F0020F03D0617841F094
:103C80000701617010F0400F03D0A17841F00701E7
:103C9000A17030F0420008BF10BD10F0800F18BFB7
:103CA00010BD207840F00700207010BD014800785A
:103CB00070470000F0290020002070470020704766
:103CC00001F0FCBC01F000BD10B502F0DBFF0E4CB2
:103CD00000281CBF6068002812D00C48007818B17A
:103CE0000BA113A0FCF7C4FB002012490422606062
:103CF000A1F82001A1F8400201F51071521EF7D180
:103D0000A08880B210BD0000F02900200428002007
:103D10007265706F7274733A205245434F5244205B
:103D2000434F554E54204552524F522121210D00F0
:103D3000257300009C5000200148006A7047000075
:103D40000028002001494860704700001429002025
:103D500030B5124D85B0287818B111A116A0FCF726
:103D600087FB16490FC98DE80F000023144A6946E6
:103D7000144803F02DFB04000BD013A0FCF778FBD4
:103D8000287818B117A10CA0FCF772FB05B02046EB
:103D900030BD0C4803F00CFBF2E700003C2900208A
:103DA00068616C5F7477696E5F696E69743A2073DD
:103DB000746172740A0D00002573000054AF020094
:103DC00075A502004CAF02007477695F6D61737472
:103DD00065725F696E69743A206661696C65640A30
:103DE0000D00000068616C5F7477696E5F696E69D1
:103DF000743A20646F6E650A0D00000038B5084CF7
:103E0000002160602170012100910178421C012392
:103E1000044803F09DFB21780029FCD040B238BD56
:103E20005C2900204CAF0200014803F0A7BB000052
:103E30004CAF020010B58AB041788DF80810817837
:103E400081B10DF109030022D0F804C0491E1CF80D
:103E500002C003F801CB02F10102F5D1827841687A
:103E600011444160084C817800226270491C009224
:103E7000CBB2017802AA054803F06AFB61780029F9
:103E8000FCD00AB040B210BD5C2900204CAF02004B
:103E90002DE9F0032B482C49D0F804C01CF0080F82
:103EA00008D02CF008024260407851F82000BDE8AC
:103EB000F0030047254A4FF0805713783D6903EB24
:103EC000430302EBC3031A1D5C69D2E90162324469
:103ED000641EADB21619B6FBF5F81A4D44690022FE
:103EE000AD6954B1454508D14CF00103436002610E
:103EF00042700868BDE8F0030047D7F810C01FFA09
:103F00008CFCB6FBFCFC654509D308BF002C06D031
:103F100064B103224270C868BDE8F0030047026143
:103F2000022242708868BDE8F0030047187904282F
:103F300003D0BDE8F003FFF7ABBABDE8F003012002
:103F400005F016BCA428002054AE02005430002016
:103F500070B50D4D287001F009FC44B20B48FFF715
:103F6000F1FE0B48FCF71EFD287834B118B121464C
:103F700008A0FCF77DFA204670BD00281CBF0BA0EE
:103F8000FCF776FA002070BD3C290020791302006E
:103F900035130200696D755F696E69743A20666158
:103FA000696C656420253032690D0A00696D755FA2
:103FB000696E69743A20646F6E650D0A0000000036
:103FC0002DE9F047994E002506F1080A707818B1DE
:103FD000012849D000F0B0B801F01AF900B3002070
:103FE00001F0A2FF40B248B13078002808BFBDE818
:103FF000F0878FA0BDE8F047FCF73ABA4FF47A603B
:104000000124CAF80400FFF71FFECAF80000307848
:1040100000281CBF8DA0FCF72BFA7470BDE8F08758
:1040200001F00EF9002808BFBDE8F087012001F07B
:104030007BFF002808BFBDE8F087307800281CBF50
:104040008848FCF715FA012001F06EFF002818BF20
:10405000BDE8F0873078002808BFBDE8F08782A06F
:10406000BDE8F047FCF704BA65F3070465F30F24D5
:1040700065F3174401F0C6F810F0020F04D0210ACE
:1040800041F0070161F30F2410F0400F04D0210C20
:1040900041F0070161F3174430F0420006D010F000
:1040A000800F03D144F0070060F30704DAF804003E
:1040B000DFF8C8910028A9F10B0707F113083ED0DB
:1040C000FFF7C2FDDAF80010401ADAF8041088424F
:1040D00035D9C4F3072078B1C9F80450FFF7B4FD0F
:1040E000C9F800007D70307800281CBF64A0FCF780
:1040F000BFF9012001F03CF9C4F3074078B1C8F8DA
:104100000450FFF7A1FDC8F80000BD70307800280A
:104110001CBF5EA0FCF7ACF9062001F029F90120D4
:1041200001F002FF002818BFBDE8F08730780028B2
:104130001CBF5AA0FCF79CF97570BDE8F087C4F36A
:1041400007200028DFF860A1D9F8040040D0C0B1F2
:10415000FFF77AFDD9F80010401AD9F80410884208
:104160000FD9C9F80450FFF76FFDC9F800007D7042
:10417000307800281CBF42A0FCF77AF9012001F03A
:10418000F7F8C4F307400028D8F8040035D0002819
:1041900008BFBDE8F087FFF757FDD8F80010401AB8
:1041A000D8F80410884298BFBDE8F087C8F80450DA
:1041B000FFF74AFDC8F80000BD70307800281CBF2A
:1041C00032A0FCF755F90620BDE8F04701F0D0B861
:1041D000002807BF9AF80100002878780328D0D279
:1041E000307800281CBF31A0FCF742F9012001F013
:1041F00077F97878401C7870C3E7002807BF9AF8F1
:1042000002000028B878032828BFBDE8F08730787E
:1042100000281CBF28A0FCF72BF9062001F060F94C
:10422000B878401CB870BDE8F08700003C29002039
:104230004D6F74696F6E2057616B657570204661B4
:10424000696C7572652121210D0A0000494D5520C8
:104250004D6F74696F6E2057616B657570212121F8
:104260000D0A0000F4420200494D5520536C65656B
:1042700070204D6F64650D0A000000004C2900207D
:104280004779726F204F66660D0A0000436F6D70AC
:10429000617373204F66660D0A000000494D55207A
:1042A000536C6565700D0A003E2900204779726FD6
:1042B000204F6E0D0A000000436F6D706173732014
:1042C0004F6E0D0A0000000010B5012400F0B8FF89
:1042D00060B1012001F028FE40B1054800780028B7
:1042E0001CBF04A0FCF7C4F8002010BD204610BD80
:1042F0003C290020494D5520574F4D204572726F83
:10430000720D0A00082808D30A480078002808BF60
:10431000704709A10FA0FCF7ABB800EBC0010E4835
:1043200000EB4110818A491C81820C484168491C7C
:1043300041607047042800205265706F7274733AB0
:1043400020496E7374616E6365204572726F720DE1
:104350000000000025730000A8510020F029002073
:104360001B4910B54870FFF77CFC00EB40021A4B6C
:104370009200A3FB0232174952094FF47A73088066
:104380008A604A6000220A634A638A63CA630A64D5
:104390004A648A64CA64CA600861C1E905200B6581
:1043A000CA62C1E915200120C1E917024A6601F17C
:1043B0006C008A6602710121C0F8082000EBC1037D
:1043C000891C1A719A601A731A611F29F6DB10BDD5
:1043D00084290020384A00201F85EB5170B584B035
:1043E00004F0C8FA4FF480500190402002904648F3
:1043F00000904649684604F0F7FA454D010008D0A0
:104400002878002818BF43A021D000BFFCF730F85F
:104410001DE04B4A0021A2F1080004F037FA010028
:10442000287804D0002818BF46A010D0EEE7374CFB
:1044300018B152A06168FCF71BF85A484FF480216C
:10444000816061680160491E01F580214160A02002
:10445000019001200290544800905449684604F0AD
:10446000C3FA010006D0287800281CBF50A0FBF733
:10447000FFFF0FE0594A0021A2F1080004F006FAFC
:10448000010028780DD0002818BF55A002D000BF29
:10449000FBF7EEFF00F020F904B0BDE8704000F03B
:1044A00035BC20B14D4841685BA0FBF7E1FF3F48B8
:1044B000A02241686248FBF773F8614C614E2068A6
:1044C000B042287819D018B15FA16648FBF7D0FF39
:1044D000211D00201022266001F8010B401C521EF5
:1044E000FAD100206061A061E061802104F1200028
:1044F000FBF77DF806F0D4F8CCE700281CBF5AA1E2
:104500005848C5D1C6E70000894B0200CC290020DD
:1045100004280020696E69745F7265636F72643A83
:10452000207073746F726167655F72656769737419
:104530006572206661696C65642025690A0D00005A
:10454000D4290020696E69745F7265636F72643A82
:10455000207073746F726167655F626C6F636B5F0D
:104560006964656E7469666965725F676574206603
:1045700061696C65642025690A0D0000696E6974C3
:104580005F7265636F72643A207073746F726167F3
:10459000655F626C6F636B5F6964203078253035CE
:1045A000580A0D00DC29002001350200BC2900203A
:1045B000696E69745F636F6E6669673A20707374C1
:1045C0006F726167655F7265676973746572206693
:1045D00061696C65642025690A0D0000C42900200A
:1045E000696E69745F636F6E6669673A2070737491
:1045F0006F726167655F626C6F636B5F6964656E44
:104600007469666965725F676574206661696C6567
:10461000642025690A0D0000696E69745F636F6E1E
:104620006669673A207073746F726167655F626C68
:104630006F636B5F6964203078253035580A0D0050
:10464000E850002041544D69496E697469616C6994
:104650007A696E6720436F6E666967204D656D6F7E
:1046600072790D00C4A70200436F6E666967204D22
:10467000656D6F7279204C6F616465640D00000098
:1046800070B5104C002510482581E58001780F4851
:1046900041800F49097881800E490978C180FFF770
:1046A000DEFA2188814209D02080002808BF658079
:1046B00004D04FF47A71B1FBF0F06080BDE8704037
:1046C000FEF7EAB9BC420020AC3600206429002085
:1046D000AD3A0020AE3E00202DE9F05F29480027CA
:1046E000DFF8A4904760DFF8A4A0DFF8A4B0DFF8FB
:1046F000A48007703D4600BF05EBC50008EB4010E5
:1047000009EB051105700A6AC0F801204A6AC0F871
:104710000520098DA0F8091047730773C0F820A081
:1047200090F82710044665F3071180F82710868A51
:1047300087820B2104F04AFE90B19BF8000018B16B
:1047400015A11BA0FBF794FE6D1CA682082DD3D3E8
:1047500005F0A6FF05F036FC1649C860BDE8F09FDD
:10476000E078022804BFB4F809000028ECD105491C
:104770000120A8400A781043C0B20870FFF7DCF8A7
:10478000E2E70000F0290020E85000204C4F473AB3
:1047900004280020A85100205265706F7274657261
:1047A00020496E6974204661696C65640D000000E3
:1047B00025730000A85A002010B5044C4FF47A600D
:1047C0006060FFF741FA206010BD0000442900201E
:1047D00010B5044C40F2DC506060FFF735FA206001
:1047E00010BD00004C29002010B40028DDF804C0E2
:1047F00014BF0124002409488470002918BF012136
:10480000C170002A14BF0121002101714361C360FE
:10481000C0F818C0C0F810C010BC7047002A0020B3
:10482000F0B4DFF870C09CF802601C4B1A4D0320F6
:1048300000211A1F4FF40024002E19BFC5F80007ED
:104840001C60C5F8001714609CF80360144C4FF40A
:104850008015002E19BFC4F800071D60C4F80017AA
:1048600015609CF804700F4E4FF4003506F1040CEF
:104870006C003FB1C6F800071D60CCF800071C6053
:10488000F0BC7047C6F800171560CCF8001714602C
:10489000F0BC7047002A00204C0000500C0500506E
:1048A00050000050440000502DE9F0412B4C20698D
:1048B0002B4E4FF40065B0F1FF3F1FD0E068371F6B
:1048C000B0F1FF3F25D0E06800282FD0607828B1F4
:1048D00024A0FBF7CDFD2BA0FBF7CAFDFFF7A0FF3F
:1048E0003D60E068401EE060E068002818BFBDE859
:1048F000F0813560A0692061BDE8F081607828B161
:1049000021A0FBF7B5FD1FA0FBF7B2FD3560BDE8A8
:10491000F081607828B125A0FBF7AAFD19A0FBF76C
:10492000A7FD3D60BDE8F041FFF77ABF2069002890
:1049300008BFBDE8F081607828B125A0FBF798FD9D
:1049400010A0FBF795FD35602069401E20612069AD
:10495000002804BF6069E060BDE8F081002A002003
:104960000C0500506C65645F666C6173685F746908
:104970006D65725F68616E646C6572743A206F6E0B
:10498000000000000A0D00006C65645F666C6173D6
:10499000685F74696D65725F68616E646C6572747E
:1049A0003A20616C6C206F66660000006C65645F85
:1049B000666C6173685F74696D65725F68616E646F
:1049C0006C6572743A20616C6C206F6E00000000A0
:1049D0006C65645F666C6173685F74696D65725F56
:1049E00068616E646C6572743A206F6666000000E0
:1049F00070B52A4C06466170002525706078002A43
:104A00001FD028B126A0FBF733FD2BA0FBF730FD0C
:104A1000A66000224FF400513046FCF751FB0028FD
:104A200018BFFCF78DFA012020706078002808BFBD
:104A300070BD22A0FBF71CFDBDE870401EA0FBF777
:104A400017BD28B121A0FBF713FD1BA0FBF710FD3C
:104A500023480321C0F80017224A4FF40060106079
:104A60002148C0F8001721484FF400220260204A74
:104A7000C2F800174FF4801202601E4AC2F80017F5
:104A80004FF4003202601C4AC2F800174FF4802134
:104A90000160A570E5702571C7E70000002A0020BD
:104AA0006C65645F696E69743A2074696D65722023
:104AB00073746172740000000A0D00006C65645F1D
:104AC000696E69743A20646F6E6500006C65645F9E
:104AD000696E69743A20687720737461727400009B
:104AE0002C0000500C0500504C00005008050050F0
:104AF000500000504400005048000050002814BFEF
:104B00000123002308488370002918BF0121C170C8
:104B1000002A14BF01210021017104494FF40060F3
:104B20000860FFF77DBE0000002A00200805005045
:104B30002DE9F0410E4D0B4629460646A868096846
:104B400002EB030C114484459CBF1A4630460AD937
:104B5000801A84B2181B87B222463046FAF720FD2D
:104B600030193A462968FAF71BFD0020BDE8F081AC
:104B7000DC2900200349D1E90302801A44BF896877
:104B800008447047DC29002010B53948394C012908
:104B900000781BD002292CD003293DD0042953D002
:104BA00000281CBF34A0FBF763FC206820F0010044
:104BB0002060606820F001006060A06820F00100C3
:104BC000A060E06820F00100E06010BD2168002ACC
:104BD00021F00101216008BF41F0020007D0002848
:104BE0001CBF2AA0FBF744FC206820F002002060D4
:104BF00010BD6168002A21F00101616008BF41F029
:104C0000020007D000281CBF28A0FBF731FC606819
:104C100020F00200606010BDA16821F00101A160D8
:104C20004AB100281CBF29A0FBF722FCA06820F095
:104C30000200A06010BD00281CBF2CA0FBF718FCD0
:104C4000A06840F00200F4E7E168002A21F00101C9
:104C5000E16002BF41F00200E06010BD00281CBF0F
:104C60001AA0FBF705FCE06820F00200ACE70000AA
:104C700004280020985100206C6F675F63625F68B2
:104C8000616E646C65723A203F0A0D006C6F675F5D
:104C900063625F68616E646C65723A2073746F72F0
:104CA00065206661696C65640A0D00006C6F675F62
:104CB00063625F68616E646C65723A206C6F6164F8
:104CC000206661696C65640A0D0000006C6F675FA7
:104CD00063625F68616E646C65723A2075706461CE
:104CE0007465206661696C65640A0D006C6F675FAE
:104CF00063625F68616E646C65723A206C6F6720F6
:104D0000636C65617265640A0D0000002DE9F04F67
:104D10008FB000248DF83440F04EDFF8C4B3254640
:104D2000B0689BF80010082807D34FF08052126932
:104D300092B202EB8212824207D200291CBFE9A084
:104D4000FBF796FB0FB0BDE8F08F3268B2F5543F29
:104D50000BD200291CBFEDA0FBF78AFB4FF45430A7
:104D6000B46030600FB0BDE8F08FF14A9169C91CA2
:104D700021F00301F160814228BFF460D169C91CB0
:104D800021F003013161814224BFF0683061F06895
:104D9000009002460390082107A8FFF7C9FE079874
:104DA000DFF89083DFF8909340F6FF7AA8F10407CC
