:020000040001F9
:10B00000C053002005B501000DB501000FB50100CA
:10B0100011B5010013B5010015B5010000000000D5
:10B0200000000000000000000000000017B5010053
:10B03000000000000000000019B501001BB5010070
:10B040001DB501001DB50100D5BC01001DB50100F5
:10B050001DB501001DB501000DB601001DB50100B3
:10B060001DB501001DB501001DB501001DB5010094
:10B070001DB501001DB501001DB501001DB5010084
:10B080001DB5010075B701001DB501001DB501001A
:10B090004FBA01001DB5010055BA01001DB50100F0
:10B0A0001DB501001DB501001DB501001DB5010054
:10B0B0001DB501001DB501000000000000000000EA
:10B0C0001DB501001DB501001DB501001DB5010034
:10B0D0001DB501001DB501000000000000000000CA
:10B0E0000000000000000000000000000000000060
:10B0F0000000000000000000000000000000000050
:10B10000000000000000000000000000000000003F
:10B11000000000000000000000000000000000002F
:10B40000DFF80CD000F0D2F800480047210202001B
:10B41000C0530020401E00BF00BF00BF00BF00BFE0
:10B4200000BF00BF00BF00BF00BF00BF00BF00BF24
:10B4300000BF00BF00BF00BF00BF00BF00BF00BF14
:10B4400000BF00BF00BF00BF00BF00BF00BF00BF04
:10B4500000BF00BF00BF00BF00BF00BF00BF00BFF4
:10B4600000BF00BF00BF00BF00BF00BF00BF00BFE4
:10B4700000BF00BF00BF00BF00BF00BF00BF00BFD4
:10B4800000BF00BF00BFC5D170470000401E00BF15
:10B4900000BF00BF00BF00BF00BF00BF00BF00BFB4
:10B4A00000BF00BF00BF00BF00BF00BF00BF00BFA4
:10B4B00000BF00BF00BF00BF00BF00BF00BF00BF94
:10B4C00000BF00BF00BF00BF00BF00BF00BF00BF84
:10B4D00000BF00BF00BF00BF00BF00BF00BF00BF74
:10B4E00000BF00BF00BF00BF00BF00BF00BF00BF64
:10B4F00000BF00BF00BF00BF00BF00BF00BFC5D17D
:10B50000704700000648804706480047FEE7FEE710
:10B51000FEE7FEE7FEE7FEE7FEE7FEE7FEE70000E8
:10B5200079BA010001B4010040EA01039B0703D08E
:10B5300009E008C9121F08C0042AFAD203E011F872
:10B54000013B00F8013B521EF9D27047D2B201E034
:10B5500000F8012B491EFBD270470022F6E710B518
:10B5600013460A4604461946FFF7F0FF204610BD71
:10B57000421C10F8011B0029FBD1801A704730B51E
:10B5800004460020034600E05B1C934203D2E05CCB
:10B59000CD5C401BF8D030BD034611F8012B00F8FC
:10B5A000012B002AF9D1184670470000064C074DC0
:10B5B00006E0E06840F0010394E807009847103483
:10B5C000AC42F6D3FFF720FF0C2002002C20020033
:10B5D00030B58C1810F8012B12F00F0301D110F8C0
:10B5E000013B120906D110F8012B03E010F8015BB2
:10B5F00001F8015B5B1EF9D101E001F8013B521E2D
:10B60000FBD1A142E6D3002030BD00002DE9F04778
:10B610000025DFF8F090A8464FF4807601242F46ED
:10B62000304605F037F938B1D9F80403204203D089
:10B63000304605F025F92543361D64007F1CB6B25F
:10B64000082FEDD34FF4BE74204605F023F938B12E
:10B65000204605F015F92C4845F00045D0F800804B
:10B660002A4E15F0FF0F14D0012700242F420CD0D2
:10B6700009EB8401D1F81005D1F81015C0F30420AE
:10B6800056F82420C1F3014190477F00641C082C28
:10B69000ECD3002D32DA0024B14609EB04004E460B
:10B6A00090F95010491C26D090F8507027F0C00532
:10B6B000284602F095F956F82060E6B1BF0901204E
:10B6C000A840A90001F1A041D1F8001710EA080F25
:10B6D000C1F3014102D0022902D00CE003290AD1B2
:10B6E000032F05D102290BD00221284605F0B9F815
:10B6F00039462846B047641C042CCED3BDE8F087F9
:10B700000321F2E70060004010050050AC25002046
:10B7100000F01F02012191404009800000F1E0206B
:10B72000C0F88012704700F01F02012191404009CB
:10B73000800000F1E020C0F80011704700F01F0207
:10B74000012191404009800000F1E020C0F8001282
:10B7500070474907090E002806DA00F00F0000F1D3
:10B76000E02080F8141D704700F1E02080F80014FC
:10B770007047000007480021C0F84011C0F844118C
:10B78000C0F84811C0F84C11C0F80011C0F80411FD
:10B7900005F0CABF001001402DE9F047114F0446E3
:10B7A000DDF8209038781D461646884608B900F026
:10B7B0009BFA7869A04211D90A4904EB440001EBD5
:10B7C000C00134B1C1F84880C1E913650020886523
:10B7D00048650020C1F85C90BDE8F0874FF0FF306D
:10B7E000FAE700000C2D00202DE9F047114F044628
:10B7F000DDF8209038781D461646884608B900F0D6
:10B8000073FA3869A04211D90A4904EB440001EBEC
:10B81000C00134B1C1F81880C1E907650020886211
:10B8200048620020C1F82C90BDE8F0874FF0FF304F
:10B83000FAE700000C2D002070B5074B06461446B1
:10B8400018780D4608B900F04FFA224629463046CE
:10B85000BDE8704000F002B80C2D002070B50E4617
:10B86000144900EB400001EBC0051446E86A1835A6
:10B8700020B101280FD0022805D113E0284600F09E
:10B8800067FAA04201D2002411E022463146284640
:10B8900000F084FB0BE0284600F05AFAA042F4D2F4
:10B8A0000446F2E73146284600F04BFB04462046AA
:10B8B00070BD00000C2D00202DE9F04198B0064627
:10B8C00007A8029040200025CDE90305CDE90556E3
:10B8D00090460C4614F8011B002973D0252908D086
:10B8E00002A800F00FFB05980028F3DA18B0BDE8B5
:10B8F000F08100200122217823291ED02B2919D084
:10B900002D2902D0302908D102E040F0010001E0E9
:10B9100040F00200641C002AEDD100222178A1F140
:10B9200030030A2B0CD202EB820201EB4202303AC6
:10B93000641CF3E740F00400ECE740F00800E9E79E
:10B940000023CFB22E2F0BD114F8011FA1F1300725
:10B950000A2F05D203EB830301EB4303303BF3E7EC
:10B960006C290DD068290BD0702954D00BDC252907
:10B9700016D0582931D063290CD0642913D114E092
:10B9800014F8011BECE7732934D075291BD07829F2
:10B9900009D122E0D8F80000011DC8F80010017894
:10B9A00002A800F0AFFA641C9DE7D8F800100F1D44
:10B9B000C8F800700968CDE900200A2202A800F04A
:10B9C000D3F9F0E733E0D8F800100F1DC8F8007085
:10B9D0000968CDE900200A2208E0D8F800100F1D00
:10B9E000C8F800700968CDE90020102202A800F014
:10B9F0001FFAD8E7D8F80000011DC8F80010076842
:10BA000017F8011B0029CED002A800F07BFA059898
:10BA10000028F5DAC7E7D8F80000011DC8F80010C3
:10BA200001680820CDE9000503461022DEE70598ED
:10BA300000287FF75BAF049820B1024607A9304683
:10BA4000FFF7FAFEDDE90410084405904EE705F023
:10BA500007BE0000074810B5406830B18047002895
:10BA600007D0BDE8104000F03EBCBDE8104004F037
:10BA700039BA10BD3C200020F0B58C480022041DCE
:10BA80000378211D081D0126062B17D125782D07C7
:10BA900014D10D78C5F30315032D03D1077817F0E2
:10BAA000F00F0ED0042D03D1077817F0F00F08D057
:10BAB000052D03D1057815F0F00F02D0062B09D023
:10BAC00014E04FF08055D5F84452794FC5F3423514
:10BAD0003D6002E025782D0708D10D78C5F30315E8
:10BAE000032D03D1057815F0F00F02D0062B06D0F8
:10BAF0001DE0704D2F6827F080772F601AE02578C1
:10BB00002D0714D10D78C5F30315032D03D1077844
:10BB100017F0F00F0ED0042D03D1077817F0F00FB7
:10BB200008D0052D03D1057815F0F00F02D0062BB3
:10BB30000AD015E04FF08045C5F80C21C5F810215A
:10BB40005B4D2D1F2A6002E025782D0708D10D7866
:10BB5000C5F30315032D03D1057815F0F00F02D0BE
:10BB6000062B05D066E0524C03236434236002E0C8
:10BB700023781B075ED10978C1F30311052959D138
:10BB8000007810F0F00F55D14B4800684B49086021
:10BB90004948001D0068091D0860474808300068D2
:10BBA000091D086044480C300068091D08604248BF
:10BBB00010300068091D08603F4814300068091DF6
:10BBC00008603D48183000683C49203108603A4818
:10BBD0001C300068091D0860374820300068091DC6
:10BBE0000860354824300068091D08603248283054
:10BBF0000068091D086030482C300068091D086085
:10BC00002D48303000682D49403108602A483430D2
:10BC10000068091D0860284838300068091D086060
:10BC200025483C300068091D086023484030006802
:10BC3000091D08601F487438016841F470010160F3
:10BC4000BFF34F8FBFF36F8F4FF01021D1F8000279
:10BC5000002803DBD1F80402002822DA184B1E600A
:10BC600018480468002CFCD01524C1F8004205686F
:10BC7000002DFCD0C1F8044201680029FCD01A60F4
:10BC800001680029FCD0BFF34F8F0A48F0380168E3
:10BC90000D4A01F4E06111430160BFF34F8F00BF13
:10BCA000FDE70B4909480860F0BD0000E00F00F017
:10BCB0003C050040FCED00E00404001020C50040FD
:10BCC00004E5014000E401400400FA050090D003BF
:10BCD000502000200348007F08B105F00FBE05F09A
:10BCE00089BD00000426002010B5124C02202061FE
:10BCF000606111A0A061A4F5C260E0614FF4C06072
:10BD000020620020A06260620BA1A164E062A4F145
:10BD10001001E16410212165A0656065E06509A15D
:10BD2000E01DFFF739FC08A12046FFF735FC202075
:10BD3000A07110BD0C2D00205465726D696E616C90
:10BD4000000000005254540053454747455200003C
:10BD50000269C1688A4203D88068401A104400E032
:10BD6000501A401E704700002DE9FC5F0E0081460E
:10BD7000DDE90C47C6F1000098469346824600D4A0
:10BD80000846012503E000BF90FBFBF06D1C584501
:10BD9000FADAA84500D9454624B1002E01DB780720
:10BDA00000D5641EB80702D5B8F1000F0FD0F80710
:10BDB0000DD164B1A5420AD220214846641E00F08C
:10BDC000A1F8D9F80C000028F3DABDE8FC9FD9F8F7
:10BDD0000C000028F9DB002E02DA56462D2102E085
:10BDE000780707D52B21484600F08CF8D9F80C00CD
:10BDF0000028EADB07F0030002280FD1B8F1000F9A
:10BE00000CD15CB1A54209D230214846641E00F035
:10BE100079F8D9F80C000028F3DAD6E7CDE9004725
:10BE200043465A463146484600F002F8CDE7000046
:10BE30002DE9F84F8246DDE90A4B012698469146E6
:10BE40000D460846374602E0B0FBF9F07F1C484536
:10BE5000FAD2B84500D947465FEACB7017D1B4B1E2
:10BE60005FEA8B7002D5B8F1000F02D0202000905D
:10BE70000BE03020FBE75046641E009900F042F8CA
:10BE8000DAF80C00002838DB0CB1A742F3D3DAF85B
:10BE90000C00002831DB00BFB8F1010F02D9A8F176
:10BEA000010803E0B5FBF6F0484502D306FB09F6AE
:10BEB000F2E7DFF84C8000BFB5FBF6F000FB16554B
:10BEC00018F80010504600F01DF8DAF80C000028B1
:10BED00003DBB6FBF9F6002EEED15FEACB700CD097
:10BEE000002C0AD0A74208D220215046641E00F040
:10BEF00009F8DAF80C000028F2DABDE8F88F000043
:10BF0000381C020010B50446D4E90130421C9342AB
:10BF100005D323681954A260E068401CE060D4E9AE
:10BF20000102824209D121682069FFF785FCA168DE
:10BF3000884203D04FF0FF30E06010BD0020A060C9
:10BF400010BD2DE9F047C4681746894606464FF0F4
:10BF500000083069A04201D9051B02E0B168201A2F
:10BF60000D1AB0686D1E001BA84200D80546BD42E0
:10BF700000D33D4670682A4620444946FFF7D4FA6C
:10BF8000B0687F1B2C44A844A944A04200D10024DF
:10BF9000F460002FDDD14046BDE8F0872DE9F04187
:10BFA000C6680446174688468068851B6068BD429F
:10BFB00006D93044FFF7B8FAF019E060BDE8F08127
:10BFC0002A463044FFF7B0FA7E1B08EB05013246E3
:10BFD0006068FFF7A9FAE660F0E702E008C8121F00
:10BFE00008C1002AFAD170477047002001E001C162
:10BFF000121F002AFBD170472DE9FC5F002516882F
:10C0000007461580406B14468946A8464FF00C0A37
:10C0100011234FF0020B98B101784846032E48D304
:10C0200080F800B02288521C92B222808354228869
:10C03000521C92B2228009F802102088401C2080F5
:10C040003A6BDAB12088494600F11205B54230D882
:10C050000B5420881023401C80B220800B54208871
:10C06000401C20800F202388155C401ECD5423885F
:10C0700040B25B1C23800028F5DA454697F82E0075
:10C0800030B133462246494603F09AFF050011D1EC
:10C0900097F82D0030B132462146484600F03EFF69
:10C0A000050007D1B87820B32088C846001DB042EB
:10C0B00002D95046BDE8FC9F684679DF0028F9D1D7
:10C0C0002188032008F8010020881921401C80B233
:10C0D000208008F800102088401C80B2208000EBEF
:10C0E0000801BDF8000005F075FC014620880844F1
:10C0F0002080F878B8B1228897F90310D31C4846FD
:10C10000B342D6D800F802B022880123521C92B262
:10C11000228083542288521C92B2228009F8021095
:10C120002088401C20807868B8B1218890F90020D0
:10C13000CB1C4846B342BCD800F801B021880A2382
:10C14000491C89B2218043542188491C89B221802D
:10C1500009F801202088401C2080388950B1CDE9A1
:10C1600000464B460622022107F1080005F0A8FC14
:10C1700005009FD1388A50B1CDE900464B460722D1
:10C18000032107F1100005F09BFC050092D1388BCC
:10C1900050B1CDE900464B461522142107F1180095
:10C1A00005F08EFC050085D1386A30B13346224651
:10C1B000494601F0C5FD0500DBD1786A30B1334650
:10C1C0002246494604F03AF90500D2D197F82C00EE
:10C1D00038B1334622464946384604F007FF050089
:10C1E000C7D1387838B1334622464946384604F03C
:10C1F00057F90500BDD128465CE710B501220221A0
:10C20000002001F007FA08B1072810D10722022107
:10C21000012001F0FFF908B1072808D100210A2206
:10C22000084601F0F7F908B1072800D1002010BD39
:10C23000064800684FF40021044A8143121D116032
:10C24000111D00F400200860704700000405005034
:10C2500070B50024064D06E06868012110F834002E
:10C2600004F002FA641C28788442F5D3002070BDE3
:10C2700004200020F8B515460C460646052A01D2D2
:10C280000720F8BD04F0D2FA18B904F0A5FA002886
:10C29000F7D1104900204E600C70C1E902500E4DDC
:10C2A00008610DE006EBC4006968009181788DF8A3
:10C2B00001100078094A694604F028FA0028E0D104
:10C2C000641EE4B2EED2BDE8F840054A00210248FF
:10C2D00000F06AB804200020481C0200DDFB0100C9
:10C2E00011E0010070470EB500210091CDE9011069
:10C2F0006A4644F20100FFF7F5FF0EBD2DE9F0415B
:10C300000746084816460D460A78046806A100202C
:10C3100003F07AFF324629463846A446BDE8F0418C
:10C3200060470000882500205B444D5D3A204E6F39
:10C3300074696679696E67206170706C6963617495
:10C34000696F6E206F66206576656E742030782583
:10C350003032580D0A00000038B50C46074BA26871
:10C36000097802EB420253F82250054A126A009201
:10C37000024604F108002369A84738BDF0260020D2
:10C38000E01F0020074910B50A7802EB820201EB9A
:10C390008201091DFFF7E0FFBDE81040042004F012
:10C3A00035BF000024260020074B9B6823B12AB12B
:10C3B00020B10068037C1BB108207047072070473C
:10C3C0004174426100207047182000202DE9F04799
:10C3D0008046994614460F4690074FF0000634D128
:10C3E0001C4D8CB304F01EFD0320C5F8149028707A
:10C3F00004F11800002107EB4703AC6004EBC10215
:10C40000491C167056709770506000EBC3000329EA
:10C41000F4DBEE606E70AE701420FFF779F9032143
:10C420001420FFF796F91420FFF77DF90A49C1F8A7
:10C43000008003211120FFF78CF90748001F0068D6
:10C4400028610020BDE8F08701E00720FAE7AE6030
:10C45000FBE7000018200020081501402DE9F843F3
:10C46000DFF870900D461746D9F80810044651B30E
:10C470004CB3052D02D20720BDE8F883606910B3E4
:10C48000607C012821D0002605F0E4FAD9F80810D4
:10C49000804601EBC800694605F0FEFAB8B10121FB
:10C4A00000F8041B0C4910C0096880E8E200D9F8C4
:10C4B000081001EBC8009DF8001041701420FFF730
:10C4C0003DF90020D8E70820D6E72E46DCE7042017
:10C4D000D2E700001820002004150140F8B5124EE4
:10C4E0000446B168E1B1DCB16069C8B100272774C6
:10C4F00005F0B0FA0546B068694600EBC50005F0E6
:10C50000CBFA78B1022101704460B0689DF8001048
:10C5100000EBC50041701420FFF710F93846F8BD54
:10C520000820F8BD0420F8BD1820002070B50D4685
:10C5300006460AA1002003F067FE002405E0325DF4
:10C5400007A1002003F060FE641CAC42F7D3BDE8F5
:10C55000704002A1002003F057BE00000D0A000049
:10C56000307825303258200003F022BE2DE9F04308
:10C570000546007D93B00E460024A0B107949DF8B7
:10C580001C0020F00F00401C20F0F00010308DF84F
:10C590001C00707B8DF81D009DF81E0020F0060029
:10C5A000801C8DF81E001C216846FEF7D6FF9DF802
:10C5B000000040F002008DF80000297D11B140F02C
:10C5C000100001E020F010008DF8000001940394A9
:10C5D0000494287D00B107A8CDE9050401278DF852
:10C5E000427042F61920ADF840000D94B07B8DF8F2
:10C5F0003400F07B8DF835009DF83600142120F0D2
:10C600000600801C20F019008DF83600307B8DF874
:10C61000440008A8FEF7A1FF0DF140080DF1340910
:10C62000ADF8287011A8CDE90889ADF82A40ADF819
:10C630002C700C90A888AB1D08AA6946A2DF0028C0
:10C6400038D1B06898B38DF8427042F60810ADF852
:10C6500040000D94307C8DF834009DF8350020F0BA
:10C66000FF008DF835009DF8360020F00600801C94
:10C6700020F019008DF836000EA8B16800F0F7FD23
:10C680000646142108A8FEF768FFADF828600EA83A
:10C69000CDE90889ADF82A40ADF82C600C90E88807
:10C6A00005F10E0208A9A3DF002803D101E0FFE78E
:10C6B000EC81002013B0BDE8F083000010B50D49F7
:10C6C0000D4804F086FCC1B20A48343800F028FB5B
:10C6D00000280DD008280BD0A0F54051043907D010
:10C6E00043F20141884203D0BDE81040FFF7FBBD93
:10C6F00010BD0000B82200200C1F0020F0B50C4631
:10C7000093B01F210726ADF80010ADF804100027E4
:10C7100050B1C17849070DD56A4602A9FFF76CFCF4
:10C72000002808D102AD02E00025ADF800706CB120
:10C73000E07810B1304613B0F0BD01AA0AA9204636
:10C74000FFF75AFC0028F6D10AAA02E00022ADF851
:10C750000470BDF80400C3B2BDF80000C1B22846A1
:10C7600072DFE8E770B50D4604991646040040D024
:10C77000F6B3414800224271C0E903312422314618
:10C780003E48FEF7D1FE00F037F93C493431A1F1C3
:10C79000100001602031816038215C38FEF7DDFE39
:10C7A0003648217838380170A1788170E178C170FD
:10C7B00061784170D4E90412C0E90412D4E902128C
:10C7C000C0E90212D4E90612C0E90612616AD1B1C9
:10C7D00000F1AC0100F1B80241628A60636A1B8813
:10C7E0000B80616A436A898899800021436A07E067
:10C7F000FFE70E2070BD666AB668765C5654491C29
:10C800009E888E42F7D8A16AD9B11C4AAC32A2F1F7
:10C810000C018A608162A36A9B888B80A16A836A0B
:10C82000098819800021836A04E0A66AB668765CEC
:10C830005654491C9E888E42F7D894F82C1080F8E4
:10C840002C10216A49B10C4914310162226A5288C4
:10C850004A80216A026A09881180616821B106490B
:10C86000891D4160616841602946BDE87040034808
:10C870003838FFF743BF0000481F00207C2300200A
:10C8800010B50288244C102A1AD00021112A1DD07C
:10C89000192A1AD18079002817D16079012822D06D
:10C8A00002282AD003282ED004280ED121711BA1E2
:10C8B000002003F0A9FCE168002906D020790FE0F0
:10C8C000017D012901D18088208110BD617080889F
:10C8D00021898842F9D101200AE021690029F4D098
:10C8E000BDE8104008471DA1002003F08DFC022088
:10C8F00000F0A6F80028F0D110BD24A1002003F01C
:10C9000083FC0320F4E7032020712D49002003F06D
:10C910007BFC0420ECE70000481F00205B414456EC
:10C920005D3A2054696D6564206F75742066726F7E
:10C930006D20736C6F7720616476657274697369BA
:10C940006E672C2073746F7070696E6720616476F7
:10C950006572746973696E672E0D0A005B414456F7
:10C960005D3A2054696D6564206F75742066726F3E
:10C970006D206469726563746564206164766572B4
:10C98000746973696E672E0D0A0000005B4144569E
:10C990005D3A2054696D6564206F75742066726F0E
:10C9A0006D20646972656374656420736C6F7720B1
:10C9B0006164766572746973696E672E0D0A000092
:10C9C000501C020010B5022801D0032810D1094CD8
:10C9D000207800280CD000202070607900F030F81A
:10C9E000002805D02169002902D0BDE81040084781
:10C9F00010BD0000481F0020024800218161818392
:10CA000081777047481F00200B4810B50078012837
:10CA100010D10A4C607868B9607910B174DF0028D1
:10CA200009D101206070607900F00AF810B1216925
:10CA300001B18847002010BD7C230020481F002042
:10CA40002DE9F04F7A4C87B00026607106A8069653
:10CA500003F0D8FF0127082805D0002871D10698D7
:10CA600010B12770DFE00696FFF7C6FF714D6878BA
:10CA700010B16079012804D0A87848B16079022803
:10CA800006D1E16819B1E7700820884700E0E67038
:10CA90006079DFF89C814FF0020A08F118084FF026
:10CAA000030B012806D1687840B108F1010003F0BA
:10CAB00035FF18B16079022802D00AE084F805A099
:10CAC000A87820B108F1010003F028FF08B984F824
:10CAD00005B0287B4FF0040920B96079032801D103
:10CAE00084F80590287E20B96079042801D1667108
:10CAF0002671E16841B16079032801D0042803D18F
:10CB0000287808B16078C0B1A67018216846FEF791
:10CB100024FD8DF8006001968DF808600396607919
:10CB200001280FD002281BD0424E2436A6F15C0704
:10CB3000032826D004286CD146E0A7700720884738
:10CB4000E3E771E03CA1002003F05EFBADF812606A
:10CB5000CDF804808DF80070ADF81060277158E0B2
:10CB600035A1002003F050FBCDF804808DF8007053
:10CB70002889ADF81200A888ADF8100084F804A048
:10CB800047E0A88AADF81200288AADF810002948BD
:10CB9000243004F0FCFF18B1287808B1607818B18F
:10CBA00084F804B02EA131E022488DF808A0039645
:10CBB00087F8039000213838FFF7A0FD002833D113
:10CBC0000520207130A121E0A88BADF81000288C41
:10CBD000ADF812001748243004F0D9FF18B12878B6
:10CBE00008B1607818B184F8049035A10EE01148BE
:10CBF0008DF808A0039687F8039000213838FFF7D6
:10CC00007DFD002810D10620207137A1002003F0FF
:10CC1000FBFA607918B1684673DF002804D1E16837
:10CC200009B120798847002007B0BDE8F08F0000E7
:10CC3000481F00207C2300205B4144565D3A20536E
:10CC400074617274696E67206469726563742061CF
:10CC500064766572746973656D656E742E0D0A0075
:10CC60005B4144565D3A205374617274696E67206B
:10CC700066617374206164766572746973656D654D
:10CC80006E742E0D0A0000005B4144565D3A20533D
:10CC900074617274696E6720666173742061647672
:10CCA0006572746973656D656E7420776974682048
:10CCB00077686974656C6973742E0D0A0000000052
:10CCC0005B4144565D3A205374617274696E67200B
:10CCD000736C6F77206164766572746973656D65D6
:10CCE0006E742E0D0A0000005B4144565D3A2053DD
:10CCF00074617274696E6720736C6F7720616476FB
:10CD00006572746973656D656E74207769746820E7
:10CD100077686974656C6973742E0D0A00000000F1
:10CD200073B586B0040034D0217C9DF81C2000200F
:10CD300091422CD0002501260095ADF8006007A88F
:10CD4000ADF802500190E188608A6A46A4DF0028AD
:10CD50001DD19DF81C002074608AA0F57F41FF3929
:10CD600019D0207DB8B10295039504950595E0880A
:10CD7000ADF80800BDF80200ADF80C0001988DF880
:10CD80000A60CDF810D00590608A02A9A6DF08B02D
:10CD900070BD0E20FBE70820F9E738B50D4604000A
:10CDA0001BD0D5B1286820604FF6FF7060822879CB
:10CDB0002075FF20207401208DF8020041F60F003D
:10CDC000ADF80000221D69460120A0DF002803D134
:10CDD00029462046FFF7CAFB38BD0E2038BD08B5EE
:10CDE000002821D000291FD00A88102A17D0112A24
:10CDF00017D0502A18D1027D002A15D031F8062FFD
:10CE000043899A4210D10A8B022A0DD10268002A66
:10CE10000AD0897E11F0010F07D0002106E0898831
:10CE200001E04FF6FF71418208BD01218DF800102D
:10CE30006946904708BD000070B5054601461C22B2
:10CE40000F48FEF771FB0F4C00262670286830B1A2
:10CE5000016861604068A060201D7ADF02E0094837
:10CE6000001D7BDF00280AD14FF6FF7060806670DE
:10CE7000BDE87040044A00210448FFF795BA70BD30
:10CE800068240020681F0020F5190200DC1B020046
:10CE900070B5204C068800251D49E289102E15D05A
:10CEA0001D4B112E1ED0122E2BD0502E19D130F822
:10CEB000061F914215D1018B022912D1807E10F0FC
:10CEC000010F13D0BDE8704000F080BF83884B8015
:10CED000D0F81630CB60D0F81A0008614D70002AE7
:10CEE000F0D070BD4FF6FF7048804D701868FFF7A6
:10CEF000F5FA0028F5D0A1690029F2D0BDE870400C
:10CF0000084750F8062FCA6040680861DAE7000059
:10CF1000681F002068240020DC1B02007CB5054649
:10CF200008880C460930904201D90C207CBD684627
:10CF300071DF0028FAD121880820685420881B213D
:10CF4000401C80B2208029542088401C80B2208060
:10CF50002844DDF801100160BDF8051081802088AB
:10CF6000801D80B220809DF8001001B1012129545C
:10CF70002088401C208000207CBD00007FB5044636
:10CF800001208DF8060041F60A00ADF80400454A7C
:10CF900001A90120A0DF00287ED1228804F13C05F0
:10CFA00052B140482B46801C009042F6292061680F
:10CFB00000F01EFD002873D1228952B139482B465A
:10CFC0000A30009042F62420E16800F011FD0028AC
:10CFD00066D1228A52B133482B461230009042F675
:10CFE0002520616900F004FD002859D1228B52B13F
:10CFF0002C482B461A30009042F62720E16900F0B9
:10D00000F7FC00284CD1228C52B126482B46223006
:10D01000009042F62620616A00F0EAFC00283FD129
:10D02000228D52B11F482B462A30009042F628200C
:10D03000E16A00F0DDFC002832D1216B71B102A859
:10D0400004F0C7FA17482B4632300090082202A994
:10D0500042F6232000F0CCFC002821D1606B58B1AF
:10D0600010492B463A3100910279016842F62A2094
:10D0700000F0BEFC002813D1A16B81B102A803F01F
:10D08000A7FC08482B4642300090072202A942F62E
:10D09000502000F0ADFC00E002E0002800D10020AC
:10D0A00004B070BD7C1F002070B5044601461B48CB
:10D0B00000F0A4F8194821461838FFF790FE2046E2
:10D0C000FFF7E6FE204601F0A5FA204600F0CEF973
:10D0D0002088134D102804D011280BD0552817D1C3
:10D0E0000EE0072000F0B8FA08B1FFF7FCF8A088BE
:10D0F00068800DE04FF6FF7068800020287007E020
:10D10000A07928B91321688876DF08B1FFF7EBF81A
:10D110002046BDE87040FFF7B3BB00009C22002012
:10D12000001F002038B50446086820604FF6FF70E5
:10D13000E082887A207601208DF8020041F609000D
:10D140000D46ADF80000221D69460120A0DF002831
:10D150000ED12946204602F0A9FD002808D1687AA0
:10D1600028B12946204602F075FE002800D1002093
:10D1700038BD3EB50C46002102220191ADF80420D5
:10D18000ADF80610CDF808D04189C08A01AAA5DF04
:10D19000002804D19DF80010C1F3400121703EBD6C
:10D1A00030B50446C08A8BB0A0F57F42FF3A23D049
:10D1B00005AA204602F0E0FD0546ADF8000000207B
:10D1C0000190029003900490E188ADF804100221D0
:10D1D000ADF808008DF8061005A8CDF80CD0049025
:10D1E000E08A01A9A6DF002804D1BDF80010A942F9
:10D1F00000D00C200BB030BD0820FBE708B50A8832
:10D20000102A0ED0112A0ED0502A10D0532A0DD138
:10D21000C988C288914209D102218DF800100268A4
:10D2200019E0898801E04FF6FF71C18208BD31F82D
:10D23000062F43899A42F9D10A8B022AF6D1026855
:10D24000002AF3D0897EC1F3400109B1002100E03A
:10D2500001218DF800106946904708BD70B504465D
:10D260000D460846FEF784F92080656070BD0A7897
:10D2700002704978417002207047000000B585B007
:10D28000002348221449082004F07CF808B1FFF775
:10D290002AF86A460121002004F05EF808B1FFF781
:10D2A00022F80E4803F004FE08B1FFF71CF86846A8
:10D2B00003F0D4FF08B1FFF716F8094803F0C4FFE4
:10D2C00008B1FFF710F8074804F080F8002801D0F3
:10D2D000FFF709F805B000BD3C220020001E002029
:10D2E000A9D00100C115020030B585B0044681788F
:10D2F00003AA264803F098FB40B10090A378627817
:10D300002349002002F080FF05B030BD6278214D36
:10D310001C20C2EBC20105EB8101CDE90010029097
:10D320001D490020049B02F06FFF60781C23C0EBB6
:10D33000C00005EB80001A4603A903F01FFC0300A0
:10D3400004D0627815A1002002F05EFF3821182079
:10D35000CDE9000162780F4902EB42001C3101EB7C
:10D36000C0031D49002002F04FFF0A481B4940300E
:10D37000807A51F82020214603A890470300C3D0AB
:10D38000627817A1002002F03FFFBDE7D81F002000
:10D39000E01C020048250020F81D02005B444D5DA2
:10D3A0003A5B253032585D3A204661696C656420ED
:10D3B000746F206C6F616420426F6E6420696E66CA
:10D3C0006F726D6174696F6E2C20726561736F6E20
:10D3D00020253038580D0A00541E0200F01B0200B0
:10D3E0005B444D5D3A5B253032585D3A20466169B9
:10D3F0006C656420746F206C6F6164207365727655
:10D4000069636520696E666F726D6174696F6E2CF9
:10D4100020726561736F6E20253038580D0A000048
:10D420007CB5114E0C004FF00005306015D06946F8
:10D43000002000F0B1F8002815D101A9012000F06A
:10D44000ABF800280FD19DF8041009B1022003E0C9
:10D450009DF8001001B10B202070706810B9FEF724
:10D46000CCFE054628467CBD401F002010B51A4C56
:10D470000188606810290ED011292BD1401E6060F0
:10D4800028D1FEF7BAFE002824D02168002921D037
:10D49000BDE810400847D0B900210122084600F03D
:10D4A000B9F808B107280FD107220221012000F0A6
:10D4B000B1F808B1072807D104220221002000F0AA
:10D4C000A9F820B1072802D0216801B18847606817
:10D4D000401C606010BD0000401F002010B50320FC
:10D4E00000F02AFA08B1062800D1002010BD000083
:10D4F0002DE9F04707460024244802E0641C042C70
:10D5000041D250F82420BA42F8D1042C3BD21F4813
:10D51000DFF87C901F4E0C38A9F1140841B30129A3
:10D520000FD002292FD104EB440030444578002D60
:10D5300029D0D8F81010002925D02846BDE8F0479A
:10D54000084704EB4401755C0E44717861B1D8F86A
:10D5500004100F4A01EB81014900133A8068FEF77D
:10D560007DFF08B988F80170B17809F80410DEE78A
:10D570008068FEF7B3FF04EB4401314419F804005E
:10D580008D78A842D3D0BDE8F0870000AC1B020024
:10D590003C1F00201823002004280CD2074A1268E0
:10D5A000074B13F8203001209840904300D0012011
:10D5B0000870002070470020FAE7000010050050B6
:10D5C000AC1B02000146124810B54088042911D056
:10D5D000072918D00A2909D00D2918D1A0F57F41B3
:10D5E000FF3914D0BDE8104004F01EB8BDE810406B
:10D5F00003F0F8BD132176DF07E0002807D0BDE86F
:10D600001040FEF770BEFFF7FFF90828F5D110BDF6
:10D61000001F002070B50023042810D20D4D00EB30
:10D620004004012A02D101290CD00022094E00EB4E
:10D630004000304461B1012906D0022906D00723F9
:10D64000184670BD0D30C2B22A55F9E74270F7E7AF
:10D650008270F5E718230020044A01460020127A60
:10D66000D20702D0084600F055B87047281F0020A6
:10D6700070B50E462149054600200A61C1E90165E1
:10D68000A9071BD50024012211462046FFF7C2FF3F
:10D69000641C042C02D20028F5D00FE070B9720887
:10D6A00004211748FEF7E6FD40B9FEF7D1FD28B981
:10D6B0001348144A00211438FEF776FEE9070AD011
:10D6C000114A4FF4F01111600F4B00221B1D1A601C
:10D6D0000D4A1032116000280FD109480B4A002171
:10D6E0001C38FEF761FE002807D1BDE870400448F1
:10D6F0000121074A1838FEF757BE70BD281F0020C9
:10D70000BC1B020075D9010008050050150002007D
:10D7100031C201002DE9F84F854EDFF810A24FF419
:10D72000E01CF16807462CEA010C009100207168AA
:10D730000AF10404251D7F4B4FF400324FF4802B77
:10D7400001EB810E8146182F16D2DFE807F00C1787
:10D75000173A4E607083868F868FEAA0A0A0A0A0A3
:10D76000CAD1D8E1EAEA009A4FF4F011914321605E
:10D77000C5F8009086F80090BDE8F88FC4F800C0A6
:10D780004846C5F80090DAF800C08CF4F01C5FEA57
:10D790008C3C09D522602860022F02D14FF4E16051
:10D7A00008E04FF47A6005E02A602060022F3CD048
:10D7B0004FF4C8706422B0FBF2F04143377000228E
:10D7C0005EE0C4F800C04846C5F80090DAF800C032
:10D7D0008CF4F01C5FEA8C3C04D5226028604FF486
:10D7E0004870E7E72A6020601FE0C4F800C04846A0
:10D7F000C5F80090DAF800C08CF4F01C5FEA8C3CAD
:10D8000002D522602860CCE72A602060D0E7C4F807
:10D8100000C04846C5F80090DAF800C08CF4F01C4F
:10D820005FEA8C3CDED522602860C820C2E7C4F8DD
:10D8300000C04846C5F80090DAF800C08CF4F01C2F
:10D840005FEA8C3C02D52260286001E02A602060FB
:10D85000377014E0C4F800C04DE0DAF800002BEA9D
:10D860000002226000F48020286008E0DAF800005E
:10D870002BEA0001216000F480202860714600221C
:10D880001868BDE8F84FFEF7E9BD21602EE0984624
:10D890005868FEF723FED7F1110100D040B1F168BE
:10D8A00001F4F0112160C5F80090C6F80C9063E710
:10D8B0004FF40022F26001290CD9C82011FB00F1BD
:10D8C0006420B1FBF0F1706800224143D8F80400F5
:10D8D000FEF7C4FDF16801F4F0112960C4F800906E
:10D8E0004AE74FF4F0112160C5F80090377043E724
:10D8F0004FF4E01121604946C5F8009006E04FF46E
:10D90000D01121604946C5F800905A462A60BCE70C
:10D910004FF4C01121604946C5F800904FF4C02271
:10D92000F4E74FF4F01129604946AEE704050050D2
:10D93000281F0020A01B020070B500210C4D0124FF
:10D9400055F82120920002F1A042D2F8006704FAB3
:10D9500001F3034000D0032326F4403646EA034394
:10D96000C2F80037491C0429EAD3002070BD00002A
:10D97000AC1B020000780221FFF7BABD05494FF049
:10D98000FF32082841F8202002D3084480F84820BC
:10D9900070470000AC250020F0B54FF0FF3512B104
:10D9A0000023082601E008230C260C4C05E000BFEC
:10D9B00054F823707F1C04D05B1CB342F8D3284674
:10D9C000F0BD26185DB286F8305044F82310002AC6
:10D9D000F5D1E11881F84800F1E70000AC250020FE
:10D9E0000249084490F9300070470000AC2500203F
:10D9F0002DE9F0438FB01E46DDF8589015460F0014
:10DA0000804602D10020FEF76EFC15B90020FEF71B
:10DA10006AFC1C216846FDF7A0FD00249DF800006B
:10DA2000039440F002008DF80000012001948DF86D
:10DA30003600049405940694ADF834800C94307844
:10DA40008DF8300070788DF831009DF83200142187
:10DA500020F00600801C20F019008DF8320007A885
:10DA6000FDF77BFD0DA807900CA808900748ADF8BE
:10DA70002450ADF82640ADF828500B974B4607AA26
:10DA800069460088A2DF0FB0BDE8F0837C1F00204C
:10DA90002DE9F0413B48017801EB810100EB810465
:10DAA000D4E9030600EB40013648241DCC3000EBDE
:10DAB0008100B0F808804589476803F034F8B6FB68
:10DAC000F0F100FB116088B35FF0000008FB057700
:10DAD0006188A288DFF8B08011448D190022C8F84F
:10DAE000102040B103F01FF86188884221D0BD4268
:10DAF00001D1A088E8B1A06802281AD003F013F879
:10DB0000A18844463144B1FBF0F200FB12108008BA
:10DB1000C8F80C0003F007F8B5FBF0F100FB11505A
:10DB200078B10020BD4228D068B126E0FFE701208F
:10DB3000CCE702F0F8FFB6FBF0F10320C8F81410B0
:10DB40001CE00120EEE7ADB2BEB202F0ECFFB6FB86
:10DB5000F0F702F0E8FFB5FBF0F0874201D1701B4F
:10DB600009E002F0E0FF064602F0DDFFB5FBF0F150
:10DB700000FB1150301A800820610220BDE8F041FE
:10DB800003F044BB24260020E01F00200648017853
:10DB900001EB810100EB81000079042801D000F045
:10DBA00059B8012003F032BB242600200A480B4A52
:10DBB000017801EB810100EB8100C18811620079DD
:10DBC000012805D0032801D0042804D1FFF760BF45
:10DBD000012003F01BBB704724260020E01F00201B
:10DBE00000EB80020548002100EB82000122017158
:10DBF000C180C0E9032141610181704724260020D2
:10DC00002DE9F041114D069E6C780A2C1BD02F781F
:10DC10003C440A2C00D30A3C04EB840405EB840446
:10DC200020716261D1E90001C4E90301E38026812A
:10DC30006878401C68700648007808B9FFF7B6FF9E
:10DC40000020BDE8F0810420FBE70000242600202E
:10DC5000E01F002010B50E4C207800EB800004EB94
:10DC600080010020091DFEF777FB2078FFF7B8FF41
:10DC70006078401E60702078401CC0B220700A2876
:10DC800001D100202070BDE81040002003F0BEBA92
:10DC9000242600202DE9F05F2648C168F1B3DFF8A3
:10DCA00098B00E688146DBF800400769C078E11B38
:10DCB00021F07F45ED1CB0B9DFF880804FF4803053
:10DCC000C8F84403C8F804031120FDF721FD112012
:10DCD000FDF729FD4FF0010AC8F800A02F20FDF73D
:10DCE000D5FB89F803A0B54200D23546124BE8199E
:10DCF0003C3320F07F401860DBF800105A46091BC7
:10DD000021F07F41001B20F07F40C91C81420FD9C8
:10DD1000106818602F20FDF7B9FB00E004E0BDE8B3
:10DD2000F05F1120FDF70ABDBDE8F05F03F07AB89F
:10DD3000BDE8F09F182000200415014000100140AC
:10DD40002DE9F04117880646B81D14460D46984245
:10DD500002D90C20BDE8F0813188072206290AD3B8
:10DD60004FF4486C4FF6FF73614501D9994202D1D7
:10DD70007088062801D21046ECE7604501D9984228
:10DD8000F9D1994203D0984201D08142F3D80520BD
:10DD9000E85520881221401C80B220802954208818
:10DDA000401C80B220804119308803F013FE218886
:10DDB000084480B220804119708803F00BFE21884E
:10DDC000084420800020C5E7FEF78DBAF8B5134857
:10DDD00002F0C0F8114D0026114C0C3D30B16169C4
:10DDE000B9B101208DF80000684611E0287820B113
:10DDF000616971B18DF80060F6E7687858B1A16883
:10DE0000084800220068FEF729FB10B1A16901B1A2
:10DE100088472E70F8BD6168F2E70000741F00208B
:10DE200068240020DC1B020070B5044610A100200D
:10DE300002F0EAF9224601214FF6FF7000F064F883
:10DE4000050006D017A1002002F0DEF904252846BF
:10DE500070BD20A10020226802F0D6F92168294A6D
:10DE600001EB410102EB810102208872EFE7000023
:10DE70005B444D5D3A205265717565737420746F13
:10DE800020616C6C6F636174696F6E20636F6E6E7E
:10DE9000656374696F6E20696E7374616E63650D7E
:10DEA0000A0000005B444D5D3A204E6F20667265AB
:10DEB0006520636F6E6E656374696F6E20696E7343
:10DEC00074616E63657320617661696C61626C6513
:10DED0000D0A00005B444D5D3A5B253032585D3AD7
:10DEE00020436F6E6E656374696F6E20496E737444
:10DEF000616E636520416C6C6F63617465642E0DA7
:10DF00000A0000007C25002070B5094B044608205B
:10DF10009E7A00250E4208D0A4F57F40FF3802D03B
:10DF20001889A04202D10020156070BD052070BD87
:10DF30007C25002010B5044602460AA1002002F00C
:10DF400063F9154804EB440200EB82000121817261
:10DF50004FF6FF710181FF21C172002101608180B4
:10DF6000817110BD5B444D5D3A20496E69746961F1
:10DF70006C697A696E6720436F6E6E656374696F52
:10DF80006E20496E7374616E636520307825303879
:10DF9000582E0D0A000000007C25002010B5134CFF
:10DFA000207900071ED46069401C6061E06808B1F8
:10DFB00004200AE001F0DCFF08B1022005E020693E
:10DFC00060B16068C10704D00320BDE8104003F0D1
:10DFD000EDBA40F0010060600020F6E7BDE81040B7
:10DFE000FFF7D4BDBDE8104003F0D6BAE01F002013
:10DFF00006494868020707D4820702D540F00100AD
:10E000004860022003F0D2BA03F0C6BAE01F002035
:10E010002DE9F04100260125144C22E060682269B8
:10E0200000EBC607387805FA00F1114217D08A4391
:10E03000226102F0C7FB02463878E36805FA00F176
:10E04000194002FA00F3994209D17978012901D0E7
:10E05000012100E0002151407A6802B19047761C0E
:10E06000F6B220788642D9D3BDE8F08104200020A2
:10E070002DE9FC410F4604463BA1002002F0C4F804
:10E08000A1786A46414802F0CFFC050065D163786B
:10E09000DFF8FC8003EB430108EB8100807A400647
:10E0A0002ED4022F2CD0A278012F30D03949002055
:10E0B00002F0AAF8384E3649A078F839C0EBC00013
:10E0C00001EB800100231C226846B047050024D0E4
:10E0D000022F40D020782E4900EB40000C3101EB9C
:10E0E00080002E49807A51F82020214668469047CA
:10E0F000050037D002462AA1002002F085F82CE066
:10E10000A27835A1002002F07FF8434ED3E743A167
:10E11000002002F079F8504ECDE7022F22D060782F
:10E1200000EB400108EB8100817A21F0400181720F
:10E13000174960783439C0EBC00001EB80011C2323
:10E140001A466846B0470300C4D0A27843A1002015
:10E1500002F05AF8BEE7002D04D02A464FA1002055
:10E1600002F052F8BDE8FC815B444D5D3A202D2D54
:10E170003E206465766963655F636F6E746578746D
:10E180005F73746F72650D0A00000000D81F0020D5
:10E190007C250020EC1E020021150200E01B02007D
:10E1A0005B444D5D3A204661696C656420746F2064
:10E1B00073746F7265207365727669636520636F2F
:10E1C0006E746578742C20726561736F6E202530D3
:10E1D00038580D0A000000005B444D5D3A5B44492D
:10E1E00020253032585D3A5B434920253032585D56
:10E1F0003A202D3E205570646174696E6720626F0D
:10E200006E64696E6720696E666F726D6174696FA6
:10E210006E2E0D0A00000000950D02005B444D5D5E
:10E220003A5B444920253032585D3A5B434920250A
:10E230003032585D3A202D3E2053746F72696E67FC
:10E2400020626F6E64696E6720696E666F726D61C1
:10E2500074696F6E2E0D0A00CD0C02005B444D5D9B
:10E260003A5B3078253032585D3A4661696C6564B6
:10E2700020746F2073746F726520626F6E64206902
:10E280006E666F726D6174696F6E2C20726561735A
:10E290006F6E203078253038580D0A005B444D5D94
:10E2A0003A204661696C656420746F2073746F72E4
:10E2B000652064657669636520636F6E7465787444
:10E2C0002C20726561736F6E20253038580D0A005E
:10E2D0002DE9FF47224E8846814648F24307002435
:10E2E000C4EBC40006EB800522462B7C1DA1002058
:10E2F00001F08AFFE87CAB7D6A7D297D8DE80F0007
:10E30000AB7C6A7C21A1002001F07EFFA87EFF2863
:10E3100006D0641C072CE3D304B03846BDE8F08770
:10E3200098F800000228C4EBC40006EB80000BD074
:10E33000FD218176D8F800200261B8F8042082829D
:10E3400098F80610817501E0FE218176002789F892
:10E35000004022461DA1384601F056FFDCE70000D0
:10E36000842400205B444D5D3A5B4449203078258D
:10E370003032585D3A20446576696365207479705F
:10E3800065203078253032582E0D0A005B444D5DF3
:10E390003A20446576696365204164647220307870
:10E3A00025303258203078253032582030782530CA
:10E3B0003258203078253032582030782530325885
:10E3C000203078253032582E0D0A00005B444D5D18
:10E3D0003A20416C6C6F6361746564206465766992
:10E3E000636520696E7374616E63652030782530D3
:10E3F00032580D0A000000002DE9FF4791468A4679
:10E4000005004FF005070BD0E878AB796A792979D8
:10E410008DE80F00AB786A781C49002001F0F4FE0B
:10E42000DFF86C80002600BFC6EBC60108EB810454
:10E430003246237C17A1002001F0E6FEE07CA37D9C
:10E44000627D217D8DE80F00A37C627C1BA10020F2
:10E4500001F0DAFE3DB104F1100007222946FDF774
:10E460008EF818B10BE0218B494508D1324623A123
:10E47000002001F0C9FE0027CAF8006002E0761C07
:10E48000072ED1D304B03846BDE8F087981C0200AF
:10E49000842400205B444D5D3A5B4449203078255C
:10E4A0003032585D3A20446576696365207479702E
:10E4B00065203078253032582E0D0A005B444D5DC2
:10E4C0003A2044657669636520416464722030783F
:10E4D0002530325820307825303258203078253099
:10E4E0003258203078253032582030782530325854
:10E4F000203078253032582E0D0A00005B444D5DE7
:10E500003A20466F756E64206465766963652061A4
:10E510007420696E7374616E6365203078253032C3
:10E52000580D0A007CB5054681B26A46094802F0DA
:10E530007BFA04000CD12A4607A101F065FE5421A4
:10E54000684602F097FA040002D1284602F0F0F97A
:10E5500020467CBDD81F00205B444D5D3A5B44499A
:10E56000203078253032585D3A2046726565696EF4
:10E570006720496E7374616E63652E0D0A0000009A
:10E5800008B5087815280BD169460648FEF7F1FD55
:10E5900008B1FDF7A8FE9DF8000008B103F044F8AB
:10E5A000002008BD9C2200201FB58DF80C0002F051
:10E5B000BFFA08B1FDF797FE03A800F0F3FB08B11E
:10E5C000FDF791FE0020CDF805008DF809009DF8BB
:10E5D0000500694620F01E0040F001000C3020F0DC
:10E5E00020008DF8050007208DF8060010208DF81A
:10E5F00007000648009001208DF80400044800F050
:10E6000063FE002801D0FDF76EFE1FBD81E501000D
:10E61000011F00202DE9F04F04468FB0FB48FF2575
:10E62000049500784FF0000900285CD0F84E30685F
:10E63000002858D003A800F0A9FB08B1FDF753FE4D
:10E64000201D06902A20ADF81C000027FF208DF821
:10E650000E008DF80C700297ED4D20880C3D1028AF
:10E660000FD0A08802AA0221FFF74EFC48B90298F9
:10E6700000EB400105EB8101C97A8DF80E108DF891
:10E680000D00DFF88CB32088ABF1240BABF11C0A32
:10E69000AAF1C40817287DD014DC102826D0112830
:10E6A00063D0132877D014281DD1DAA1002001F0FF
:10E6B000ABFD029800EB400005EB8000C07AFF281C
:10E6C0006AD0A2E0DFF87483182866D01C2865D0D1
:10E6D000522808D1DAA1002001F096FDB17A03A8F2
:10E6E00058F8211088470FB0BDE8F08F02A8FFF757
:10E6F0009BFB0028F7D111208DF8140002988DF8AB
:10E700000D0000EB400005EB8000A1880181022193
:10E710008172D4F80610016061898180217B81714A
:10E72000607DC10708D0B949083101EB500000787D
:10E73000FF2809D0049007E04FF6FF7204A9A01D3E
:10E74000FFF75AFE00280FD10299049801EB41010E
:10E7500005EB8101C8728A7A42F008028A728DF84C
:10E760000E0003A8FEF7C0FD88E2A279BFA1002039
:10E7700001F04AFD029800EB400005EB8001887A29
:10E7800020F00200887201070CD5000613D5002185
:10E7900003A804E0CEE059E019E024E28EE2FFF79E
:10E7A00067FC08E09DF80E00FF2804D002F0C0F8D6
:10E7B000FF208DF80E000299102001EB410105EBBE
:10E7C000810188725FF012008DF8140056E2E28930
:10E7D00004A90020FFF710FE78B90298049900EB15
:10E7E000400005EB8000C172827A42F0080282721A
:10E7F0008DF80E1003A8FEF777FD029800EB40009D
:10E8000005EB8000C07AFF2808D00298C0EBC00159
:10E810000AEB810081461121FDF788FE0298002352
:10E82000C0EBC00108EB8102A088494682DF0028C6
:10E830003FF459AF029A009002EB420005EB8000D2
:10E840009349C37A002001F0DFFC4CE791A100203E
:10E8500001F0DAFC13208DF81400029800EB400060
:10E8600005EB80018A7A42F004028A72CA7AFF2A92
:10E8700043D016218DF814100BEBC0000E21083088
:10E88000FCF76BFE029800EB400005EB8000817AFC
:10E8900041F040018172A07900F00102607AC0F37A
:10E8A0008001CDE90012A17A00F00102C1F340031A
:10E8B00083A1002001F0A8FC0299002001EB410295
:10E8C00005EB82020B90D27A0A90C2EBC20308EBEE
:10E8D0008302CDE90C20C1EBC1020AEB8201CDE934
:10E8E0000810321DA08808AB00217FDF02003CD059
:10E8F0007DA1002001F088FCF5E604A8FFF7E8FC04
:10E900005FEA000906D0024687A1002001F07CFCE6
:10E910004F46C0E793A10020049B029A01F074FCCB
:10E920000299049801EB410105EB81018DF80E007D
:10E93000C872B0E7A27995A1002001F065FC707A59
:10E9400020F001007072029800EB400005EB80009F
:10E95000817A21F00401817214218DF81410A179BB
:10E9600021B1C07AFFF7DEFDA77987E10621A01D5E
:10E97000FDF7DCFD02985646C0EBC0000AEB8000B4
:10E980001C21FDF7D3FDE07940073CD59DF80E3002
:10E99000FF2B38D0029A02EB420005EB8000817A0F
:10E9A00041F008018172E17A890707D5C3EBC304FE
:10E9B00008EB84018C7E24F001048C76C07AFF2859
:10E9C00021D068A1002001F01FFC029800EB40015B
:10E9D00015F82120022A17D09DF80E0005EB8101C1
:10E9E000C0EBC00208EB82000A6840F8102F8A884A
:10E9F000828089798171817A21F0020181720721F7
:10EA0000FDF794FDEAE039E1D8E00000C81F0020DE
:10EA1000882500205B444D5D3A203E3E20424C4517
:10EA20005F4741505F4556545F5345435F494E46EB
:10EA30004F5F524551554553540D0A00001C0200CA
:10EA40005B444D5D3A203E3E20424C455F47415479
:10EA500054535F4556545F5359535F415454525F6A
:10EA60004D495353494E470D0A0000005B444D5D2C
:10EA70003A20446973636F6E6E65637420526561FA
:10EA8000736F6E203078253034580D0A0000000076
:10EA9000BC1F02005B444D5D3A203E3E20424C4587
:10EAA0005F4741505F4556545F5345435F50415265
:10EAB000414D535F524551554553540D0A000000D6
:10EAC0005B444D5D3A203078253032582C20307828
:10EAD000253032582C203078253032582C20307890
:10EAE000253032580D0A00005B444D5D3A205365D5
:10EAF00063757269747920706172616D6574657295
:10EB0000207265706C79207265717565737420660A
:10EB100061696C65642C20726561736F6E2030785A
:10EB2000253038582E0D0A005B444D5D3A20536560
:10EB300063757269747920706172616D6574657254
:10EB40002072657175657374206661696C65642CEB
:10EB500020726561736F6E203078253038582E0D25
:10EB60000A0000005B444D5D3A5B43492030782544
:10EB70003032585D3A5B4449203078253032585D58
:10EB80003A20426F6E646564210D0A005B444D5D5E
:10EB90003A203E3E20424C455F4741505F45565427
:10EBA0005F415554485F5354415455532C2073745E
:10EBB0006174757320253038580D0A00C0EBC00011
:10EBC00006EB8000418A9DF80E00C0EBC00208EB06
:10EBD00082000183817E21F001018176012103A859
:10EBE000FFF746FA4AE0A0793749030900F00F021F
:10EBF000002001F009FBA0790121B1EB101F22D107
:10EC000000F00F0001281ED1029800EB400005EB38
:10EC10008001897A090716D50BEBC0000E21083058
:10EC2000FCF79BFC16208DF81400029800EB4000C6
:10EC300005EB8000817A41F060018172707A40F0CA
:10EC40000200707219E0029800EB400005EB8000B2
:10EC5000817A41F08001817215208DF81400B17A1B
:10EC600003A858F82110884738B19DF80E309DF858
:10EC70000D2016A1002001F0C7FA00273A4605A989
:10EC800003A8FDF73BFB9DF8140012287FF4DDADCF
:10EC90001EA10020029A01F0B7FA029A02EB42008C
:10ECA00005EB8000807A01283FF4CFAD23A100203E
:10ECB00001F0AAFA0298FFF73DF914E52AA1002015
:10ECC00001F0A2FA13207FE5301F02005B444D5D86
:10ECD0003A5B4349203078253032585D3A5B4449ED
:10ECE000203078253032585D3A204661696C656481
:10ECF00020746F206170706C79207365727669631F
:10ED00006520636F6E746578740D0A005B444D5D19
:10ED10003A5B4349203078253032585D3A204672BC
:10ED20006565696E6720636F6E6E656374696F6E8B
:10ED300020696E7374616E63650D0A005B444D5DFE
:10ED40003A5B253032585D3A20467265656420632F
:10ED50006F6E6E656374696F6E20696E7374616E39
:10ED600063652E0D0A0000005B444D5D3A203E3E77
:10ED700020424C455F4741505F4556545F534543E1
:10ED80005F524551554553540D0A000030B1FF21E3
:10ED9000017041708170C1700020704748F20E0010
:10EDA000704700002DE9F043054689B051A10020CD
:10EDB00001F02AFA002D39D0002253A1104601F0AB
:10EDC00023FA5E4800270760477287723846FFF7CC
:10EDD000B1F85A4818212438FCF7BFFB0024DFF8AB
:10EDE0006081FF26204601F0A3FD08F80460641C42
:10EDF000072CF7D35420ADF814000720ADF8160007
:10EE000050484F490490083104A801F005FF040060
:10EE10000FD002464CA1002001F0F6F95AA10020C3
:10EE200001F0F2F9204609B0BDE8F08348F20E0087
:10EE3000F9E7DFF80C810121A8F1080888F8001033
:10EE4000287878B1BDF81400BDF81610484381B297
:10EE500008F1100001F00EFE044650A1002001F060
:10EE6000D3F9DBE736485CA108304268002001F0A6
:10EE7000CBF9DFF8849100263148B1B206AA0830F8
:10EE800001F0D2FD040003D0034632465B4914E092
:10EE900032465BA10020079B01F0B6F9C6EBC60124
:10EEA00009EB8100054600231C2206A901F066FE3D
:10EEB000040008D05C4903463246002001F0A4F962
:10EEC00088F80070AAE72B7C324658A1002001F098
:10EED0009BF9E87CAB7D6A7D297D8DE80F00AB7CDA
:10EEE0006A7C5CA1002001F08FF9761C072EC3D349
:10EEF00094E700005B444D5D3A203E3E20646D5F28
:10EF0000696E69742E0D0A005B444D5D3A20496EAE
:10EF1000697469616C697A696E67204170706C69A7
:10EF2000636174696F6E20496E7374616E636520EE
:10EF30003078253038582E0D0A0000008825002032
:10EF4000D01F002095F001005B444D5D3A204661E2
:10EF5000696C656420746F2072656769737465728B
:10EF600020776974682073746F72616765206D6FB4
:10EF700064756C652C20726561736F6E2030782526
:10EF80003038582E0D0A00005B444D5D3A203C3C61
:10EF900020646D5F696E69742E0D0A005B444D5DDF
:10EFA0003A205375636365737366756C6C79207270
:10EFB000657175657374656420636C656172206F3B
:10EFC000662070657273697374656E742064617411
:10EFD000612E0D0A000000005B444D5D3A20537421
:10EFE0006F726167652068616E646C65203078259A
:10EFF0003038582E0D0A0000842400202C1D0200F9
:10F000005B444D5D3A5B3078253032585D3A2042A2
:10F010006C6F636B2068616E646C6520307825309E
:10F0200038582E0D0A000000701D02005B444D5D33
:10F030003A5B4449203078253032585D3A204465A7
:10F040007669636520747970652030782530325890
:10F050002E0D0A005B444D5D3A2044657669636578
:10F060002041646472203078253032582030782571
:10F0700030325820307825303258203078253032E0
:10F080005820307825303258203078253032582EAC
:10F090000D0A00002DE9FF4F8046644891B01E46DE
:10F0A00000681E9F894600284FD0542F4DD801A8D4
:10F0B000FFF76CFE08B1FDF716F900248DF8044047
:10F0C0008DF80C40CDE907762546A9B209AA584823
:10F0D00001F0AAFC28B9082209A94046FCF74FFA1A
:10F0E000D0B16D1C072DF0D39DF80600FF282CD061
:10F0F00020250DF11808B9F1030F10D04D494FF03C
:10F10000010A721A1C21B2FBF1F2072A2CD2CDF8A7
:10F1100010801399E1B122E08DF80650E4E7542FF6
:10F1200003D040208DF80C0001E08DF80C509DF8C4
:10F130000C0040F0030000BF8DF80C00CDF81080EB
:10F1400003A901A8139AFDF7D9F815B0BDE8F08F0F
:10F15000374A0AFA00F1103A52681142F5D002F02B
:10F160003FFC8DF80C5056E0304F4FF0180B403FED
:10F17000F21BB2FBF1F181B107F11C05721BB2FB6E
:10F18000FBF19DF80530024629B32BA1002001F0C8
:10F190003BF840208DF80C00D7E7C2B29DF805304F
:10F1A00030A1002001F030F82048CDF810800C305C
:10F1B000CDE90E408DF805400B979DF806008DF8BF
:10F1C0000C50C0EBC0011B4800EB81000C900BA859
:10F1D000CDE907B01FE02FA1002001F015F8302085
:10F1E0008DF80C0011488DF805400C388DF807A0FB
:10F1F000807A234680070ED49DF8062031490020EE
:10F2000001F002F89DF80500182100EB400005EB25
:10F21000C000FCF7A2F99DF80C00B9F1020F02D072
:10F2200040F0020088E740F0010085E788250020D3
:10F23000D81F0020842400205B444D5D3A5B307869
:10F24000253032585D3A5B3078253032585D3A20AF
:10F2500041707020636F6E74657874204576656EBA
:10F26000740D0A005B444D5D3A5B307825303258AE
:10F270005D3A5B3078253032585D3A20426F6E64DB
:10F2800020636F6E74657874204576656E740D0A20
:10F29000000000005B444D5D3A5B30782530325809
:10F2A0005D3A5B3078253032585D3A20536572768E
:10F2B00069636520636F6E74657874204576656E4A
:10F2C000740D0A00A01E020070B506461E480D46C9
:10F2D0000078B8B148F20E00002E12D0002D10D0E8
:10F2E000296800290DD019A1002000F08DFF1D4CC8
:10F2F000206850B148F204041BA1002000F084FFF4
:10F30000204670BD48F2080070BD1DA1002000F02D
:10F310007BFF14492868091F2060D5F80500886024
:10F32000687A0873297920F00500A17240F0020084
:10F330002072E07920F0040040F00300E07100202A
:10F3400030700446D8E70000C81F00205B444D5DC4
:10F350003A203E3E20646D5F726567697374657222
:10F360002E0D0A00882500205B444D5D3A203C3C70
:10F3700020646D5F72656769737465722E0D0A0093
:10F380005B444D5D3A204170706C69636174696FD4
:10F390006E20496E7374616E636520616C6C6F637F
:10F3A000617465642E0D0A000E4910B54A788C7898
:10F3B0000023A24212D0521CD2B24A70022A00D1BB
:10F3C0004B70084A4B78183252F8232002600869C3
:10F3D000104420F07F400861012010BD0360002030
:10F3E00010BD000018200020002808D0112801D0EE
:10F3F000FCF7C8BF0248416841F00801416070470E
:10F40000E01F002010B51F4C2046217840680129DC
:10F4100010D002292DD0032932D1000725D46069EC
:10F42000401C606100F0A4FDD8B12078BDE8104018
:10F4300001F0ECBE000718D41348A28B017801EB51
:10F44000810100EB8100C188891A0904090CC1807F
:10F4500003D0BDE8104002F065B8BDE81040FEF7EB
:10F46000F9BBBDE81040FEF791BBBDE8104000F0CD
:10F47000DBBF0648617850F82100BDE81040004726
:10F4800010BD0000E01F002024260020241C0200E4
:10F4900028DFFFF7A9BF29DFFFF7A6BF0EB516A12A
:10F4A0009DF8080020F00F00401C20F0F000103004
:10F4B0008DF808000A2202A87CDF08B1FCF713FFD0
:10F4C0004FF4407078DF08B1FCF70DFF00204FF4D7
:10F4D000C87100900190ADF80400ADF800104A002A
:10F4E000ADF80220ADF8061068467ADF002801D09A
:10F4F000FCF7F9FE0EBD00004E6F726469635F4851
:10F500005453000010B503A1002000F07DFE002040
:10F5100010BD00005B444D5D3A202D2D3E206761FB
:10F520007474635F636F6E746578745F6170706C20
:10F53000790D0A0010B503A1002000F065FE00203F
:10F5400010BD00005B444D5D3A202D2D3E206761CB
:10F550007474635F636F6E746578745F6C6F6164FD
:10F560000D0A000010B503A1002000F04DFE0020A0
:10F5700010BD00005B444D5D3A202D2D3E2067619B
:10F580007474635F636F6E746578745F73746F72A5
:10F59000650D0A002DE9F8434FF000080546C14605
:10F5A00047463CA1404600F02FFE6A78414C02EBF2
:10F5B000420004EBC00104F11806496806EB800024
:10F5C0000091837A3CA1002000F01EFE687800EBD9
:10F5D000400004EBC0014968B1B106EB8000807ABD
:10F5E000010611D540060FD43FA1002000F00CFE0B
:10F5F000687800EB400104EBC10000F10808808846
:10F6000054F831701FFA80F968783B4600EB4000EF
:10F6100006EB80004A4600894146A9DF04460B28D4
:10F620000BD16878012700EB400006EB80003B46D9
:10F6300000894A464146A9DF044648F241082CB1F8
:10F64000024631A1002000F0DFFD4446012F1DD10C
:10F6500068784FF6FF7200EB400006EB80000C214B
:10F660000089A7DF040011D002463549002000F0D0
:10F67000CBFDA4F54050023807D0082C05D0801EE1
:10F6800003D0112C01D0002400E044462046BDE800
:10F69000F88300005B444D5D3A202D2D3E206761CC
:10F6A0007474735F636F6E746578745F6170706C8F
:10F6B000790D0A00642500205B444D5D3A5B4349A7
:10F6C000203078253032585D3A20537461746520BB
:10F6D0003078253032582C2053697A6520307825CF
:10F6E0003038580D0A0000005B444D5D3A205365E8
:10F6F0007474696E672073746F72656420636F6ED3
:10F70000746578742E0D0A005B444D5D3A204661A5
:10F71000696C656420746F207365742073797374E9
:10F72000656D20617474726962757465732C2072E2
:10F730006561736F6E203078253038582E0D0A00C1
:10F74000B41D0200F8B50C4607468B784A781BA119
:10F75000002000F059FD6078264D00EB400005EBDD
:10F76000C00038231822394601F008FA62780600F2
:10F7700006D0034620A1002000F046FD3046F8BD2B
:10F7800002EB420005EBC0002A49406800900020CF
:10F790007B6800F039FD6078182100EB400005EB34
:10F7A000C000FCF7C3FE607800EB400005EBC00032
:10F7B0004168491CE2D14160E0E700005B444D5DD7
:10F7C0003A5B4349203078253032585D3A5B4449F2
:10F7D000203078253032585D3A202D2D3E2067614B
:10F7E0007474735F636F6E746578745F6C6F61645B
:10F7F0000D0A0000642500205B444D5D3A5B253016
:10F8000032585D3A204661696C656420746F206CE3
:10F810006F6164205365727669636520636F6E74EF
:10F820006578742C20726561736F6E2025303858AE
:10F830000D0A0000741F02002DE9F04186B08046D9
:10F840000E200C46ADF81000032747A1002000F061
:10F85000DBFC60784C4E00EB400006EB80003B4642
:10F86000008904AA6946AADF002879D16078A6F148
:10F87000180500EB400005EBC000BDF810206946FC
:10F880000830FBF77CFE70B16078A27800EB400096
:10F8900005EBC000406800281FD03CA1002000F00C
:10F8A000B3FC474E1EE0A27846A1002000F0ACFC5D
:10F8B000627802EB420006EB8000807A80074FD42A
:10F8C0004FA1002000F0A0FC6078182100EB400060
:10F8D00005EBC000FBF741FE42E057A1002000F01D
:10F8E00093FC604E6078694600EB400045F830704C
:10F8F0006078BDF8102000EB400005EBC0004260CE
:10F90000607800EB400005EBC0000830FBF70CFE10
:10F910006078182100EB400005EBC000FCF706FE04
:10F920006078A27800EB400005EBC0004EA1436870
:10F93000002000F069FC6078382300EB400005EB04
:10F94000C00118224046B047030005D0A27850A15C
:10F95000002000F059FC03E05DA1002000F054FC01
:10F9600006B00020BDE8F0815B444D5D3A202D2DAE
:10F970003E2067617474735F636F6E746578745F43
:10F9800073746F72650D0A007C2500205B444D5D29
:10F990003A5B3078253032585D3A20557064617496
:10F9A000696E672073746F7265642073657276691F
:10F9B000636520636F6E746578740D0A0000000043
:10F9C000950D02005B444D5D3A5B3078253032582E
:10F9D0005D3A204E6F206368616E676520696E2016
:10F9E000474154545320436F6E7465787420696E98
:10F9F000666F726D6174696F6E2E0D0A00000000F3
:10FA00005B444D5D3A5B3078253032585D3A205288
:10FA10006573657474696E6720474154545320665A
:10FA20006F722061637469766520696E7374616EAC
:10FA300063652E0D0A0000005B444D5D3A5B307833
:10FA4000253032585D3A2053746F72696E672073A7
:10FA500065727669636520636F6E746578740D0AEC
:10FA600000000000CD0C02005B444D5D3A5B307835
:10FA7000253032585D3A2047415454532044617434
:10FA8000612073697A65203078253038580D0A0076
:10FA90005B444D5D3A5B3078253032585D3A4661C3
:10FAA000696C656420746F2073746F726520736570
:10FAB000727669636520636F6E746578742C20724A
:10FAC0006561736F6E203078253038580D0A00005C
:10FAD0005B444D5D3A205365727669636520636FC0
:10FAE0006E74657874207375636365737366756C83
:10FAF0006C792073746F7265642E0D0A000000002B
:10FB000010B5044607A1002000F07EFB2046FFF759
:10FB100041FD002804D12046BDE81040FFF7F2BCAB
:10FB200010BD00005B444D5D3A202D2D3E206761E5
:10FB3000747473635F636F6E746578745F61707003
:10FB40006C790D0A0000000070B50C46054608A14E
:10FB5000002000F059FB21462846FFF7F3FD00285E
:10FB600005D121462846BDE87040FFF7E3BC70BDD3
:10FB70005B444D5D3A202D2D3E20676174747363A4
:10FB80005F636F6E746578745F6C6F61640D0A00FB
:10FB900070B50C46054608A1002000F035FB214653
:10FBA0002846FFF749FE002805D121462846BDE832
:10FBB0007040FFF7D7BC70BD5B444D5D3A202D2DE2
:10FBC0003E206761747473635F636F6E74657874ED
:10FBD0005F73746F72650D0A000000002DE9F0413B
:10FBE000124E07460125BD403068FCF777FC00281F
:10FBF0000DD10F4C2069284207D1384600F0E2FDB4
:10FC00000028E06805D0284304E0A8432061BDE84F
:10FC1000F081A843E060206928432061A168306832
:10FC2000BDE8F0410022FCF719BC0000481C0200AE
:10FC30000420002070B51B4C207900072DD41A48F1
:10FC4000017801EB810100EB81052E6900F06BFF6B
:10FC5000E9882A89761E11443144B1FBF0F021690C
:10FC6000002549B16169814206D1E560606840F0D4
:10FC700001006060002008E000F07AF910B1022075
:10FC8000E56002E0206920B10320BDE8704001F08A
:10FC90008DBCBDE87040FDF779BFBDE8704001F054
:10FCA0007BBC0000E01F00202426002070B59CB023
:10FCB0000024064608949DF820000D4620F00F0011
:10FCC000401C20F0F00010308DF820009DF822003C
:10FCD00020F00600801C8DF8220008798DF82100A4
:10FCE0001C2101A8FBF739FC9DF80400029440F0A8
:10FCF00020008DF8040008A80494CDE905400120F7
:10FD000007948DF86E0042F61C20ADF86C0000944C
:10FD10009DF8020020F00600801C8DF80200697931
:10FD20008DF80010A9798DF8011020F0180040F02E
:10FD300001008DF80200142109A8FBF70EFC202118
:10FD40000EA8FBF70AFC1BA80990CDF828D016AA2C
:10FD50000EA9304600F010F8ADF82C001420ADF8D4
:10FD6000300016A8ADF82E400D90B088B31D09AA3A
:10FD700001A9A2DF1CB070BD30B50878002300B126
:10FD800001234C780CB143F0020320B143F001038E
:10FD90000C7B086901E00C79886864F31F6050707F
:10FDA000050A9570050CD570000E10714C78052071
:10FDB00084B18C8A5471240A94718C7DD471CC7D69
:10FDC00014720C7E54724C7E94728C7E43F002034B
:10FDD000D4720C208C7824B1097F115443F00403B1
:10FDE000401C137030BD000070B50025044605703E
:10FDF00001206070A0701549154801F0EAF8A91EAD
:10FE00002171A060217300EBC0000521B0FBF1F06F
:10FE100000F5486020610E481438416861618068CF
:10FE2000A061042020770A48103881791B31C9B2BB
:10FE300081713B2908D93C3981714179491CC9B28A
:10FE400041713B2900D9457170BD0000C8220020D6
:10FE5000141F0020F0B58FB00D4606461C2101A8E6
:10FE6000FBF77BFB9DF80400002440F002008DF8B6
:10FE70000400012705948DF8367042F61D20ADF878
:10FE8000340000949DF80200029420F00600801CCB
:10FE90008DF80200049406940794E9798DF8001017
:10FEA000297A8DF8011020F019008DF80200142134
:10FEB00008A8FBF752FBA87A8DF838000DA8089027
:10FEC000ADF828700EA8CDF824D0ADF82A40ADF8D2
:10FED0002C700C90B08806F10E0308AA01A9A2DFCD
:10FEE0000FB0F0BDF8B51A4C207800282ED020694C
:10FEF00028B10026E06820B1002526B110E00126D7
:10FF0000F8E70125F9E7684652DF052803D020B15C
:10FF1000FCF7E9F904E0012602E02169009888472E
:10FF200085B96088ADF800006946A06861DF0528E2
:10FF300003D020B1FCF7D7F904E0012502E0D4E9B1
:10FF400002018847002EDED0002DD6D0F8BD00007B
:10FF50003C200020054940880A88904204D3498803
:10FF6000884201D801207047002070476C1F002094
:10FF700070B50E48017801EB810100EB8104256921
:10FF800000F0D1FDE18822896D1E11442944B1FBA6
:10FF9000F0F1074842698A4205D301D1006910B1E6
:10FFA0004FF0000070BD4FF0010070BD242600200E
:10FFB000E01F0020800701D000207047012070471B
:10FFC00030B51488E51C9D4201D90C2030BD0225B6
:10FFD0000D5513881C245B1C9BB21380CC541388D2
:10FFE0005B1C9BB21380012807D0022807D003288E
:10FFF00007D0042807D0072030BD002004E00120EE
:020000040002F8
:1000000002E0CD5401E00320C8541088401C108049
:10001000002030BD0348017AC90702D00078FDF7FF
:1000200079BB7047281F00202DE9F047DFF8ACA00E
:10003000DAF80C009AF8004080469AF80460DAF882
:100040000890DAF810703AE009EBC4052A7833E03A
:1000500002EB42016B68521C03EBC101AB78D2B2D8
:10006000934200D100220B78022B02D0032B23D124
:100070001FE0D1F804C00346014603E0614503D008
:100080000B46C969C1B1F9E7B1B18B4205D1C0696D
:1000900018B9134F0126BE600027D1F800C0C96906
:1000A000D96149B10B6863440B6005E00174C06914
:1000B00000E000210028F9D169789142C8D1641E7E
:1000C000E4B2C1D2CAE903078AF80460404502D00D
:1000D0000120BDE8F0870020FBE700001820002089
:1000E000001001402DE9F04705462F4800268046C4
:1000F0000778D0F80C904BE0D8F8080000EBC70464
:1001000040E002D02846ED691EE02078616800EBEF
:100110004002401CC0B201EBC2012070A2789042A4
:1001200000D126700A784868012A2DD1027C5ABB7A
:100130008A684260CA6882600A69C26049698161EE
:1001400098F8041001B146604268D8F81030DFF822
:100150005CC0D11A21F07F41614502D2826811440E
:1001600006E0991A826821F07F418A4202D9511A29
:10017000016000E006604660012186600174C6618E
:1001800001F0B4FA002DBCD1207861788842BCD14E
:100190007F1EFFB2B0D2D8F80C10494502D0012022
:1001A000BDE8F0870020FBE718200020FFFF7F005C
:1001B00038B50E4C207808B1002038BD00254FF42A
:1001C000C0630B4A0BA128460095FBF70DFB38B91D
:1001D00010230A4A0AA100200095FBF7DDFA08B1B6
:1001E000082038BD01202070E6E7000038200020FC
:1001F000AF2D00204E6F726D616C0000AF33002098
:10020000496E7075740000000FB408B504A9009120
:100210006A460399FBF750FB01B05DF814FB000040
:1002200098B0FCF7A1F959A10020FFF7EDFF00BF3E
:100230005AA10020FFF7E8FF00235D4A0521184678
:10024000FCF7C4F808B1FCF74EF85A4A01215A48A5
:10025000FCF7AAF808B1FCF746F800BF57A1002048
:10026000FFF7D2FF594A40F6CD410320FDF700FACF
:1002700008B1FCF738F869460020FDF7D1F808B15D
:10028000FCF731F89DF8000002287CD0002400BF64
:100290004FA10020FFF7B8FFFCF7F0FF022000F0AD
:1002A000B9F92046FEF780F9FFF7F8F8382101A8E0
:1002B000FBF753F902208DF8040001248DF8064065
:1002C00006208DF80700464803250690ADF8145027
:1002D00024210FA8FBF741F98DF84840282000247D
:1002E0001390B420009414903E4B0FAA214601A80D
:1002F000FCF738FA08B1FBF7F6FF00F0BBFE00BFD1
:1003000000F01CFE00BF1C216846FBF726F94FF4E5
:100310002030CDE900404FF4702002903248059023
:1003200032488DF80C500690ADF80E408DF8104014
:100330006846FCF781FD08B1FBF7D5FF2CA1002032
:10034000FFF762FF1C4800224FF480310068FCF781
:1003500085F808B1FBF7C7FF00BF2AA10020FFF70F
:1003600053FF0320FCF76CFB08B1FBF7BCFF00BF99
:100370002AA10020FFF748FF48DF0028FCD0FBF748
:10038000B2FFF9E7FFE7012481E7000053746172CF
:1003900074696E672E2E2E0D0A000000496E697476
:1003A0002054696D6572732E2E2E0D0A0000000018
:1003B00074200020BDC601009C1B020042757474AD
:1003C0006F6E732E2E2E0D0A00000000C5D50100A1
:1003D000496E697420424C452E2E2E0D0A000000F5
:1003E0001C1F0020C5080200E9080200C9DD010049
:1003F00053746172742054696D6572732E2E2E0DC4
:100400000A0000005374617274204164766572744E
:100410006973696E672E2E2E0D0A00004D61696E9C
:100420002E2E2E0D0A0000000348416821F008011D
:100430004160007800F0EABEE01F002070B514466D
:1004400082880E4605462088111D0144921C99425F
:1004500001D8FE2A01D90C2070BD521C32542088CC
:10046000FF21401C80B2208031542088401C80B283
:1004700020808119288801F0ADFA2188084480B2D3
:100480002080AA8842B1A96841B13044FBF74CF8FA
:100490002088A98808442080002070BD072070BDF6
:1004A000F8B50E46017814460546012901D1687851
:1004B00030B12088821C9A422DD8012902D006E052
:1004C0000720F8BD69780144891C994223D8181A7D
:1004D000801E87B2ADF800702188B01C08446946C0
:1004E0007DDF0028EDD12878022805D1BDF8001065
:1004F000B94201D809210AE00821012805D168780C
:10050000B84202D8ADF8000001E0ADF80070BDF8C7
:100510000000FE2801D90C20F8BD2288401CB054F0
:100520002088401C80B2208031542088401C2080CC
:10053000BDF80010084420800020F8BD10B5044626
:1005400005A10020FFF760FE62780DA10020FFF7F3
:100550005BFE002010BD00005B444D5D3A202D2D58
:100560003E206E6F5F736572766963655F636F6E61
:10057000746578745F6170706C790D0A000000001A
:100580005B444D5D3A5B4349203078253032585DFD
:100590003A204E6F205365727669636520636F6EF3
:1005A000746578740D0A000010B503A10020FFF7F0
:1005B0002BFE002010BD00005B444D5D3A202D2D28
:1005C0003E206E6F5F736572766963655F636F6E01
:1005D000746578745F6C6F61640D0A0010B503A1D7
:1005E0000020FFF711FE002010BD00005B444D5DB0
:1005F0003A202D2D3E206E6F5F73657276696365BC
:100600005F636F6E746578745F73746F72650D0AE3
:100610000000000031B540F2E73404E0401E0090D5
:100620002046FAF7F7FE00980028F7D138BD4907B1
:10063000090E002806DA00F00F0202F1E02282F82B
:10064000141D03E000F1E02282F8001400F01F0204
:10065000012191404009800000F1E020C0F88012A3
:10066000C0F80011704700002DE9F0478846814628
:1006700000F096F90124224E0028484618D0FDF7D4
:10068000AFF9304490F848008009032802D00128CF
:1006900006D007E01B48006804FA09F4204201D1A3
:1006A000022100E003214846BDE8F04700F0D9B838
:1006B00000F082F9002820D04846FDF791F9054660
:1006C000114F4FF4807007EB850100EB8500D1F8E6
:1006D000102580B242F00102C1F8102500F0D0F8D8
:1006E000B8F1000F09D04846FDF77AF956F8200016
:1006F000002802D0AC40C7F80443BDE8F0870000F2
:10070000AC25002010050050006000402DE9FC41A0
:10071000DFF8A480044608EB0400002790F93000BD
:100720001346C0170E46401C01D0082740E0F2785F
:1007300019462046FDF730F90546401C37D0B07801
:1007400048B1A00000F1A040D0F8001721F002014C
:10075000C0F8001707E000217378204600910A4690
:10076000019100F06DF8F078C0B11448317800EBD9
:100770008500D0F81025124B1A40C0F810254FF410
:10078000F8524FF4403302EA042203EA01410A43DB
:10079000D0F810150A43C0F8102509E008EB050051
:1007A000327810F8481F41EA8211017000E00427F6
:1007B0003846BDE8FC810000AC2500200060004008
:1007C000FFE0FCFF03490968C14011F0010000D0BF
:1007D000012070471005005070B5124D95F8540077
:1007E00008B1082070BD0020411E2A18401CC0B26C
:1007F00082F830102028F8D300242046FDF7BEF8F8
:10080000641CE4B20C2CF8D303210620FFF70FFF81
:1008100005494FF00040C1F80403012085F8540059
:10082000002070BDAC25002000600040034890F817
:100830005400002800D0012070470000AC250020A3
:1008400030B541EA4201DDE9034541EA8301800018
:1008500041EA042100F1A04041EA0541C0F8001737
:1008600030BD800000F5E06000F1A040026822F495
:1008700040320260026842EA0141016070470000B4
:10088000034908B50844002101600068009008BDD4
:100890000060004002494058012800D00020704705
:1008A000006000404058002800D001207047D0F878
:1008B0000403084000D0012070474058002800D0B1
:1008C0000120704710B550B103280CD10220FCF76D
:1008D000C3FE002807D0BDE81040FBF704BDBDE80B
:1008E000104000F07FBC10BD0078002807D10448FC
:1008F0003B21408876DF002801D0FBF7F4BC70472D
:10090000001F0020087828B1022802D102490020E7
:100910000870704700F088BE001F00200021425C74
:100920000AB101207047491C0629F8D300207047FE
:1009300070B5054602460EA10020FFF765FC17487A
:10094000C5EBC50100EB81040020C4F81100A4F838
:10095000150020461021FAF700FEFF202074A07633
:100960004FF6FF7020832846BDE8704001F038B88C
:100970005B444D5D3A20496E697469616C697A69BE
:100980006E67205065657220496E7374616E636591
:10099000203078253038582E0D0A0000842400209D
:1009A0000449084490F93000082801DB0120704711
:1009B00000207047AC2500200449084490F930001D
:1009C000082801D20120704700207047AC25002084
:1009D00070B50D00044602D10020FBF784FC14B969
:1009E0000020FBF780FC2878207069886170090A74
:1009F000A170A988E170090A2171E8886071000A74
:100A0000A07170BD06490979490701D408207047D3
:100A100020B1044949780160002070470E207047DA
:100A2000E01F00202426002030B5104B1B795B0707
:100A300001D4082030BD18B112B104687CB901E0BE
:100A40000E2030BD0A4B1D684DB140681D8901FB69
:100A5000050059685B8903FB0511814201D8072015
:100A600030BDC2E90040002030BD0000E01F002082
:100A7000F0260020F8B5054621480E4600794007CB
:100A800001D40820F8BD15B1286870BB01E00E2024
:100A9000F8BD1C4C0027206838B361892289606842
:100AA00001FB0201686881421FD9FFF783FA70B128
:100AB000D5E9000200EB400004EB800043680189A7
:100AC000D41AB4FBF1FC01FB1C4474B901E0102002
:100AD000F8BDB6FBF1F401FB146434B92EB14089C2
:100AE000324400FB0130824201D90720F8BD334671
:100AF0000022294603200097FDF782F8F8BD000088
:100B0000E01F0020F026002010B54FF010204469AF
:100B1000601C04D000F007F8B4FBF0F010BD4FF0FB
:100B20008050406910BD4FF08050006980B270471E
:100B300070B5104800242546047044702846FDF71F
:100B40004FF86D1C0A2DF9D30B4D6C80FFF7DCFFBD
:100B5000861EFFF7E8FF46430648AE60CC306C6166
:100B60000460048144812C70AC610420EC616860F5
:100B7000002070BD24260020E01F00202DE9F8434E
:100B8000804623481F46164600790D46400702D48A
:100B90000820BDE8F8832DB1B8F1000F02D0286815
:100BA00098B901E00E20F4E71A4C206868B1628918
:100BB0002089616802FB00116A68914205D926B15B
:100BC000B04202D3F119814201D90720E1E7404642
:100BD000FFF7F0F9D0B13846FFF7ECF9B0B168682B
:100BE000FFF7E8F990B168683246C1194046FAF754
:100BF0009BFC00962868002200EB4000434654F816
:100C0000204002212846A0470020C2E71020C0E76C
:100C1000E01F0020F02600202DE9F041294D044678
:100C20000E462879400702D40820BDE8F081ECB1D7
:100C3000E6B12068D0B1FFF776FF0146A088814277
:100C400012D3102810D3E08870B1FFF75DFF471E64
:100C5000FFF769FF4743E288A188A86802FB010209
:100C6000974201D3890703D00720DEE70E20DCE797
:100C70006988012924D0C6E90010134A01EB410319
:100C800002EB83014860206842F82300A0880881B5
:100C9000E0884881FFF747FFA188E288401E01FBFA
:100CA0000204FFF740FF94FBF0F4FFF73CFFA96854
:100CB00004FB0010A8606888401C68800020B4E72E
:100CC0000420B2E7E01F0020F0260020F8B504461B
:100CD0001C481E46154600790F46400701D40820DF
:100CE000F8BD1FB114B1206898B901E00E20F8BD1D
:100CF0001548016869B142894168008902FB001109
:100D00006268914205D925B1A84202D3A91981424E
:100D100001D90720F8BD3846FFF74CF978B13046C5
:100D2000FFF748F958B16068FFF744F938B12B462E
:100D30003A46214601200096FCF762FFF8BD1020DC
:100D4000F8BD0000E01F0020F026002010490246F8
:100D5000087800281AD0042818D0022A14D0032AB0
:100D600014D10A7912070FD48A69521C8A61B2F52C
:100D70007A7F06D0022801D000F048BA487800F007
:100D800015BC0D20FBF7FEBAFEF73CBB7047000018
:100D9000E01F0020F8B504461C481E4615460079A1
:100DA0000F46400701D40820F8BD1FB114B12068D8
