:020000040001F9
:10C00000A8BE00204DC6010055C601000DD201009A
:10C0100059C601005BC601005DC6010000000000BA
:10C020000000000000000000000000005FC60100EA
:10C0300061C601000000000063C6010065C6010082
:10C0400067C6010067C6010065DD0100F5D7010084
:10C0500005D8010067C60100DDCD010069D20100ED
:10C0600067C6010067C6010067C6010067C6010018
:10C0700067C6010067C6010067C6010067C6010008
:10C0800069DD010045D2010067C6010067C60100F5
:10C0900015D8010067C6010019D8010067C6010064
:10C0A00067C6010067C6010067C6010067C60100D8
:10C0B00067C6010067C60100000000000000000024
:10C0C00067C6010067C6010067C6010067C60100B8
:10C0D00067C6010067C6010067C6010000000000D6
:10C0E0000000000000000000000000000000000050
:10C0F0000000000000000000000000000000000040
:10C10000000000000000000000000000000000002F
:10C11000000000000000000000000000000000001F
:10C12000000000000000000000000000000000000F
:10C1300000000000000000000000000000000000FF
:10C1400000000000000000000000000000000000EF
:10C1500000000000000000000000000000000000DF
:10C1600000000000000000000000000000000000CF
:10C1700000000000000000000000000000000000BF
:10C1800000000000000000000000000000000000AF
:10C19000000000000000000000000000000000009F
:10C1A000000000000000000000000000000000008F
:10C1B000000000000000000000000000000000007F
:10C1C000000000000000000000000000000000006F
:10C1D000000000000000000000000000000000005F
:10C1E000000000000000000000000000000000004F
:10C1F000000000000000000000000000000000003F
:10C20000DFF80CD000F0ACFD0048004741B9020057
:10C21000A8BE0020401E00BF00BF00BF00BF00BF7F
:10C2200000BF00BF00BF00BF00BF00BF00BF00BF16
:10C2300000BF00BF00BF00BF00BF00BF00BF00BF06
:10C2400000BF00BF00BF00BF00BF00BF00BF00BFF6
:10C2500000BF00BF00BF00BF00BF00BF00BF00BFE6
:10C2600000BF00BF00BF00BF00BF00BF00BF00BFD6
:10C2700000BF00BF00BF00BF00BF00BF00BF00BFC6
:10C2800000BF00BF00BFC5D170470000401E00BF07
:10C2900000BF00BF00BF00BF00BF00BF00BF00BFA6
:10C2A00000BF00BF00BF00BF00BF00BF00BF00BF96
:10C2B00000BF00BF00BF00BF00BF00BF00BF00BF86
:10C2C00000BF00BF00BF00BF00BF00BF00BF00BF76
:10C2D00000BF00BF00BF00BF00BF00BF00BF00BF66
:10C2E00000BF00BF00BF00BF00BF00BF00BF00BF56
:10C2F00000BF00BF00BF00BF00BF00BF00BFC5D16F
:10C3000070470000401E00BF00BF00BF00BF00BF5D
:10C3100000BF00BF00BF00BF00BF00BF00BF00BF25
:10C3200000BF00BF00BF00BF00BF00BF00BF00BF15
:10C3300000BF00BF00BF00BF00BF00BF00BF00BF05
:10C3400000BF00BF00BF00BF00BF00BF00BF00BFF5
:10C3500000BF00BF00BF00BF00BF00BF00BF00BFE5
:10C3600000BF00BF00BF00BF00BF00BF00BF00BFD5
:10C3700000BF00BF00BFC5D170470000401E00BF16
:10C3800000BF00BF00BF00BF00BF00BF00BF00BFB5
:10C3900000BF00BF00BF00BF00BF00BF00BF00BFA5
:10C3A00000BF00BF00BF00BF00BF00BF00BF00BF95
:10C3B00000BF00BF00BF00BF00BF00BF00BF00BF85
:10C3C00000BF00BF00BF00BF00BF00BF00BF00BF75
:10C3D00000BF00BF00BF00BF00BF00BF00BF00BF65
:10C3E00000BF00BF00BF00BF00BF00BF00BFC5D17E
:10C3F00070470000401E00BF00BF00BF00BF00BF6D
:10C4000000BF00BF00BF00BF00BF00BF00BF00BF34
:10C4100000BF00BF00BF00BF00BF00BF00BF00BF24
:10C4200000BF00BF00BF00BF00BF00BF00BF00BF14
:10C4300000BF00BF00BF00BF00BF00BF00BF00BF04
:10C4400000BF00BF00BF00BF00BF00BF00BF00BFF4
:10C4500000BF00BF00BF00BF00BF00BF00BF00BFE4
:10C4600000BF00BF00BFC5D170470000401E00BF25
:10C4700000BF00BF00BF00BF00BF00BF00BF00BFC4
:10C4800000BF00BF00BF00BF00BF00BF00BF00BFB4
:10C4900000BF00BF00BF00BF00BF00BF00BF00BFA4
:10C4A00000BF00BF00BF00BF00BF00BF00BF00BF94
:10C4B00000BF00BF00BF00BF00BF00BF00BF00BF84
:10C4C00000BF00BF00BF00BF00BF00BF00BF00BF74
:10C4D00000BF00BF00BF00BF00BF00BF00BFC5D18D
:10C4E00070470000401E00BF00BF00BF00BF00BF7C
:10C4F00000BF00BF00BF00BF00BF00BF00BF00BF44
:10C5000000BF00BF00BF00BF00BF00BF00BF00BF33
:10C5100000BF00BF00BF00BF00BF00BF00BF00BF23
:10C5200000BF00BF00BF00BF00BF00BF00BF00BF13
:10C5300000BF00BF00BF00BF00BF00BF00BF00BF03
:10C5400000BF00BF00BF00BF00BF00BF00BF00BFF3
:10C5500000BF00BF00BFC5D170470000401E00BF34
:10C5600000BF00BF00BF00BF00BF00BF00BF00BFD3
:10C5700000BF00BF00BF00BF00BF00BF00BF00BFC3
:10C5800000BF00BF00BF00BF00BF00BF00BF00BFB3
:10C5900000BF00BF00BF00BF00BF00BF00BF00BFA3
:10C5A00000BF00BF00BF00BF00BF00BF00BF00BF93
:10C5B00000BF00BF00BF00BF00BF00BF00BF00BF83
:10C5C00000BF00BF00BF00BF00BF00BF00BFC5D19C
:10C5D00070470000401E00BF00BF00BF00BF00BF8B
:10C5E00000BF00BF00BF00BF00BF00BF00BF00BF53
:10C5F00000BF00BF00BF00BF00BF00BF00BF00BF43
:10C6000000BF00BF00BF00BF00BF00BF00BF00BF32
:10C6100000BF00BF00BF00BF00BF00BF00BF00BF22
:10C6200000BF00BF00BF00BF00BF00BF00BF00BF12
:10C6300000BF00BF00BF00BF00BF00BF00BF00BF02
:10C6400000BF00BF00BFC5D170470000064880474B
:10C6500006480047FEE7FEE7FEE7FEE7FEE7FEE7E7
:10C66000FEE7FEE7FEE7FEE785DA010001C2010012
:10C670002DE9F0410024061B254671F1000605DA7C
:10C6800001240027D0EB070067EB0101161E73F1B0
:10C69000000605DA0027D2EB0702012567EB03034A
:10C6A00000F09EFA86460E4617469C46AC4204D0E1
:10C6B0000025D0EB050E65EB010624B10020D2EB7E
:10C6C000000760EB030C704631463A466346BDE80E
:10C6D000F08140EA01039B0703D009E008C9121F5B
:10C6E00008C0042AFAD203E011F8013B00F8013B2C
:10C6F000521EF9D27047D2B201E000F8012B491E58
:10C70000FBD270470022F6E710B513460A460446EE
:10C710001946FFF7F0FF204610BD421C10F8011B20
:10C720000029FBD1801A704730B50446002003462B
:10C7300000E05B1C934203D2E05CCD5C401BF8D070
:10C7400030BD034611F8012B00F8012B002AF9D166
:10C75000184670472DE9FE4F804681EA0300C00F5E
:10C760000C46009021F0004123F00045B8EB020098
:10C77000A94105D24046214690461C460B4602463A
:10C7800023F00040104347D0270DC7F30A00C3F33E
:10C790000A510290401A019040286BDAC3F313004B
:10C7A00040F4801B0098924620B10023D2EB030A8C
:10C7B00063EB0B0B01985946C0F14002504600F064
:10C7C00040FA06460D4650465946019A00F058FA7E
:10C7D00010EB08006141002487EA115284EAE773F4
:10C7E0001A4340D0009A62B3019A012A4FEA0752D5
:10C7F00015DC001B61EB02014FF0004202EA075218
:10C80000CDE90042001C41F5801132462B4600F074
:10C8100058FA03B0BDE8F08F40462146F9E7001B07
:10C8200061EB0201001C41F5801300185B412018E8
:10C83000A2F5001747EB030140EAD570B6196D4128
:10C8400011E06D084FEA360645EAC0754FEA075217
:10C85000001B61EB0201001C41F5801149084FEA01
:10C8600030000019514132462B4603B0BDE8F04F6D
:10C8700000F018BA0098012240000023D0EB020219
:10C8800063EBE073009821464FEAE074B8EB0000D8
:10C8900061EB0401E9E783F000435BE781F00041CD
:10C8A00058E72DE9FE4F81EA030404F0004421F02B
:10C8B000004100944FF0000B23F0004350EA0104C4
:10C8C0005ED052EA03045BD0C3F30A54C1F30A55A5
:10C8D0002C44A4F2F3340194A0FB0254C1F31301DD
:10C8E00041F48011C3F3130343F4801301FB0244AA
:10C8F00000FB034E840A970A44EA815447EA8357AF
:10C90000A4FB076802958D0A05FB07854FEA932C67
:10C9100004FB0C542705029D4FEA065847EA1637D8
:10C92000B5EB08056EEB070C870E920E47EA8117F0
:10C9300042EA8312A7FB0201B6EB0B0164EB000491
:10C940002B0D43EA0C335E1844EB1C50DA4651467B
:10C95000E7FB0201C5F313044FEA0B3343EA145318
:10C960004FEA0432019C43EA0603A4F10C0402944A
:10C97000009CCDE900B400F0A4F903B0BDE8F08F4D
:10C9800000200146F9E72DE9F04D81EA030404F0A7
:10C99000004B21F0004514464FF0000A23F00041FF
:10C9A00050EA050220D054EA01021DD0C5F30A570F
:10C9B0000246C5F31303C1F31300C1F30A5640F452
:10C9C000801543F48013A7EB0608101BD64608F227
:10C9D000FD3873EB050002D308F1010801E092185D
:10C9E0005B41B8F1000F03DA00200146BDE8F08D8D
:10C9F00000204FF48011064684460EE0171B73EBAF
:10CA0000050705D3121B63EB050306434CEA010C33
:10CA100049084FEA300092185B4150EA0107EDD116
:10CA200052EA030012D082EA040083EA05010843B7
:10CA300005D0101BAB4106D20122002306E00022E4
:10CA40004FF0004302E06FF0010253101AEB0600B2
:10CA50004CEB085110EB0A0041EB0B01BDE8F04D27
:10CA600000F020B90EB5C10F80EAE0700844CA0793
:10CA7000002140F233438DE80E000A460B4600F0D9
:10CA800020F903B000BD0EB540F233410291002100
:10CA9000CDE900110A460B4600F013F903B000BDC2
:10CAA00070B5C1F30A5201F000450024C1F313012F
:10CAB00040F2FF3341F480119A4201DA002070BD48
:10CAC00040F233439A42A2F2334203DC524200F076
:10CAD000C7F800E090402C43F1D0404270BDC1F354
:10CAE0000A5210B5C1F3130140F2FF3341F4801133
:10CAF0009A4201DA002010BD40F233439A42A2F27A
:10CB0000334203DC524200F0ABF810BD904010BD40
:10CB100070B5C1F30A5201F000450024C1F31301BE
:10CB200040F2FF3341F480119A4202DA00200146BC
:10CB300070BD40F233439A42A2F2334203DC5242C8
:10CB400000F08EF801E000F07CF82C43F0D00023D8
:10CB5000D0EB030063EB010170BD00F0004230F048
:10CB600000400AD0C10D01F56071C0F3160042EA21
:10CB70000151C20840071143704700200146704729
:10CB800030B5041E71F1000404DB4FF00044404254
:10CB900064EB0101141E73F1000405DB1C464FF029
:10CBA0000043524263EB04038B4208BF824230BD14
:10CBB00030B5041E71F1000404DB4FF00044404224
:10CBC00064EB0101141E73F1000405DB1C464FF0F9
:10CBD0000043524263EB0403994208BF904230BDC8
:10CBE0002DE9F05F0546002092469B4688460646A2
:10CBF000814640241BE0284641464746224600F035
:10CC00002FF853465A46C01A914110D31146184680
:10CC1000224600F016F82D1A67EB01084F4622460F
:10CC20000120002100F00DF817EB00094E41201EF5
:10CC3000A4F10104DFDC484631462A464346BDE8FC
:10CC4000F09F202A04DB203A00FA02F1002070470E
:10CC50009140C2F1200320FA03F31943904070473A
:10CC6000202A04DB203A21FA02F00021704721FA41
:10CC700002F3D040C2F120029140084319467047A8
:10CC8000202A06DBCB17203A41FA02F043EAE07390
:10CC900006E041FA02F3D040C2F12002914008437D
:10CCA0001946704710B5141E73F1000408DA401CD1
:10CCB00041F1000192185B411A4301D120F00100BB
:10CCC00010BD2DE9F04D92469B4611B1B1FA81F2AB
:10CCD00002E0B0FA80F220329046FFF7B2FF04463D
:10CCE0000F4640EA0A0041EA0B0153465A46084300
:10CCF00013D0114653EA010019D0C8F14002504642
:10CD0000FFF7AEFF05460E46504659464246FFF72E
:10CD100098FF084305D0012004E020463946BDE8CD
:10CD2000F08D0020054346EAE0762C4337430A980D
:10CD30006305E40AA0EB08000022FD0A44EA475418
:10CD40000A3002D500200146E9E7010510196941C2
:10CD5000DDE9084500196941BDE8F04DA2E7000092
:10CD6000064C074D06E0E06840F0010394E8070038
:10CD700098471034AC42F6D3FFF746FA1840030048
:10CD80003840030070B58C1810F8015B15F00703EC
:10CD900001D110F8013B2A1106D110F8012B03E054
:10CDA00010F8016B01F8016B5B1EF9D12B0705D45C
:10CDB0000023521E0DD401F8013BFAE710F8013BA5
:10CDC000CB1A921C03E013F8015B01F8015B521EC1
:10CDD000F9D5A142D8D3002070BD00002DE9FC5F39
:10CDE0000025DFF83491A8464FF4807601242F46C1
:10CDF000304610F005FA38B1D9F80403204203D0C8
:10CE0000304610F0F3F92543361D64007F1CB6B29E
:10CE1000082FEDD34FF4BE74204610F0F1F938B16D
:10CE2000204610F0E3F93D4845F00045D0F8008079
:10CE30003B4E15F0FF0F14D0012700242F420CD0D9
:10CE400009EB8401D1F81005D1F81015C0F30420C6
:10CE500056F82420C1F3014190477F00641C082C40
:10CE6000ECD3002D56DA00200190401E4CE07019E2
:10CE700010F8501F90F9000021F0C004401C38D079
:10CE8000012000FA04FA1AEA090F32D04FEA911B86
:10CE9000204605F09FFD56F82000009010B9BBF128
:10CEA000030F26D15146BBF1030F02D1019808436D
:10CEB0000190A00000F1A040D0F800071AEA080F86
:10CEC000C0F3014002D0022802D012E0032810D1A2
:10CED000BBF1030F07D102281AD00221204610F01F
:10CEE0002AF97F1CFFB2009818B1009A59462046D3
:10CEF00090476D1C042DBAD3002F0BD00748006853
:10CF0000404507D080460198002781463D46AEE760
:10CF10000321E3E7BDE8FC9F0060004010050050DE
:10CF20003C3F00202DE9F84FB2480024B24BB0F945
:10CF30000010B24E0F1F81461CE00020054602463D
:10CF400004EB020C521C33F91C8036F91CC052B29F
:10CF500040446544042AF3DBC21700EB9270801052
:10CF600023F81400E81705EB9070801026F81400E1
:10CF7000641C64B2BC42E0DB78B2A1F108071DE09A
:10CF8000002214464FEA020500EB050C6D1C33F934
:10CF90001C8036F91CC06DB244446244042DF3DB9E
:10CFA000E51704EB9574A41023F81040D41702EB96
:10CFB0009472921026F81020401E40B24D46B8429E
:10CFC000DEDC002009E000BF33F8102036F8104006
:10CFD000121B23F81020401C40B28842F4DB884E1C
:10CFE0000420884CB081002704F1410928780123EE
:10CFF00041B2B6F90C20804806F070FCF77096F943
:10D000000000B07196F90110884200DDB17196F907
:10D0100006100020491E14E02218235692F9012020
:10D02000D21A072A08DB09EB000319F9002093F94B
:10D0300001309A1A072A02DAF278521CF270401C68
:10D0400040B28842E8DB96F90300002802DDB1898E
:10D05000491CB181192800D1F77096F90300002806
:10D06000C4DC96F90030337196F901207271B77003
:10D070005D1EBB46B2465F465146AAF80EB0002080
:10D080000CE0261814F900C096F90160401CA6EBCC
:10D090000C06B1F80EC040B26644CE81A842F0DB67
:10D0A000B1F90E0090FBF3F000B200EBD0764FEA3E
:10D0B000E07C00EB660600EB9C7CC88106EBAC06CE
:10D0C0000FFA86F8AAF81080002186461EE0601844
:10D0D000665690F90100801B404515DD9AF8006006
:10D0E0001846761C8AF800604E1C07E004EB000C22
:10D0F0001CF801CC04F800C0401E40B2B042F5DD7F
:10D10000665C06EB0E006054491C49B2A942DEDBA6
:10D11000AAF80E7000205146571E0DE009EB000CD6
:10D1200019F900609CF901C0401CACEB0606B1F88F
:10D130000EC040B26644CE81B842EFDB0846B1F97A
:10D140000E1091FBF2F109B201EBD1764FEAE17CCE
:10D1500001EB660601EB9C7C06EBAC06C18136B2A6
:10D16000AAF810600020B646009125E009EB000601
:10D17000494696F901C019F90060ACEB0606764500
:10D1800018DD9AF8016000F1010C761C8AF8016044
:10D19000164607E001EB060818F8018C01F8068036
:10D1A000761E76B26645F5DD11F800C0009E664435
:10D1B00009F80060401C40B2B842D7DB9AF8021070
:10D1C0005046491C49B28AF802100129FFF653AFB4
:10D1D0000D4990F900209AF901000B781A44104487
:10D1E00000EB800040000C2290FBF2F00870BDE8DC
:10D1F000F88F000002200020443400207C350020FD
:10D2000082200020743C0020F01F0020EFF30880F3
:10D21000846902F09BFC20B1224602A100200DF09F
:10D2200061F8FEE748617264204661756C742061A4
:10D230007420616464726573733A203078253038E5
:10D24000780D000007480021C0F84011C0F84411D3
:10D25000C0F84811C0F84C11C0F80011C0F8041112
:10D2600014F0E2BD001001402DE9FE434FF482703E
:10D2700010F010F80025DFF84C91534C01270028DE
:10D280006ED052484E46056094F82900012818D007
:10D290006089401C608160892189814224D18DF898
:10D2A0000050606801902089ADF8080084F827508C
:10D2B000E06810B1A18A0FF091FB216868468847A9
:10D2C0004EE08DF800506068019041480068ADF86C
:10D2D0000800E06828B16060A08A2081E5603760BE
:10D2E000EBE784F82750E8E7002294F8280011467D
:10D2F0000FF0C6FF6189606800EB410001210FF06B
:10D3000087FF94F8280010E004EB4001897D61B1AB
:10D31000C1B204EB4101CA7D897D0FF0B1FF3760D6
:10D320002848001D0760BDE8FE83401C84F82800E3
:10D33000C0B20828E8D3002004EB4001897D11B178
:10D3400084F8280003E0401CC0B20828F4D394F805
:10D35000280004EB4001CA7D897D0FF091FF376002
:10D360004FF48A700FF096FF28B11848103005600E
:10D3700084F82750D7E7A04626691FE0B6FA86F062
:10D380004FF00041C1408E434FF48C7101EB80049B
:10D3900020460FF07FFF88B144F80950A4F58C7443
:10D3A000E0088DF8040044F38000401C8DF8007004
:10D3B0008DF80500D8F8001068468847002EDDD1AA
:10D3C000B1E7000000700040D84600200471004022
:10D3D000347600402DE9F047114F0446DDF82090E7
:10D3E00038781D461646884608B900F0D1FC7869A1
:10D3F000A04211D90A4904EB440001EBC00134B149
:10D40000C1F84880C1E9136500208865486500209F
:10D41000C1F85C90BDE8F0874FF0FF30FAE70000FC
:10D42000004000202DE9F047114F0446DDF8209020
:10D4300038781D461646884608B900F0A9FC3869B8
:10D44000A04211D90A4904EB440001EBC00134B1F8
:10D45000C1F81880C1E90765002088624862002091
:10D46000C1F82C90BDE8F0874FF0FF30FAE70000DC
:10D47000004000202DE9F041884600EB40011A48A9
:10D48000154600EBC104A76A206A1834C61B204663
:10D49000761E00F0B3FCA168081A401E22D0A842F4
:10D4A00000D205466068AE4200EB07010CD232465E
:10D4B0004046FFF70EF9AA1B174608EB0600616805
:10D4C000FFF707F927610CE02A464046FFF701F90C
:10D4D0002069284420612069A168884201D3002086
:10D4E00020612846BDE8F0810040002070B5074B60
:10D4F0000646144618780D4608B900F049FC224645
:10D5000029463046BDE8704000F002B800400020D7
:10D5100070B50E46144900EB400001EBC0051446FF
:10D52000E86A183520B101280FD0022805D113E090
:10D53000284600F063FCA04201D2002411E02246FC
:10D540003146284600F080FD0BE0284600F056FCEE
:10D55000A042F4D20446F2E73146284600F047FDE7
:10D560000446204670BD00000040002070B505460E
:10D570000C460846FFF7D1F8024621462846BDE88A
:10D580007040FFF7B3BF2DE9F04198B0064607A8F9
:10D59000029040200025CDE90305CDE905569046CF
:10D5A0000C4614F8011B002973D0252908D002A8C5
:10D5B00000F0FEFC05980028F3DA18B0BDE8F08111
:10D5C00000200122217823291ED02B2919D02D29B2
:10D5D00002D0302908D102E040F0010001E040F023
:10D5E0000200641C002AEDD100222178A1F1300351
:10D5F0000A2B0CD202EB820201EB4202303A641C8D
:10D60000F3E740F00400ECE740F00800E9E700230E
:10D61000CFB22E2F0BD114F8011FA1F130070A2F22
:10D6200005D203EB830301EB4303303BF3E76C29A3
:10D630000DD068290BD0702954D00BDC252916D0C9
:10D64000582931D063290CD0642913D114E014F87F
:10D65000011BECE7732934D075291BD0782909D137
:10D6600022E0D8F80000011DC8F80010017802A8D7
:10D6700000F09EFC641C9DE7D8F800100F1DC8F850
:10D6800000700968CDE900200A2202A800F0C2FB60
:10D69000F0E733E0D8F800100F1DC8F800700968F3
:10D6A000CDE900200A2208E0D8F800100F1DC8F8C4
:10D6B00000700968CDE90020102202A800F00EFCDD
:10D6C000D8E7D8F80000011DC8F80010076817F85F
:10D6D000011B0029CED002A800F06AFC05980028A2
:10D6E000F5DAC7E7D8F80000011DC8F80010016896
:10D6F0000820CDE9000503461022DEE70598002842
:10D700007FF75BAF049820B1024607A93046FFF7C8
:10D71000EDFEDDE90410084405904EE70349C968B1
:10D72000814201D10120704700207047F42E002073
:10D730002DE9F041134D074605F11404E868002671
:10D7400098B16068E0B109F0B3FC2168401A6168E3
:10D75000884215D902F0FAF9022804D30AA201215D
:10D7600000200CF0E3FDAE60EE6040F2EE20606061
:10D7700009F09EFC2060C5E902670120BDE8F08148
:10D780000020FBE7F42E00205B5350494C4F434BE5
:10D790005D20466F72636564204C6F636B20526539
:10D7A0006C656173650D00000A4910B5CA68824254
:10D7B0000AD002F0CBF9022804D307A201210020ED
:10D7C0000CF0B4FD002010BD00208860C86001206E
:10D7D00010BD0000F42E00205B53504952454C45CB
:10D7E0004153455D204163636573732044656E69F1
:10D7F00065640D00014902480BF0A1BF943F002071
:10D800000030004002494FF040200BF061BF0000A3
:10D810005C47002014F0A4BA074810B5406830B146
:10D820008047002807D0BDE8104002F055B9BDE898
:10D8300010400BF017BF10BD9421002008B54FF029
:10D84000FF3350B1012807D100200122009011467A
:10D850004FEA02000CF09AF808BD009300231A4624
:10D8600019461846F6E710B500F0DEF804460A201F
:10D870000EF004FF0321012000F062F804440021AF
:10D880001F2000F05DF804440021232000F058F828
:10D8900004440021212000F053F8044400212020FA
:10D8A00000F04EF804440021242000F049F804441C
:10D8B0000021222000F044F804446221022000F0FC
:10D8C0003FF804440621052000F03AF804442021E2
:10D8D000032000F035F804444021042000F030F823
:10D8E00004446221062000F02BF8044401210920A1
:10D8F00000F026F804442021072000F021F8044419
:10D900004021082000F01CF8204400B210BD0000A7
:10D910001FB5094B0FCB8DE80F0007480023074ABE
:10D92000694608380FF066FA08B102F0D5F80248E7
:10D9300008380FF04FFA1FBDE832030075210300CD
:10D940002DE9F8430F46814601F036FD050039D137
:10D95000112000F03FF81D4C00F01F060A20207037
:10D9600067700027022322465321194800970FF0C1
:10D970009BFA08B102F0B0F8DFF85080A8F10A086D
:10D98000B8F80800FEF782FC0B20207009F03F0079
:10D990008030607002230D4A53210D4800970FF02C
:10D9A00083FA08B102F098F8B8F80800FEF76EFCA8
:10D9B000112000F00FF800F01F00B042F8D0002D49
:10D9C00002DA2846BDE8F8830020FBE78C2000201F
:10D9D000E03203007CB512490A4608700120034674
:10D9E000009053210F480FF05FFA041E01D002F09F
:10D9F00073F80B4D0A3D2889FEF748FC012301AA64
:10DA0000532108480FF03EFA001901D002F064F8E3
:10DA10002889FEF73BFC9DF8040040B27CBD000065
:10DA20008C200020E032030010B50A200EF026FE04
:10DA30000A200EF023FE0A200EF020FE01210B200A
:10DA400000F006F804460A200EF018FE204610BD2D
:10DA500038B50A4A022310705170002000905321FB
:10DA600007480FF021FA041E01D002F035F80348F0
:10DA70000A380089FEF70AFC20B238BD8C2000204D
:10DA8000E03203002DE9F041A8480023021D01788F
:10DA90000124101D4FF0805506290BD1167836074A
:10DAA00008D10678C6F30316032E06D0042E04D040
:10DAB000052E02D0062907D00EE0B5F824639C4F4E
:10DAC000C6F304263E6002E01678360704D10678D5
:10DAD000C6F30316032E02D0062904D00FE0964F9A
:10DAE000944E7E670EE01678360708D10678C6F3A6
:10DAF0000316032E06D0042E04D0052E02D00629CC
:10DB000007D00EE0D5F844628C4FC6F342363E6033
:10DB100002E01678360704D10678C6F30316032E02
:10DB200002D0062906D011E0854E376827F08077AD
:10DB300037600EE01678360708D10678C6F303166C
:10DB4000032E06D0042E04D0052E02D006290AD0BA
:10DB500011E04FF08046C6F80C31C6F81031774E10
:10DB6000361F336002E01678360704D10678C6F314
:10DB70000316032E02D0062905D00CE06F4F0326B2
:10DB800064373E600AE01678360704D10678C6F39B
:10DB90000316032E02D006290DD014E0694F052686
:10DBA0003E60684E78363460664E083633603F26F5
:10DBB0003F1D3E6002E01678360704D10678C6F3B2
:10DBC0000316052E02D0062957D068E05E49096881
:10DBD0005E4A11605C49091D0968121D11605A49AD
:10DBE00008310968121D116057490C310968121D6E
:10DBF0001160554910310968121D116052491431E4
:10DC00000968121D11605049183109684F4A2032C5
:10DC100011604D491C310968121D11604A492031BB
:10DC20000968121D1160484924310968121D1160EC
:10DC3000454928310968121D116043492C31096892
:10DC4000121D1160404930310968404A403211606C
:10DC50003D4934310968121D11603B49383109686A
:10DC6000121D116038493C310968121D1160364996
:10DC700040310968121D116002E0117809070ED1C8
:10DC80000078C0F30310032803D0042801D005282E
:10DC900005D1D5F858022E4900F04F0008602848F9
:10DCA0007438016841F470010160BFF34F8FBFF316
:10DCB0006F8F4FF01022D2F80C022649C507264874
:10DCC00011D00C600468002CFCD0D2F80C4224F077
:10DCD0000104C2F80C420268002AFCD00B60016803
:10DCE0000029FCD01AE0D2F80052002D03DBD2F854
:10DCF0000452002D14DA0C600468002CFCD01524AA
:10DD0000C2F800420568002DFCD0C2F80442026847
:10DD1000002AFCD00B6001680029FCD000F02AFA30
:10DD20000F490E480860BDE8F0810000E00F00F0E8
:10DD3000403501400DF0ADBA00C007403C05004041
:10DD4000FCED00E0105600400404001020C5004027
:10DD5000E40E004004E5014000E401400090D003DF
:10DD6000802F002014F0E4BB0648D0F8040310F024
:10DD7000010F4FF0000004D00349086003484068D9
:10DD80000047704700000140000101405C21002075
:10DD900010B5114C02202061606110A0A0611248F2
:10DDA000E0614FF4006020620020A06260620BA17D
:10DDB000A164E0620D49E16410212165A065606500
:10DDC000E0650BA1E01DFEF7BCFC0AA12046FEF7B2
:10DDD000B8FC2020A07110BD004000205465726D79
:10DDE000696E616C000000007C4700207C4F0020C1
:10DDF0005254540053454747455200000269C168D8
:10DE00008A4203D88068401A104400E0501A401E2D
:10DE1000704700002DE9FC5F0E008146DDE90C47EC
:10DE2000C6F1000098469346824600D40846012574
:10DE300003E000BF90FBFBF06D1C5845FADAA845E3
:10DE400000D9454624B1002E01DB780700D5641EB9
:10DE5000B80702D5B8F1000F0FD0F8070DD164B1A3
:10DE6000A5420AD220214846641E00F0A1F8D9F844
:10DE70000C000028F3DABDE8FC9FD9F80C0000285C
:10DE8000F9DB002E02DA56462D2102E0780707D58D
:10DE90002B21484600F08CF8D9F80C000028EADB6A
:10DEA00007F0030002280FD1B8F1000F0CD15CB1CC
:10DEB000A54209D230214846641E00F079F8D9F80D
:10DEC0000C000028F3DAD6E7CDE9004743465A466E
:10DED0003146484600F002F8CDE700002DE9F84F42
:10DEE0008246DDE90A4B0126984691460D460846D2
:10DEF000374602E0B0FBF9F07F1C4845FAD2B8453E
:10DF000000D947465FEACB7017D1B4B15FEA8B7096
:10DF100002D5B8F1000F02D0202000900BE0302095
:10DF2000FBE75046641E009900F042F8DAF80C0056
:10DF3000002838DB0CB1A742F3D3DAF80C00002834
:10DF400031DB00BFB8F1010F02D9A8F1010803E0ED
:10DF5000B5FBF6F0484502D306FB09F6F2E7DFF819
:10DF60004C8000BFB5FBF6F000FB165518F800100A
:10DF7000504600F01DF8DAF80C00002803DBB6FB71
:10DF8000F9F6002EEED15FEACB700CD0002C0AD04F
:10DF9000A74208D220215046641E00F009F8DAF8A2
:10DFA0000C000028F2DABDE8F88F0000A03303006F
:10DFB00010B50446D4E90130421C934205D32368CE
:10DFC0001954A260E068401CE060D4E9010282427A
:10DFD00009D321682069FFF789FAA168884203D034
:10DFE0004FF0FF30E06010BD0020A06010BD2DE9B3
:10DFF000F047C4681746894606464FF00008306966
:10E00000A04201D9051B02E0B168201A0D1AB068C0
:10E010006D1E001BA84200D80546BD4200D33D46F8
:10E0200070682A4620444946FEF753FBB0687F1BC0
:10E030002C44A844A944A04200D10024F460002F3D
:10E04000DDD14046BDE8F0872DE9F041C6680446C1
:10E05000174688468068851B6068BD4206D93044F3
:10E06000FEF737FBF019E060BDE8F0812A46304446
:10E07000FEF72FFB7E1B08EB050132466068FEF7BA
:10E0800028FBE660F0E700000FB4084B10B504A9C8
:10E0900002AA039800F05AFF044602A9002001F0EA
:10E0A00086F9204610BC5DF814FB0000AFF30100B8
:10E0B00003B401984100009850EAC12018BF042021
:10E0C0004A0D18BF40F0010040F2FF72B2EB515F01
:10E0D00008BF40F00200012808BF052002B07047C9
:10E0E000002809DB00F01F02012191404009800057
:10E0F00000F1E020C0F880127047002809DB00F032
:10E100001F02012191404009800000F1E020C0F889
:10E1100000117047002809DB00F01F020121914027
:10E120004009800000F1E020C0F800127047490764
:10E13000090E002804DB00F1E02080F8001470478D
:10E1400000F00F0000F1E02080F8141D704700007F
:10E15000BFF34F8F05480168054A01F4E0611143A0
:10E160000160BFF34F8F00BFFDE700000CED00E042
:10E170000400FA05BFF34F8F05480168054A01F412
:10E18000E06111430160BFF34F8F00BFFDE7000066
:10E190000CED00E00400FA0510B52F499FED2C1B93
:10E1A0002DED020B84B0059820F000408842D8BFC6
:10E1B0009DED040B2DDD2949884209D1049840B911
:10E1C0004FF0010000F0BCFE00F08AFE06B010BD6A
:10E1D00005DB9DED040B00F077FE06B010BD684630
:10E1E0009DED040B00F0E0F810F0030004BF9DED7E
:10E1F000021B9DED000B0CD001280ED09DED021BE3
:10E200009DED000B022817D0012000F01DFC06B088
:10E2100010BD00F0E5FA06B010BD9DED021B9DEDAE
:10E22000000B012000F010FC51EC100B81F00041BC
:10E2300006B041EC100B10BD00F0D2FA51EC100BFF
:10E2400081F0004106B041EC100B10BD0000000051
:10E250000000000000000000FB21E93F0000F07F0B
:10E2600010B52F499FED2C1B2DED020B84B00598A6
:10E2700020F000408842DCBF00209DED040B32DD21
:10E280002849884209D1049840B94FF0010000F0B4
:10E2900057FE00F025FE06B010BD05DB9DED040B1A
:10E2A00000F012FE06B010BD68469DED040B00F0B4
:10E2B0007BF810F0030011D0012818D09DED021B4F
:10E2C0009DED000B02281AD000F08AFA51EC100BD9
:10E2D00081F0004106B041EC100B10BD9DED021B1A
:10E2E0009DED000B012000F0AFFB06B010BD9DEDD1
:10E2F000021B9DED000B00F073FA06B010BD01206B
:10E3000000F0A2FB51EC100B81F0004106B041EC93
:10E31000100B10BD00000000000000000000000015
:10E32000FB21E93F0000F07F10B51D499FED1A1B4E
:10E330002DED020B84B0059820F000408842DCBF30
:10E3400001209DED040B21DD1649884209D1049876
:10E3500040B94FF0010000F0F3FD00F0C1FD06B040
:10E3600010BD05DB9DED040B00F0AEFD06B010BD49
:10E3700068469DED040B00F017F800F00100012144
:10E38000A1EB40009DED021B9DED000B00F0F4FBA6
:10E3900006B010BD000000000000000000000000FA
:10E3A000FB21E93F0000F07F2DE9F14F04462DED00
:10E3B000020B2DED088B8AB09FEDE70B80ED020B71
:10E3C000139EE74826F0004585420ADC9DED120BBE
:10E3D000002084ED000B0AB0BDEC088B03B0BDE853
:10E3E000F08FE0489FEDE0AB9FEDE1BBA84247DD39
:10E3F000E14F9FEDE39B9FEDE48B9DED120B53EC02
:10E400001A2B51EC100B002E1CDDFEF744FA41ECE8
:10E41000100BBD4208D053EC1B2B51EC100BFEF738
:10E420003AFAC4E900010BE053EC192B51EC100B44
:10E43000FEF731FA53EC182BFEF72DFAC4E9000170
:10E440000120C8E7FEF786F941EC100BBD4208D069
:10E4500053EC1B2B51EC100BFEF77CF9C4E90001C7
:10E460000BE053EC192B51EC100BFEF773F953EC46
:10E47000182BFEF76FF9C4E900014FF0FF30AAE74F
:10E48000C348A84279DB9DED120B51EC100B07F04D
:10E49000B3FE41EC180B9FEDC00B53EC102BFEF7B5
:10E4A00000FA9FEDBF1B53EC112BFEF753F9FEF75B
:10E4B000F7FA0746FEF7D6FA41EC190B53EC1A2B84
:10E4C000FEF7EFF953EC182BFEF7E8F941EC180BC7
:10E4D00053EC1B2B51EC190BFEF7E3F9DFF8C8A244
:10E4E00041EC100B4FEA15580125FA4453EC102B60
:10E4F00051EC180BFEF7CFF9032DC4E900013DD014
:10E50000C1F30A5005EB4511A8EB00001139814217
:10E5100034DA0AEB051BB0EE48AA9BED000BF0EED7
:10E5200068AA53EC102B51EC190BFEF7BAF941EC29
:10E530001B0B51EC1A0B53EC1B2BFEF7ACF941EC07
:10E54000180B51EC1A0B53EC182BFEF7A4F953ECF3
:10E550001B2BFEF7A0F99BED020B41EC1A0B53ECC1
:10E56000102B51EC190BFEF79CF953EC1A2BFEF70C
:10E5700092F941EC100B6D1CB8E70EE0002EA8BF1D
:10E580003846BFF628AF94ED000B51EC100B81F02C
:10E590000041C4E9000178421DE7C6F3130040F4CE
:10E5A000801EC6F30A50A0F2F530471100F01F0597
:10E5B000C5F12000DDF848B00890002006900790D3
:10E5C0000520EC467949002D07EB0002794408BF8D
:10E5D00051F8221009D051F8223001EB8201AB40F2
:10E5E0004A68089922FA01F11943A1FB0E26A1FB02
:10E5F0000B131A449A4234BF0123002303EB06088D
:10E600000CEB8003D3E901A60E448E4234BF0121F6
:10E61000002192448A4411B1924502D903E0924507
:10E6200001D2012100E00021C3E901A641444CF8D8
:10E630002010011EA0F10100C4DC029800F100507E
:10E64000850F0298DDE903678000DDF81480FEF78E
:10E6500009FA41EC1A0B3046FEF715FA9FED541BF0
:10E6600053EC112BFEF71DF941EC1B0B3846FEF75E
:10E670000AFA9FED511B53EC112BFEF712F941ECF6
:10E68000180B4046FEF7FFF99FED4D1B53EC112B85
:10E69000FEF707F941EC190B51EC180B53EC192B51
:10E6A000FEF758F853EC1B2BFEF754F853EC1A2BDB
:10E6B000FEF750F8CDE90801002008909DED080B09
:10E6C00053EC1A2B51EC100BFEF7E5F853EC1B2B17
:10E6D000FEF7E1F853EC182BFEF7DDF853EC192B9D
:10E6E000FEF7DCF89FED381B53EC112BFEF7D9F841
:10E6F0009FED370B41EC180B53EC102B9DED080BE5
:10E7000051EC100BFEF7CDF853EC182BFEF722F866
:10E710009FED310B41EC180B53EC102B9DED080BCA
:10E7200051EC100BFEF7BDF853EC182BFEF712F866
:10E7300041EC100B139810F0004F06D06D4251ECD5
:10E74000100B81F0004141EC100B284684ED000BCA
:10E7500041E6000000000000000000000000000092
:10E76000FB21E93F7CD9024000004054FB21F93FE6
:10E770003163621A61B4D03DFB21F93F0000000013
:10E780000000601A61B4D03D7370032E8A19A33B58
:10E79000FB2139410000000083C8C96D305FE43FB0
:10E7A000000000000000E03F5A530100A8520100A1
:10E7B000000000000000103E000000000000103CBF
:10E7C000000000000000103A182D4454FB21F93DD0
:10E7D0003326A611460B113C00000054FB21F93DE5
:10E7E00010B52DED040B2DED088B82B0B0EE419AE3
:10E7F000F0EE619A0B9820F000449FED4BABB4F122
:10E80000795F11DA9DED0A0B51EC100BFEF748F918
:10E81000002801BFB0EE4A0AF0EE6A0A02B0BDEC71
:10E82000088B04BF04B010BD9DED0A0B53EC102BF8
:10E8300051EC100BFEF735F841EC180B3C48062163
:10E84000B0EE480AF0EE680A784400F081F853EC24
:10E85000182B51EC100BFEF724F89DED0A0B41EC40
:10E860001B0B53EC192B51EC100BFEF71AF841EC73
:10E87000190B53EC1B2B51EC180BFEF712F853EC51
:10E88000192BFEF708F89FED2C0B41EC190B53ECFC
:10E89000102B51EC180BFEF704F841EC100B284834
:10E8A000844210DA53EC192B51EC100BFDF7F3FFF7
:10E8B00053EC1A2BFDF7F2FF41EC100B02B0BDEC4C
:10E8C000088B04B010BD1F48A042BCBF9FED1E1BAB
:10E8D0008DED001B06DBA4F50010019000200090D8
:10E8E0009DED001B51EC100B53EC112BFDF7D3FFEA
:10E8F0009DED000B41EC180B53EC102B51EC1A0B57
:10E90000FDF7C9FF41EC1A0B53EC192B51EC180B16
:10E91000FDF7C1FF53EC1A2BFDF7C0FF41EC100BC4
:10E92000CCE7000000000000000000000000F03F05
:10E93000CC4F010000000000000000000000E03F9C
:10E940003333D33F0000E93F000000000000D23F16
:10E9500070B504462DED028B4D1E00EBC500B0EEE8
:10E96000408AF0EE608A90ED000B35F0060017D07B
:10E9700053EC182B51EC100BFDF793FF41EC100BEF
:10E980006D1E04EBC50090ED001B51EC100B53EC19
:10E99000112BFDF7DFFE41EC100B35F00600E7D13F
:10E9A000022D36D0042D1CD0062D1CBFBDEC028BD1
:10E9B00070BD53EC182B51EC100BFDF772FF94ED6A
:10E9C0000A1B53EC112BFDF7C5FE53EC182BFDF77A
:10E9D00068FF94ED081B53EC112BFDF7BBFE41ECD7
:10E9E000100B53EC182B51EC100BFDF75AFF94ED64
:10E9F000061B53EC112BFDF7ADFE53EC182BFDF766
:10EA000050FF94ED040B53EC102BFDF7A3FE41ECEB
:10EA1000100B53EC182B51EC100BFDF742FF94ED4B
:10EA2000021B53EC112BFDF795FE53EC182BFDF751
:10EA300038FF94ED001B53EC112BFDF78BFEBDEC62
:10EA4000028B41EC100B70BD31B504462DED040B6B
:10EA50002DED0A8BB0EE41BAF0EE61BA0B989DED48
:10EA60000A0B20F00040B0F1795F0DDA51EC100B89
:10EA7000FFF71EFB042808BF00F042FA9DED0A0BC9
:10EA8000BDEC0A8B05B030BD53EC102B51EC100BD4
:10EA9000FDF707FF41EC180B9DED0A0B53EC182B0B
:10EAA00051EC100BFDF7FDFE41EC190B2C48B0EEBC
:10EAB000480AF0EE680A05217844FFF749FF9FED08
:10EAC0002ACBB0EE40AAF0EE60AA9CB353EC1C2B0C
:10EAD00051EC190BFDF7E5FE41EC1C0B53EC1A2B26
:10EAE00051EC190BFDF7DDFE9FED210B41EC190BED
:10EAF00053EC102B51EC1B0BFDF7D3FE53EC192BF1
:10EB0000FDF7C9FE53EC182BFDF7CBFE53EC1B2B86
:10EB1000FDF7C1FE53EC1C2BFDF7BDFE9DED0A1B5E
:10EB200053EC112BFDF7BAFEBDEC0A8B05B041EC9E
:10EB3000100B30BDFFE753EC1A2B51EC180BFDF70F
:10EB4000B0FE53EC1C2BFDF705FE53EC192BFDF723
:10EB5000A8FE9DED0A1B53EC112BFDF7FBFDE3E72F
:10EB6000544E010000000000495555555555C5BF8C
:10EB7000000000000000E03FF1B506462DED040B5B
:10EB8000BD482DED0C8B8AB0B0EE418AF0EE618A63
:10EB9000179D25F000449FEDBABB9FEDBBCB84428F
:10EBA00008DA9DED160B51EC100BFDF779FF0028EC
:10EBB00000F0E980B64FA74231DC002D0DDA9DED63
:10EBC000160B51EC100B81F00041CDE9160151EC10
:10EBD000180B81F0004141EC180B9FEDAF0B53EC8B
:10EBE000102B9DED160B51EC100BFDF757FE53EC5F
:10EBF000182B9FEDAB0BCDE9040151EC100BFDF789
:10EC00004AFE41EC100B53EC102B9DED040B51EC24
:10EC1000100BFDF79FFD9FEDA48BCDE916019DED37
:10EC2000160B53EC102B51EC100BFDF73AFECDE90F
:10EC300004019DED040B53EC102B51EC100BFDF770
:10EC400030FE41EC190B9A480621B0EE490AF0EE6D
:10EC5000690A7844FFF77CFE9648B0EE40DAF0EEA1
:10EC600060DAB0EE490AF0EE690A06217844FFF74F
:10EC70006FFE9DED041B51EC100B53EC112BFDF7B7
:10EC800010FE9DED040B41EC1A0B53EC102B9DED87
:10EC9000160B51EC100BFDF704FE41EC190B53EC75
:10ECA0001A2B51EC1D0BFDF755FD53EC192BFDF7FD
:10ECB000F8FD53EC182BFDF74DFD9DED041B53ECB7
:10ECC000112BFDF7EEFD53EC182BFDF743FD41EC46
:10ECD000180B9FED790B51EC190B53EC102BFDF732
:10ECE000E0FD53EC182BFDF735FD41EC190B9DEDC4
:10ECF000160B53EC192B51EC100BFDF72BFD41ECCF
:10ED0000180BA74269DC3046FDF7ACFE41EC1A0B4C
:10ED100051EC180B53EC1A2BFDF71CFD41EC1B0BAF
:10ED200053EC182B51EC180BFDF7BBFD53EC1B2BD0
:10ED3000FDF729FE53EC192BFDF7ADFD9DED161BDC
:10ED400053EC112BFDF7AAFD9FED5D1B53EC112B2E
:10ED5000FDF7A7FD53EC1A2BFDF7A0FD41EC180BB6
:10ED6000022000EAA570C0F10100FDF77BFE53EC24
:10ED7000182BFDF796FD00BF41EC100B0AB0BDEC5F
:10ED80000C8B05B0F0BD711C1698214308430CD0C4
:10ED90009DED160B012E1CBF53EC102B51EC1C0BE0
:10EDA00010D000BFFDF7EFFDE6E79DED160B51EC2F
:10EDB000100B07F021FA41EC100B51EC1B0B53EC3C
:10EDC000102BEFE751EC100BFFF772F9042808BF86
:10EDD00000F096F89DED160BD0E7012E04BFB0EEC3
:10EDE000480AF0EE680AC9D08DED048B0024049423
:10EDF0009DED040B53EC102B9DED160B51EC100BFD
:10EE0000FDF74CFD53EC192BFDF748FD41EC190BB8
:10EE100053EC182B51EC1C0BFDF7B5FD41EC180B16
:10EE20008DED008B00949DED040B53EC102B9DEDAC
:10EE3000000B51EC100BFDF734FD53EC1B2BFDF7D1
:10EE400089FC9DED000B41EC1A0B53EC192B51EC96
:10EE5000100BFDF726FD53EC1A2BFDF77BFC53EC52
:10EE6000182BFDF71EFD9DED001B53EC112BFDF73C
:10EE700071FC81E7000000000000303E000000004F
:10EE8000000000000000F03F000000000000F0BFA4
:10EE90002894E53F00000000182D4454FB21E93F71
:10EEA000075C143326A6813C00000000000000002F
:10EEB000E24C0100F84C0100635555555555D53FBE
:10EEC000000000000000004010B553EC102B51EC86
:10EED000100BFDF73FFC41EC100B10BD00000000D3
:10EEE0009FED050B10B553EC102B51EC100BFDF7FB
:10EEF0004AFD41EC100B10BD0000000000000000B6
:10EF00009FED050B10B553EC102B51EC100BFDF7DA
:10EF1000C8FC41EC100B10BD000000000000001008
:10EF200002E008C8121F08C1002AFAD170477047D2
:10EF3000002001E001C1121F002AFBD17047000030
:10EF400001490860704700008C2F00202DE9FF4F19
:10EF50008DB00F460546002606E025280BD0DDE9DA
:10EF60000F1290476D1C761C28780028F5D111B03F
:10EF70003046BDE8F08F0024A246A1460122EC49AC
:10EF800000E0044315F8013F203B02FA03F0084279
:10EF9000F7D128782A2810D06FF02F022878A0F116
:10EFA0003001092914D80AEB8A0102EB410144F02F
:10EFB000020400EB010A6D1CF0E701CF5FEA000AD2
:10EFC00003D544F40054CAF1000A44F002046D1C55
:10EFD00028782E2817D115F8010F44F004042A28A8
:10EFE0000ED06FF02F022878A0F1300109290AD83D
:10EFF00009EB890102EB410100EB01096D1CF2E70D
:10F0000057F8049B6D1C28786C280FD006DC4C2820
:10F0100017D068280DD06A2814D104E0742810D0C5
:10F020007A280FD10DE044F400140AE044F480146F
:10F0300001E044F440146978814202D104F580145F
:10F040006D1C6D1C2A786E2A1FD00CDC632A31D00F
:10F0500004DC002A8BD0582A11D1A3E0642A68D09E
:10F06000692A0CD165E0732A2ED004DC6F2A73D094
:10F07000702A04D19BE0752A6FD0782A6ED0104692
:10F08000DDE90F129047761C50E1C4F302500228CC
:10F0900006D0032809D0042801CF09D0066045E135
:10F0A00001CFF117C0E9006140E101CF06803DE1E9
:10F0B00006703BE117F8040B8DF8000000208DF876
:10F0C0000100EB46012003E057F804BB4FF0FF308E
:10F0D00061074FF0000102D40DE008F101018846FC
:10F0E00049450FDA8045F8DB1BF808100029F4D1F8
:10F0F00008E008F1010188468142FADB1BF808109C
:10F100000029F6D1DDE90F23AAEB0800814621464C
:10F1100000F036F9304400EB080604E0DDE90F1298
:10F120001BF8010B9047B8F10108F7D22146484679
:10F13000F7E00A21C4F302534FF0000B0891022BB1
:10F1400004D001CFC117032B09D00AE0FF1D27F01F
:10F150000707F7E8020108E032E01FE020E000B214
:10F16000C117042B01D140B2C117031E71F1000376
:10F1700007DA4FF0000CD0EB0C006CEB01012D23F3
:10F1800002E0230504D52B238DF82430012303E06E
:10F19000E30701D02023F7E7984658E00A2110E062
:10F1A00010210EE010204FF0000B08900CE0102111
:10F1B0004FF0000B44F004044FF00809089103E0FD
:10F1C00008214FF0000B0891C4F30253022B04D026
:10F1D00001CF0021032B06D006E0FF1D27F0070713
:10F1E000F7E8020103E080B2042B00D1C0B24FF077
:10F1F000000823072BD5702A07D0DDF820C08CF03B
:10F20000100C5CEA0B0C05D00EE040238DF8243086
:10F21000012308E050EA010306D030238DF82430A2
:10F220008DF8252002239846DDF820C08CF0080CCC
:10F230005CEA0B0C0BD150EA010301D1630706D540
:10F2400030238DF824304FF00108A9F10109582A24
:10F2500004D038A20B9208AA0A920BE03AA2F9E76E
:10F260005B46089AFDF7BCFC0B9B9B5C0A9A521EFE
:10F270000A92137050EA0102F2D10A98ADEB000035
:10F2800000F1200B600702D524F4803401E04FF038
:10F290000109D94502DDA9EB0B0000E0002000EBDD
:10F2A0000B0141440890AAEB010AE00306D4DDE912
:10F2B0000F232146504600F063F806444FF0000942
:10F2C00008E009A911F80900DDE90F12904709F1DA
:10F2D0000109761CC145F4DBE0030CD5DDE90F2301
:10F2E0002146504600F04CF8064404E0DDE90F12D8
:10F2F00030209047761C0899481E08900029F5DCBC
:10F3000008E00A980A990078491C0A91DDE90F1271
:10F310009047761CBBF10001ABF1010BF1DC2146FB
:10F320005046DDE90F2300F019F806446D1C1BE67A
:10F3300009280100303132333435363738396162CB
:10F34000636465660000000030313233343536378F
:10F350003839414243444546000000002DE9F04160
:10F36000044600251E461746880404D405E03946A5
:10F370002020B0476D1C641EF9D52846BDE8F081F9
:10F380002DE9F041044600251E469046C80301D5EC
:10F39000302700E02027880404D505E041463846A0
:10F3A000B0476D1C641EF9D52846BDE8F0810A6897
:10F3B000531C0B601070704710B500241120FEF72D
:10F3C00009FBC0F34211012905D0002804DB641CAD
:10F3D000E4B2052CF2D3002010BD00000149C86042
:10F3E00070470000B02100202DE9FC470D4604467F
:10F3F00007F038FF0146A8797F2809D900F0A6FB5D
:10F40000002878D0BDE8FC473EA100200AF06ABF82
:10F41000A27F0020012A03D1A077AA79A283E081EC
:10F420002A78002A69D0E08900B9E1626888A17869
:10F43000B0FBF1F010F0FF0700D10127B4F91C6018
:10F44000A879801B00F07F0A4CE000231A46194679
:10F450009946184612E000BF05EBC60C761CBCF9B5
:10F46000078006F07F064344BCF90980401C4244F3
:10F47000BCF90B804144BCF80D80C144B842EBDBC1
:10F4800093FBF7F3A88892FBF7F24343608BAAEB58
:10F49000070A93FBF0F3ADF80030AB885A4392FBB8
:10F4A000F0F0ADF8020091FBF7F0A9884843618BBA
:10F4B00090FBF1F0ADF8040099FBF7F0A988484300
:10F4C000618B90FBF1F0ADF80600694620460FF025
:10F4D000B9FEE089217C0844618A884202D920462D
:10F4E00002F074FFBA4505D3E089217C0844B0F5E9
:10F4F000FA7FAAD9A683BDE8FC87A979A183E08118
:10F50000F9E700005B5245505D20332041584953D4
:10F5100020427566666572204572722121210D00B8
:10F520002DE9F041044607F09DFEE268217C0027AA
:10F530001278DFF8D88008250426914259D1D4E901
:10F5400000120A44824202D22260616139E08142A3
:10F5500059D9206098F80000002854D000F0F6FA3D
:10F56000022850D32AA100200AF0BCFE4BE000BFC5
:10F5700005EBC0001258D4E9000303449A4203D3B8
:10F580006061616808441BE0824203D301292BD1EA
:10F59000208927E098F8000038B100F0D7FA022857
:10F5A00003D31EA100200AF09DFEB4F90800002834
:10F5B0000DDD20686061217CE06805EBC1014058E9
:10F5C00020602089208327810120BDE8F081227CF2
:10F5D000E16805EBC20306EBC202CB582360895CED
:10F5E000012901D1401C2081207C401C00F01F001B
:10F5F0002074207CE26806EBC001515C022902D035
:10F6000013789842B4D10020DFE70000F41F0020F7
:10F61000437572696F75733F0D0000004375726921
:10F620006F757365723F3F3F0D00000010B5164CBB
:10F630000188A27904EBC202A2F80710134A0188DC
:10F640001180A279418804EBC202A2F80910104A85
:10F6500041881180A279818804EBC202A2F80B10C4
:10F660000C4980880880A07904EBC000C01D03F01D
:10F67000ABF8A079401C00F07F00A071BDE81040FD
:10F6800001200AF07DBD0000242200204E20002031
:10F69000502000205220002010B50F4C0188A27984
:10F6A00004EBC202A2F80710A279418804EBC2025F
:10F6B000A2F80910A179808804EBC101A1F80B0020
:10F6C000A07904EBC000C01D03F07EF8A079401CB7
:10F6D00000F07F00A07110BD2C2600202DE9F04124
:10F6E0000546C088C0F30B00C11D21F00304B4F52A
:10F6F000007F05D900F02AFA02280BD320A106E0EA
:10F7000008280AD200F022FA022803D322A10020FE
:10F710000AF0E8FD0020BDE8F081284E04F1080061
:10F7200031880844B0F5806F0BD300F00FFA02283F
:10F7300003D323A100200AF0D5FD0FF02BFD0028F4
:10F74000E9D01E4F29480C3F2860B888A88031882E
:10F750007068224608442946FCF7BBFFE879000997
:10F7600009F02AFBB888401CB880308820443080DB
:10F7700007F11400008808B90AF0E2FB0120CAE78B
:10F780005B4144445F5245435D2052656320546FA2
:10F790006F20426967210D005B4144445F5245433D
:10F7A0005D20526563204C656E67746820546F6FEE
:10F7B0002053686F7274210D000000001C2F002080
:10F7C0005B4144445F5245435D204E6F7420656E3B
:10F7D0006F75676820726F6F6D20696E2052414DA2
:10F7E00020627566666572210D0000004C4F473A35
:10F7F0002DE9FC5F0025168807461580406B1446EE
:10F800008946A8464FF00C0A11234FF0020B98B11D
:10F8100001784846032E48D380F800B02288521C55
:10F8200092B2228083542288521C92B2228009F81C
:10F8300002102088401C20803A6BDAB120884946AB
:10F8400000F11205B54230D80B5420881023401C1B
:10F8500080B220800B542088401C20800F202388F9
:10F86000155C401ECD54238840B25B1C23800028C9
:10F87000F5DA454697F82E0030B133462246494620
:10F880000AF05AF8050011D197F82D0030B1324630
:10F890002146484601F080FD050007D1B87820B325
:10F8A0002088C846001DB04202D95046BDE8FC9FE2
:10F8B000684679DF0028F9D12188032008F8010083
:10F8C00020881921401C80B2208008F80010208870
:10F8D000401C80B2208000EB0801BDF8000012F04F
:10F8E000ABFE0146208808442080F878B8B1228811
:10F8F00097F90310D31C4846B342D6D800F802B09B
:10F9000022880123521C92B2228083542288521CE6
:10F9100092B2228009F802102088401C208078686A
:10F92000B8B1218890F90020CB1C4846B342BCD81E
:10F9300000F801B021880A23491C89B22180435470
:10F940002188491C89B2218009F801202088401CA7
:10F950002080388950B1CDE900464B46062202216D
:10F9600007F1080013F0B5FA05009FD1388A50B1AD
:10F97000CDE900464B460722032107F1100013F0A2
:10F98000A8FA050092D1388B50B1CDE900464B461C
:10F990001522142107F1180013F09BFA050085D1F8
:10F9A000386A30B133462246494603F03FFD050030
:10F9B000DBD1786A30B13346224649460CF0E6FA8C
:10F9C0000500D2D197F82C0038B13346224649467B
:10F9D00038460FF0B3FE0500C7D1387838B133464A
:10F9E0002246494638460CF083FD0500BDD1284625
:10F9F0005CE7000010B598B0382101A8FCF782FE42
:10FA000002208DF8040006208DF807001448002419
:10FA10000690ADF8144024210FA8FCF773FE402097
:10FA20001390B42001218DF854108DF83C408DF8CE
:10FA300048404FF448718DF83D40CDE916108DF8DF
:10FA40003E401490074B0FAA0094002101A801F03A
:10FA5000A9F8002801D000F03FF818B010BD000050
:10FA60003C200020D9D3020010B500F06FF8022826
:10FA700004D306A2012100200AF058FC74DF0028FC
:10FA800003D0BDE8104000F027B810BD4164766592
:10FA900072746973696E672053746F707065642146
:10FAA0000D00000010B590681446002809D000F041
:10FAB0004DF828B1238803A10020A2680AF012FCA7
:10FAC00000BF10BD457272203078253032583A2080
:10FAD0006C2D253031750D000EB500210091CDE95A
:10FAE00001106A4644F20100FFF7DCFF0EBD000082
:10FAF0002DE9F04107460A4816460D46046800F015
:10FB000025F8032804D32A7806A100200AF0EAFB8E
:10FB1000324629463846A446BDE8F0416047000019
:10FB2000A04100205B444D5D3A204E6F74696679B8
:10FB3000696E6720417070206F66206576656E740F
:10FB4000203078253032580D000000000148007840
:10FB50007047000088210020032801D90020704749
:10FB6000014908700120704788210020074B9B68DD
:10FB700023B12AB120B10068037C1BB10820704773
:10FB800007207047417442610020704768210020BF
:10FB90002DE9F0478046994614460F4690074FF0EE
:10FBA000000634D11C4D8CB30FF01CFA0320C5F8AD
:10FBB0001490287004F11800002107EB4703AC6093
:10FBC00004EBC102491C167056709770506000EB30
:10FBD000C3000329F4DBEE606E70AE701420FEF7F4
:10FBE0007FFA06211420FEF7A2FA1420FEF785FA08
:10FBF0000A49C1F8008006211120FEF798FA07484B
:10FC0000001F006828610020BDE8F08701E00720A0
:10FC1000FAE7AE60FBE7000068210020081501400C
:10FC20000549896819B1011E03D0486908B101204E
:10FC30007047002070470000682100202DE9F8433C
:10FC4000DFF870900D461746D9F80810044651B3F6
:10FC50004CB3052D02D20720BDE8F883606910B3CC
:10FC6000607C012821D0002613F000F9D9F8081093
:10FC7000804601EBC800694613F017F9B8B10121BD
:10FC800000F8041B0C4910C0096880E8E200D9F8AC
:10FC9000081001EBC8009DF8001041701420FEF719
:10FCA00039FA0020D8E70820D6E72E46DCE7042002
:10FCB000D2E700006821002004150140F8B5124E7B
:10FCC0000446B168E1B1DCB16069C8B100272774AE
:10FCD00013F0CCF80546B068694600EBC50013F098
:10FCE000E4F878B1022101704460B0689DF800101A
:10FCF00000EBC50041701420FEF70CFA3846F8BD41
:10FD00000820F8BD0420F8BD6821002070B50E461B
:10FD10000D4915460978884215D80CA2012100200A
:10FD20000AF004FB002405E0325D09A100200AF07E
:10FD3000D9FA641CAC42F7D3BDE87040012103A29C
:10FD400000200AF0F3BA70BD882100200D000000E9
:10FD500030782530325820000AF09ABA30B5EFF3E7
:10FD6000108172B60D4A9468012324B103700029F2
:10FD700000D162B630BD93604FF0E023D3F88051DC
:10FD8000074C25401560C3F88041D3F88441546086
:10FD90005A17C3F8842100220270E8E7E43F0020EC
:10FDA000FC06FFBC0B498A68002A11D000280FD13D
:10FDB000EFF3108072B60B684FF0E022C2F800310A
:10FDC0004B68C2F8043100228A60002800D162B674
:10FDD00070470000E43F00200349084201D10120A0
:10FDE000704700207047000000C0F0FF2DE9F05F71
:10FDF0000D46044607F036FA7F4E074620787178A4
:10FE000088420BD0FFF7A2FE02287DD322787378B8
:10FE1000BDE8F05F79A100200AF064BAA07F4FF03E
:10FE20000009012803D0E07F01281DD032E0FFF750
:10FE30008DFE032804D322787CA100200AF052FA18
:10FE400084F81E90A4F80E90A979A18384F81F90DD
:10FE5000C6F81490C6F81090C6F80C90C6F8189022
:10FE6000A078401C308114E084F81F90FFF76EFEEC
:10FE7000032803D374A100200AF034FAC6F81490C2
:10FE8000C6F81090C6F80C90C6F81890A07830818B
:10FE90007F1EE762B2463046F768D0E90463B4F9E2
:10FEA0001C2095F806C0DAF818100EE005EBC20029
:10FEB000521CB0F9078002F07F024744B0F9098074
:10FEC000B0F90B0046440344491C9445EED150461A
:10FED000B346C0E90376CAE90531A283BAF808201F
:10FEE0009E46521E12B2AAF80820002A0CDC6B882B
:10FEF000A6784A4673431FFA83FC04F13006731C4C
:10FF0000B1EB5C0F1CD800E074E0E5894FF0FF38DE
:10FF1000022D11D3DF1EE919B1F9001000290BDA07
:10FF2000012909D54B46491E61F30F03EB551B0A06
:10FF3000E589711E6B5457E0494668F30F014CE0A8
:10FF4000B5F80480B4F81AC0B7FBF1F7B8FBFCF5BC
:10FF50006F43BBFBF1F5BA46C760B8FBFCF77D43C6
:10FF6000B8FBFCF7BEFBF1F179434FF4004BC0E95D
:10FF70000451CBF1000947F6FF7C09F10108DA458D
:10FF800002DBC0F80CC003E0CA4501DCC0F80C80FD
:10FF90005D4502DBC0F810C003E04D4501DCC0F850
:10FFA0001080594502DBC0F814C003E0494501DC6C
:10FFB000C0F8148041694FF4F84505EA610501690C
:10FFC0004FF4787707EAA1110D438189C1F3C42169
:10FFD0000D43114665F30F01E589A955E589090A25
:10FFE000E954E189891CE18142610261C260826158
:10FFF000A1780181BDE8F09FA82E00204176652000
:020000040002F8
:10000000416363656C3A205265702025303175205C
:1000100044656E6965642C20457870656374205270
:10002000657020253031750D000000004176652097
:10003000416363656C205265706F72746572202530
:10004000303175204F6E0D004E657720417665206A
:10005000416363656C205265630D000010B5044672
:10006000007850B1FFF772FD02280CD32278BDE86A
:10007000104005A100200AF035B960680088BDE88D
:10008000104000F0BDB910BD5B4241545F41444394
:100090005F43425D3A20253031750D0001484078BC
:1000A00070470000582F002010B5002001F034FEEA
:1000B000012010BD0148007A70470000582F002031
:1000C0000148808880B27047682F00203EB5464CBA
:1000D000A071A07940B1FFF739FD022804D343A2F3
:1000E000012100200AF022F9454A01214548FFF785
:1000F0003DFD08B1FFF7F0FC4248434A0021001DD6
:10010000FFF734FD08B1FFF7E7FC032109200CF0ED
:10011000DAFF01F077FE05000AD0FFF717FD02288D
:1001200004D32A4639A100200AF0DCF828463EBD57
:100130000CF048FC0028FAD12B48401D0CF0F2FBD3
:100140000028F4D160790CF023FC2E4800250838F3
:10015000D0E90912CDE9001240680290354902A8A1
:100160000CF0D2FC0028E2D1694628460CF0AAFC2B
:100170000028DCD13048D0F8181541F08071C0F863
:100180001815194801210A300CF028FC0028CED19E
:1001900065202072144865721030022101706421BC
:1001A00041704560254805729620FCF7D7F90A2072
:1001B0000CF0D8FF0A200CF0B4FF002000F020F96A
:1001C000E0790028FCD000F039FB00F0E5F8A079D8
:1001D00040B1FFF7BBFC032804D319A20121002082
:1001E0000AF0A4F800203EBD582F00205B42415485
:1001F0005F494E49545D3A2073746172740D00007A
:100200008903020010370300010702005B424154DA
:100210005F494E49545D3A204251323531323020E7
:10022000496E6974204661696C65642025303164CB
:100230000D0000005D00020000700040F03F002053
:100240005B4241545F494E49545D3A20646F6E658C
:100250000D0000000148C07970470000582F0020B1
:1002600005494A7A2AB100224A72097A01700120AE
:100270007047002070470000582F00202DE9F04300
:1002800091B00E46054600241C2105A8FCF73AFA59
:100290009DF81400089440F016008DF81400012712
:1002A00006948DF8367042F6192009940A940B943E
:1002B000ADF834000C94F07B8DF83000307C8DF874
:1002C00031009DF83200142120F00600801C20F03F
:1002D00019008DF83200307B8DF83C006846FCF741
:1002E00011FA0DF134080DF13009ADF808700FA8BE
:1002F000CDE90089ADF80A40ADF80C700490A888EB
:1003000005F10E036A4605A9A2DF002838D1B068BE
:1003100098B38DF8367042F60810ADF834000C949E
:10032000307D8DF830009DF8310020F0FF008DF811
:1003300031009DF8320020F00600801C20F01900EA
:100340008DF8320010A8B16801F023FB0646142195
:100350006846FCF7D7F9ADF8086010A8CDE9008928
:10036000ADF80A40ADF80C600490E88905F126026A
:100370006946A3DF002803D101E0FFE7EC840020F9
:1003800011B0BDE8F083000002490020C87000F001
:1003900037B80000582F0020094810B50021C1715E
:1003A00001210170074800224FF420518068FFF7B7
:1003B00045FC002803D0BDE81040FFF78DBB10BD01
:1003C000582F00200837030070B50B4E0B4C00254A
:1003D0003570A068FFF772FCE068FFF76FFC044619
:1003E0000A200CF0BFFEF571200003D0BDE870407C
:1003F000FFF772BB70BD0000582F002008370300C4
:100400002DE9F041184C00260746E671E0780125F9
:1004100020B101280FD0022823D113E013494FF453
:1004200080600860124800220521C068FFF706FCC2
:10043000E570BDE8F0810F480560001D05600220F1
:10044000E070F6E70A200CF08DFE0B48017A491C9B
:10045000C9B20172042900D30672017A20F8117022
:10046000E571E670E5E70000582F00200805005010
:100470000837030000700040F03F002070B50C46C4
:10048000054600F0DBF903484178297000782070B8
:1004900070BD0000682F002070B50546FFF756FBC1
:1004A000022804D34CA20121002009F03FFFFFF7EE
:1004B0008BFF4E4C6078854309D0FFF747FB02283D
:1004C00003D34BA1002009F00DFF012579E00120A5
:1004D00001F022FC4F494FF48060086064200CF06A
:1004E000CDF80020FFF78CFFE0790028FCD000F069
:1004F000A5F9FFF7D9FD3D4D40F6B83110356868D4
:1005000088420AD2FFF722FB022804D342A100202E
:100510006A6809F0E7FE082553E0FFF7C5FDA078FB
:10052000042820D0F8B101210A200CF0CCFD0020D5
:10053000FFF766FFE0790028FCD000F07FF90A2081
:100540000CF010FE0A200CF0ECFD6868642815D948
:10055000FFF7FCFA022804D33AA100206A6809F0E8
:10056000C1FE04252DE0FFF7F1FA022804D3A2789A
:100570003BA1002009F0B6FE102522E00020FFF785
:100580003FFFE0790028FCD000F058F9686840F29D
:10059000E341A0F6B83088420AD3FFF7D7FA022821
:1005A00004D338A100206A6809F09CFE022508E007
:1005B000FFF7CCFA022803D33BA1002009F092FEFA
:1005C00000250020FFF71CFFE0790028FCD0FFF792
:1005D000E3FE284670BD00005B4241545F54455322
:1005E000545D3A2053746172740D0000582F00203E
:1005F0005B4241545F544553545D3A2043686172F5
:10060000676572204E6F7420446574656374656419
:100610000D000000080500505B4241545F544553F3
:10062000545D3A2043686172676520446973616272
:100630006C65642052656164696E673A20253031CB
:1006400075200D005B4241545F544553545D3A2080
:1006500025303175203E20313030206D560D0000A0
:100660005B4241545F544553545D3A204251323508
:1006700031323020526573706F6E736520253031D2
:10068000750D00005B4241545F544553545D3A2060
:100690004E6F726D616C2052656164696E673A20BD
:1006A000253031750D0000005B4241545F544553C5
:1006B000545D3A205061737365640D0070B5002578
:1006C00001F03EFB040009D0FFF740FA022806D3F0
:1006D000224604A1002009F005FE00E0012528467D
:1006E00070BD00005B4241545F534855544F46462D
:1006F0005D204572723A20253031750D00000000F2
:100700000020FFF77DBE2DE9F04393B0002406469C
:1007100007949DF81C000D4620F00F00401C20F0AF
:10072000F00010308DF81C00487C8DF81D009DF8FD
:100730001E001C2120F00600801C8DF81E0068465B
:10074000FBF7E0FF9DF80000019440F012008DF8E7
:10075000000007A8CDE904400127069403948DF812
:10076000427042F62020ADF840000D94A87C8DF830
:100770003400E87C8DF835009DF83600142120F017
:100780000600801C20F019008DF83600687B8DF87B
:10079000440008A8FBF7B6FF0DF140080DF134093D
:1007A000ADF8287011A8CDE90889ADF82A40ADF858
:1007B0002C700C90B08806F1160308AA6946A2DFD7
:1007C000002838D1A86898B38DF8427042F6081016
:1007D000ADF840000D94687D8DF834009DF835002B
:1007E00020F0FF008DF835009DF8360020F006005F
:1007F000801C20F019008DF836000EA8A96801F0C1
:10080000C8F80546142108A8FBF77CFFADF828506E
:100810000EA8CDE90889ADF82A40ADF82C500C900F
:10082000F08A06F1260208A9A3DF002803D101E01F
:10083000FFE7F484002013B0BDE8F0832DE9FE4FFC
:100840008C4F0024F879F0B1A14687F807908A48C8
:100850004FF496724B46017A30F91180874988FB34
:100860000101FBF705FFC11700EB9140861300D58E
:100870000026834830F81410B14213DA641CE4B245
:10088000CC2CF7D310E0FFF761F9022808D306F06B
:100890000FFC00907BA37DA27EA1002009F022FD29
:1008A000BDE8FE8F642C00D9642401F057FB0125BC
:1008B000B87003280AD0022808D001F03BFA7870FB
:1008C000B9780020042904D019B103E07D7001201B
:1008D00000E0002687F80990DFF89891652209F179
:1008E000100999F8001006294DD2DFE801F0331CF9
:1008F000034C2D3B40F628218E4202DC03240525C3
:1009000045E040F6C5418E4201DC00253FE008B1DC
:1009100001253CE0387A844202D23C727D7200E0CC
:100920000446022573E0397A8C4201D33A727D7213
:1009300040B1B878032801D0012568E064243A72F8
:10094000042524E0022522E064243A720028F9D02C
:10095000042570E008B13C72DAE7042C06D80224C2
:10096000002568E040F65A218E4201DD3C72E9E73D
:1009700008B1642400E00324387A844201D03C7238
:100980007D72052543E002253C72A9423FD03878AC
:10099000A0B1DFF8ECA0AAF1420ADAF80800FFF7EC
:1009A0008DF908B1FFF798F84FF420510022DAF8DA
:1009B0000800FFF743F908B1FFF78EF8B87900286F
:1009C00050D0062D20D2DFE805F00306161F191CB3
:1009D0002B48323801E02A480A38F860FFF7B6F8A9
:1009E00002283FD306F064FB0094CDE90180334632
:1009F00031A1FA681BE022481638EEE72048273874
:100A0000EBE71F482E38E8E71D484238E5E7787ADB
:100A100088B1B87930B3FFF799F8022822D306F0ED
:100A200047FB0094CDE90180FA6833462EA10020EF
:100A300009F058FC16E0384801683A79C1F34021C2
:100A400091420FD00068C0F340203871FFF77EF864
:100A5000032807D306F02CFB03463A792FA1002088
:100A600009F040FC89F80050C9F8046089F8014099
:100A700016E70000582F0020F03F0020A0421D0084
:100A80004A3703001B5B306D000000001B5B313BED
:100A900033316D005B4241545F5550444154455DD4
:100AA0002025734E6F204461746120417661257367
:100AB0002040253031750D005B4241545F55504454
:100AC0004154455D20533A20257320253031756D02
:100AD00056202530317525252025303175636E74FB
:100AE0002040253031750D005B4241545F55504424
:100AF0004154455D20503A20257320253031756DD5
:100B000056202530317525252025303175636E74CA
:100B10002040253031750D00100500505B424154D6
:100B20005F5550444154455D3A20504720253031AF
:100B3000752040253031750D00000000F0B50C46E1
:100B400093B01F210726ADF80010ADF80410002760
:100B500050B1C17849070DD56A4602A9FEF748FE93
:100B6000002808D102AD02E00025ADF800706CB19C
:100B7000E07810B1304613B0F0BD01AA0AA92046B2
:100B8000FEF736FE0028F6D10AAA02E00022ADF8F0
:100B90000470BDF80400C3B2BDF80000C1B228461D
:100BA00072DFE8E770B50D4604991646040040D0A0
:100BB000F6B3414800224271C0E903312422314694
:100BC0003E48FBF786FD00F07BF83C493431A1F14B
:100BD000100001602031816038215C38FBF792FD04
:100BE0003648217838380170A1788170E178C17079
:100BF00061784170D4E90412C0E90412D4E9021208
:100C0000C0E90212D4E90612C0E90612616AD1B144
:100C100000F1AC0100F1B80241628A60636A1B888E
:100C20000B80616A436A898899800021436A07E0E2
:100C3000FFE70E2070BD666AB668765C5654491CA4
:100C40009E888E42F7D8A16AD9B11C4AAC32A2F173
:100C50000C018A608162A36A9B888B80A16A836A87
:100C6000098819800021836A04E0A66AB668765C68
:100C70005654491C9E888E42F7D894F82C1080F860
:100C80002C10216A49B10C4914310162226A528840
:100C90004A80216A026A09881180616821B1064987
:100CA000891D4160616841602946BDE87040034884
:100CB0003838FFF743BF000094200020343E002066
:100CC0000248002181618183817770479420002050
:100CD0002DE9F04F954C87B0607105F039FB012785
:100CE00048B1FEF733FF032803D391A1002009F098
:100CF000F9FA277016E1FEF729FF032803D392A122
:100D0000002009F0EFFAFFF7DBFF9F4DDFF81C82B0
:100D10004FF0020A687808F118084FF0030B00261C
:100D200010B16079012806D0A87858B160790128FF
:100D300001D002281FD1E16819B1E7700820884767
:100D400000E0E6706079012806D1687840B108F1CA
:100D500001000DF047FC18B16079022802D00AE0CA
:100D600084F805A0A87820B108F101000DF03AFC44
:100D700008B984F805B0287B4FF0040920B96079E0
:100D8000032801D184F80590287E60B96079042891
:100D900009D166712671FEF7D9FE032803D37BA122
:100DA000002009F09FFAE16841B16079032801D081
:100DB000042803D1287808B16078C0B1A670182142
:100DC0006846FBF79FFC8DF8006001968DF808607F
:100DD0000396607901280ED002281ED06A4E243670
:100DE000A6F15C0703282DD004286FD155E0A77029
:100DF00007208847E3E7FEF7A9FE032803D36EA187
:100E0000002009F06FFAADF81260CDF804808DF87B
:100E10000070ADF81060277158E0FEF797FE0328C8
:100E200003D365A1002009F05DFACDF804808DF8A8
:100E300000702889ADF81200A888ADF8100084F879
:100E400004A043E0A88AADF81200288AADF810008B
:100E50004D48243012F0B2F818B1287808B1607803
:100E600038B184F804B0FEF771FE03282ED35CA1DC
:100E700029E045488DF808A0039687F803900021E3
:100E80003838FFF75BFE00284DD105202071FEF7B2
:100E90005DFE03281AD35CA115E0A88BADF8100005
:100EA000288CADF812003848243012F087F818B1B9
:100EB000287808B16078A8B184F80490FEF746FE5F
:100EC000032803D35DA1002009F00CFA6079E8B192
:100ED000684673DF002826D1FEF738FE03281DD3AD
:100EE00060A118E028488DF808A0039687F80390C1
:100EF00000213838FFF722FE002814D10620207187
:100F0000FEF724FE0328E1D35EA1DCE7FEF71EFE18
:100F1000022803D368A1002009F0E4F9E16809B1CF
:100F200020798847002007B0BDE8F08F942000208A
:100F30000A5B4144565D3A20424C414848484821AA
:100F40002121210D000000005B4144565D3A206ED6
:100F50006F20666C617368206F7065726174696F71
:100F60006E7320696E2070726F67726573732C20C8
:100F70007072657061726520616476657274697300
:100F8000696E672E0D000000343E0020626C655FC4
:100F90006164766572746973696E675F7374617298
:100FA0007420424C455F4144565F4D4F44455F4974
:100FB000444C450D000000005B4144565D3A20530F
:100FC00074617274696E672064697265637420610C
:100FD00064766572746973656D656E742E0D0000BC
:100FE0005B4144565D3A205374617274696E6720A8
:100FF00066617374206164766572746973656D658A
:101000006E742E0D000000005B4144565D3A205383
:1010100074617274696E67206661737420616476AE
:101020006572746973656D656E7420776974682084
:1010300077686974656C6973742E0D005B41445662
:101040005D3A205374617274696E6720736C6F77B8
:10105000206164766572746973656D656E742E0DBA
:1010600000000000626C655F61647665727469738C
:10107000696E675F737461727420657865637574F7
:10108000650D00005B4144565D3A205374617274F3
:10109000696E6720736C6F7720616476657274691E
:1010A00073656D656E7420776974682077686974FC
:1010B000656C6973742E0D00626C655F61647665A2
:1010C00072746973696E675F7374617274206E6F96
:1010D000742065786563757465640D0073B586B0BA
:1010E00004469DF81C1094F8282000208A4229D03C
:1010F000002501260095ADF8006007A8ADF8025064
:10110000019084F82810E189608D6A46A4DF0028E8
:1011100018D1608DA0F57F41FF3915D00295039558
:1011200004950595E089ADF80800BDF80200ADF81A
:101130000C0001988DF80A60CDF810D00590608DF4
:1011400002A9A6DF08B070BD0820FBE773B586B022
:1011500004469DF81C1094F8292000208A4229D0CA
:10116000002501260095ADF8006007A8ADF80250F3
:10117000019084F82910E18A608D6A46A4DF002876
:1011800018D1608DA0F57F41FF3915D002950395E8
:1011900004950595E08AADF80800BDF80200ADF8A9
:1011A0000C0001988DF80A60CDF810D00590608D84
:1011B00002A9A6DF08B070BD0820FBE738B50446D9
:1011C000086820604FF6FF706085FF2084F82800D3
:1011D00084F829008869206301208DF8020041F617
:1011E0000F000D46ADF80000221D69460120A0DF6A
:1011F000002809D129462046FFF740F8002803D1EE
:1012000029462046FFF77FFA38BD0A88102A05D004
:10121000112A05D0502A06D10CF0E4B9898801E0E2
:101220004FF6FF714185704770B51B4D1B482979FA
:10123000FFF754FF040043F2014611D0082C0FD0F1
:10124000B4420DD0287B40B1FEF780FC022804D3C5
:10125000224613A1002009F045F82046FEF73CFC89
:10126000A9780E48FFF772FF040013D0082C11D0A4
:10127000B4420FD0287B40B1FEF768FC022804D3AB
:10128000224607A1002009F02DF82046BDE8704055
:10129000FEF722BC70BD0000E81F0020CC33002008
:1012A0005B4241535F5550444154455D3A2066616D
:1012B000696C656420253031750D000070B50546F8
:1012C00001461C220F48FBF704FA0F4C002626703B
:1012D000286830B1016861604068A060201D7ADF35
:1012E00002E00948001D7BDF00280AD14FF6FF709D
:1012F00060806670BDE87040044A00210448FEF733
:1013000035BC70BD203F0020B42000200D2E03000E
:10131000F832030070B51E4C068800251B49E2898F
:10132000102E15D01B4B112E1CD0122E29D0502E52
:1013300017D130F8061F914213D14189022910D1EB
:10134000007B10F0010F11D0BDE8704002F0B4B87E
:1013500083884B808369CB60C06908614D70002A27
:10136000F2D070BD4FF6FF7048804D701868FEF7E0
:10137000A5FC0028F5D0A1690029F2D0BDE8704095
:1013800008478268CA60C0680861DDE7B4200020B1
:10139000203F0020F83203007CB5054608880C4643
:1013A0000930904201D90C207CBD684671DF0028CD
:1013B000FAD121880820685420881B21401C80B263
:1013C000208029542088401C80B220802844DDF8E9
:1013D00001100160BDF8051081802088801D80B259
:1013E00020809DF8001001B1012129542088401C63
:1013F000208000207CBD00007FB5044601208DF8D0
:10140000060041F60A00ADF80400454A01A9012092
:10141000A0DF00287ED1228804F13C0552B140486B
:101420002B46801C009042F62920616801F0DAFA10
:10143000002873D1228952B139482B460A300090D6
:1014400042F62420E16801F0CDFA002866D1228A14
:1014500052B133482B461230009042F62520616984
:1014600001F0C0FA002859D1228B52B12C482B46EA
:101470001A30009042F62720E16901F0B3FA002803
:101480004CD1228C52B126482B462230009042F695
:101490002620616A01F0A6FA00283FD1228D52B1C0
:1014A0001F482B462A30009042F62820E16A01F0BE
:1014B00099FA002832D1216B71B102A810F09AFB81
:1014C00017482B4632300090082202A942F623200A
:1014D00001F088FA002821D1606B58B110492B46E1
:1014E0003A3100910279016842F62A2001F07AFA35
:1014F000002813D1A16B81B102A80DF0CBF80848E8
:101500002B4642300090072202A942F6502001F0FB
:1015100069FA00E002E0002800D1002004B070BDAC
:10152000C820002010B504460F48007B40B1FEF7EC
:101530000DFB032804D322880CA1002008F0D2FE62
:10154000204602F083FE21460F4800F051F80E4875
:1015500021461C30FFF759FE2046FFF7DBFE2046F0
:10156000BDE810400BF084BFE81F00205B424C45F3
:101570005F4556545F44495350415443485D2030C1
:1015800078253032580D0000B033002030B5174BAD
:101590000D4604000FCB85B08DE80F0023D015B3A6
:1015A0004FF6FF70A0822868A0610020A075214638
:1015B000684663DF002814D120788DF812000120DE
:1015C000ADF81000A21C04A9A0DF002809D129460B
:1015D00020460DF041FD002803D12946204610F099
:1015E00045FF05B030BD0E20FBE70000FC320300D4
:1015F00010B5040029D0002927D00888102817D05A
:10160000112817D0502820D131F8062F238A2046E0
:101610009A4202D14B89022B18D083889A4214D166
:101620008369002B11D04A89BDE810400C3118475E
:10163000888809E0FEF78AFA022803D307A1002070
:1016400008F050FE4FF6FF70A08210BD097B11F02C
:10165000010100D00121A17510BD0000626C655F21
:101660006E75735F6F6E5F626C655F657674204246
:101670004C455F4741505F4556545F444953434F83
:101680004E4E45435445440D0000000007B584B05C
:1016900068B1828AA2F57F43FF3B0AD0827D42B1C6
:1016A000BDF81820142A06D9072007B000BD0E2067
:1016B000FBE70820F9E700220092019202920392D0
:1016C0008289039106A90291ADF8002001218DF8CD
:1016D0000210808A6946A6DFE7E700002DE9F04F97
:1016E000784C85B00025607800B9A572754EA17A56
:1016F0004FF00108143659B3DFF8CC914FF0030ACC
:101700004FF0050B06F1080701292AD002294AD01B
:10171000032920D0A572A07870B1207A3F280BD27F
:1017200014226946002008F0E9FD002804DDC2B259
:10173000694615200DF0EAFA00F06EF9002804D190
:10174000A5706570357084F80A8005B0BDE8F08F2B
:10175000357018B9DFE7207A0628DCD284F80A80D1
:10176000D9E701F0CDFF0028D5D10BF075FF002897
:10177000D1D099F8000040B1FEF7E8F9032804D36E
:1017800052A20121002008F0D1FD3078012802D0BA
:1017900007F0B4FB41E005F08BFC386084F80BB037
:1017A0000220A072B7E7484832780178454890F99E
:1017B0000B003AB1012A33D0022A4FD0032A71D04C
:1017C0003570A8E700280CDC41B1FEF7BFF902280C
:1017D00004D346A20121002008F0A8FD65703570F1
:1017E000BCE701F08DFF002895D10BF035FF0028F4
:1017F00091D005F05DFC386099F8000050B1FEF71B
:10180000A5F9032806D305F053FC02463FA10020AA
:1018100008F068FD307801289CD084F80AA07AE7A7
:101820007868002896D005F043FC3968401A79683A
:1018300088428FD9E07A401EE072357099F8000036
:10184000002887D0FEF782F9022889D305F030FC02
:10185000024636A1002008F045FD5CE707F04EFB8C
:1018600000289FD0E07A052801D084F80BB03570AD
:1018700001F046FF002895D10BF0EEFE002891D034
:1018800005F016FC386099F800000028C2D0FEF779
:101890005DF90328BED32DA20121002008F046FDEA
:1018A000B8E7FFE7401EE0723570002989D0FEF7E7
:1018B0004DF9022885D32CA20121002008F036FD25
:1018C00029E7000058200020F41F00205B434F4D03
:1018D0004D535D205265636F726420517565756567
:1018E0006420746F2054580D000000005B434F4D7E
:1018F0004D535D204C61636B206F662041434B2C40
:10190000205443204F66662E0D0000005B434F4D70
:101910004D535D205265636F726420517565756526
:10192000642040253031750D000000005B434F4DB1
:101930004D535D204E6F205265636F7264204143AA
:101940004B2040253031750D000000005B434F4DAA
:101950004D535D204E657874205265636F7264202C
:101960005175657565640D005B434F4D4D535D20AA
:1019700041434B204E6F742056616C69640D00002A
:1019800070B504460D460846FAF7C7FE208065602C
:1019900070BD0A78027049784170022070470000DB
:1019A00000B5184887B00023C06805904822164942
:1019B00005A80EF053FC08B1FEF78EF86A46012127
:1019C00000200EF035FC08B1FEF786F80F480DF048
:1019D00081FC08B1FEF780F868460EF0ADFB08B157
:1019E000FEF77AF80A480EF09DFB08B1FEF774F88E
:1019F00008480EF059FC002801D0FEF76DF807B03A
:101A000000BD0000C0320300F02F0020E81F0020BE
:101A1000251502009D1B0300F8B50026214C3BE074
:101A20008DF800606846FEF799F92079C0EBC00197
:101A300001EB00111C480844817D00F04BF80500C3
:101A40001DD09DF80000FEF7ADF9A5F54050043813
:101A500026D094F90C00411C2173052820DB04F0EA
:101A600053FD1248007840B1FEF770F8022804D305
:101A70000FA20121002008F059FC0020F8BD2079B8
:101A8000401C00F03F002071207A401E20729DF81B
:101A90000000FEF787F9267394F908000028BFDCE0
:101AA0000120F8BD58200020B4360020F41F00208B
:101AB0005B434F4D4D535D20517565756520466CF8
:101AC00075736865640D000010B5FFF7A5FF20462B
