:020000040001F9
:10C00000C8C600204DC6010055C60100B9D40100C4
:10C0100059C601005BC601005DC6010000000000BA
:10C020000000000000000000000000005FC60100EA
:10C0300061C601000000000063C6010065C6010082
:10C0400067C6010067C6010011E00100A1DA010026
:10C05000B1DA010067C60100DDCD010015D5010090
:10C0600067C6010067C6010067C6010067C6010018
:10C0700067C6010067C6010067C6010067C6010008
:10C0800015E00100F1D4010067C6010067C6010098
:10C09000C1DA010067C60100C5DA010067C6010008
:10C0A00067C6010067C6010067C6010067C60100D8
:10C0B00067C6010067C60100000000000000000024
:10C0C00067C6010067C6010067C6010067C60100B8
:10C0D00067C6010067C6010067C6010000000000D6
:10C0E0000000000000000000000000000000000050
:10C0F0000000000000000000000000000000000040
:10C10000000000000000000000000000000000002F
:10C11000000000000000000000000000000000001F
:10C12000000000000000000000000000000000000F
:10C1300000000000000000000000000000000000FF
:10C1400000000000000000000000000000000000EF
:10C1500000000000000000000000000000000000DF
:10C1600000000000000000000000000000000000CF
:10C1700000000000000000000000000000000000BF
:10C1800000000000000000000000000000000000AF
:10C19000000000000000000000000000000000009F
:10C1A000000000000000000000000000000000008F
:10C1B000000000000000000000000000000000007F
:10C1C000000000000000000000000000000000006F
:10C1D000000000000000000000000000000000005F
:10C1E000000000000000000000000000000000004F
:10C1F000000000000000000000000000000000003F
:10C20000DFF80CD000F0ACFD00480047F1BB0200A5
:10C21000C8C60020401E00BF00BF00BF00BF00BF57
:10C2200000BF00BF00BF00BF00BF00BF00BF00BF16
:10C2300000BF00BF00BF00BF00BF00BF00BF00BF06
:10C2400000BF00BF00BF00BF00BF00BF00BF00BFF6
:10C2500000BF00BF00BF00BF00BF00BF00BF00BFE6
:10C2600000BF00BF00BF00BF00BF00BF00BF00BFD6
:10C2700000BF00BF00BF00BF00BF00BF00BF00BFC6
:10C2800000BF00BF00BFC5D170470000401E00BF07
:10C2900000BF00BF00BF00BF00BF00BF00BF00BFA6
:10C2A00000BF00BF00BF00BF00BF00BF00BF00BF96
:10C2B00000BF00BF00BF00BF00BF00BF00BF00BF86
:10C2C00000BF00BF00BF00BF00BF00BF00BF00BF76
:10C2D00000BF00BF00BF00BF00BF00BF00BF00BF66
:10C2E00000BF00BF00BF00BF00BF00BF00BF00BF56
:10C2F00000BF00BF00BF00BF00BF00BF00BFC5D16F
:10C3000070470000401E00BF00BF00BF00BF00BF5D
:10C3100000BF00BF00BF00BF00BF00BF00BF00BF25
:10C3200000BF00BF00BF00BF00BF00BF00BF00BF15
:10C3300000BF00BF00BF00BF00BF00BF00BF00BF05
:10C3400000BF00BF00BF00BF00BF00BF00BF00BFF5
:10C3500000BF00BF00BF00BF00BF00BF00BF00BFE5
:10C3600000BF00BF00BF00BF00BF00BF00BF00BFD5
:10C3700000BF00BF00BFC5D170470000401E00BF16
:10C3800000BF00BF00BF00BF00BF00BF00BF00BFB5
:10C3900000BF00BF00BF00BF00BF00BF00BF00BFA5
:10C3A00000BF00BF00BF00BF00BF00BF00BF00BF95
:10C3B00000BF00BF00BF00BF00BF00BF00BF00BF85
:10C3C00000BF00BF00BF00BF00BF00BF00BF00BF75
:10C3D00000BF00BF00BF00BF00BF00BF00BF00BF65
:10C3E00000BF00BF00BF00BF00BF00BF00BFC5D17E
:10C3F00070470000401E00BF00BF00BF00BF00BF6D
:10C4000000BF00BF00BF00BF00BF00BF00BF00BF34
:10C4100000BF00BF00BF00BF00BF00BF00BF00BF24
:10C4200000BF00BF00BF00BF00BF00BF00BF00BF14
:10C4300000BF00BF00BF00BF00BF00BF00BF00BF04
:10C4400000BF00BF00BF00BF00BF00BF00BF00BFF4
:10C4500000BF00BF00BF00BF00BF00BF00BF00BFE4
:10C4600000BF00BF00BFC5D170470000401E00BF25
:10C4700000BF00BF00BF00BF00BF00BF00BF00BFC4
:10C4800000BF00BF00BF00BF00BF00BF00BF00BFB4
:10C4900000BF00BF00BF00BF00BF00BF00BF00BFA4
:10C4A00000BF00BF00BF00BF00BF00BF00BF00BF94
:10C4B00000BF00BF00BF00BF00BF00BF00BF00BF84
:10C4C00000BF00BF00BF00BF00BF00BF00BF00BF74
:10C4D00000BF00BF00BF00BF00BF00BF00BFC5D18D
:10C4E00070470000401E00BF00BF00BF00BF00BF7C
:10C4F00000BF00BF00BF00BF00BF00BF00BF00BF44
:10C5000000BF00BF00BF00BF00BF00BF00BF00BF33
:10C5100000BF00BF00BF00BF00BF00BF00BF00BF23
:10C5200000BF00BF00BF00BF00BF00BF00BF00BF13
:10C5300000BF00BF00BF00BF00BF00BF00BF00BF03
:10C5400000BF00BF00BF00BF00BF00BF00BF00BFF3
:10C5500000BF00BF00BFC5D170470000401E00BF34
:10C5600000BF00BF00BF00BF00BF00BF00BF00BFD3
:10C5700000BF00BF00BF00BF00BF00BF00BF00BFC3
:10C5800000BF00BF00BF00BF00BF00BF00BF00BFB3
:10C5900000BF00BF00BF00BF00BF00BF00BF00BFA3
:10C5A00000BF00BF00BF00BF00BF00BF00BF00BF93
:10C5B00000BF00BF00BF00BF00BF00BF00BF00BF83
:10C5C00000BF00BF00BF00BF00BF00BF00BFC5D19C
:10C5D00070470000401E00BF00BF00BF00BF00BF8B
:10C5E00000BF00BF00BF00BF00BF00BF00BF00BF53
:10C5F00000BF00BF00BF00BF00BF00BF00BF00BF43
:10C6000000BF00BF00BF00BF00BF00BF00BF00BF32
:10C6100000BF00BF00BF00BF00BF00BF00BF00BF22
:10C6200000BF00BF00BF00BF00BF00BF00BF00BF12
:10C6300000BF00BF00BF00BF00BF00BF00BF00BF02
:10C6400000BF00BF00BFC5D170470000064880474B
:10C6500006480047FEE7FEE7FEE7FEE7FEE7FEE7E7
:10C66000FEE7FEE7FEE7FEE731DD010001C2010063
:10C670002DE9F0410024061B254671F1000605DA7C
:10C6800001240027D0EB070067EB0101161E73F1B0
:10C69000000605DA0027D2EB0702012567EB03034A
:10C6A00000F09EFA86460E4617469C46AC4204D0E1
:10C6B0000025D0EB050E65EB010624B10020D2EB7E
:10C6C000000760EB030C704631463A466346BDE80E
:10C6D000F08140EA01039B0703D009E008C9121F5B
:10C6E00008C0042AFAD203E011F8013B00F8013B2C
:10C6F000521EF9D27047D2B201E000F8012B491E58
:10C70000FBD270470022F6E710B513460A460446EE
:10C710001946FFF7F0FF204610BD421C10F8011B20
:10C720000029FBD1801A704730B50446002003462B
:10C7300000E05B1C934203D2E05CCD5C401BF8D070
:10C7400030BD034611F8012B00F8012B002AF9D166
:10C75000184670472DE9FE4F804681EA0300C00F5E
:10C760000C46009021F0004123F00045B8EB020098
:10C77000A94105D24046214690461C460B4602463A
:10C7800023F00040104347D0270DC7F30A00C3F33E
:10C790000A510290401A019040286BDAC3F313004B
:10C7A00040F4801B0098924620B10023D2EB030A8C
:10C7B00063EB0B0B01985946C0F14002504600F064
:10C7C00040FA06460D4650465946019A00F058FA7E
:10C7D00010EB08006141002487EA115284EAE773F4
:10C7E0001A4340D0009A62B3019A012A4FEA0752D5
:10C7F00015DC001B61EB02014FF0004202EA075218
:10C80000CDE90042001C41F5801132462B4600F074
:10C8100058FA03B0BDE8F08F40462146F9E7001B07
:10C8200061EB0201001C41F5801300185B412018E8
:10C83000A2F5001747EB030140EAD570B6196D4128
:10C8400011E06D084FEA360645EAC0754FEA075217
:10C85000001B61EB0201001C41F5801149084FEA01
:10C8600030000019514132462B4603B0BDE8F04F6D
:10C8700000F018BA0098012240000023D0EB020219
:10C8800063EBE073009821464FEAE074B8EB0000D8
:10C8900061EB0401E9E783F000435BE781F00041CD
:10C8A00058E72DE9FE4F81EA030404F0004421F02B
:10C8B000004100944FF0000B23F0004350EA0104C4
:10C8C0005ED052EA03045BD0C3F30A54C1F30A55A5
:10C8D0002C44A4F2F3340194A0FB0254C1F31301DD
:10C8E00041F48011C3F3130343F4801301FB0244AA
:10C8F00000FB034E840A970A44EA815447EA8357AF
:10C90000A4FB076802958D0A05FB07854FEA932C67
:10C9100004FB0C542705029D4FEA065847EA1637D8
:10C92000B5EB08056EEB070C870E920E47EA8117F0
:10C9300042EA8312A7FB0201B6EB0B0164EB000491
:10C940002B0D43EA0C335E1844EB1C50DA4651467B
:10C95000E7FB0201C5F313044FEA0B3343EA145318
:10C960004FEA0432019C43EA0603A4F10C0402944A
:10C97000009CCDE900B400F0A4F903B0BDE8F08F4D
:10C9800000200146F9E72DE9F04D81EA030404F0A7
:10C99000004B21F0004514464FF0000A23F00041FF
:10C9A00050EA050220D054EA01021DD0C5F30A570F
:10C9B0000246C5F31303C1F31300C1F30A5640F452
:10C9C000801543F48013A7EB0608101BD64608F227
:10C9D000FD3873EB050002D308F1010801E092185D
:10C9E0005B41B8F1000F03DA00200146BDE8F08D8D
:10C9F00000204FF48011064684460EE0171B73EBAF
:10CA0000050705D3121B63EB050306434CEA010C33
:10CA100049084FEA300092185B4150EA0107EDD116
:10CA200052EA030012D082EA040083EA05010843B7
:10CA300005D0101BAB4106D20122002306E00022E4
:10CA40004FF0004302E06FF0010253101AEB0600B2
:10CA50004CEB085110EB0A0041EB0B01BDE8F04D27
:10CA600000F020B90EB5C10F80EAE0700844CA0793
:10CA7000002140F233438DE80E000A460B4600F0D9
:10CA800020F903B000BD0EB540F233410291002100
:10CA9000CDE900110A460B4600F013F903B000BDC2
:10CAA00070B5C1F30A5201F000450024C1F313012F
:10CAB00040F2FF3341F480119A4201DA002070BD48
:10CAC00040F233439A42A2F2334203DC524200F076
:10CAD000C7F800E090402C43F1D0404270BDC1F354
:10CAE0000A5210B5C1F3130140F2FF3341F4801133
:10CAF0009A4201DA002010BD40F233439A42A2F27A
:10CB0000334203DC524200F0ABF810BD904010BD40
:10CB100070B5C1F30A5201F000450024C1F31301BE
:10CB200040F2FF3341F480119A4202DA00200146BC
:10CB300070BD40F233439A42A2F2334203DC5242C8
:10CB400000F08EF801E000F07CF82C43F0D00023D8
:10CB5000D0EB030063EB010170BD00F0004230F048
:10CB600000400AD0C10D01F56071C0F3160042EA21
:10CB70000151C20840071143704700200146704729
:10CB800030B5041E71F1000404DB4FF00044404254
:10CB900064EB0101141E73F1000405DB1C464FF029
:10CBA0000043524263EB04038B4208BF824230BD14
:10CBB00030B5041E71F1000404DB4FF00044404224
:10CBC00064EB0101141E73F1000405DB1C464FF0F9
:10CBD0000043524263EB0403994208BF904230BDC8
:10CBE0002DE9F05F0546002092469B4688460646A2
:10CBF000814640241BE0284641464746224600F035
:10CC00002FF853465A46C01A914110D31146184680
:10CC1000224600F016F82D1A67EB01084F4622460F
:10CC20000120002100F00DF817EB00094E41201EF5
:10CC3000A4F10104DFDC484631462A464346BDE8FC
:10CC4000F09F202A04DB203A00FA02F1002070470E
:10CC50009140C2F1200320FA03F31943904070473A
:10CC6000202A04DB203A21FA02F00021704721FA41
:10CC700002F3D040C2F120029140084319467047A8
:10CC8000202A06DBCB17203A41FA02F043EAE07390
:10CC900006E041FA02F3D040C2F12002914008437D
:10CCA0001946704710B5141E73F1000408DA401CD1
:10CCB00041F1000192185B411A4301D120F00100BB
:10CCC00010BD2DE9F04D92469B4611B1B1FA81F2AB
:10CCD00002E0B0FA80F220329046FFF7B2FF04463D
:10CCE0000F4640EA0A0041EA0B0153465A46084300
:10CCF00013D0114653EA010019D0C8F14002504642
:10CD0000FFF7AEFF05460E46504659464246FFF72E
:10CD100098FF084305D0012004E020463946BDE8CD
:10CD2000F08D0020054346EAE0762C4337430A980D
:10CD30006305E40AA0EB08000022FD0A44EA475418
:10CD40000A3002D500200146E9E7010510196941C2
:10CD5000DDE9084500196941BDE8F04DA2E7000092
:10CD6000064C074D06E0E06840F0010394E8070038
:10CD700098471034AC42F6D3FFF746FAB8430300A5
:10CD8000D843030070B58C1810F8015B15F0070349
:10CD900001D110F8013B2A1106D110F8012B03E054
:10CDA00010F8016B01F8016B5B1EF9D12B0705D45C
:10CDB0000023521E0DD401F8013BFAE710F8013BA5
:10CDC000CB1A921C03E013F8015B01F8015B521EC1
:10CDD000F9D5A142D8D3002070BD00002DE9FC5F39
:10CDE0000025DFF83491A8464FF4807601242F46C1
:10CDF000304610F0D5FB38B1D9F80403204203D0F7
:10CE0000304610F0C3FB2543361D64007F1CB6B2CC
:10CE1000082FEDD34FF4BE74204610F0C1FB38B19B
:10CE2000204610F0B3FB3D4845F00045D0F80080A7
:10CE30003B4E15F0FF0F14D0012700242F420CD0D9
:10CE400009EB8401D1F81005D1F81015C0F30420C6
:10CE500056F82420C1F3014190477F00641C082C40
:10CE6000ECD3002D56DA00200190401E4CE07019E2
:10CE700010F8501F90F9000021F0C004401C38D079
:10CE8000012000FA04FA1AEA090F32D04FEA911B86
:10CE9000204605F0F3FE56F82000009010B9BBF1D3
:10CEA000030F26D15146BBF1030F02D1019808436D
:10CEB0000190A00000F1A040D0F800071AEA080F86
:10CEC000C0F3014002D0022802D012E0032810D1A2
:10CED000BBF1030F07D102281AD00221204610F01F
:10CEE000FAFA7F1CFFB2009818B1009A5946204602
:10CEF00090476D1C042DBAD3002F0BD00748006853
:10CF0000404507D080460198002781463D46AEE760
:10CF10000321E3E7BDE8FC9F0060004010050050DE
:10CF2000003E00202DE9F04F00252DED028B85B04D
:10CF30004FF0780AADF80850DFF804B404E00020A0
:10CF400028F81500022D06D0FE49FF4A002008707F
:10CF5000B2F9003033E020701FE0FC480068FFF7B2
:10CF6000FCFD41EC180BFA4830F91600FFF77AFD8A
:10CF700053EC182BFFF795FC41EC180BF54830F9F2
:10CF80001600FFF76FFD53EC182BFFF784FCFFF73B
:10CF900087FD2BF81600761C267094F90060564524
:10CFA00011DADAE715B1012D02D006E0E94C00E014
:10CFB000E74C34F810602BF81060401C087091F9B1
:10CFC00000009842EEDBE44E2320DF4FDD4C308042
:10CFD0003878012341B2B6F90020D94806F0D2FDD5
:10CFE0003088801E3080B4F908000428F0DBB4F9E2
:10CFF0000A000428ECDB3088801E00B23080042850
:10D0000001DA042030803878012341B2B6F90020DB
:10D01000CB4806F0B7FDB4F908003F2801DD3F20FA
:10D020002081B4F90A003F2801DD3F206081CB4810
:10D03000B4F90820872700F51D7120F8127002232B
:10D0400021F81230521C12B2962620F8126021F8F4
:10D050001230521C22810CE000EB420C3CF802CC56
:10D0600020F812C001EB420C3CF802CC21F812C0AF
:10D07000521E227052B2002AEEDC6FF00F020280C4
:10D0800081460B80B648B4F90A308E4600F51D7112
:10D0900020F81370D21021F813205B1C1BB220F86B
:10D0A000136021F813205B1C63810CE000EB430646
:10D0B00036F8026C20F8136001EB430636F8026C78
:10D0C00021F813605B1E23705BB2002BEEDCA448DA
:10D0D0006FF00503038000F51D7002800020A07032
:10D0E000804620460022017A4CB2002C1BDD80F8DD
:10D0F0000080631E4E460AE006EB410736F811C079
:10D100007F88491CA7EB0C073A4412B2017090F9D2
:10D1100000109942F0DB92FBF4F10AB202EBD271FB
:10D1200002EB6101C18180F80080B0F90E7039E036
:10D1300009EB430639F913C0B6F90260A6EB0C06F9
:10D14000BE422DDDB0F90860049646700EE000BFC7
:10D1500009EB410C3CF802CC29F811C00EEB410C54
:10D160003CF802CC2EF811C0491E417090F9011014
:10D170009942EDDC90F901C039F81C6009EB410CD3
:10D1800016440EEB4101ACF80260A1F8028004994C
:10D1900002AE491C018136F81510491C26F81510FD
:10D1A0005B1C037090F90030A342C1DD8178491CFB
:10D1B00049B28170012995DB80F8018080F80080F8
:10D1C0004446B0F90860724613E0644B33F91170BD
:10D1D000782F0CDA03EB41077F8823F8117002EBFC
:10D1E00041035B8822F8113043785B1C4370491C73
:10D1F000017090F90010B142E7DB90F90110A146EF
:10D20000491E018184708EB23F2E00DD3F26B0F9A9
:10D210000A103F2901DD3F214181A0F80C90817A5D
:10D220004B4649B2002921DD03704C1E4C4F0EE0E5
:10D2300007EB420C37F81280BCF802C0521CACEB72
:10D24000080CB0F80C80C444A0F80CC0027090F92F
:10D250000020A242ECDBB0F90C2092FBF1F212B2FA
:10D26000828102EBD27402EB6402C28103709946A0
:10D27000B0F90CE0B0F90EC03EE0394C04EB4302CB
:10D2800034F91370B2F90220D21B624532DDB0F9D5
:10D290000A200492427004F51D770DE004EB420869
:10D2A00038F8028C24F8128007EB420838F8028C18
:10D2B00027F81280521E427090F901209A42EDDC4C
:10D2C000274C90F9018034F8188008EB0E04DFF841
:10D2D000908008EB420807EB4202A8F80240A2F84F
:10D2E0000290049A02AC521C428134F81520521C60
:10D2F00024F815205B1C037090F900308B42BCDBD6
:10D3000080F8019080F80090B0F90A40154B144A5B
:10D3100013E000BF32F91170782F0CDA02EB4107ED
:10D320007F8822F8117003EB41077F8823F8117082
:10D3300047787F1C4770491C017090F9001013E07A
:10D3400074390020AE200020022000203C20002064
:10D350007436002074340020062000203846002057
:10D3600072470020E6490020A142D3DB90F901106A
:10D37000491E41818178491C49B281700129FFF61B
:10D3800043AF044606814A4836B273B20078DFF8EC
:10D390002481C008E081002121700DF1080915E009
:10D3A00008EB410C38F91170BCF902C0ACEB07076F
:10D3B000874208DA491C21705B1E39F815705BB290
:10D3C0007F1C29F815702178491C217094F90010F0
:10D3D000B142E5DB2381B4F90A609E46002173B2B5
:10D3E0002170C84616E000BF02EB410732F911C0B8
:10D3F000B7F90270A7EB0C07874208DA491C2170C5
:10D400005B1E38F815105BB2491C28F815102178FE
:10D41000491C217094F90010B142E5DB63810EEBE9
:10D4200003002DF815006D1C2DB2032DFFF687ADFE
:10D43000BDF90010BDF902000023814203DBBDF9F4
:10D44000042091421EDD814203DCBDF9042091429B
:10D4500018DA884203DBBDF90420904205DD8842DA
:10D4600005DCBDF90420904201DB01230AE0BDF98F
:10D4700004208A4201DB824203DD8A4202DC8242CE
:10D4800000DB02233DF91300ADF8060000EB80023B
:10D490000748017801EB41011144CA1701EB927171
:10D4A0008908017005B0BDEC028BBDE8F08F00006B
:10D4B000F01F002038460020EFF30880846902F056
:10D4C00099FC20B1224602A100200DF063F8FEE78E
:10D4D00048617264204661756C74206174206164D7
:10D4E00064726573733A203078253038780D000007
:10D4F00007480021C0F84011C0F84411C0F8481195
:10D50000C0F84C11C0F80011C0F8041114F05CBE52
:10D51000001001402DE9FE434FF4827010F08AF8AC
:10D520000025DFF84C91534C012700286ED052485B
:10D530004E46056094F82900012818D06089401CE7
:10D54000608160892189814224D18DF80050606812
:10D5500001902089ADF8080084F82750E06810B1E8
:10D56000A18A0FF00BFC2168684688474EE08DF8D1
:10D5700000506068019041480068ADF80800E0681C
:10D5800028B16060A08A2081E5603760EBE784F80D
:10D590002750E8E7002294F82800114610F040F8E0
:10D5A0006189606800EB4100012110F001F894F8F6
:10D5B000280010E004EB4001897D61B1C1B204EBA9
:10D5C0004101CA7D897D10F02BF837602848001D85
:10D5D0000760BDE8FE83401C84F82800C0B208281C
:10D5E000E8D3002004EB4001897D11B184F82800C4
:10D5F00003E0401CC0B20828F4D394F8280004EBE0
:10D600004001CA7D897D10F00BF837604FF48A70B5
:10D6100010F010F828B118481030056084F8275031
:10D62000D7E7A04626691FE0B6FA86F04FF0004122
:10D63000C1408E434FF48C7101EB800420460FF003
:10D64000F9FF88B144F80950A4F58C74E0088DF80E
:10D65000040044F38000401C8DF800708DF8050034
:10D66000D8F8001068468847002EDDD1B1E70000E9
:10D67000007000409C3E0020047100403476004061
:10D680002DE9F047114F0446DDF8209038781D460B
:10D690001646884608B900F0D1FC7869A04211D935
:10D6A0000A4904EB440001EBC00134B1C1F84880E1
:10D6B000C1E913650020886548650020C1F85C90C9
:10D6C000BDE8F0874FF0FF30FAE70000004000208F
:10D6D0002DE9F047114F0446DDF8209038781D46BB
:10D6E0001646884608B900F0A9FC3869A04211D94D
:10D6F0000A4904EB440001EBC00134B1C1F81880C1
:10D70000C1E907650020886248620020C1F82C90BA
:10D71000BDE8F0874FF0FF30FAE70000004000203E
:10D720002DE9F041884600EB40011A48154600EB10
:10D73000C104A76A206A1834C61B2046761E00F072
:10D74000B3FCA168081A401E22D0A84200D20546A8
:10D750006068AE4200EB07010CD232464046FEF74D
:10D76000B8FFAA1B174608EB06006168FEF7B1FF79
:10D7700027610CE02A464046FEF7ABFF20692844AB
:10D7800020612069A168884201D3002020612846D9
:10D79000BDE8F0810040002070B5074B06461446F6
:10D7A00018780D4608B900F049FC22462946304653
:10D7B000BDE8704000F002B80040002070B50E4691
:10D7C000144900EB400001EBC0051446E86A183527
:10D7D00020B101280FD0022805D113E0284600F01F
:10D7E00063FCA04201D2002411E0224631462846C3
:10D7F00000F080FD0BE0284600F056FCA042F4D279
:10D800000446F2E73146284600F047FD044620462C
:10D8100070BD00000040002070B505460C4608466B
:10D82000FEF77BFF024621462846BDE87040FFF721
:10D83000B3BF2DE9F04198B0064607A802904020FA
:10D840000025CDE90305CDE9055690460C4614F8B0
:10D85000011B002973D0252908D002A800F0FEFC86
:10D8600005980028F3DA18B0BDE8F0810020012205
:10D87000217823291ED02B2919D02D2902D0302917
:10D8800008D102E040F0010001E040F00200641C19
:10D89000002AEDD100222178A1F130030A2B0CD20D
:10D8A00002EB820201EB4202303A641CF3E740F0E3
:10D8B0000400ECE740F00800E9E70023CFB22E2F88
:10D8C0000BD114F8011FA1F130070A2F05D203EB89
:10D8D000830301EB4303303BF3E76C290DD0682948
:10D8E0000BD0702954D00BDC252916D0582931D003
:10D8F00063290CD0642913D114E014F8011BECE760
:10D90000732934D075291BD0782909D122E0D8F8A1
:10D910000000011DC8F80010017802A800F09EFC6C
:10D92000641C9DE7D8F800100F1DC8F80070096846
:10D93000CDE900200A2202A800F0C2FBF0E733E0A4
:10D94000D8F800100F1DC8F800700968CDE9002054
:10D950000A2208E0D8F800100F1DC8F80070096806
:10D96000CDE90020102202A800F00EFCD8E7D8F87C
:10D970000000011DC8F80010076817F8011B0029F6
:10D98000CED002A800F06AFC05980028F5DAC7E7B7
:10D99000D8F80000011DC8F8001001680820CDE982
:10D9A000000503461022DEE7059800287FF75BAFED
:10D9B000049820B1024607A93046FFF7EDFEDDE9E5
:10D9C0000410084405904EE70349C968814201D11B
:10D9D0000120704700207047242F00202DE9F041DE
:10D9E000134D074605F11404E868002698B16068F5
:10D9F000E0B109F0B5FC2168401A6168884215D988
:10DA000002F0F8F9022804D30AA2012100200CF048
:10DA1000E5FDAE60EE6040F2EE20606009F0A0FC33
:10DA20002060C5E902670120BDE8F0810020FBE726
:10DA3000242F00205B5350494C4F434B5D20466FD1
:10DA400072636564204C6F636B2052656C65617313
:10DA5000650D00000A4910B5CA6882420AD002F07A
:10DA6000C9F9022804D307A2012100200CF0B6FD59
:10DA7000002010BD00208860C860012010BD00009B
:10DA8000242F00205B53504952454C454153455D7E
:10DA9000204163636573732044656E6965640D009E
:10DAA000014902480BF0A3BF583E0020003000405F
:10DAB00002494FF040200BF063BF00002C3F0020D4
:10DAC00014F01EBB074810B5406830B180470028ED
:10DAD00007D0BDE8104002F053B9BDE810400BF08C
:10DAE00019BF10BDC021002008B54FF0FF3350B161
:10DAF000012807D100200122009011464FEA0200C0
:10DB00000CF09CF808BD009300231A4619461846ED
:10DB1000F6E710B500F0DEF804460A200EF07EFFAE
:10DB20000321012000F062F8044418211F2000F0B6
:10DB30005DF804440021232000F058F80444182123
:10DB4000212000F053F804441821202000F04EF862
:10DB500004440021242000F049F804441821222024
:10DB600000F044F804446221022000F03FF804442D
:10DB70000121052000F03AF804442021032000F0A0
:10DB800035F804444021042000F030F804446221B8
:10DB9000062000F02BF804440221092000F026F8AA
:10DBA00004442021072000F021F8044440210820EB
:10DBB00000F01CF8204400B210BD00001FB5094B56
:10DBC0000FCB8DE80F0007480023074A6946083845
:10DBD0000FF0E0FA08B102F0D3F8024808380FF06D
:10DBE000C9FA1FBD88360300152503002DE9F84347
:10DBF0000F46814601F038FD050039D1112000F0B3
:10DC00003FF81D4C00F01F060A20207067700027A7
:10DC1000022322465321194800970FF015FB08B143
:10DC200002F0AEF8DFF85080A8F10608B8F804005A
:10DC3000FEF72CFB0B20207009F03F008030607055
:10DC400002230D4A53210D4800970FF0FDFA08B149
:10DC500002F096F8B8F80400FEF718FB112000F067
:10DC60000FF800F01F00B042F8D0002D02DA28466D
:10DC7000BDE8F8830020FBE7B420002080360300D5
:10DC80007CB512490A4608700120034600905321D2
:10DC90000F480FF0D9FA041E01D002F071F80B4DB5
:10DCA000AD1FA888FEF7F2FA012301AA5321084804
:10DCB0000FF0B8FA001901D002F062F8A888FEF758
:10DCC000E5FA9DF8040040B27CBD0000B4200020BD
:10DCD0008036030010B50A200EF0A0FE0A200EF0D8
:10DCE0009DFE0A200EF09AFE01210B2000F006F89E
:10DCF00004460A200EF092FE204610BD38B50A4AAE
:10DD000002231070517000200090532107480FF03B
:10DD10009BFA041E01D002F033F80348801F80886C
:10DD2000FEF7B4FA20B238BDB420002080360300DC
:10DD30002DE9F041A8480023021D01780124101D9F
:10DD40004FF0805506290BD11678360708D1067892
:10DD5000C6F30316032E06D0042E04D0052E02D0DF
:10DD6000062907D00EE0B5F824639C4FC6F30426BD
:10DD70003E6002E01678360704D10678C6F3031633
:10DD8000032E02D0062904D00FE0964F944E7E67F2
:10DD90000EE01678360708D10678C6F30316032E70
:10DDA00006D0042E04D0052E02D0062907D00EE09E
:10DDB000D5F844628C4FC6F342363E6002E01678D6
:10DDC000360704D10678C6F30316032E02D00629BF
:10DDD00006D011E0854E376827F0807737600EE077
:10DDE0001678360708D10678C6F30316032E06D038
:10DDF000042E04D0052E02D006290AD011E04FF0DF
:10DE00008046C6F80C31C6F81031774E361F3360A5
:10DE100002E01678360704D10678C6F30316032EFF
:10DE200002D0062905D00CE06F4F032664373E6010
:10DE30000AE01678360704D10678C6F30316032ED7
:10DE400002D006290DD014E0694F05263E60684EC9
:10DE500078363460664E083633603F263F1D3E609C
:10DE600002E01678360704D10678C6F30316052EAD
:10DE700002D0062957D068E05E4909685E4A116001
:10DE80005C49091D0968121D11605A490831096869
:10DE9000121D116057490C310968121D1160554956
:10DEA00010310968121D1160524914310968121DA0
:10DEB00011605049183109684F4A203211604D49AC
:10DEC0001C310968121D11604A4920310968121D70
:10DED0001160484924310968121D116045492831F3
:10DEE0000968121D116043492C310968121D116027
:10DEF000404930310968404A403211603D4934316F
:10DF00000968121D11603B4938310968121D116002
:10DF100038493C310968121D1160364940310968A1
:10DF2000121D116002E0117809070ED10078C0F3CC
:10DF30000310032803D0042801D0052805D1D5F803
:10DF400058022E4900F04F000860284874380168D4
:10DF500041F470010160BFF34F8FBFF36F8F4FF03B
:10DF60001022D2F80C022649C507264811D00C60B1
:10DF70000468002CFCD0D2F80C4224F00104C2F852
:10DF80000C420268002AFCD00B6001680029FCD01A
:10DF90001AE0D2F80052002D03DBD2F80452002D13
:10DFA00014DA0C600468002CFCD01524C2F800427E
:10DFB0000568002DFCD0C2F804420268002AFCD09B
:10DFC0000B6001680029FCD000F02AFA0F490E48C6
:10DFD0000860BDE8F0810000E00F00F0403501402E
:10DFE0000DF0ADBA00C007403C050040FCED00E07C
:10DFF000105600400404001020C50040E40E00400C
:10E0000004E5014000E401400090D003B02F00205F
:10E0100014F05EBC0648D0F8040310F0010F4FF076
:10E02000000004D003490860034840680047704777
:10E0300000000140000101408821002010B5114C72
:10E0400002202061606110A0A0611248E0614FF4DD
:10E05000006020620020A06260620BA1A164E06207
:10E060000D49E16410212165A0656065E0650BA1A3
:10E07000E01DFEF766FB0AA12046FEF762FB2020AA
:10E08000A07110BD004000205465726D696E616C16
:10E090000000000034500020345800205254540036
:10E0A00053454747455200000269C1688A4203D878
:10E0B0008068401A104400E0501A401E704700006B
:10E0C0002DE9FC5F0E008146DDE90C47C6F100003A
:10E0D00098469346824600D40846012503E000BFD7
:10E0E00090FBFBF06D1C5845FADAA84500D945466F
:10E0F00024B1002E01DB780700D5641EB80702D5D5
:10E10000B8F1000F0FD0F8070DD164B1A5420AD2C3
:10E1100020214846641E00F0A1F8D9F80C00002820
:10E12000F3DABDE8FC9FD9F80C000028F9DB002EDB
:10E1300002DA56462D2102E0780707D52B21484602
:10E1400000F08CF8D9F80C000028EADB07F0030097
:10E1500002280FD1B8F1000F0CD15CB1A54209D251
:10E1600030214846641E00F079F8D9F80C000028E8
:10E17000F3DAD6E7CDE9004743465A4631464846EA
:10E1800000F002F8CDE700002DE9F84F8246DDE906
:10E190000A4B0126984691460D460846374602E04E
:10E1A000B0FBF9F07F1C4845FAD2B84500D9474684
:10E1B0005FEACB7017D1B4B15FEA8B7002D5B8F1CA
:10E1C000000F02D0202000900BE03020FBE75046EB
:10E1D000641E009900F042F8DAF80C00002838DBE1
:10E1E0000CB1A742F3D3DAF80C00002831DB00BFF2
:10E1F000B8F1010F02D9A8F1010803E0B5FBF6F070
:10E20000484502D306FB09F6F2E7DFF84C8000BF71
:10E21000B5FBF6F000FB165518F80010504600F05C
:10E220001DF8DAF80C00002803DBB6FBF9F6002E27
:10E23000EED15FEACB700CD0002C0AD0A74208D2F6
:10E2400020215046641E00F009F8DAF80C0000287E
:10E25000F2DABDE8F88F00004037030010B504463D
:10E26000D4E90130421C934205D323681954A260BB
:10E27000E068401CE060D4E90102824209D32168D1
:10E280002069FFF789FAA168884203D04FF0FF3078
:10E29000E06010BD0020A06010BD2DE9F047C4680B
:10E2A0001746894606464FF000083069A04201D95A
:10E2B000051B02E0B168201A0D1AB0686D1E001B24
:10E2C000A84200D80546BD4200D33D4670682A46A4
:10E2D00020444946FEF7FDF9B0687F1B2C44A84452
:10E2E000A944A04200D10024F460002FDDD14046B3
:10E2F000BDE8F0872DE9F041C66804461746884618
:10E300008068851B6068BD4206D93044FEF7E1F99C
:10E31000F019E060BDE8F0812A463044FEF7D9F9F3
:10E320007E1B08EB050132466068FEF7D2F9E66015
:10E33000F0E700000FB4084B10B504A902AA039837
:10E3400000F05CFF044602A9002001F088F9204695
:10E3500010BC5DF814FB00005FF6010003B40198E7
:10E360004100009850EAC12018BF04204A0D18BF90
:10E3700040F0010040F2FF72B2EB515F08BF40F085
:10E380000200012808BF052002B07047002809DB01
:10E3900000F01F02012191404009800000F1E020BF
:10E3A000C0F880127047002809DB00F01F0201212D
:10E3B00091404009800000F1E020C0F80011704752
:10E3C000002809DB00F01F02012191404009800074
:10E3D00000F1E020C0F8001270474907090E00283C
:10E3E00004DB00F1E02080F80014704700F00F001B
:10E3F00000F1E02080F8141D70470000BFF34F8F3C
:10E4000005480168054A01F4E06111430160BFF36A
:10E410004F8F00BFFDE700000CED00E00400FA059F
:10E42000BFF34F8F05480168054A01F4E0611143CD
:10E430000160BFF34F8F00BFFDE700000CED00E06F
:10E440000400FA050000000010B52F499FED2C1BB9
:10E450002DED020B84B0059820F000408842D8BF13
:10E460009DED040B2DDD2949884209D1049840B95E
:10E470004FF0010000F0BCFE00F08AFE06B010BDB7
:10E4800005DB9DED040B00F077FE06B010BD68467D
:10E490009DED040B00F0E0F810F0030004BF9DEDCB
:10E4A000021B9DED000B0CD001280ED09DED021B30
:10E4B0009DED000B022817D0012000F01DFC06B0D6
:10E4C00010BD00F0E5FA06B010BD9DED021B9DEDFC
:10E4D000000B012000F010FC51EC100B81F000410A
:10E4E00006B041EC100B10BD00F0D2FA51EC100B4D
:10E4F00081F0004106B041EC100B10BD000000009F
:10E500000000000000000000FB21E93F0000F07F58
:10E5100010B52F499FED2C1B2DED020B84B00598F3
:10E5200020F000408842DCBF00209DED040B32DD6E
:10E530002849884209D1049840B94FF0010000F001
:10E5400057FE00F025FE06B010BD05DB9DED040B67
:10E5500000F012FE06B010BD68469DED040B00F001
:10E560007BF810F0030011D0012818D09DED021B9C
:10E570009DED000B02281AD000F08AFA51EC100B26
:10E5800081F0004106B041EC100B10BD9DED021B67
:10E590009DED000B012000F0AFFB06B010BD9DED1E
:10E5A000021B9DED000B00F073FA06B010BD0120B8
:10E5B00000F0A2FB51EC100B81F0004106B041ECE1
:10E5C000100B10BD00000000000000000000000063
:10E5D000FB21E93F0000F07F10B51D499FED1A1B9C
:10E5E0002DED020B84B0059820F000408842DCBF7E
:10E5F00001209DED040B21DD1649884209D10498C4
:10E6000040B94FF0010000F0F3FD00F0C1FD06B08D
:10E6100010BD05DB9DED040B00F0AEFD06B010BD96
:10E6200068469DED040B00F017F800F00100012191
:10E63000A1EB40009DED021B9DED000B00F0F4FBF3
:10E6400006B010BD00000000000000000000000047
:10E65000FB21E93F0000F07F2DE9F14F04462DED4D
:10E66000020B2DED088B8AB09FEDE70B80ED020BBE
:10E67000139EE74826F0004585420ADC9DED120B0B
:10E68000002084ED000B0AB0BDEC088B03B0BDE8A0
:10E69000F08FE0489FEDE0AB9FEDE1BBA84247DD86
:10E6A000E14F9FEDE39B9FEDE48B9DED120B53EC4F
:10E6B0001A2B51EC100B002E1CDDFEF7ECF841EC90
:10E6C000100BBD4208D053EC1B2B51EC100BFEF786
:10E6D000E2F8C4E900010BE053EC192B51EC100BEC
:10E6E000FEF7D9F853EC182BFEF7D5F8C4E9000172
:10E6F0000120C8E7FEF72EF841EC100BBD4208D010
:10E7000053EC1B2B51EC100BFEF724F8C4E900016D
:10E710000BE053EC192B51EC100BFEF71BF853ECEC
:10E72000182BFEF717F8C4E900014FF0FF30AAE7F5
:10E73000C348A84279DB9DED120B51EC100B07F09A
:10E74000B3FE41EC180B9FEDC00B53EC102BFEF702
:10E75000A8F89FEDBF1B53EC112BFDF7FBFFFEF755
:10E760009FF90746FEF77EF941EC190B53EC1A2B83
:10E77000FEF797F853EC182BFEF790F841EC180BC6
:10E7800053EC1B2B51EC190BFEF78BF8DFF8C8A2EA
:10E7900041EC100B4FEA15580125FA4453EC102BAD
:10E7A00051EC180BFEF777F8032DC4E900013DD0BA
:10E7B000C1F30A5005EB4511A8EB00001139814265
:10E7C00034DA0AEB051BB0EE48AA9BED000BF0EE25
:10E7D00068AA53EC102B51EC190BFEF762F841ECD0
:10E7E0001B0B51EC1A0B53EC1B2BFEF754F841ECAE
:10E7F000180B51EC1A0B53EC182BFEF74CF853EC9A
:10E800001B2BFEF748F89BED020B41EC1A0B53EC67
:10E81000102B51EC190BFEF744F853EC1A2BFEF7B2
:10E820003AF841EC100B6D1CB8E70EE0002EA8BFC3
:10E830003846BFF628AF94ED000B51EC100B81F079
:10E840000041C4E9000178421DE7C6F3130040F41B
:10E85000801EC6F30A50A0F2F530471100F01F05E4
:10E86000C5F12000DDF848B0089000200690079020
:10E870000520EC467949002D07EB0002794408BFDA
:10E8800051F8221009D051F8223001EB8201AB403F
:10E890004A68089922FA01F11943A1FB0E26A1FB4F
:10E8A0000B131A449A4234BF0123002303EB0608DA
:10E8B0000CEB8003D3E901A60E448E4234BF012144
:10E8C000002192448A4411B1924502D903E0924555
:10E8D00001D2012100E00021C3E901A641444CF826
:10E8E0002010011EA0F10100C4DC029800F10050CC
:10E8F000850F0298DDE903678000DDF81480FEF7DC
:10E90000B1F841EC1A0B3046FEF7BDF89FED541BF1
:10E9100053EC112BFDF7C5FF41EC1B0B3846FEF7FE
:10E92000B2F89FED511B53EC112BFDF7BAFF41ECF0
:10E93000180B4046FEF7A7F89FED4D1B53EC112B2B
:10E94000FDF7AFFF41EC190B51EC180B53EC192BF1
:10E95000FDF700FF53EC1B2BFDF7FCFE53EC1A2BCD
:10E96000FDF7F8FECDE90801002008909DED080BA9
:10E9700053EC1A2B51EC100BFDF78DFF53EC1B2BB6
:10E98000FDF789FF53EC182BFDF785FF53EC192B8E
:10E99000FDF784FF9FED381B53EC112BFDF781FF32
:10E9A0009FED370B41EC180B53EC102B9DED080B32
:10E9B00051EC100BFDF775FF53EC182BFDF7CAFE59
:10E9C0009FED310B41EC180B53EC102B9DED080B18
:10E9D00051EC100BFDF765FF53EC182BFDF7BAFE59
:10E9E00041EC100B139810F0004F06D06D4251EC23
:10E9F000100B81F0004141EC100B284684ED000B18
:10EA000041E60000000000000000000000000000DF
:10EA1000FB21E93F7CD9024000004054FB21F93F33
:10EA20003163621A61B4D03DFB21F93F0000000060
:10EA30000000601A61B4D03D7370032E8A19A33BA5
:10EA4000FB2139410000000083C8C96D305FE43FFD
:10EA5000000000000000E03F4A540100985301000C
:10EA6000000000000000103E000000000000103C0C
:10EA7000000000000000103A182D4454FB21F93D1D
:10EA80003326A611460B113C00000054FB21F93D32
:10EA900010B52DED040B2DED088B82B0B0EE419A30
:10EAA000F0EE619A0B9820F000449FED4BABB4F16F
:10EAB000795F11DA9DED0A0B51EC100BFDF7F0FFB9
:10EAC000002801BFB0EE4A0AF0EE6A0A02B0BDECBF
:10EAD000088B04BF04B010BD9DED0A0B53EC102B46
:10EAE00051EC100BFDF7DDFE41EC180B3C48062104
:10EAF000B0EE480AF0EE680A784400F081F853EC72
:10EB0000182B51EC100BFDF7CCFE9DED0A0B41ECE0
:10EB10001B0B53EC192B51EC100BFDF7C2FE41EC13
:10EB2000190B53EC1B2B51EC180BFDF7BAFE53ECF1
:10EB3000192BFDF7B0FE9FED2C0B41EC190B53EC9C
:10EB4000102B51EC180BFDF7ACFE41EC100B2848D4
:10EB5000844210DA53EC192B51EC100BFDF79BFE9D
:10EB600053EC1A2BFDF79AFE41EC100B02B0BDECF2
:10EB7000088B04B010BD1F48A042BCBF9FED1E1BF8
:10EB80008DED001B06DBA4F5001001900020009025
:10EB90009DED001B51EC100B53EC112BFDF77BFE90
:10EBA0009DED000B41EC180B53EC102B51EC1A0BA4
:10EBB000FDF771FE41EC1A0B53EC192B51EC180BBD
:10EBC000FDF769FE53EC1A2BFDF768FE41EC100BC4
:10EBD000CCE7000000000000000000000000F03F53
:10EBE000BC50010000000000000000000000E03FF9
:10EBF0003333D33F0000E93F000000000000D23F64
:10EC000070B504462DED028B4D1E00EBC500B0EE35
:10EC1000408AF0EE608A90ED000B35F0060017D0C8
:10EC200053EC182B51EC100BFDF73BFE41EC100B95
:10EC30006D1E04EBC50090ED001B51EC100B53EC66
:10EC4000112BFDF787FD41EC100B35F00600E7D1E5
:10EC5000022D36D0042D1CD0062D1CBFBDEC028B1E
:10EC600070BD53EC182B51EC100BFDF71AFE94ED10
:10EC70000A1B53EC112BFDF76DFD53EC182BFDF720
:10EC800010FE94ED081B53EC112BFDF763FD41ECD6
:10EC9000100B53EC182B51EC100BFDF702FE94ED0A
:10ECA000061B53EC112BFDF755FD53EC182BFDF70C
:10ECB000F8FD94ED040B53EC102BFDF74BFD41ECEC
:10ECC000100B53EC182B51EC100BFDF7EAFD94EDF3
:10ECD000021B53EC112BFDF73DFD53EC182BFDF7F8
:10ECE000E0FD94ED001B53EC112BFDF733FDBDEC63
:10ECF000028B41EC100B70BD31B504462DED040BB9
:10ED00002DED0A8BB0EE41BAF0EE61BA0B989DED95
:10ED10000A0B20F00040B0F1795F0DDA51EC100BD6
:10ED2000FFF71CFB042808BF00F042FA9DED0A0B18
:10ED3000BDEC0A8B05B030BD53EC102B51EC100B21
:10ED4000FDF7AFFD41EC180B9DED0A0B53EC182BB2
:10ED500051EC100BFDF7A5FD41EC190B2C48B0EE62
:10ED6000480AF0EE680A05217844FFF749FF9FED55
:10ED70002ACBB0EE40AAF0EE60AA9CB353EC1C2B59
:10ED800051EC190BFDF78DFD41EC1C0B53EC1A2BCC
:10ED900051EC190BFDF785FD9FED210B41EC190B93
:10EDA00053EC102B51EC1B0BFDF77BFD53EC192B97
:10EDB000FDF771FD53EC182BFDF773FD53EC1B2B86
:10EDC000FDF769FD53EC1C2BFDF765FD9DED0A1B5E
:10EDD00053EC112BFDF762FDBDEC0A8B05B041EC45
:10EDE000100B30BDFFE753EC1A2B51EC180BFDF75D
:10EDF00058FD53EC1C2BFDF7ADFC53EC192BFDF724
:10EE000050FD9DED0A1B53EC112BFDF7A3FCE3E72E
:10EE1000444F010000000000495555555555C5BFE8
:10EE2000000000000000E03FF1B506462DED040BA8
:10EE3000BD482DED0C8B8AB0B0EE418AF0EE618AB0
:10EE4000179D25F000449FEDBABB9FEDBBCB8442DC
:10EE500008DA9DED160B51EC100BFDF721FE002892
:10EE600000F0E980B64FA74231DC002D0DDA9DEDB0
:10EE7000160B51EC100B81F00041CDE9160151EC5D
:10EE8000180B81F0004141EC180B9FEDAF0B53ECD8
:10EE9000102B9DED160B51EC100BFDF7FFFC53EC06
:10EEA000182B9FEDAB0BCDE9040151EC100BFDF7D6
:10EEB000F2FC41EC100B53EC102B9DED040B51ECCC
:10EEC000100BFDF747FC9FEDA48BCDE916019DEDDE
:10EED000160B53EC102B51EC100BFDF7E2FCCDE9B7
:10EEE00004019DED040B53EC102B51EC100BFDF7BE
:10EEF000D8FC41EC190B9A480621B0EE490AF0EE15
:10EF0000690A7844FFF77CFE9648B0EE40DAF0EEEE
:10EF100060DAB0EE490AF0EE690A06217844FFF79C
:10EF20006FFE9DED041B51EC100B53EC112BFDF704
:10EF3000B8FC9DED040B41EC1A0B53EC102B9DED2E
:10EF4000160B51EC100BFDF7ACFC41EC190B53EC1C
:10EF50001A2B51EC1D0BFDF7FDFB53EC192BFDF7A4
:10EF6000A0FC53EC182BFDF7F5FB9DED041B53ECB7
:10EF7000112BFDF796FC53EC182BFDF7EBFB41EC46
:10EF8000180B9FED790B51EC190B53EC102BFDF77F
:10EF900088FC53EC182BFDF7DDFB41EC190B9DEDC4
:10EFA000160B53EC192B51EC100BFDF7D3FB41EC76
:10EFB000180BA74269DC3046FDF754FD41EC1A0BF3
:10EFC00051EC180B53EC1A2BFDF7C4FB41EC1B0B57
:10EFD00053EC182B51EC180BFDF763FC53EC1B2B77
:10EFE000FDF7D1FC53EC192BFDF755FC9DED161BDD
:10EFF00053EC112BFDF752FC9FED5D1B53EC112BD5
:10F00000FDF74FFC53EC1A2BFDF748FC41EC180BB5
:10F01000022000EAA570C0F10100FDF723FD53ECCA
:10F02000182BFDF73EFC00BF41EC100B0AB0BDEC05
:10F030000C8B05B0F0BD711C1698214308430CD011
:10F040009DED160B012E1CBF53EC102B51EC1C0B2D
:10F0500010D000BFFDF797FCE6E79DED160B51ECD5
:10F06000100B07F021FA41EC100B51EC1B0B53EC89
:10F07000102BEFE751EC100BFFF770F9042808BFD5
:10F0800000F096F89DED160BD0E7012E04BFB0EE10
:10F09000480AF0EE680AC9D08DED048B0024049470
:10F0A0009DED040B53EC102B9DED160B51EC100B4A
:10F0B000FDF7F4FB53EC192BFDF7F0FB41EC190BBA
:10F0C00053EC182B51EC1C0BFDF75DFC41EC180BBD
:10F0D0008DED008B00949DED040B53EC102B9DEDFA
:10F0E000000B51EC100BFDF7DCFB53EC1B2BFDF779
:10F0F00031FB9DED000B41EC1A0B53EC192B51EC3D
:10F10000100BFDF7CEFB53EC1A2BFDF723FB53EC52
:10F11000182BFDF7C6FB9DED001B53EC112BFDF7E3
:10F1200019FB81E7000000000000303E00000000F5
:10F13000000000000000F03F000000000000F0BFF1
:10F140002894E53F00000000182D4454FB21E93FBE
:10F15000075C143326A6813C00000000000000007C
:10F16000D24D0100E84D0100635555555555D53F29
:10F17000000000000000004010B553EC102B51ECD3
:10F18000100BFDF7E7FA41EC100B10BD000000007A
:10F190009FED050B10B553EC102B51EC100BFDF748
:10F1A000F2FB41EC100B10BD00000000000000005D
:10F1B0009FED050B10B553EC102B51EC100BFDF728
:10F1C00070FB41EC100B10BD0000000000000010AF
:10F1D00002E008C8121F08C1002AFAD17047704720
:10F1E000002001E001C1121F002AFBD1704700007E
:10F1F0000149086070470000BC2F00202DE9FF4F37
:10F200008DB00F460546002606E025280BD0DDE927
:10F210000F1290476D1C761C28780028F5D111B08C
:10F220003046BDE8F08F0024A246A1460122EC49F9
:10F2300000E0044315F8013F203B02FA03F00842C6
:10F24000F7D128782A2810D06FF02F022878A0F163
:10F250003001092914D80AEB8A0102EB410144F07C
:10F26000020400EB010A6D1CF0E701CF5FEA000A1F
:10F2700003D544F40054CAF1000A44F002046D1CA2
:10F2800028782E2817D115F8010F44F004042A28F5
:10F290000ED06FF02F022878A0F1300109290AD88A
:10F2A00009EB890102EB410100EB01096D1CF2E75A
:10F2B00057F8049B6D1C28786C280FD006DC4C286E
:10F2C00017D068280DD06A2814D104E0742810D013
:10F2D0007A280FD10DE044F400140AE044F48014BD
:10F2E00001E044F440146978814202D104F58014AD
:10F2F0006D1C6D1C2A786E2A1FD00CDC632A31D05D
:10F3000004DC002A8BD0582A11D1A3E0642A68D0EB
:10F31000692A0CD165E0732A2ED004DC6F2A73D0E1
:10F32000702A04D19BE0752A6FD0782A6ED01046DF
:10F33000DDE90F129047761C50E1C4F30250022819
:10F3400006D0032809D0042801CF09D0066045E182
:10F3500001CFF117C0E9006140E101CF06803DE136
:10F3600006703BE117F8040B8DF8000000208DF8C3
:10F370000100EB46012003E057F804BB4FF0FF30DB
:10F3800061074FF0000102D40DE008F10101884649
:10F3900049450FDA8045F8DB1BF808100029F4D145
:10F3A00008E008F1010188468142FADB1BF80810E9
:10F3B0000029F6D1DDE90F23AAEB0800814621469A
:10F3C00000F036F9304400EB080604E0DDE90F12E6
:10F3D0001BF8010B9047B8F10108F7D221464846C7
:10F3E000F7E00A21C4F302534FF0000B0891022BFF
:10F3F00004D001CFC117032B09D00AE0FF1D27F06D
:10F400000707F7E8020108E032E01FE020E000B261
:10F41000C117042B01D140B2C117031E71F10003C3
:10F4200007DA4FF0000CD0EB0C006CEB01012D2340
:10F4300002E0230504D52B238DF82430012303E0BB
:10F44000E30701D02023F7E7984658E00A2110E0AF
:10F4500010210EE010204FF0000B08900CE010215E
:10F460004FF0000B44F004044FF00809089103E04A
:10F4700008214FF0000B0891C4F30253022B04D073
:10F4800001CF0021032B06D006E0FF1D27F0070760
:10F49000F7E8020103E080B2042B00D1C0B24FF0C4
:10F4A000000823072BD5702A07D0DDF820C08CF088
:10F4B000100C5CEA0B0C05D00EE040238DF82430D4
:10F4C000012308E050EA010306D030238DF82430F0
:10F4D0008DF8252002239846DDF820C08CF0080C1A
:10F4E0005CEA0B0C0BD150EA010301D1630706D58E
:10F4F00030238DF824304FF00108A9F10109582A72
:10F5000004D038A20B9208AA0A920BE03AA2F9E7BB
:10F510005B46089AFDF764FB0B9B9B5C0A9A521EA4
:10F520000A92137050EA0102F2D10A98ADEB000082
:10F5300000F1200B600702D524F4803401E04FF085
:10F540000109D94502DDA9EB0B0000E0002000EB2A
:10F550000B0141440890AAEB010AE00306D4DDE95F
:10F560000F232146504600F063F806444FF000098F
:10F5700008E009A911F80900DDE90F12904709F127
:10F580000109761CC145F4DBE0030CD5DDE90F234E
:10F590002146504600F04CF8064404E0DDE90F1225
:10F5A00030209047761C0899481E08900029F5DC09
:10F5B00008E00A980A990078491C0A91DDE90F12BF
:10F5C0009047761CBBF10001ABF1010BF1DC214649
:10F5D0005046DDE90F2300F019F806446D1C1BE6C8
:10F5E0000928010030313233343536373839616219
:10F5F00063646566000000003031323334353637DD
:10F600003839414243444546000000002DE9F041AD
:10F61000044600251E461746880404D405E03946F2
:10F620002020B0476D1C641EF9D52846BDE8F08146
:10F630002DE9F041044600251E469046C80301D539
:10F64000302700E02027880404D505E041463846ED
:10F65000B0476D1C641EF9D52846BDE8F0810A68E4
:10F66000531C0B601070704710B500241120FEF77A
:10F6700007FBC0F34211012905D0002804DB641CFC
:10F68000E4B2052CF2D3002010BD00000149C8608F
:10F6900070470000DC2100202DE9FC470D460446A0
:10F6A00007F038FF0146A8797F2809D900F0A2FBAE
:10F6B000002878D0BDE8FC473EA100200AF06ABFD0
:10F6C000A27F0020012A03D1A077AA79A283E0813A
:10F6D0002A78002A69D0E08900B9E1626888A178B7
:10F6E000B0FBF1F010F0FF0700D10127B4F91C6066
:10F6F000A879801B00F07F0A4CE000231A461946C7
:10F700009946184612E000BF05EBC60C761CBCF902
:10F71000078006F07F064344BCF90980401C424440
:10F72000BCF90B804144BCF80D80C144B842EBDB0E
:10F7300093FBF7F3A88892FBF7F24343608BAAEBA5
:10F74000070A93FBF0F3ADF80030AB885A4392FB05
:10F75000F0F0ADF8020091FBF7F0A9884843618B07
:10F7600090FBF1F0ADF8040099FBF7F0A98848434D
:10F77000618B90FBF1F0ADF80600694620460FF072
:10F7800031FFE089217C0844618A884202D9204601
:10F7900002F070FFBA4505D3E089217C0844B0F53A
:10F7A000FA7FAAD9A683BDE8FC87A979A183E08165
:10F7B000F9E700005B5245505D2033204158495322
:10F7C00020427566666572204572722121210D0006
:10F7D0002DE9F041044607F09DFEE268217C0027F8
:10F7E0001278DFF8D88008250426914259D1D4E94F
:10F7F00000120A44824202D22260616139E08142F1
:10F8000059D9206098F80000002854D000F0F2FA8E
:10F81000022850D32AA100200AF0BCFE4BE000BF12
:10F8200005EBC0001258D4E9000303449A4203D305
:10F830006061616808441BE0824203D301292BD137
:10F84000208927E098F8000038B100F0D3FA0228A8
:10F8500003D31EA100200AF09DFEB4F90800002881
:10F860000DDD20686061217CE06805EBC101405836
:10F8700020602089208327810120BDE8F081227C3F
:10F88000E16805EBC20306EBC202CB582360895C3A
:10F89000012901D1401C2081207C401C00F01F0068
:10F8A0002074207CE26806EBC001515C022902D082
:10F8B00013789842B4D10020DFE70000F41F002045
:10F8C000437572696F75733F0D000000437572696F
:10F8D0006F757365723F3F3F0D00000010B5144C0B
:10F8E0000188A27904EBC202A2F80710114A01882C
:10F8F0001180A279418804EBC202A2F809100E4AD5
:10F9000041881180A279818804EBC202A2F80B1011
:10F910000A4980880880A07904EBC000C01D03F06C
:10F92000A7F8A079401C00F07F00A07110BD000076
:10F93000502200207A2000207C2000207E20002001
:10F9400010B50F4C0188A27904EBC202A2F807108F
:10F95000A279418804EBC202A2F80910A17980883B
:10F9600004EBC101A1F80B00A07904EBC000C01D9D
:10F9700003F07EF8A079401C00F07F00A07110BD5C
:10F98000582600202DE9F0410546C088C0F30B0041
:10F99000C11D21F00304B4F5007F05D900F02AFA57
:10F9A00002280BD320A106E008280AD200F022FA90
:10F9B000022803D322A100200AF0ECFD0020BDE8BC
:10F9C000F081284E04F1080031880844B0F5806FBA
:10F9D0000BD300F00FFA022803D323A100200AF072
:10F9E000D9FD0FF0A7FD0028E9D01E4F29480C3F94
:10F9F0002860B888A8803188706822460844294663
:10FA0000FCF767FEE879000909F02EFBB888401C76
:10FA1000B88030882044308007F11400008808B98D
:10FA20000AF0E6FB0120CAE75B4144445F524543CC
:10FA30005D2052656320546F6F20426967210D007D
:10FA40005B4144445F5245435D20526563204C65F1
:10FA50006E67746820546F6F2053686F7274210D45
:10FA6000000000004C2F00205B4144445F5245439E
:10FA70005D204E6F7420656E6F75676820726F6FC2
:10FA80006D20696E2052414D206275666665722157
:10FA90000D0000004C4F473A2DE9FC5F0025168809
:10FAA00007461580406B14468946A8464FF00C0A5D
:10FAB00011234FF0020B98B101784846032E48D32A
:10FAC00080F800B02288521C92B22280835422888F
:10FAD000521C92B2228009F802102088401C20801B
:10FAE0003A6BDAB12088494600F11205B54230D8A8
:10FAF0000B5420881023401C80B220800B54208897
:10FB0000401C20800F202388155C401ECD54238884
:10FB100040B25B1C23800028F5DA454697F82E009A
:10FB200030B13346224649460AF05EF8050011D14D
:10FB300097F82D0030B132462146484601F080FD4D
:10FB4000050007D1B87820B32088C846001DB04210
:10FB500002D95046BDE8FC9F684679DF0028F9D1FC
:10FB60002188032008F8010020881921401C80B258
:10FB7000208008F800102088401C80B2208000EB14
:10FB80000801BDF8000012F027FF01462088084454
:10FB90002080F878B8B1228897F90310D31C484622
:10FBA000B342D6D800F802B022880123521C92B288
:10FBB000228083542288521C92B2228009F80210BB
:10FBC0002088401C20807868B8B1218890F90020F6
:10FBD000CB1C4846B342BCD800F801B021880A23A8
:10FBE000491C89B2218043542188491C89B2218053
:10FBF00009F801202088401C2080388950B1CDE9C7
:10FC000000464B460622022107F1080013F031FBA3
:10FC100005009FD1388A50B1CDE900464B460722F6
:10FC2000032107F1100013F024FB050092D1388B5B
:10FC300050B1CDE900464B461522142107F11800BA
:10FC400013F017FB050085D1386A30B133462246E0
:10FC5000494603F03FFD0500DBD1786A30B13346F9
:10FC6000224649460CF062FB0500D2D197F82C00E1
:10FC700038B133462246494638460FF02FFF05007B
:10FC8000C7D1387838B133462246494638460CF059
:10FC9000FFFD0500BDD128465CE7000010B598B017
:10FCA000382101A8FCF72EFD02208DF80400062063
:10FCB0008DF80700144800240690ADF81440242164
:10FCC0000FA8FCF71FFD40201390B42001218DF8F0
:10FCD00054108DF83C408DF848404FF448718DF831
:10FCE0003D40CDE916108DF83E401490074B0FAA09
:10FCF0000094002101A801F0A9F8002801D000F02B
:10FD00003FF818B010BD00006820002079D702002D
:10FD100010B500F06FF8022804D306A201210020DC
:10FD20000AF05CFC74DF002803D0BDE8104000F04E
:10FD300027B810BD4164766572746973696E672077
:10FD400053746F70706564210D00000010B59068E9
:10FD50001446002809D000F04DF828B1238803A1EB
:10FD60000020A2680AF016FC00BF10BD4572722088
:10FD70003078253032583A206C2D253031750D0001
:10FD80000EB500210091CDE901106A4644F2010050
:10FD9000FFF7DCFF0EBD00002DE9F04107460A48E1
:10FDA00016460D46046800F025F8032804D32A7887
:10FDB00006A100200AF0EEFB324629463846A4464A
:10FDC000BDE8F04160470000DC3D00205B444D5D34
:10FDD0003A204E6F74696679696E672041707020B1
:10FDE0006F66206576656E74203078253032580D48
:10FDF000000000000148007870470000B421002096
:10FE0000032801D90020704701490870012070477C
:10FE1000B4210020074B9B6823B12AB120B10068B0
:10FE2000037C1BB108207047072070474174426172
:10FE300000207047942100202DE9F0478046994624
:10FE400014460F4690074FF0000634D11C4D8CB37A
:10FE50000FF098FA0320C5F81490287004F11800E8
:10FE6000002107EB4703AC6004EBC102491C16708C
:10FE700056709770506000EBC3000329F4DBEE600E
:10FE80006E70AE701420FEF781FA06211420FEF782
:10FE9000A4FA1420FEF787FA0A49C1F80080062167
:10FEA0001120FEF79AFA0748001F00682861002019
:10FEB000BDE8F08701E00720FAE7AE60FBE700004D
:10FEC00094210020081501400549896819B1011ED7
:10FED00003D0486908B10120704700207047000036
:10FEE000942100202DE9F843DFF870900D46174665
:10FEF000D9F80810044651B34CB3052D02D207209F
:10FF0000BDE8F883606910B3607C012821D0002629
:10FF100013F07CF9D9F80810804601EBC800694657
:10FF200013F093F9B8B1012100F8041B0C4910C07B
:10FF3000096880E8E200D9F8081001EBC8009DF8D4
:10FF4000001041701420FEF73BFA0020D8E708208B
:10FF5000D6E72E46DCE70420D2E7000094210020FB
:10FF600004150140F8B5124E0446B168E1B1DCB1A8
:10FF70006069C8B10027277413F048F90546B068D6
:10FF8000694600EBC50013F060F978B102210170F9
:10FF90004460B0689DF8001000EBC500417014206B
:10FFA000FEF70EFA3846F8BD0820F8BD0420F8BD6B
:10FFB0009421002070B50E460D49154609788842F7
:10FFC00015D80CA2012100200AF008FB002405E04E
:10FFD000325D09A100200AF0DDFA641CAC42F7D3BF
:10FFE000BDE87040012103A200200AF0F7BA70BDFD
:10FFF000B42100200D000000307825303258200058
:020000040002F8
:100000000AF09EBA30B5EFF3108172B60D4A9468CB
:10001000012324B10370002900D162B630BD936082
:100020004FF0E023D3F88051074C25401560C3F80A
:100030008041D3F8844154605A17C3F884210022C8
:100040000270E8E74C3F0020FC06FFBC0B498A68C1
:10005000002A11D000280FD1EFF3108072B60B6880
:100060004FF0E022C2F800314B68C2F804310022A0
:100070008A60002800D162B6704700004C3F002023
:100080000349084201D10120704700207047000059
:1000900000C0F0FF2DE9F05F0D46044607F03AFA84
:1000A0007F4E07462078717888420BD0FFF7A2FE7A
:1000B00002287DD322787378BDE8F05F79A1002013
:1000C0000AF068BAA07F4FF00009012803D0E07F52
:1000D00001281DD032E0FFF78DFE032804D32278DB
:1000E0007CA100200AF056FA84F81E90A4F80E9025
:1000F000A979A18384F81F90C6F81490C6F81090CF
:10010000C6F80C90C6F81890A078401C308114E016
:1001100084F81F90FFF76EFE032803D374A100201C
:100120000AF038FAC6F81490C6F81090C6F80C9089
:10013000C6F81890A07830817F1EE762B24630463C
:10014000F768D0E90463B4F91C2095F806C0DAF822
:1001500018100EE005EBC200521CB0F9078002F047
:100160007F024744B0F90980B0F90B0046440344CC
:10017000491C9445EED15046B346C0E90376CAE91E
:100180000531A283BAF808209E46521E12B2AAF880
:100190000820002A0CDC6B88A6784A4673431FFAB5
:1001A00083FC04F13006731CB1EB5C0F1CD800E03B
:1001B00074E0E5894FF0FF38022D11D3DF1EE919F5
:1001C000B1F9001000290BDA012909D54B46491E67
:1001D00061F30F03EB551B0AE589711E6B5457E061
:1001E000494668F30F014CE0B5F80480B4F81AC032
:1001F000B7FBF1F7B8FBFCF56F43BBFBF1F5BA4673
:10020000C760B8FBFCF77D43B8FBFCF7BEFBF1F120
:1002100079434FF4004BC0E90451CBF1000947F694
:10022000FF7C09F10108DA4502DBC0F80CC003E0ED
:10023000CA4501DCC0F80C805D4502DBC0F810C087
:1002400003E04D4501DCC0F81080594502DBC0F8E1
:1002500014C003E0494501DCC0F8148041694FF443
:10026000F84505EA610501694FF4787707EAA111BD
:100270000D438189C1F3C4210D43114665F30F017C
:10028000E589A955E589090AE954E189891CE181D3
:1002900042610261C2608261A1780181BDE8F09F84
:1002A000D82E002041766520416363656C3A205268
:1002B000657020253031752044656E6965642C2099
:1002C0004578706563742052657020253031750D56
:1002D0000000000041766520416363656C20526533
:1002E000706F727465722025303175204F6E0D006D
:1002F0004E65772041766520416363656C205265C9
:10030000630D000010B50446007850B1FFF772FD90
:1003100002280CD32278BDE8104005A100200AF085
:1003200039B960680088BDE8104000F0BDB910BD63
:100330005B4241545F4144435F43425D3A20253074
:1003400031750D000148407870470000882F00206B
:1003500010B5002001F034FE012010BD0148007AE4
:1003600070470000882F00200148808880B27047C5
:10037000982F00203EB5464CA071A07940B1FFF700
:1003800039FD022804D343A2012100200AF026F9F6
:10039000454A01214548FFF73DFD08B1FFF7F0FC54
:1003A0004248434A0021001DFFF734FD08B1FFF722
:1003B000E7FC032109200DF056F801F077FE050057
:1003C0000AD0FFF717FD022804D32A4639A10020DE
:1003D0000AF0E0F828463EBD0CF0C4FC0028FAD133
:1003E0002B48401D0CF06EFC0028F4D160790CF015
:1003F0009FFC2E4800250838D0E90912CDE90012EB
:1004000040680290354902A80CF04EFD0028E2D168
:10041000694628460CF026FD0028DCD13048D0F88B
:10042000181541F08071C0F81815194801210A30DB
:100430000CF0A4FC0028CED165202072144865720F
:100440001030022101706421417045602548057219
:100450009620FCF783F80A200DF054F80A200DF0DE
:1004600030F8002000F020F9E0790028FCD000F0FE
:1004700039FB00F0E5F8A07940B1FFF7BBFC032899
:1004800004D319A2012100200AF0A8F800203EBDE3
:10049000882F00205B4241545F494E49545D3A2009
:1004A00073746172740D000031060200B03A0300EB
:1004B000A90902005B4241545F494E49545D3A200C
:1004C0004251323531323020496E697420466169BB
:1004D0006C656420253031640D00000005030200C6
:1004E00000700040F43F00205B4241545F494E4998
:1004F000545D3A20646F6E650D0000000148C079BC
:1005000070470000882F002005494A7A2AB100224E
:100510004A72097A0170012070470020704700007C
:10052000882F00202DE9F04391B00E4605460024A7
:100530001C2105A8FCF7E6F89DF81400089440F08B
:1005400016008DF81400012706948DF8367042F6D7
:10055000192009940A940B94ADF834000C94F07BA4
:100560008DF83000307C8DF831009DF83200142178
:1005700020F00600801C20F019008DF83200307B3E
:100580008DF83C006846FCF7BDF80DF134080DF11C
:100590003009ADF808700FA8CDE90089ADF80A4020
:1005A000ADF80C700490A88805F10E036A4605A901
:1005B000A2DF002838D1B06898B38DF8367042F6C3
:1005C0000810ADF834000C94307D8DF830009DF8A3
:1005D000310020F0FF008DF831009DF8320020F04E
:1005E0000600801C20F019008DF8320010A8B168B8
:1005F00001F023FB064614216846FCF783F8ADF8AA
:10060000086010A8CDE90089ADF80A40ADF80C608B
:100610000490E88905F126026946A3DF002803D18A
:1006200001E0FFE7EC84002011B0BDE8F08300009A
:1006300002490020C87000F037B80000882F002061
:10064000094810B50021C17101210170074800223D
:100650004FF420518068FFF745FC002803D0BDE827
:100660001040FFF78DBB10BD882F0020A83A030073
:1006700070B50B4E0B4C00253570A068FFF772FC6F
:10068000E068FFF76FFC04460A200CF03BFFF571B1
:10069000200003D0BDE87040FFF772BB70BD0000C2
:1006A000882F0020A83A03002DE9F041184C0026BD
:1006B0000746E671E078012520B101280FD0022815
:1006C00023D113E013494FF48060086012480022E0
:1006D0000521C068FFF706FCE570BDE8F0810F4812
:1006E0000560001D05600220E070F6E70A200CF0AE
:1006F00009FF0B48017A491CC9B20172042900D3D1
:100700000672017A20F81170E571E670E5E70000E5
:10071000882F002008050050A83A03000070004010
:10072000F43F002070B50C46054600F0DBF90348A5
:10073000417829700078207070BD0000982F00204B
:1007400070B50546FFF756FB022804D34CA20121E1
:10075000002009F043FFFFF78BFF4E4C6078854384
:1007600009D0FFF747FB022803D34BA1002009F073
:1007700011FF012579E0012001F022FC4F494FF4DF
:100780008060086064200CF049F90020FFF78CFFBE
:10079000E0790028FCD000F0A5F9FFF7D9FD3D4D28
:1007A00040F6B8311035686888420AD2FFF722FB5C
:1007B000022804D342A100206A6809F0EBFE082554
:1007C00053E0FFF7C5FDA078042820D0F8B101213F
:1007D0000A200CF048FE0020FFF766FFE0790028B1
:1007E000FCD000F07FF90A200CF08CFE0A200CF0FF
:1007F00068FE6868642815D9FFF7FCFA022804D35C
:100800003AA100206A6809F0C5FE04252DE0FFF733
:10081000F1FA022804D3A2783BA1002009F0BAFE25
:10082000102522E00020FFF73FFFE0790028FCD0F0
:1008300000F058F9686840F2E341A0F6B830884209
:100840000AD3FFF7D7FA022804D338A100206A6838
:1008500009F0A0FE022508E0FFF7CCFA022803D336
:100860003BA1002009F096FE00250020FFF71CFFA9
:10087000E0790028FCD0FFF7E3FE284670BD0000B9
:100880005B4241545F544553545D3A205374617246
:10089000740D0000882F00205B4241545F54455383
:1008A000545D3A2043686172676572204E6F742010
:1008B00044657465637465640D00000008050050AC
:1008C0005B4241545F544553545D3A204368617222
:1008D00067652044697361626C6564205265616478
:1008E000696E673A2025303175200D005B42415416
:1008F0005F544553545D3A2025303175203E2031F8
:100900003030206D560D00005B4241545F5445531A
:10091000545D3A2042513235313230205265737085
:100920006F6E736520253031750D00005B424154B8
:100930005F544553545D3A204E6F726D616C205286
:10094000656164696E673A20253031750D000000DD
:100950005B4241545F544553545D3A205061737378
:1009600065640D0070B5002501F03EFB040009D060
:10097000FFF740FA022806D3224604A1002009F01E
:1009800009FE00E00125284670BD00005B4241548D
:100990005F534855544F46465D204572723A2025B4
:1009A0003031750D000000000020FFF77DBE2DE9FD
:1009B000F04393B00024064607949DF81C000D46B2
:1009C00020F00F00401C20F0F00010308DF81C00CB
:1009D000487C8DF81D009DF81E001C2120F00600AB
:1009E000801C8DF81E006846FBF78CFE9DF8000009
:1009F000019440F012008DF8000007A8CDE90440F2
:100A00000127069403948DF8427042F62020ADF839
:100A100040000D94A87C8DF83400E87C8DF83500FA
:100A20009DF83600142120F00600801C20F01900EB
:100A30008DF83600687B8DF8440008A8FBF762FE4D
:100A40000DF140080DF13409ADF8287011A8CDE979
:100A50000889ADF82A40ADF82C700C90B08806F1EA
:100A6000160308AA6946A2DF002838D1A86898B3FF
:100A70008DF8427042F60810ADF840000D94687D84
:100A80008DF834009DF8350020F0FF008DF835001A
:100A90009DF8360020F00600801C20F019008DF82B
:100AA00036000EA8A96801F0C8F80546142108A868
:100AB000FBF728FEADF828500EA8CDE90889ADF85F
:100AC0002A40ADF82C500C90F08A06F1260208A9B5
:100AD000A3DF002803D101E0FFE7F484002013B076
:100AE000BDE8F0832DE9FE4F8C4F0024F879F0B17A
:100AF000A14687F807908A484FF496724B46017AD0
:100B000030F91180874988FB0101FBF7B1FDC1175E
:100B100000EB9140861300D50026834830F814106E
:100B2000B14213DA641CE4B2CC2CF7D310E0FFF727
:100B300061F9022808D306F013FC00907BA37DA284
:100B40007EA1002009F026FDBDE8FE8F642C00D9AF
:100B5000642401F057FB0125B87003280AD002284D
:100B600008D001F03BFA7870B9780020042904D04D
:100B700019B103E07D70012000E0002687F809909C
:100B8000DFF89891652209F1100999F800100629FB
:100B90004DD2DFE801F0331C034C2D3B40F62821F9
:100BA0008E4202DC0324052545E040F6C5418E4215
:100BB00001DC00253FE008B101253CE0387A8442A1
:100BC00002D23C727D7200E00446022573E0397A5D
:100BD0008C4201D33A727D7240B1B878032801D0BB
:100BE000012568E064243A72042524E0022522E00D
:100BF00064243A720028F9D0042570E008B13C72F0
:100C0000DAE7042C06D80224002568E040F65A21D1
:100C10008E4201DD3C72E9E708B1642400E0032460
:100C2000387A844201D03C727D72052543E002256A
:100C30003C72A9423FD03878A0B1DFF8ECA0AAF10D
:100C4000420ADAF80800FFF78DF908B1FFF798F8C3
:100C50004FF420510022DAF80800FFF743F908B1F9
:100C6000FFF78EF8B879002850D0062D20D2DFE8A3
:100C700005F00306161F191C2B48323801E02A48DC
:100C80000A38F860FFF7B6F802283FD306F068FB91
:100C90000094CDE90180334631A1FA681BE0224877
:100CA0001638EEE720482738EBE71F482E38E8E7EC
:100CB0001D484238E5E7787A88B1B87930B3FFF754
:100CC00099F8022822D306F04BFB0094CDE901806D
:100CD000FA6833462EA1002009F05CFC16E0384883
:100CE00001683A79C1F3402191420FD00068C0F306
:100CF00040203871FFF77EF8032807D306F030FB59
:100D000003463A792FA1002009F044FC89F80050ED
:100D1000C9F8046089F8014016E70000882F002018
:100D2000F43F0020A0421D00EA3A03001B5B306D37
:100D3000000000001B5B313B33316D005B424154CE
:100D40005F5550444154455D2025734E6F204461EA
:100D500074612041766125732040253031750D0086
:100D60005B4241545F5550444154455D20533A2005
:100D7000257320253031756D562025303175252598
:100D80002025303175636E742040253031750D009B
:100D90005B4241545F5550444154455D20503A20D8
:100DA000257320253031756D562025303175252568
:100DB0002025303175636E742040253031750D006B
:100DC000100500505B4241545F5550444154455D0D
:100DD0003A20504720253031752040253031750D9F
:100DE00000000000F0B50C4693B01F210726ADF8B7
:100DF0000010ADF80410002750B1C17849070DD597
:100E00006A4602A9FEF748FE002808D102AD02E0BA
:100E10000025ADF800706CB1E07810B1304613B029
:100E2000F0BD01AA0AA92046FEF736FE0028F6D139
:100E30000AAA02E00022ADF80470BDF80400C3B2B3
:100E4000BDF80000C1B2284672DFE8E770B50D4674
:100E500004991646040040D0F6B34148002242717E
:100E6000C0E90331242231463E48FBF732FC00F052
:100E70007BF83C493431A1F11000016020318160E0
:100E800038215C38FBF73EFC364821783838017051
:100E9000A1788170E178C17061784170D4E9041261
:100EA000C0E90412D4E90212C0E90212D4E9061220
:100EB000C0E90612616AD1B100F1AC0100F1B802DB
:100EC00041628A60636A1B880B80616A436A898811
:100ED00099800021436A07E0FFE70E2070BD666A33
:100EE000B668765C5654491C9E888E42F7D8A16A33
:100EF000D9B11C4AAC32A2F10C018A608162A36AAA
:100F00009B888B80A16A836A098819800021836A83
:100F100004E0A66AB668765C5654491C9E888E42E8
:100F2000F7D894F82C1080F82C10216A49B10C499C
:100F300014310162226A52884A80216A026A098851
:100F40001180616821B10649891D41606168416075
:100F50002946BDE8704003483838FFF743BF00001A
:100F6000C0200020AC3B0020024800218161818329
:100F700081777047C02000202DE9F04F954C87B055
:100F8000607105F03DFB012748B1FEF733FF0328F0
:100F900003D391A1002009F0FDFA277016E1FEF7B6
:100FA00029FF032803D392A1002009F0F3FAFFF7E9
:100FB000DBFF9F4DDFF81C824FF0020A687808F1D2
:100FC00018084FF0030B002610B16079012806D0F5
:100FD000A87858B16079012801D002281FD1E168B2
:100FE00019B1E7700820884700E0E67060790128B1
:100FF00006D1687840B108F101000DF0C3FC18B1CA
:101000006079022802D00AE084F805A0A87820B10F
:1010100008F101000DF0B6FC08B984F805B0287B92
:101020004FF0040920B96079032801D184F80590B4
:10103000287E60B96079042809D166712671FEF7AF
:10104000D9FE032803D37BA1002009F0A3FAE168AD
:1010500041B16079032801D0042803D1287808B170
:101060006078C0B1A67018216846FBF74BFB8DF87D
:10107000006001968DF808600396607901280ED013
:1010800002281ED06A4E2436A6F15C0703282DD014
:1010900004286FD155E0A77007208847E3E7FEF7E3
:1010A000A9FE032803D36EA1002009F073FAADF85E
:1010B0001260CDF804808DF80070ADF810602771D3
:1010C00058E0FEF797FE032803D365A1002009F03E
:1010D00061FACDF804808DF800702889ADF812000F
:1010E000A888ADF8100084F804A043E0A88AADF801
:1010F0001200288AADF810004D48243012F02EF965
:1011000018B1287808B1607838B184F804B0FEF7D7
:1011100071FE03282ED35CA129E045488DF808A074
:10112000039687F8039000213838FFF75BFE00280C
:101130004DD105202071FEF75DFE03281AD35CA176
:1011400015E0A88BADF81000288CADF812003848D7
:10115000243012F003F918B1287808B16078A8B1EA
:1011600084F80490FEF746FE032803D35DA1002017
:1011700009F010FA6079E8B1684673DF002826D1DB
:10118000FEF738FE03281DD360A118E028488DF82B
:1011900008A0039687F8039000213838FFF722FE55
:1011A000002814D106202071FEF724FE0328E1D385
:1011B0005EA1DCE7FEF71EFE022803D368A1002033
:1011C00009F0E8F9E16809B120798847002007B003
:1011D000BDE8F08FC02000200A5B4144565D3A20F4
:1011E000424C4148484848212121210D000000007F
:1011F0005B4144565D3A206E6F20666C61736820D7
:101200006F7065726174696F6E7320696E207072A1
:101210006F67726573732C207072657061726520E0
:101220006164766572746973696E672E0D000000E3
:10123000AC3B0020626C655F6164766572746973B3
:10124000696E675F737461727420424C455F4144FC
:10125000565F4D4F44455F49444C450D000000002A
:101260005B4144565D3A205374617274696E672025
:10127000646972656374206164766572746973650C
:101280006D656E742E0D00005B4144565D3A20532F
:1012900074617274696E672066617374206164762C
:1012A0006572746973656D656E742E0D00000000C3
:1012B0005B4144565D3A205374617274696E6720D5
:1012C00066617374206164766572746973656D65B7
:1012D0006E7420776974682077686974656C6973C7
:1012E000742E0D005B4144565D3A20537461727454
:1012F000696E6720736C6F772061647665727469BC
:1013000073656D656E742E0D00000000626C655F84
:101310006164766572746973696E675F7374617214
:101320007420657865637574650D00005B414456F3
:101330005D3A205374617274696E6720736C6F77C5
:10134000206164766572746973656D656E7420776B
:101350006974682077686974656C6973742E0D0010
:10136000626C655F6164766572746973696E675FEC
:101370007374617274206E6F742065786563757420
:1013800065640D0073B586B004469DF81C1094F892
:10139000282000208A4229D0002501260095ADF89A
:1013A000006007A8ADF80250019084F82810E18988
:1013B000608D6A46A4DF002818D1608DA0F57F41BA
:1013C000FF3915D00295039504950595E089ADF890
:1013D0000800BDF80200ADF80C0001988DF80A6015
:1013E000CDF810D00590608D02A9A6DF08B070BDC1
:1013F0000820FBE773B586B004469DF81C1094F8EE
:10140000292000208A4229D0002501260095ADF828
:10141000006007A8ADF80250019084F82910E18A15
:10142000608D6A46A4DF002818D1608DA0F57F4149
:10143000FF3915D00295039504950595E08AADF81E
:101440000800BDF80200ADF80C0001988DF80A60A4
:10145000CDF810D00590608D02A9A6DF08B070BD50
:101460000820FBE738B50446086820604FF6FF7097
:101470006085FF2084F8280084F8290088692063AB
:1014800001208DF8020041F60F000D46ADF8000076
:10149000221D69460120A0DF002809D129462046E7
:1014A000FFF740F8002803D129462046FFF77FFACE
:1014B00038BD0A88102A05D0112A05D0502A06D135
:1014C0000CF060BA898801E04FF6FF7141857047E2
:1014D00070B51B4D1B482979FFF754FF040043F2F8
:1014E000014611D0082C0FD0B4420DD0287B40B15A
:1014F000FEF780FC022804D3224613A1002009F045
:1015000049F82046FEF73CFCA9780E48FFF772FF29
:10151000040013D0082C11D0B4420FD0287B40B166
:10152000FEF768FC022804D3224607A1002009F038
:1015300031F82046BDE87040FEF722BC70BD0000C7
:10154000E81F0020FC3300205B4241535F555044AC
:101550004154455D3A206661696C656420253031EF
:10156000750D000070B5054601461C220F48FBF7BB
:10157000B0F80F4C00262670286830B10168616011
:101580004068A060201D7ADF02E00948001D7BDF73
:1015900000280AD14FF6FF7060806670BDE8704089
:1015A000044A00210448FEF735BC70BD983C002079
:1015B000E0200020AD3103009836030070B51E4CCA
:1015C000068800251B49E289102E15D01B4B112ED1
:1015D0001CD0122E29D0502E17D130F8061F914260
:1015E00013D14189022910D1007B10F0010F11D0D5
:1015F000BDE8704002F0B4B883884B808369CB604B
:10160000C06908614D70002AF2D070BD4FF6FF70BE
:1016100048804D701868FEF7A5FC0028F5D0A16938
:101620000029F2D0BDE8704008478268CA60C068EF
:101630000861DDE7E0200020983C00209836030098
:101640007CB5054608880C460930904201D90C202B
:101650007CBD684671DF0028FAD1218808206854D3
:1016600020881B21401C80B2208029542088401CE7
:1016700080B220802844DDF801100160BDF805101B
:1016800081802088801D80B220809DF8001001B1EB
:10169000012129542088401C208000207CBD0000AE
:1016A0007FB5044601208DF8060041F60A00ADF82A
:1016B0000400454A01A90120A0DF00287ED122882C
:1016C00004F13C0552B140482B46801C009042F684
:1016D0002920616801F0DAFA002873D1228952B119
:1016E00039482B460A30009042F62420E16801F088
:1016F000CDFA002866D1228A52B133482B461230E7
:10170000009042F62520616901F0C0FA002859D105
:10171000228B52B12C482B461A30009042F62720DB
:10172000E16901F0B3FA00284CD1228C52B126486D
:101730002B462230009042F62620616A01F0A6FA7C
:1017400000283FD1228D52B11F482B462A300090ED
:1017500042F62820E16A01F099FA002832D1216B83
:1017600071B102A810F016FC17482B4632300090D9
:10177000082202A942F6232001F088FA002821D18C
:10178000606B58B110492B463A31009102790168DB
:1017900042F62A2001F07AFA002813D1A16B81B118
:1017A00002A80DF047F908482B4642300090072266
:1017B00002A942F6502001F069FA00E002E0002898
:1017C00000D1002004B070BDF420002010B5044604
:1017D0000F48007B40B1FEF70DFB032804D322889D
:1017E0000CA1002008F0D6FE204602F087FE21461C
:1017F0000F4800F051F80E4821461C30FFF759FE03
:101800002046FFF7DBFE2046BDE810400CF000B894
:10181000E81F00205B424C455F4556545F444953E6
:1018200050415443485D203078253032580D000037
:10183000E033002030B5174B0D4604000FCB85B0C8
:101840008DE80F0023D015B34FF6FF70A0822868F3
:10185000A0610020A0752146684663DF002814D1EE
:1018600020788DF812000120ADF81000A21C04A908
:10187000A0DF002809D1294620460DF0BDFD002833
:1018800003D12946204610F0C1FF05B030BD0E201F
:10189000FBE700009C36030010B5040029D00029A6
:1018A00027D00888102817D0112817D0502820D109
:1018B00031F8062F238A20469A4202D14B89022B07
:1018C00018D083889A4214D18369002B11D04A8999
:1018D000BDE810400C311847888809E0FEF78AFA05
:1018E000022803D307A1002008F054FE4FF6FF7032
:1018F000A08210BD097B11F0010100D00121A1756A
:1019000010BD0000626C655F6E75735F6F6E5F6225
:101910006C655F65767420424C455F4741505F457A
:1019200056545F444953434F4E4E45435445440D2E
:101930000000000007B584B068B1828AA2F57F4339
:10194000FF3B0AD0827D42B1BDF81820142A06D987
:10195000072007B000BD0E20FBE70820F9E70022B2
:1019600000920192029203928289039106A9029148
:10197000ADF8002001218DF80210808A6946A6DFAB
:10198000E7E700002DE9F04F784C85B0002560783E
:1019900000B9A572754EA17A4FF00108143659B3FB
:1019A000DFF8CC914FF0030A4FF0050B06F1080762
:1019B00001292AD002294AD0032920D0A572A07873
:1019C00070B1207A3F280BD214226946002008F01B
:1019D000EDFD002804DDC2B2694615200DF066FB5E
:1019E00000F06EF9002804D1A5706570357084F898
:1019F0000A8005B0BDE8F08F357018B9DFE7207AAE
:101A00000628DCD284F80A80D9E701F0CDFF00284F
:101A1000D5D10BF0F1FF0028D1D099F8000040B1EA
:101A2000FEF7E8F9032804D352A20121002008F0B0
:101A3000D5FD3078012802D007F0B8FB41E005F071
:101A40008FFC386084F80BB00220A072B7E74848DA
:101A500032780178454890F90B003AB1012A33D029
:101A6000022A4FD0032A71D03570A8E700280CDC79
:101A700041B1FEF7BFF9022804D346A2012100209C
:101A800008F0ACFD65703570BCE701F08DFF0028F3
:101A900095D10BF0B1FF002891D005F061FC3860C2
:101AA00099F8000050B1FEF7A5F9032806D305F018
:101AB00057FC02463FA1002008F06CFD3078012859
:101AC0009CD084F80AA07AE77868002896D005F0C0
