:020000040001F9
:10C00000D0A300207DC5010085C501001DCE010023
:10C0100089C501008BC501008DC50100000000002D
:10C020000000000000000000000000008FC50100BB
:10C03000000000000000000091C5010093C5010050
:10C0400095C5010095C50100E9D5010041D3010066
:10C0500095C5010095C50100D5CC010005CF0100B3
:10C0600095C5010095C5010095C5010095C5010064
:10C0700095C5010095C5010095C5010095C5010054
:10C08000EDD50100E1CE010095C5010095C5010087
:10C0900051D3010095C5010055D3010095C501009C
:10C0A00095C5010095C5010095C5010095C5010024
:10C0B00095C5010095C501000000000000000000CA
:10C0C00095C5010095C5010095C5010095C5010004
:10C0D00095C5010095C501000000000000000000AA
:10C0E0000000000000000000000000000000000050
:10C0F0000000000000000000000000000000000040
:10C10000000000000000000000000000000000002F
:10C11000000000000000000000000000000000001F
:10C40000DFF80CD000F018FC00480047F15F020094
:10C41000D0A30020401E00BF00BF00BF00BF00BF70
:10C4200000BF00BF00BF00BF00BF00BF00BF00BF14
:10C4300000BF00BF00BF00BF00BF00BF00BF00BF04
:10C4400000BF00BF00BF00BF00BF00BF00BF00BFF4
:10C4500000BF00BF00BF00BF00BF00BF00BF00BFE4
:10C4600000BF00BF00BF00BF00BF00BF00BF00BFD4
:10C4700000BF00BF00BF00BF00BF00BF00BF00BFC4
:10C4800000BF00BF00BFC5D170470000401E00BF05
:10C4900000BF00BF00BF00BF00BF00BF00BF00BFA4
:10C4A00000BF00BF00BF00BF00BF00BF00BF00BF94
:10C4B00000BF00BF00BF00BF00BF00BF00BF00BF84
:10C4C00000BF00BF00BF00BF00BF00BF00BF00BF74
:10C4D00000BF00BF00BF00BF00BF00BF00BF00BF64
:10C4E00000BF00BF00BF00BF00BF00BF00BF00BF54
:10C4F00000BF00BF00BF00BF00BF00BF00BFC5D16D
:10C5000070470000401E00BF00BF00BF00BF00BF5B
:10C5100000BF00BF00BF00BF00BF00BF00BF00BF23
:10C5200000BF00BF00BF00BF00BF00BF00BF00BF13
:10C5300000BF00BF00BF00BF00BF00BF00BF00BF03
:10C5400000BF00BF00BF00BF00BF00BF00BF00BFF3
:10C5500000BF00BF00BF00BF00BF00BF00BF00BFE3
:10C5600000BF00BF00BF00BF00BF00BF00BF00BFD3
:10C5700000BF00BF00BFC5D170470000064880471C
:10C5800006480047FEE7FEE7FEE7FEE7FEE7FEE7B8
:10C59000FEE7FEE7FEE7000079D3010001C40100D9
:10C5A0002DE9F0410024061B254671F1000605DA4D
:10C5B00001240027D0EB070067EB0101161E73F181
:10C5C000000605DA0027D2EB0702012567EB03031B
:10C5D00000F073FA86460E4617469C46AC4204D0DD
:10C5E0000025D0EB050E65EB010624B10020D2EB4F
:10C5F000000760EB030C704631463A466346BDE8DF
:10C60000F08140EA01039B0703D009E008C9121F2B
:10C6100008C0042AFAD203E011F8013B00F8013BFC
:10C62000521EF9D27047D2B201E000F8012B491E28
:10C63000FBD270470022F6E710B513460A460446BF
:10C640001946FFF7F0FF204610BD421C10F8011BF1
:10C650000029FBD1801A704730B5044600200346FC
:10C6600000E05B1C934203D2E05CCD5C401BF8D041
:10C6700030BD034611F8012B00F8012B002AF9D137
:10C68000184670472DE9FE4F804681EA0300C00F2F
:10C690000C46009021F0004123F00045B8EB020069
:10C6A000A94105D24046214690461C460B4602460B
:10C6B00023F00040104347D0270DC7F30A00C3F30F
:10C6C0000A510290401A019040286BDAC3F313001C
:10C6D00040F4801B0098924620B10023D2EB030A5D
:10C6E00063EB0B0B01985946C0F14002504600F035
:10C6F00015FA06460D4650465946019A00F02DFAA5
:10C7000010EB08006141002487EA115284EAE773C4
:10C710001A4340D0009A62B3019A012A4FEA0752A5
:10C7200015DC001B61EB02014FF0004202EA0752E8
:10C73000CDE90042001C41F5801132462B4600F045
:10C740002DFA03B0BDE8F08F40462146F9E7001B03
:10C7500061EB0201001C41F5801300185B412018B9
:10C76000A2F5001747EB030140EAD570B6196D41F9
:10C7700011E06D084FEA360645EAC0754FEA0752E8
:10C78000001B61EB0201001C41F5801149084FEAD2
:10C7900030000019514132462B4603B0BDE8F04F3E
:10C7A00000F0EDB90098012240000023D0EB020216
:10C7B00063EBE073009821464FEAE074B8EB0000A9
:10C7C00061EB0401E9E783F000435BE781F000419E
:10C7D00058E72DE9FE4F81EA030404F0004421F0FC
:10C7E000004100944FF0000B23F0004350EA010495
:10C7F0005ED052EA03045BD0C3F30A54C1F30A5576
:10C800002C44A4F2F3340194A0FB0254C1F31301AD
:10C8100041F48011C3F3130343F4801301FB02447A
:10C8200000FB034E840A970A44EA815447EA83577F
:10C83000A4FB076802958D0A05FB07854FEA932C38
:10C8400004FB0C542705029D4FEA065847EA1637A9
:10C85000B5EB08056EEB070C870E920E47EA8117C1
:10C8600042EA8312A7FB0201B6EB0B0164EB000462
:10C870002B0D43EA0C335E1844EB1C50DA4651464C
:10C88000E7FB0201C5F313044FEA0B3343EA1453E9
:10C890004FEA0432019C43EA0603A4F10C0402941B
:10C8A000009CCDE900B400F079F903B0BDE8F08F49
:10C8B00000200146F9E72DE9F04D81EA030404F078
:10C8C000004B21F0004514464FF0000A23F00041D0
:10C8D00050EA050220D054EA01021DD0C5F30A57E0
:10C8E0000246C5F31303C1F31300C1F30A5640F423
:10C8F000801543F48013A7EB0608101BD64608F2F8
:10C90000FD3873EB050002D308F1010801E092182D
:10C910005B41B8F1000F03DA00200146BDE8F08D5D
:10C9200000204FF48011064684460EE0171B73EB7F
:10C93000050705D3121B63EB050306434CEA010C04
:10C9400049084FEA300092185B4150EA0107EDD1E7
:10C9500052EA030012D082EA040083EA0501084388
:10C9600005D0101BAB4106D20122002306E00022B5
:10C970004FF0004302E06FF0010253101AEB060083
:10C980004CEB085110EB0A0041EB0B01BDE8F04DF8
:10C9900000F0F5B80EB540F2334102910021CDE927
:10C9A00000110A460B4600F0F9F803B000BD70B55F
:10C9B000C1F30A5201F000450024C1F3130140F213
:10C9C000FF3341F480119A4201DA002070BD40F239
:10C9D00033439A42A2F2334203DC524200F0ADF8F4
:10C9E00000E090402C43F1D0404270BDC1F30A52A8
:10C9F00010B5C1F3130140F2FF3341F480119A42A4
:10CA000001DA002010BD40F233439A42A2F23342D1
:10CA100003DC524200F091F810BD904010BD70B59B
:10CA2000C1F30A5201F000450024C1F3130140F2A2
:10CA3000FF3341F480119A4202DA0020014670BDB2
:10CA400040F233439A42A2F2334203DC524200F0F6
:10CA500074F801E000F062F82C43F0D00023D0EB32
:10CA6000030063EB010170BD00F0004230F00040B4
:10CA70000AD0C10D01F56071C0F3160042EA015100
:10CA8000C20840071143704700200146704730B587
:10CA90000B46014600202022012409E021FA02F57C
:10CAA0009D4205D303FA02F5491B04FA02F5284416
:10CAB000151EA2F10102F1DC30BD2DE9F05F054643
:10CAC000002092469B4688460646814640241BE04D
:10CAD000284641464746224600F02FF853465A461C
:10CAE000C01A914110D311461846224600F016F89C
:10CAF0002D1A67EB01084F4622460120002100F065
:10CB00000DF817EB00094E41201EA4F10104DFDCF3
:10CB1000484631462A464346BDE8F09F202A04DBBA
:10CB2000203A00FA02F1002070479140C2F1200340
:10CB300020FA03F3194390407047202A04DB203A7F
:10CB400021FA02F00021704721FA02F3D040C2F12D
:10CB500020029140084319467047202A06DBCB1774
:10CB6000203A41FA02F043EAE07306E041FA02F3A8
:10CB7000D040C2F12002914008431946704710B5D9
:10CB8000141E73F1000408DA401C41F100019218F0
:10CB90005B411A4301D120F0010010BD2DE9F04D99
:10CBA00092469B4611B1B1FA81F202E0B0FA80F2EE
:10CBB00020329046FFF7B2FF04460F4640EA0A00D3
:10CBC00041EA0B0153465A46084313D0114653EA33
:10CBD000010019D0C8F140025046FFF7AEFF0546EC
:10CBE0000E46504659464246FFF798FF084305D087
:10CBF000012004E020463946BDE8F08D00200543C1
:10CC000046EAE0762C4337430A986305E40AA0EB32
:10CC100008000022FD0A44EA47540A3002D50020E9
:10CC20000146E9E7010510196941DDE908450019E8
:10CC30006941BDE8F04DA2E7064C074D06E0E0680B
:10CC400040F0010394E8070098471034AC42F6D353
:10CC5000FFF7DAFBD4BE0200F4BE02000EB5C10F2E
:10CC600080EAE0700844CA07002140F233438DE8AF
:10CC70000E000A460B46FFF791FF03B000BD70B5EA
:10CC80008C1810F8015B15F0070301D110F8013B77
:10CC90002A1106D110F8012B03E010F8016B01F8FE
:10CCA000016B5B1EF9D12B0705D40023521E0DD456
:10CCB00001F8013BFAE710F8013BCB1A921C03E0A4
:10CCC00013F8015B01F8015B521EF9D5A142D8D3DC
:10CCD000002070BD2DE9FC5F0025DFF83491A846E7
:10CCE0004FF4807601242F4630460AF0B3FC38B169
:10CCF000D9F80403204203D030460AF0A1FC2543B2
:10CD0000361D64007F1CB6B2082FEDD34FF4BE74FD
:10CD100020460AF09FFC38B120460AF091FC3D48BD
:10CD200045F00045D0F800803B4E15F0FF0F14D0C1
:10CD3000012700242F420CD009EB8401D1F8100503
:10CD4000D1F81015C0F3042056F82420C1F3014196
:10CD500090477F00641C082CECD3002D56DA00208D
:10CD60000190401E4CE0701910F8501F90F900001F
:10CD700021F0C004401C38D0012000FA04FA1AEA5D
:10CD8000090F32D04FEA911B204603F035FD56F8CB
:10CD90002000009010B9BBF1030F26D15146BBF122
:10CDA000030F02D1019808430190A00000F1A040B8
:10CDB000D0F800071AEA080FC0F3014002D0022899
:10CDC00002D012E0032810D1BBF1030F07D10228D3
:10CDD0001AD0022120460AF001FC7F1CFFB2009805
:10CDE00018B1009A5946204690476D1C042DBAD3BD
:10CDF000002F0BD007480068404507D080460198B7
:10CE0000002781463D46AEE70321E3E7BDE8FC9FEE
:10CE10000060004010050050E0330020EFF3088070
:10CE200082690448007B18B103A1002008F0C0F912
:10CE3000FEE70000E81F002048617264204661752B
:10CE40006C7420617420616464726573733A20307D
:10CE500078253038780D0A0000F01F02012191403A
:10CE60004009800000F1E020C0F88012704700F017
:10CE70001F02012191404009800000F1E020C0F82C
:10CE80000011704700F01F0201219140400980000D
:10CE900000F1E020C0F8001270474907090E002891
:10CEA00006DA00F00F0000F1E02080F8141D704752
:10CEB00000F1E02080F8001470470000BFF34F8FAE
:10CEC00005480168054A01F4E06111430160BFF3C0
:10CED0004F8F00BFFDE700000CED00E00400FA05F5
:10CEE00007480021C0F84011C0F84411C0F84811AB
:10CEF000C0F84C11C0F80011C0F804110DF07EBB51
:10CF0000001001402DE9FE434FF482700AF0ECFB63
:10CF10000025DFF84C91534C012700286ED0524871
:10CF20004E46056094F82900012818D06089401CFD
:10CF3000608160892189814224D18DF80050606828
:10CF400001902089ADF8080084F82750E06810B1FE
:10CF5000A18A0AF0ABF82168684688474EE08DF850
:10CF600000506068019041480068ADF80800E06832
:10CF700028B16060A08A2081E5603760EBE784F823
:10CF80002750E8E7002294F8280011460AF0A2FB97
:10CF90006189606800EB410001210AF063FB94F8AD
:10CFA000280010E004EB4001897D61B1C1B204EBBF
:10CFB0004101CA7D897D0AF08DFB37602848001D3C
:10CFC0000760BDE8FE83401C84F82800C0B2082832
:10CFD000E8D3002004EB4001897D11B184F82800DA
:10CFE00003E0401CC0B20828F4D394F8280004EBF6
:10CFF0004001CA7D897D0AF06DFB37604FF48A706D
:10D000000AF072FB28B118481030056084F82750E8
:10D01000D7E7A04626691FE0B6FA86F04FF0004138
:10D02000C1408E434FF48C7101EB800420460AF01E
:10D030005BFB88B144F80950A4F58C74E0088DF8C6
:10D04000040044F38000401C8DF800708DF805004A
:10D05000D8F8001068468847002EDDD1B1E70000FF
:10D060000070004090390020047100403476004088
:10D070002DE9F047114F0446DDF8209038781D4621
:10D080001646884608B900F0C5FA7869A04211D959
:10D090000A4904EB440001EBC00134B1C1F84880F7
:10D0A000C1E913650020886548650020C1F85C90DF
:10D0B000BDE8F0874FF0FF30FAE70000303E002077
:10D0C0002DE9F047114F0446DDF8209038781D46D1
:10D0D0001646884608B900F09DFA3869A04211D971
:10D0E0000A4904EB440001EBC00134B1C1F81880D7
:10D0F000C1E907650020886248620020C1F82C90D1
:10D10000BDE8F0874FF0FF30FAE70000303E002026
:10D1100070B5074B0646144618780D4608B900F05E
:10D1200079FA224629463046BDE8704000F002B840
:10D13000303E002070B50E46144900EB400001EB74
:10D14000C0051446E86A183520B101280FD002281E
:10D1500005D113E0284600F091FAA04201D2002444
:10D1600011E022463146284600F0AEFB0BE028468F
:10D1700000F084FAA042F4D20446F2E73146284691
:10D1800000F075FB0446204670BD0000303E0020D4
:10D1900070B505460C460846FFF757FA0246214689
:10D1A0002846BDE87040FFF7B3BF2DE9F04198B0C5
:10D1B000064607A8029040200025CDE90305CDE9E9
:10D1C000055690460C4614F8011B002973D02529FA
:10D1D00008D002A800F02CFB05980028F3DA18B05C
:10D1E000BDE8F08100200122217823291ED02B29BF
:10D1F00019D02D2902D0302908D102E040F00100D9
:10D2000001E040F00200641C002AEDD100222178E8
:10D21000A1F130030A2B0CD202EB820201EB420295
:10D22000303A641CF3E740F00400ECE740F00800FB
:10D23000E9E70023CFB22E2F0BD114F8011FA1F183
:10D2400030070A2F05D203EB830301EB4303303B86
:10D25000F3E76C290DD068290BD0702954D00BDC72
:10D26000252916D0582931D063290CD0642913D12F
:10D2700014E014F8011BECE7732934D075291BD096
:10D28000782909D122E0D8F80000011DC8F8001063
:10D29000017802A800F0CCFA641C9DE7D8F80010D1
:10D2A0000F1DC8F800700968CDE900200A2202A805
:10D2B00000F0F0F9F0E733E0D8F800100F1DC8F8DF
:10D2C00000700968CDE900200A2208E0D8F80010B3
:10D2D0000F1DC8F800700968CDE90020102202A8CF
:10D2E00000F03CFAD8E7D8F80000011DC8F800109B
:10D2F000076817F8011B0029CED002A800F098FAA1
:10D3000005980028F5DAC7E7D8F80000011DC8F82D
:10D31000001001680820CDE9000503461022DEE771
:10D32000059800287FF75BAF049820B1024607A953
:10D330003046FFF7EDFEDDE90410084405904EE7A6
:10D340000149024806F0C4BE3834002000300040D5
:10D350000DF0F0B8074810B5406830B1804700289C
:10D3600007D0BDE8104001F02BBDBDE8104006F02D
:10D3700079BE10BD142100202DE9F0419148002212
:10D38000041D0378211D081D0125062B17D12678C1
:10D39000360714D10E78C6F30316032E03D107788F
:10D3A00017F0F00F0ED0042E03D1077817F0F00F0E
:10D3B00008D0052E03D1067816F0F00F02D0062B08
:10D3C00009D014E04FF08056D6F844627E4FC6F381
:10D3D00042363E6002E02678360708D10E78C6F362
:10D3E0000316032E03D1067816F0F00F02D0062B99
:10D3F00006D01DE0754E376827F0807737601AE059
:10D400002678360714D10E78C6F30316032E03D1FF
:10D41000077817F0F00F0ED0042E03D1077817F01D
:10D42000F00F08D0052E03D1067816F0F00F02D0C9
:10D43000062B0AD015E04FF08046C6F80C21C6F83E
:10D440001021614E361F326002E02678360708D17F
:10D450000E78C6F30316032E03D1067816F0F00FEC
:10D4600002D0062B05D066E0574C032364342360BA
:10D4700002E023781B075ED10978C1F30311052967
:10D4800059D1007810F0F00F55D15148006851493A
:10D4900008604F48001D0068091D08604C480830AE
:10D4A0000068091D08604A480C300068091D0860C2
:10D4B000474810300068091D08604548143000686E
:10D4C000091D086042481830006842492031086050
:10D4D0003F481C300068091D08603D482030006846
:10D4E000091D08603A4824300068091D0860384862
:10D4F00028300068091D086035482C300068091D77
:10D5000008603348303000683249403108603048A4
:10D5100034300068091D08602D4838300068091D46
:10D5200008602B483C300068091D086028484030DE
:10D530000068091D086025487438016841F47001CD
:10D540000160BFF34F8FBFF36F8F4FF01021D1F801
:10D550000C02214BC407214811D01D600468002C27
:10D56000FCD0D1F80C4224F00104C1F80C4201684F
:10D570000029FCD01A6001680029FCD01AE0D1F81B
:10D580000042002C03DBD1F80442002C14DA1D60A9
:10D590000468002CFCD01524C1F800420568002D59
:10D5A000FCD0C1F8044201680029FCD01A6001686F
:10D5B0000029FCD0FFF782FC0A4909480860BDE851
:10D5C000F0810000E00F00F03C050040FCED00E0C1
:10D5D0000404001020C5004004E5014000E40140BF
:10D5E0000090D003A82E00200DF078BA0648D0F89D
:10D5F000040310F0010F4FF0000004D0034908604D
:10D6000003484068004770470000014000010140A6
:10D61000E420002010B5124C02202061606111A0AE
:10D62000A061A4F58260E0614FF480602062002078
:10D63000A06260620BA1A164E062A4F11001E16448
:10D6400010212165A0656065E06509A1E01DFFF777
:10D6500010F808A12046FFF70CF82020A07110BD9B
:10D66000303E00205465726D696E616C00000000F0
:10D670005254540053454747455200000269C1685F
:10D680008A4203D88068401A104400E0501A401EB5
:10D69000704700002DE9FC5F0E008146DDE90C4774
:10D6A000C6F1000098469346824600D408460125FC
:10D6B00003E000BF90FBFBF06D1C5845FADAA8456B
:10D6C00000D9454624B1002E01DB780700D5641E41
:10D6D000B80702D5B8F1000F0FD0F8070DD164B12B
:10D6E000A5420AD220214846641E00F0A1F8D9F8CC
:10D6F0000C000028F3DABDE8FC9FD9F80C000028E4
:10D70000F9DB002E02DA56462D2102E0780707D514
:10D710002B21484600F08CF8D9F80C000028EADBF1
:10D7200007F0030002280FD1B8F1000F0CD15CB153
:10D73000A54209D230214846641E00F079F8D9F894
:10D740000C000028F3DAD6E7CDE9004743465A46F5
:10D750003146484600F002F8CDE700002DE9F84FC9
:10D760008246DDE90A4B0126984691460D46084659
:10D77000374602E0B0FBF9F07F1C4845FAD2B845C5
:10D7800000D947465FEACB7017D1B4B15FEA8B701E
:10D7900002D5B8F1000F02D0202000900BE030201D
:10D7A000FBE75046641E009900F042F8DAF80C00DE
:10D7B000002838DB0CB1A742F3D3DAF80C000028BC
:10D7C00031DB00BFB8F1010F02D9A8F1010803E075
:10D7D000B5FBF6F0484502D306FB09F6F2E7DFF8A1
:10D7E0004C8000BFB5FBF6F000FB165518F8001092
:10D7F000504600F01DF8DAF80C00002803DBB6FBF9
:10D80000F9F6002EEED15FEACB700CD0002C0AD0D6
:10D81000A74208D220215046641E00F009F8DAF829
:10D820000C000028F2DABDE8F88F000003B802000F
:10D8300010B50446D4E90130421C934205D3236855
:10D840001954A260E068401CE060D4E90102824201
:10D8500009D121682069FFF75BFCA168884203D0E9
:10D860004FF0FF30E06010BD0020A06010BD2DE93A
:10D87000F047C4681746894606464FF000083069ED
:10D88000A04201D9051B02E0B168201A0D1AB06848
:10D890006D1E001BA84200D80546BD4200D33D4680
:10D8A00070682A4620444946FEF7ABFEB0687F1BED
:10D8B0002C44A844A944A04200D10024F460002FC5
:10D8C000DDD14046BDE8F0872DE9F041C668044649
:10D8D000174688468068851B6068BD4206D930447B
:10D8E000FEF78FFEF019E060BDE8F0812A46304473
:10D8F000FEF787FE7E1B08EB050132466068FEF7E7
:10D9000080FEE660F0E700000FB4084B10B504A9F4
:10D9100002AA039800F0FEFE044602A9002000F0CF
:10D92000A3FF204610BC5DF814FB000069E801006D
:10D9300003B401984100009850EAC12018BF0420A8
:10D940004A0D18BF40F0010040F2FF72B2EB515F88
:10D9500008BF40F00200012808BF052002B0704750
:10D9600010B52F499FED2C1B2DED020B84B00598AF
:10D9700020F000408842D8BF9DED040B2DDD2949E1
:10D98000884209D1049840B94FF0010000F0BCFE74
:10D9900000F08AFE06B010BD05DB9DED040B00F023
:10D9A00077FE06B010BD68469DED040B00F0E0F870
:10D9B00010F0030004BF9DED021B9DED000B0CD089
:10D9C00001280ED09DED021B9DED000B022817D003
:10D9D000012000F01DFC06B010BD00F0E5FA06B015
:10D9E00010BD9DED021B9DED000B012000F010FC11
:10D9F00051EC100B81F0004106B041EC100B10BD52
:10DA000000F0D2FA51EC100B81F0004106B041EC6D
:10DA1000100B10BD0000000000000000000000001E
:10DA2000FB21E93F0000F07F10B52F499FED2C1B33
:10DA30002DED020B84B0059820F000408842DCBF39
:10DA400000209DED040B32DD2849884209D104985D
:10DA500040B94FF0010000F057FE00F025FE06B07F
:10DA600010BD05DB9DED040B00F012FE06B010BDED
:10DA700068469DED040B00F07BF810F0030011D018
:10DA8000012818D09DED021B9DED000B02281AD035
:10DA900000F08AFA51EC100B81F0004106B041EC25
:10DAA000100B10BD9DED021B9DED000B012000F041
:10DAB000AFFB06B010BD9DED021B9DED000B00F00D
:10DAC00073FA06B010BD012000F0A2FB51EC100B60
:10DAD00081F0004106B041EC100B10BD00000000C9
:10DAE0000000000000000000FB21E93F0000F07F83
:10DAF00010B51D499FED1A1B2DED020B84B0059842
:10DB000020F000408842DCBF01209DED040B21DDA8
:10DB10001649884209D1049840B94FF0010000F03D
:10DB2000F3FD00F0C1FD06B010BD05DB9DED040B5B
:10DB300000F0AEFD06B010BD68469DED040B00F090
:10DB400017F800F001000121A1EB40009DED021B40
:10DB50009DED000B00F0F4FB06B010BD00000000CE
:10DB60000000000000000000FB21E93F0000F07F02
:10DB70002DE9F14F04462DED020B2DED088B8AB0F7
:10DB80009FEDE70B80ED020B139EE74826F0004562
:10DB900085420ADC9DED120B002084ED000B0AB0DB
:10DBA000BDEC088B03B0BDE8F08FE0489FEDE0AB23
:10DBB0009FEDE1BBA84247DDE14F9FEDE39B9FED69
:10DBC000E48B9DED120B53EC1A2B51EC100B002E35
:10DBD0001CDDFEF7F8FD41EC100BBD4208D053EC04
:10DBE0001B2B51EC100BFEF7EEFDC4E900010BE01E
:10DBF00053EC192B51EC100BFEF7E5FD53EC182BF1
:10DC0000FEF7E1FDC4E900010120C8E7FEF73AFD97
:10DC100041EC100BBD4208D053EC1B2B51EC100B08
:10DC2000FEF730FDC4E900010BE053EC192B51EC79
:10DC3000100BFEF727FD53EC182BFEF723FDC4E96C
:10DC400000014FF0FF30AAE7C348A84279DB9DED01
:10DC5000120B51EC100B04F0C3FF41EC180B9FEDBD
:10DC6000C00B53EC102BFEF7B4FD9FEDBF1B53EC24
:10DC7000112BFEF707FDFEF79AFE0746FEF7EEFFB3
:10DC800041EC190B53EC1A2BFEF7A3FD53EC182BA8
:10DC9000FEF79CFD41EC180B53EC1B2B51EC190BC0
:10DCA000FEF797FDDFF8C8A241EC100B4FEA1558BC
:10DCB0000125FA4453EC102B51EC180BFEF783FDB1
:10DCC000032DC4E900013DD0C1F30A5005EB451115
:10DCD000A8EB00001139814234DA0AEB051BB0EEE3
:10DCE00048AA9BED000BF0EE68AA53EC102B51EC08
:10DCF000190BFEF76EFD41EC1B0B51EC1A0B53ECAC
:10DD00001B2BFEF760FD41EC180B51EC1A0B53EC8A
:10DD1000182BFEF758FD53EC1B2BFEF754FD9BED23
:10DD2000020B41EC1A0B53EC102B51EC190BFEF7C4
:10DD300050FD53EC1A2BFEF746FD41EC100B6D1C09
:10DD4000B8E70EE0002EA8BF3846BFF628AF94ED26
:10DD5000000B51EC100B81F00041C4E90001784246
:10DD60001DE7C6F3130040F4801EC6F30A50A0F26C
:10DD7000F530471100F01F05C5F12000DDF848B06F
:10DD800008900020069007900520EC467949002D68
:10DD900007EB0002794408BF51F8221009D051F86E
:10DDA000223001EB8201AB404A68089922FA01F166
:10DDB0001943A1FB0E26A1FB0B131A449A4234BF50
:10DDC0000123002303EB06080CEB8003D3E901A633
:10DDD0000E448E4234BF0121002192448A4411B185
:10DDE000924502D903E0924501D2012100E00021D1
:10DDF000C3E901A641444CF82010011EA0F1010026
:10DE0000C4DC029800F10050850F0298DDE9036739
:10DE10008000DDF81480FEF721FF41EC1A0B30463C
:10DE2000FEF7B8FD9FED541B53EC112BFEF7D1FC10
:10DE300041EC1B0B3846FEF7ADFD9FED511B53EC3B
:10DE4000112BFEF7C6FC41EC180B4046FEF7A2FD75
:10DE50009FED4D1B53EC112BFEF7BBFC41EC190B56
:10DE600051EC180B53EC192BFEF70CFC53EC1B2B4D
:10DE7000FEF708FC53EC1A2BFEF704FCCDE9080171
:10DE8000002008909DED080B53EC1A2B51EC100B61
:10DE9000FEF799FC53EC1B2BFEF795FC53EC182B6B
:10DEA000FEF791FC53EC192BFEF790FC9FED381B0D
:10DEB00053EC112BFEF78DFC9FED370B41EC180B4B
:10DEC00053EC102B9DED080B51EC100BFEF781FC71
:10DED00053EC182BFEF7D6FB9FED310B41EC180BE2
:10DEE00053EC102B9DED080B51EC100BFEF771FC61
:10DEF00053EC182BFEF7C6FB41EC100B139810F0F7
:10DF0000004F06D06D4251EC100B81F0004141EC06
:10DF1000100B284684ED000B41E6000000000000D5
:10DF20000000000000000000FB21E93F7CD9024016
:10DF300000004054FB21F93F3163621A61B4D03DC7
:10DF4000FB21F93F000000000000601A61B4D03DE1
:10DF50007370032E8A19A33BFB2139410000000096
:10DF600083C8C96D305FE43F000000000000E03F5F
:10DF70005ADD0000A8DC0000000000000000103E98
:10DF8000000000000000103C000000000000103AFB
:10DF9000182D4454FB21F93D3326A611460B113CA4
:10DFA00000000054FB21F93D10B52DED040B2DEDC3
:10DFB000088B82B0B0EE419AF0EE619A0B9820F097
:10DFC00000449FED4BABB4F1795F11DA9DED0A0B84
:10DFD00051EC100BFEF7EBFC002801BFB0EE4A0A33
:10DFE000F0EE6A0A02B0BDEC088B04BF04B010BDAD
:10DFF0009DED0A0B53EC102B51EC100BFEF7E9FBD7
:10E0000041EC180B3C480621B0EE480AF0EE680AD5
:10E01000784400F081F853EC182B51EC100BFEF70C
:10E02000D8FB9DED0A0B41EC1B0B53EC192B51EC6B
:10E03000100BFEF7CEFB41EC190B53EC1B2B51ECF4
:10E04000180BFEF7C6FB53EC192BFEF7BCFB9FED3C
:10E050002C0B41EC190B53EC102B51EC180BFEF769
:10E06000B8FB41EC100B2848844210DA53EC192B12
:10E0700051EC100BFEF7A7FB53EC1A2BFEF7A6FB97
:10E0800041EC100B02B0BDEC088B04B010BD1F4872
:10E09000A042BCBF9FED1E1B8DED001B06DBA4F54F
:10E0A00000100190002000909DED001B51EC100B22
:10E0B00053EC112BFEF787FB9DED000B41EC180B89
:10E0C00053EC102B51EC1A0BFEF77DFB41EC1A0BB5
:10E0D00053EC192B51EC180BFEF775FB53EC1A2B74
:10E0E000FEF774FB41EC100BCCE7000000000000D1
:10E0F000000000000000F03FCCD90000000000004C
:10E10000000000000000E03F3333D33F0000E93F50
:10E11000000000000000D23F70B504462DED028BD8
:10E120004D1E00EBC500B0EE408AF0EE608A90ED27
:10E13000000B35F0060017D053EC182B51EC100BE8
:10E14000FEF747FB41EC100B6D1E04EBC50090ED94
:10E15000001B51EC100B53EC112BFEF793FA41EC22
:10E16000100B35F00600E7D1022D36D0042D1CD05F
:10E17000062D1CBFBDEC028B70BD53EC182B51EC6F
:10E18000100BFEF726FB94ED0A1B53EC112BFEF748
:10E1900079FA53EC182BFEF71CFB94ED081B53EC9B
:10E1A000112BFEF76FFA41EC100B53EC182B51ECCE
:10E1B000100BFEF70EFB94ED061B53EC112BFEF734
:10E1C00061FA53EC182BFEF704FB94ED040B53ECAF
:10E1D000102BFEF757FA41EC100B53EC182B51ECB7
:10E1E000100BFEF7F6FA94ED021B53EC112BFEF721
:10E1F00049FA53EC182BFEF7ECFA94ED001B53ECA4
:10E20000112BFEF73FFABDEC028B41EC100B70BDF9
:10E2100031B504462DED040B2DED0A8BB0EE41BA5D
:10E22000F0EE61BA0B989DED0A0B20F00040B0F1C2
:10E23000795F0DDA51EC100BFFF77AFB042808BF69
:10E2400000F042FA9DED0A0BBDEC0A8B05B030BD23
:10E2500053EC102B51EC100BFEF7BBFA41EC180BF2
:10E260009DED0A0B53EC182B51EC100BFEF7B1FA95
:10E2700041EC190B2C48B0EE480AF0EE680A052173
:10E280007844FFF749FF9FED2ACBB0EE40AAF0EEAD
:10E2900060AA9CB353EC1C2B51EC190BFEF799FAB6
:10E2A00041EC1C0B53EC1A2B51EC190BFEF791FAB5
:10E2B0009FED210B41EC190B53EC102B51EC1B0B78
:10E2C000FEF787FA53EC192BFEF77DFA53EC182B67
:10E2D000FEF77FFA53EC1B2BFEF775FA53EC1C2B61
:10E2E000FEF771FA9DED0A1B53EC112BFEF76EFA47
:10E2F000BDEC0A8B05B041EC100B30BDFFE753ECD1
:10E300001A2B51EC180BFEF764FA53EC1C2BFEF79A
:10E31000B9F953EC192BFEF75CFA9DED0A1B53EC8F
:10E32000112BFEF7AFF9E3E754D80000000000001E
:10E33000495555555555C5BF000000000000E03F48
:10E34000F1B506462DED040BBD482DED0C8B8AB0C2
:10E35000B0EE418AF0EE618A179D25F000449FEDF2
:10E36000BABB9FEDBBCB844208DA9DED160B51EC96
:10E37000100BFEF71CFB002800F0E980B64FA74207
:10E3800031DC002D0DDA9DED160B51EC100B81F0F8
:10E390000041CDE9160151EC180B81F0004141EC30
:10E3A000180B9FEDAF0B53EC102B9DED160B51ECA2
:10E3B000100BFEF70BFA53EC182B9FEDAB0BCDE9CE
:10E3C000040151EC100BFEF7FEF941EC100B53EC7D
:10E3D000102B9DED040B51EC100BFEF753F99FED44
:10E3E000A48BCDE916019DED160B53EC102B51ECCF
:10E3F000100BFEF7EEF9CDE904019DED040B53EC93
:10E40000102B51EC100BFEF7E4F941EC190B9A4874
:10E410000621B0EE490AF0EE690A7844FFF77CFE67
:10E420009648B0EE40DAF0EE60DAB0EE490AF0EE6F
:10E43000690A06217844FFF76FFE9DED041B51EC3D
:10E44000100B53EC112BFEF7C4F99DED040B41ECBE
:10E450001A0B53EC102B9DED160B51EC100BFEF725
:10E46000B8F941EC190B53EC1A2B51EC1D0BFEF7CC
:10E4700009F953EC192BFEF7ACF953EC182BFEF706
:10E4800001F99DED041B53EC112BFEF7A2F953EC9F
:10E49000182BFEF7F7F841EC180B9FED790B51ECB8
:10E4A000190B53EC102BFEF794F953EC182BFEF7D5
:10E4B000E9F841EC190B9DED160B53EC192B51ECBF
:10E4C000100BFEF7DFF841EC180BA74269DC304671
:10E4D000FEF7C4FB41EC1A0B51EC180B53EC1A2B52
:10E4E000FEF7D0F841EC1B0B53EC182B51EC180B3A
:10E4F000FEF76FF953EC1B2BFEF7DDF953EC192BEC
:10E50000FEF761F99DED161B53EC112BFEF75EF93A
:10E510009FED5D1B53EC112BFEF75BF953EC1A2BAF
:10E52000FEF754F941EC180B022000EAA570C0F187
:10E530000100FEF793FB53EC182BFEF74AF900BFDE
:10E5400041EC100B0AB0BDEC0C8B05B0F0BD711C9A
:10E550001698214308430CD09DED160B012E1CBFCD
:10E5600053EC102B51EC1C0B10D000BFFEF7A3F99D
:10E57000E6E79DED160B51EC100B04F031FB41EC7E
:10E58000100B51EC1B0B53EC102BEFE751EC100B65
:10E59000FFF7CEF9042808BF00F096F89DED160BA2
:10E5A000D0E7012E04BFB0EE480AF0EE680AC9D0E9
:10E5B0008DED048B002404949DED040B53EC102B83
:10E5C0009DED160B51EC100BFEF700F953EC192BD7
:10E5D000FEF7FCF841EC190B53EC182B51EC1C0B1B
:10E5E000FEF769F941EC180B8DED008B00949DED61
:10E5F000040B53EC102B9DED000B51EC100BFEF7B0
:10E60000E8F853EC1B2BFEF73DF89DED000B41ECB9
:10E610001A0B53EC192B51EC100BFEF7DAF853ECF4
:10E620001A2BFEF72FF853EC182BFEF7D2F89DEDBE
:10E63000001B53EC112BFEF725F881E700000000CA
:10E640000000303E00000000000000000000F03F2D
:10E65000000000000000F0BF2894E53F000000002B
:10E66000182D4454FB21E93F075C143326A6813C56
:10E670000000000000000000E2D60000F8D6000014
:10E68000635555555555D53F00000000000000402A
:10E6900010B553EC102B51EC100BFDF7F3FF41ECD0
:10E6A000100B10BD000000009FED050B10B553ECE2
:10E6B000102B51EC100BFEF7FEF841EC100B10BDC7
:10E6C00000000000000000009FED050B10B553ECAA
:10E6D000102B51EC100BFEF77CF841EC100B10BD29
:10E6E000000000000000001002E008C8121F08C16E
:10E6F000002AFAD170477047002001E001C1121FC3
:10E70000002AFBD1704700000149086070470000F3
:10E71000B42E00202DE9FF4F89B09B46044600250A
:10E7200006E025280BD05A460B999047641C6D1CB7
:10E7300020780028F5D10DB02846BDE8F08F0027DD
:10E74000B8460122474900E0074314F8013F203B47
:10E7500002FA03F00842F7D120782E2819D114F8D4
:10E76000010F47F004072A280ED06FF02F022078FF
:10E77000A0F1300109290CD808EB880102EB410116
:10E7800000EB0108641CF2E70A98641C50F8048B43
:10E790000A9020780028CED0642808D0692806D0B6
:10E7A00075281ED05A460B9990476D1C58E00A995F
:10E7B0004FF00A0901C90A91002802DA40422D21CE
:10E7C00002E0390504D52B218DF82010012103E04A
:10E7D000F90704D02021F7E78A4608AE0DE00021B2
:10E7E000FAE70A994FF00A0901C90A91F7E7494681
:10E7F000FEF74DF9303106F8011D0028F7D1ADEBD9
:10E80000060000F12009780701D44FF00108C8453F
:10E8100002DDA8EB090000E000208046002706E0AA
:10E8200008A85A46C05D0B9990476D1C7F1C574540
:10E83000F6DB04E030205A460B9990476D1CB8F186
:10E840000001A8F10108F5DC05E016F8010B5A46B5
:10E850000B9990476D1CB9F10001A9F10109F4DC95
:10E86000641C65E7092801000A68531C0B601070DE
:10E87000704700000149C86070470000282100204F
:10E880002DE9FC470D46044604F04CFE0146A27FEC
:10E890000020012A02D1A077AA79A2832A78002A2F
:10E8A0006DD0E28902B9A1626988A278B1FBF2F168
:10E8B00011F0FF0600D101268246E07750E0E07FAC
:10E8C000401CC0B2E077B04245D1002784F81FA0B9
:10E8D0003B463A46B946B4F91C00394612E000BF3F
:10E8E00005EBC00C401EBCF9078000F07F004744D8
:10E8F000BCF90980491C4344BCF90B804244BCF874
:10E900000D80C144B142EBDB97FBF6F1A88841438F
:10E91000608B91FBF0F1ADF8001093FBF6F1AB8842
:10E92000594391FBF0F0ADF8020092FBF6F0A98894
:10E930004843618B90FBF1F0ADF8040099FBF6F0D1
:10E94000A9884843618B90FBF1F0ADF80600694659
:10E9500020460AF0EAFA207F401C00F07F00A083E6
:10E96000A979207F081A00F07F00B04205D3E08922
:10E97000217C0844B0F5FA7FA1D9BDE8FC87A979CC
:10E98000A183E081F9E700002DE9F041044604F09D
:10E99000C9FDE168227C00270978DFF8C8800825D6
:10E9A00004268A4251D1D4E900120A44824202D29A
:10E9B0002260616131E0814251D9206098F8000005
:10E9C00000284CD028A1002006F0F2FB47E000BF51
:10E9D00005EBC0001258D4E9000303449A4203D364
:10E9E00060616168084417E0824203D3012927D19E
:10E9F000208923E098F8000018B11EA1002006F03D
:10EA0000D7FBB4F9080000280DDD20686061217C87
:10EA1000E06805EBC10140582060208920832781F0
:10EA20000120BDE8F081227CE16805EBC20306EB22
:10EA3000C202CB582360895C012901D1401C20818E
:10EA4000207C401C00F01F002074207CE26806EB54
:10EA5000C001515C022902D013789842B8D100203D
:10EA6000DFE70000F41F0020437572696F75733F84
:10EA70000D000000437572696F7573657220262062
:10EA8000437572696F757365723F3F3F0D000000FB
:10EA900010B50F4C0188A27904EBC202A2F807104E
:10EAA000A279418804EBC202A2F80910A1798088FA
:10EAB00004EBC101A1F80B00A07904EBC000C01D5C
:10EAC00001F09CFDA079401C00F07F00A07110BDFA
:10EAD0007821002010B50F4C0188A27904EBC20206
:10EAE000A2F80710A279418804EBC202A2F809102B
:10EAF000A179808804EBC101A1F80B00A07904EB97
:10EB0000C000C01D01F07AFDA079401C00F07F001C
:10EB1000A07110BD802500202DE9FC5F002516881E
:10EB200007461580406B14468946A8464FF00C0AEC
:10EB300011234FF0020B98B101784846032E48D3B9
:10EB400080F800B02288521C92B22280835422881E
:10EB5000521C92B2228009F802102088401C2080AA
:10EB60003A6BDAB12088494600F11205B54230D837
:10EB70000B5420881023401C80B220800B54208826
:10EB8000401C20800F202388155C401ECD54238814
:10EB900040B25B1C23800028F5DA454697F82E002A
:10EBA00030B133462246494605F08EFB050011D1AF
:10EBB00097F82D0030B132462146484601F082F9DF
:10EBC000050007D1B87820B32088C846001DB042A0
:10EBD00002D95046BDE8FC9F684679DF0028F9D18C
:10EBE0002188032008F8010020881921401C80B2E8
:10EBF000208008F800102088401C80B2208000EBA4
:10EC00000801BDF800000BF0EDFF01462088084424
:10EC10002080F878B8B1228897F90310D31C4846B1
:10EC2000B342D6D800F802B022880123521C92B217
:10EC3000228083542288521C92B2228009F802104A
:10EC40002088401C20807868B8B1218890F9002085
:10EC5000CB1C4846B342BCD800F801B021880A2337
:10EC6000491C89B2218043542188491C89B22180E2
:10EC700009F801202088401C2080388950B1CDE956
:10EC800000464B460622022107F108000CF071F9FC
:10EC900005009FD1388A50B1CDE900464B46072286
:10ECA000032107F110000CF064F9050092D1388BB4
:10ECB00050B1CDE900464B461522142107F118004A
:10ECC0000CF057F9050085D1386A30B13346224639
:10ECD000494602F0F9F90500DBD1786A30B13346D4
:10ECE0002246494607F024FD0500D2D197F82C00B2
:10ECF00038B133462246494638460AF027FB05001C
:10ED0000C7D1387838B1334622464946384607F0ED
:10ED10007BFF0500BDD128465CE7000010B598B028
:10ED2000382101A8FDF786FC02208DF8040001249B
:10ED30008DF8064006208DF807000320ADF814007A
:10ED40001248069024210FA8FDF774FC00204021F2
:10ED50001391B4218DF83C008DF848004FF44872AF
:10ED60008DF83D00CDE916218DF83E0014910090FC
:10ED700001468DF85440064B0FAA01A800F0C8FDCB
:10ED8000002801D000F01CF818B010BD10200020A1
:10ED9000ED77020010B510469268002A05D003886E
:10EDA00002A1002006F004FA00BF10BD45727220D7
:10EDB000253032753A206C2D253031750D0000005C
:10EDC0000EB500210091CDE901106A4644F2010020
:10EDD000FFF7E0FF0EBD00002DE9F04107460848AF
:10EDE00016460D460A78046806A1002006F0E0F9F0
:10EDF000324629463846A446BDE8F0416047000047
:10EE0000BC3300205B444D5D3A204E6F74696679D7
:10EE1000696E6720417070206F66206576656E743C
:10EE2000203078253032580D0A00000038B50C46E5
:10EE3000074BE268097803EB02121568054A526A2B
:10EE40000092024604F10C006369A84738BD000037
:10EE500070350020B4200020074910B50A7802EB75
:10EE6000420201EBC201091DFFF7E0FFBDE81040BF
:10EE700004200AF085BD00007C340020074B9B680D
:10EE800023B12AB120B10068037C1BB10820704770
:10EE9000072070474174426100207047F020002035
:10EEA0002DE9F0478046994614460F4690074FF0EB
:10EEB000000634D11C4D8CB309F072FF0320C5F855
:10EEC0001490287004F11800002107EB4703AC6090
:10EED00004EBC102491C167056709770506000EB2D
:10EEE000C3000329F4DBEE606E70AE701420FDF7F2
:10EEF000B3FF06211420FDF7D0FF1420FDF7B7FF64
:10EF00000A49C1F8008006211120FDF7C6FF074815
:10EF1000001F006828610020BDE8F08701E007209D
:10EF2000FAE7AE60FBE70000F02000200815014082
:10EF30002DE9F843DFF870900D461746D9F8081010
:10EF4000044651B34CB3052D02D20720BDE8F88327
:10EF5000606910B3607C012821D000260BF0D6FF39
:10EF6000D9F80810804601EBC80069460BF0EDFFA8
:10EF7000B8B1012100F8041B0C4910C0096880E8F1
:10EF8000E200D9F8081001EBC8009DF800104170AC
:10EF90001420FDF777FF0020D8E70820D6E72E469B
:10EFA000DCE70420D2E70000F02000200415014037
:10EFB000F8B5124E0446B168E1B1DCB16069C8B180
:10EFC000002727740BF0A2FF0546B068694600EBE6
:10EFD000C5000BF0BAFF78B1022101704460B0683F
:10EFE0009DF8001000EBC50041701420FDF74AFFAA
:10EFF0003846F8BD0820F8BD0420F8BDF0200020F8
:10F00000F8B5104DA868C0B10BF080FF0446A868A1
:10F01000694600EBC4000BF098FF80B1032101703A
:10F0200000264660A8689DF8001000EBC4004170FF
:10F030001420FDF727FF3046F8BD0820F8BD042056
:10F04000F8BD0000F020002070B50D4606460AA16C
:10F05000002006F0ADF8002405E0325D07A1002095
:10F0600006F0A6F8641CAC42F7D3BDE8704002A1DC
:10F07000002006F09DB800000D0A00003078253011
:10F080003258200006F06AB830B5EFF3108172B63E
:10F090000D4A9468012324B10370002900D162B69F
:10F0A00030BD93604FF0E023D3F88051074C2540EA
:10F0B0001560C3F88041D3F8844154605A17C3F8EF
:10F0C000842100220270E8E7C4420020FC06FFBC55
:10F0D0000B498A68002A11D000280FD1EFF3108065
:10F0E00072B60B684FF0E022C2F800314B68C2F8EC
:10F0F000043100228A60002800D162B67047000007
:10F10000C44200200349084201D101207047002079
:10F110007047000000C0F0FF70B5174C054620791D
:10F1200020B116A20121002006F04DF82A7872B114
:10F13000207918B115A1002006F03AF820790028AE
:10F1400019D0BDE8704013A1002006F031B8124973
:10F15000087A401CC0B20872042801D3002008724B
:10F1600068680A7A008821F812000C4A012081029E
:10F1700011606071E2E770BD902E00206261745FE3
:10F1800063616C6C6261636B3A20000025303175FD
:10F19000000000000D000000C46300200C050050BA
:10F1A0000148407870470000902E00200148808977
:10F1B00080B27047902E002070B5374D86B004465F
:10F1C0002971287948B135A20121002005F0FBFF03
:10F1D00036A20121002005F0F6FF2C610024092051
:10F1E0000094234622462146019408F0C0F9304994
:10F1F0004FF48060086001220A2000940023114629
:10F20000019408F0B4F907F045FF08B1FFF7D8FD05
:10F210002148C01C07F0CEFE08B1FFF7D1FDE87809
:10F2200007F0FEFE23480026D0E90112CDE90212C4
:10F2300000680490204904A807F0F2FF08B1FFF726
:10F24000BFFD02A9304607F0A5FF08B1FFF7B8FDE2
:10F250001A48D0F8181541F08071C0F818150E48FA
:10F260000121083007F022FF08B1FFF7A9FD0220B5
:10F27000A87100F0B9F96C612879002809D010A2B2
:10F280000121002005F09FFF08A20121002005F0C8
:10F290009AFF06B070BD0000902E00206261745F7E
:10F2A000696E69743A207374617274000D00000015
:10F2B0000C05005008B9020019F10100007000406F
:10F2C0006261745F696E69743A20646F6E650000F4
:10F2D0000148407970470000902E002005498A7847
:10F2E0002AB100228A7049780170012070470020FD
:10F2F00070470000902E00202DE9F04391B00E469B
:10F30000054600241C2105A8FDF794F99DF814007A
:10F31000089440F016008DF81400012706948DF82B
:10F32000367042F6192009940A940B94ADF8340013
:10F330000C94F07B8DF83000307C8DF831009DF816
:10F340003200142120F00600801C20F019008DF8F6
:10F350003200307B8DF83C006846FDF76BF90DF10B
:10F3600034080DF13009ADF808700FA8CDE9008917
:10F37000ADF80A40ADF80C700490A88805F10E03B2
:10F380006A4605A9A2DF002838D1B06898B38DF885
:10F39000367042F60810ADF834000C94307D8DF8CC
:10F3A00030009DF8310020F0FF008DF831009DF80D
:10F3B000320020F00600801C20F019008DF8320089
:10F3C00010A8B16800F007FF064614216846FDF753
:10F3D00031F9ADF8086010A8CDE90089ADF80A4010
:10F3E000ADF80C600490E88905F126026946A3DFB8
:10F3F000002803D101E0FFE7EC84002011B0BDE854
:10F40000F083000070B52749A1F1080000F096F9DB
:10F41000244C103C207B98B1237AA07B83420FD0F0
:10F42000A373E26920A1002005F0C2FE207C012820
:10F4300032D0022832D026A20121002005F0C3FEDE
:10F44000217A264800F02AFC050043F201460DD03F
:10F45000082D0BD0B54209D0207B20B12A4620A12F
:10F46000002005F0A5FE2846FFF7AAFC217C1B48DA
:10F4700000F04CFC050013D0082D11D0B5420FD080
:10F48000207B20B12A461EA1002005F091FE2846CF
:10F49000BDE87040FFF794BC22A2CDE724A2CBE7E1
:10F4A00070BD0000F81F00206261745F6C657665B6
:10F4B0006C5F7570646174653A2040253031752049
:10F4C0006C6576656C3D253031752C2000000000A0
:10F4D000434841524745440D00000000443100209C
:10F4E0006261745F6C6576656C5F7570646174658C
:10F4F0003A206661696C656420253031750D000025
:10F50000626174746572795F73746174655F75703C
:10F51000646174653A206661696C656420253031E8
:10F52000750D00004348415247494E470D00000009
:10F530004449534348415247494E470D000000009B
:10F540000C4810B500214171007948B10AA201218F
:10F55000002005F038FE0EA20121002005F033FE48
:10F560000C4A0120810211600B490860091D0860E6
:10F5700010BD0000902E00206261745F74696D659B
:10F580005F68616E646C65723A20737461727400B6
:10F590000D000000080500500070004070B5114CCF
:10F5A0000546207800281BD02069FFF701FD08B12F
:10F5B000FFF706FC4FF40041012D07D0022D05D0C6
:10F5C000042D03D000224FF4203100E000222069F6
:10F5D000FFF7AEFC002803D0BDE87040FFF7F0BB9A
:10F5E00070BD0000902E00200449012008700449DD
:10F5F000002008720220FFF7D1BF0000902E0020EB
:10F60000C46300202DE9F04393B00024064607941C
:10F610009DF81C000D4620F00F00401C20F0F0006B
:10F6200010308DF81C00487C8DF81D009DF81E00E0
:10F630001C2120F00600801C8DF81E006846FCF797
:10F64000F9FF9DF80000019440F012008DF80000D1
:10F6500007A8CDE904400127069403948DF8427071
:10F6600042F62020ADF840000D94A87C8DF83400BF
:10F67000E87C8DF835009DF83600142120F0060056
:10F68000801C20F019008DF83600687B8DF844004E
:10F6900008A8FCF7CFFF0DF140080DF13409ADF8D3
:10F6A000287011A8CDE90889ADF82A40ADF82C7072
:10F6B0000C90B08806F1160308AA6946A2DF00285C
:10F6C00038D1A86898B38DF8427042F60810ADF8AA
:10F6D00040000D94687D8DF834009DF8350020F0D1
:10F6E000FF008DF835009DF8360020F00600801CE4
:10F6F00020F019008DF836000EA8A96800F06BFD07
:10F700000546142108A8FCF795FFADF828500EA86F
:10F71000CDE90889ADF82A40ADF82C500C90F08A5C
:10F7200006F1260208A9A3DF002803D101E0FFE7C4
:10F73000F484002013B0BDE8F08300002DE9FF4100
:10F740003B4A137A32F813204FF4965303925A43EC
:10F75000920B0292374A5769012664240025012F33
:10F7600007D0354B022F0AD0032F19D054700094C4
:10F7700001E00094967053695B1C536127E000968A
:10F78000009FDDF808C033F81770674504D2009F6A
:10F790007F1C0097642FF3DB53695B1C53610DE002
:10F7A0005778009704E0009F7F1E0097002F0ADD26
:10F7B00033F81770DDF808C06745F4D8009B642B58
:10F7C00001DD009403E0009B002B00DA0095029B12
:10F7D00041F29A07BB420CD9184B1B68C3F3402374
:10F7E0000193012B03D00123047055610CE0042325
:10F7F000FAE75478009BA34201DA5370967053786D
:10F800000370009888B102230B7093710298D06046
:10F8100055711079002806D00193DDE9023208A164
:10F82000002005F0C5FCBDE8FF810023ECE70000E7
:10F83000C4630020902E002014B90200100500506F
:10F840006261745F7374617475735F6C6576656C07
:10F850003A202530317520636E742C2025303175A7
:10F8600020766F6C74732C2025303175206C6566A2
:10F87000742C20253031752073746174650D00007F
:10F8800010B5074CE07807F0E5FB07F045FD0549AA
:10F89000002008602069BDE81040FFF789BB000028
:10F8A000902E002000750040F0B50C4693B01F214B
:10F8B0000726ADF80010ADF80410002750B1C1784C
:10F8C00049070DD56A4602A9FFF726F9002808D195
:10F8D00002AD02E00025ADF800706CB1E07810B127
:10F8E000304613B0F0BD01AA0AA92046FFF714F96B
:10F8F0000028F6D10AAA02E00022ADF80470BDF893
:10F900000400C3B2BDF80000C1B2284672DFE8E7C8
:10F9100070B50D4604991646040040D0F6B3414830
:10F9200000224271C0E90331242231463E48FCF7EF
:10F9300068FE00F0BBF83C493431A1F110000160D1
:10F940002031816038215C38FCF774FE364821781C
:10F9500038380170A1788170E178C17061784170A8
:10F96000D4E90412C0E90412D4E90212C0E9021277
:10F97000D4E90612C0E90612616AD1B100F1AC0106
:10F9800000F1B80241628A60636A1B880B80616A79
:10F99000436A898899800021436A07E0FFE70E20C7
:10F9A00070BD666AB668765C5654491C9E888E4265
:10F9B000F7D8A16AD9B11C4AAC32A2F10C018A6015
:10F9C0008162A36A9B888B80A16A836A09881980F7
:10F9D0000021836A04E0A66AB668765C5654491C26
:10F9E0009E888E42F7D894F82C1080F82C10216A4B
:10F9F00049B10C4914310162226A52884A80216A55
:10FA0000026A09881180616821B10649891D416037
:10FA1000616841602946BDE8704003483838FFF707
:10FA200043BF00001C200020B031002010B5028828
:10FA30001D4C102A18D00021112A1BD01B2A18D1C6
:10FA4000007A002815D16079012820D0022824D01E
:10FA5000032824D004280CD12171E2680846002A2A
:10FA600007D0BDE810401047817D012901D1808871
:10FA7000208110BD6170808821898842F9D10120E0
:10FA800006E021690029F4D0BDE8104008470220B3
:10FA900000F014F80028F4D110BD0320F8E703208B
:10FAA00020710420F4E700001C20002002480021FF
:10FAB00081618183817770471C2000202DE9F04F00
:10FAC000744C87B00026607106A8069608F0CAFD3F
:10FAD0000127082801D030B903E006A803F038F95F
:10FAE00018B9069808B12770C0E0FFF7DFFF6A4D2C
:10FAF000DFF8A0814FF0020A687808F118084FF08B
:10FB0000030B10B16079012806D0A87858B160794C
:10FB1000012801D002281FD1E16819B1E77008203F
:10FB2000884700E0E6706079012806D1687840B126
:10FB300008F1010008F02AFC18B16079022802D00F
:10FB40000AE084F805A0A87820B108F1010008F0C7
:10FB50001DFC08B984F805B0287B4FF0040920B9D2
:10FB60006079032801D184F80590287E20B9607956
:10FB7000042801D166712671E16841B160790328DA
:10FB800001D0042803D1287808B16078C0B1A670EC
:10FB900018216846FCF74EFD8DF8006001968DF83F
:10FBA00008600396607901280ED0022816D03A4EDC
:10FBB0002436A6F15C0703281DD004284CD13AE076
:10FBC000A77007208847E3E7ADF81260CDF80480FE
:10FBD0008DF80070ADF8106027713FE0CDF804801B
:10FBE0008DF800702889ADF81200A888ADF81000D3
:10FBF00084F804A032E0A88AADF81200288AADF893
:10FC00001000254824300BF01BFA18B1287808B1F1
:10FC1000607810B184F804B01EE01F488DF808A089
:10FC2000039687F8039000213838FFF73DFE00283F
:10FC30001DD105202BE0A88BADF81000288CADF865
:10FC40001200154824300BF0FBF918B1287808B1E0
:10FC5000607878B184F80490607918B1684673DFF1
:10FC6000002804D1E16809B120798847002007B055
:10FC7000BDE8F08F08488DF808A0039687F8039038
:10FC800000213838FFF710FE0028F0D1062020713F
:10FC9000E2E700001C200020B031002073B586B0E0
:10FCA00004469DF81C1094F8282000208A4229D090
:10FCB000002501260095ADF8006007A8ADF80250B8
:10FCC000019084F82810E189608D6A46A4DF00283D
:10FCD00018D1608DA0F57F41FF3915D002950395AD
:10FCE00004950595E089ADF80800BDF80200ADF86F
:10FCF0000C0001988DF80A60CDF810D00590608D49
:10FD000002A9A6DF08B070BD0820FBE773B586B076
:10FD100004469DF81C1094F8292000208A4229D01E
:10FD2000002501260095ADF8006007A8ADF8025047
:10FD3000019084F82910E18A608D6A46A4DF0028CA
:10FD400018D1608DA0F57F41FF3915D0029503953C
:10FD500004950595E08AADF80800BDF80200ADF8FD
:10FD60000C0001988DF80A60CDF810D00590608DD8
:10FD700002A9A6DF08B070BD0820FBE738B504462D
:10FD8000086820604FF6FF706085FF2084F8280027
:10FD900084F829008869206301208DF8020041F66B
:10FDA0000F000D46ADF80000221D69460120A0DFBE
:10FDB000002809D129462046FFF79EFA002803D1E2
:10FDC00029462046FFF71EFC38BD0A88102A05D0B8
:10FDD000112A05D0502A06D107F0ECBD898801E030
:10FDE0004FF6FF714185704770B5054601461C22EC
:10FDF0000F48FCF706FC0F4C00262670286830B12F
:10FE0000016861604068A060201D7ADF02E0094857
:10FE1000001D7BDF00280AD14FF6FF7060806670FE
:10FE2000BDE87040044A00210448FFF727B870BDC0
:10FE30009C3200203C200020ADAE020078B70200CA
:10FE400070B51E4C068800251B49E289102E15D07E
:10FE50001B4B112E1CD0122E29D0502E17D130F84A
:10FE6000061F914213D14189022910D1007B10F065
:10FE7000010F11D0BDE8704001F06CB983884B8050
:10FE80008369CB60C06908614D70002AF2D070BDF3
:10FE90004FF6FF7048804D701868FFF789F800280A
:10FEA000F5D0A1690029F2D0BDE87040084782680A
:10FEB000CA60C0680861DDE73C2000209C32002059
:10FEC00078B702007CB5054608880C460930904298
:10FED00001D90C207CBD684671DF0028FAD1218849
:10FEE0000820685420881B21401C80B2208029549F
:10FEF0002088401C80B220802844DDF80110016079
:10FF0000BDF8051081802088801D80B220809DF87A
:10FF1000001001B1012129542088401C20800020BC
:10FF20007CBD00007FB5044601208DF8060041F637
:10FF30000A00ADF80400454A01A90120A0DF00280D
:10FF40007ED1228804F13C0552B140482B46801CEA
:10FF5000009042F62920616800F056FC002873D119
:10FF6000228952B139482B460A30009042F62420AB
:10FF7000E16800F049FC002866D1228A52B133487A
:10FF80002B461230009042F62520616900F03CFCBF
:10FF9000002859D1228B52B12C482B461A300090A0
:10FFA00042F62720E16900F02FFC00284CD1228C7A
:10FFB00052B126482B462230009042F62620616A34
:10FFC00000F022FC00283FD1228D52B11F482B4661
:10FFD0002A30009042F62820E16A00F015FC002843
:10FFE00032D1216B71B102A80AF062FA17482B4690
:10FFF00032300090082202A942F6232000F004FCCF
:020000040002F8
:10000000002821D1606B58B110492B463A3100913C
:100010000279016842F62A2000F0F6FB002813D18D
:10002000A16B81B102A808F005FA08482B464230BE
:100030000090072202A942F6502000F0E5FB00E004
:1000400002E0002800D1002004B070BD5020002044
:1000500070B5124D0446287B20B1228810A10020E3
:1000600005F0A6F8204601F0D3FD2146134800F024
:1000700059F8124821461C30FFF7A7FE2046FFF72B
:10008000DFFE2088012801D100206870204607F09B
:10009000D7FB2046BDE87040FFF7C8BCE81F002032
:1000A000426C65204576742044697370617463689E
:1000B000203078253032580D000000002831002013
:1000C00030B5174B0D4604000FCB85B08DE80F00FF
:1000D00023D015B34FF6FF70A0822868A0610020DE
:1000E000A0752146684663DF002814D120788DF87A
:1000F00012000120ADF81000A21C04A9A0DF002806
:1001000009D12946204608F081FE002803D129465E
:1001100020460AF081FC05B030BD0E20FBE7000050
:100120007CB7020000281ED000291CD00A88102AA3
:1001300014D0112A14D0502A15D131F8062F038A71
:100140009A4202D14B89022B0ED083889A420AD15F
:100150008369002B07D04A890C311847898801E050
:100160004FF6FF7181827047097B11F0010100D0C9
:1001700001218175704707B584B068B1828AA2F504
:100180007F43FF3B0AD0827D42B1BDF81820142A7C
:1001900006D9072007B000BD0E20FBE70820F9E7CD
:1001A000002200920192029203928289039106A991
:1001B0000291ADF8002001218DF80210808A694675
:1001C000A6DFE7E770B504460D460846FCF73DFAA2
:1001D0002080656070BD0A78027049784170022005
:1001E0007047000000B5184887B00023C06805902C
:1001F0004822164905A809F07FFC08B1FEF7E0FD8A
:100200006A460121002009F061FC08B1FEF7D8FD23
:100210000F4808F0D1FE08B1FEF7D2FD684609F09C
:10022000D7FB08B1FEF7CCFD0A4809F0C7FB08B1BF
:10023000FEF7C6FD084809F085FC002801D0FEF74E
:10024000BFFD07B000BD000050B70200182F00200E
:10025000E81F0020510002008DA402000A4610B5DC
:1002600001460748FFF787FF020005D005A10020DF
:1002700004F09EFF002010BD08490120487010BD09
:10028000283100204E55532053656E64204572720C
:100290003A203078253032580D000000E81F002049
:1002A00030B585B00446817803AA264808F0ECF9F9
:1002B00040B10090A37862782349002004F078FFD1
:1002C00005B030BD6278214D1C20C2EBC20105EBA8
:1002D0008101CDE9001002901D490020049B04F02B
:1002E00067FF60781C23C0EBC00005EB80001A4656
:1002F00003A908F069FA030004D0627815A1002070
:1003000004F056FF38211820CDE9000162780F492A
:1003100002EB42001C3101EBC0031D49002004F038
:1003200047FF0A481B494030807A51F82020214677
:1003300003A890470300C3D0627817A1002004F0FF
:1003400037FFBDE7AC200020A8BB02007C330020B3
:10035000C0BC02005B444D5D3A5B253032585D3ACB
:10036000204661696C656420746F206C6F61642045
:10037000426F6E6420696E666F726D6174696F6E34
:100380002C20726561736F6E20253038580D0A007D
:100390001CBD02009CB702005B444D5D3A5B2530FA
:1003A00032585D3A204661696C656420746F206C38
:1003B0006F6164207365727669636520696E666F2C
:1003C000726D6174696F6E2C20726561736F6E203F
:1003D000253038580D0A00002DE9F84F8248834E29
:1003E000A0F10803447859888148B57900EBC1022F
:1003F0004FF0000AB2F9070000907E48B2F909E018
:10040000B2F90BB0C188002C01EB810100EB810730
:100410007DD01A7903F1180102F07F049C8006EB6D
:10042000C40C0A689946BCF90760134672430E79FA
:10043000BCF9098042FA06F103FB08F2BCF90BC0D3
:10044000324103FB0CF33341A54204D0641C04F099
:100450007F04A9F8044099F80040B4B3654CB0F8A3
:1004600000900C3C2568A1EB050C6568A468A2EB24
:1004700005081D1B604C0CFB09FA08FB09F8D4F8B1
:100480001CC005FB09F508FB0CF6D4F814C005FBED
:100490001C66B6123E82A6687543A6690AFB16550D
:1004A000C688AD1206EB860600EB86067582E56807
:1004B00064680AFB05FCC58808FB14C405EB8505C8
:1004C00000EB8505A412AC8213E0FFE7A7F810A0AB
:1004D000C688012406EB860600EB8606A6F812A065
:1004E000C68806EB860600EB8606A6F814A089F8F7
:1004F0000040404C0C3C84E80E00C288009902EB9E
:10050000820200EB8206B6F91020891A00E038E07A
:100510004FF48034621E15046B1CA14201DB1146AE
:1005200002E0A94200DC19463181C68806EB860646
:1005300000EB8606B6F91270AEEB0701A14201DBB3
:10054000114602E0A94200DC19467181C68806EB1B
:10055000860600EB8606B6F91470ABEB0701A142E4
:1005600001DB114602E0A94200DC1946B181C188D5
:10057000BDE8F84F01EB810100EB8100083000F08D
:100580003DB89D80A7F810A0C488514604EB8404B0
:1005900000EB8404A4F812A0C48804EB840400EBEC
:1005A0008404A4F814A0C588009C05EB850500EB25
:1005B00085052C81C58805EB850500EB8505A5F82B
:1005C0000AE0C58805EB850500EB8505A5F80CB0AC
:1005D000C488B2F80D2004EB840400EB8400C281CF
:1005E0001970BDE8F88F0000A42D002080250020A0
:1005F00078210020E44300203849002010B504464B
:10060000008810FB00F1608810FB0010A18811FB2E
:10061000010002F0F1FAE08010BD00002DE9F04188
:100620002DED048B02F046FF054602F01AFF484C00
:100630000027804627719FED478B484E2079401C4C
:10064000207105FA00F0FCF7A5F953EC182BFCF724
:10065000C0F8FCF7CBF92060B042EFD3B421B0FB77
:10066000F1F0206020793E4D401D207140462F6002
:10067000FCF790F90E4646EC100B9FED3A1B044632
:1006800053EC112B51EC100BFCF7A3F89FED378BBB
:1006900053EC182BFCF70FF9FCF789F946EC104BDB
:1006A0009FED341B686053EC112B51EC100BFCF7E1
:1006B00090F853EC182BFCF7FEF8FCF778F946ECB1
:1006C000104B9FED2E1BA86053EC112B51EC100B1F
:1006D000FCF77FF853EC182BFCF7EDF8FCF767F903
:1006E000C5E9030746EC104B9FED261B51EC100BA0
:1006F00053EC112BFCF76DF853EC182BFCF7DBF8DF
:10070000FCF755F946EC104B9FED209B686153ECCC
:10071000192B51EC100BFCF75CF853EC182BFCF781
:10072000CAF8FCF744F946EC104BA86153EC192BBE
:1007300051EC100BFCF74DF853EC182BFCF7BBF801
:10074000FCF735F9C5E90707BDEC048BBDE8F0817E
:10075000B42D00206E861BF0F921094020BF020055
:1007600038490020B81E85EB51B8AEBF77BE9F1A3E
:100770002F9D2340A4703D0AD7A3B0BF7B14AE4782
:10078000E17A94BF7B14AE47E17AA4BF33333333AD
:100790003333B33F05494FF0FF32082841F820209A
:1007A00002D3084480F8482070470000E03300205E
:1007B000F0B54FF0FF3512B10023082601E0082301
:1007C0000C260C4C05E000BF54F823707F1C04D0AD
:1007D0005B1CB342F8D32846F0BD26185DB286F8FC
:1007E000305044F82310002AF5D1E11881F8480070
:1007F000F1E70000E03300200249084490F930009E
:1008000070470000E03300202DE9F0438FB01E4612
:10081000DDF8589015460F00804602D10020FEF703
:10082000CFFA15B90020FEF7CBFA1C216846FBF77A
:1008300001FF00249DF80000039440F002008DF8B1
:100840000000012001948DF836000494059406946C
:10085000ADF834800C9430788DF8300070788DF8D5
:1008600031009DF83200142120F00600801C20F099
:1008700019008DF8320007A8FBF7DCFE0DA80790E1
:100880000CA808900748ADF82450ADF82640ADF804
:1008900028500B974B4607AA69460088A2DF0FB085
:1008A000BDE8F083502000202DE9FE4F02F03AFE13
:1008B0004FF00008CDE9018001A802F0D4FDDFF877
:1008C0002C928B4D00264FF02C0B09F10C0A00BF27
:1008D00006EB061705EB4714607B012873D1B4F9CA
:1008E0001800411E09B2218300286DDCE08A08440B
:1008F0002083E078112867D2DFE800F0DDDD0941D0
:100900005767DDDDDDDDDDDD77DDDDDDB20079487A
:10091000FEF73AF8002807D07648018B11B1E2893A
:100920001AB106E0E08920B9C3E089F80380406984
:10093000A0620020EC460BEB4712009108E000BFDC
:10094000E1891CF800304F19491CE181BB54401C5F
:10095000217C8142F4DC009810B189F80380A8E082
:1009600099F80320C8B21044C0B289F80300B8E077
:10097000E189081AE081204609F01CFD99E01AF887
:100980000600574601280DD15B48007818B15BA1DD
:10099000002004F00DFC07F80680E08910B1204625
:1009A00009F008FD20465D491CE01AF806100129EF
:1009B00006D10AF80680E08910B1204609F0FAFC59
:1009C000204657490EE07FE056E01AF8061001294C
:1009D00006D10AF80680E08910B1204609F0EAFC49
:1009E00020465049FDF74CFF65E0A07F012804D167
:1009F00084F81E806846FEF771FCE08908B9029809
:100A0000A062607802281FD06846FEF767FC98B3A2
:100A1000E0899DF8001042190BEB4717401CE0815C
:100A200002F80710FEF7C2FB0090E0899DF8001065
:100A30004219401CE081D155E0899DF8011042190E
:100A4000401CE081D15536E0FEF7AAFB8DF800008E
:100A5000E1890BEB47174A19491CE181D055E1E7C1
:100A600024481C30FDF790FF18B322481C30018B3E
:100A700019B1E28922B107E01DE0E08920B918E050
:100A800089F804804069A0620020EC460BEB471215
:100A9000009107E0E1891CF800304F19491CE18101
:100AA000BB54401C217C8142F4DC009890B189F851
:100AB00004800AF80680E089217C0844618A884223
:100AC00002D9204609F076FC761C082EFFF600AF0E
:100AD000BDE8FE8F99F80420C8B21044C0B289F86E
:100AE00004000C28BFF444AFE3E70000442E0020CC
:100AF0008C5200208C630020F41F002054696D6527
:100B0000207570646174652E20536176696E67206C
:100B10005265706F727465720D00000078210020BC
:100B2000802500208829002010B502F098FC064995
:100B30000A88824206D0088018B14FF47A72B2FB5C
:100B4000F0F0488010BD0000E4430020FEB50446EC
:100B50001C48C76802F078FC05461B480226D0E90D
:100B600006102044194CCDE90110A068F10240F0B4
:100B70000100A06001A807F0AFFD0090D8B11EE011
:100B800048DFC7B102F060FC401BB84213D91048DF
:100B9000007838B102F058FC02462B460DA1002027
:100BA00004F006FB54F8260020F0020044F826006A
:100BB0000D20009003E014F82600C007E0D1009853
:100BC000FEBD0000E4B80200102E00207C52002080
:100BD000F41F002074696D656F75743A20253031FB
:100BE000752C20253031750D00000000F0B425482B
:100BF000017801EB410100EBC1002249D0E9045327
:100C0000F43101EB0511001DD1E9024249681E05CE
:100C10001FD0002704FB0211D0E901641A4A3019E1
:100C20004FF0000C1844C2F814C02FB1B6F5805F25
:100C300011D0884200D174B1432D0CD02344C3F3AA
:100C40008903136103050AD00023884215D043B1FC
:100C500013E00127DEE7180B906103200EE001236B
:100C6000F3E70B0B040BA34201D1081A03E0C0F316
:100C70000B00C0F58050800850610220F0BC08F0E5
:100C80007FBE00007C340020B4200020064801789C
:100C900001EB410100EBC1000079042801D000F014
:100CA0005FB8012008F06CBE7C3400200A480B4A73
:100CB000017801EB410100EBC100816851620079CC
:100CC000012805D0032801D0042804D1FFF78EBFE6
:100CD000012008F055BE70477C340020B42000206D
:100CE00000EB40020548002100EBC20042220171E6
:100CF0008160C0E904218161C16070477C340020BB
:100D00002DE9F041114D069E6C780A2C1BD02F78EE
:100D10003C440A2C00D30A3C04EB440405EBC40415
:100D20002071A261D1E90001C4E90401C4E90236DD
:100D30006878401C68700648407808B9FFF7B6FF2D
:100D40000020BDE8F0810420FBE700007C34002097
:100D5000B420002010B504F035FC40B210BD0000F6
:100D600010B50E4C207800EB400004EBC0010020D1
:100D7000091DFEF75BF82078FFF7B2FF6078401E90
:100D800060702078401CC0B220700A2801D1002079
:100D90002070BDE81040002008F0F2BD7C34002037
:100DA0002DE9F05F2648C168F1B3DFF898B00E680E
:100DB0008146DBF800400769C078E11B21F07F45E0
:100DC000ED1CB0B9DFF880804FF48030C8F84403E0
:100DD000C8F804031120FCF73FF81120FCF747F88E
:100DE0004FF0010AC8F800A02F20FBF78BFB89F811
:100DF00003A0B54200D23546124BE8193C3320F02F
:100E00007F401860DBF800105A46091B21F07F4133
:100E1000001B20F07F40C91C81420FD91068186068
:100E20002F20FBF76FFB00E004E0BDE8F05F11202E
:100E3000FCF728B8BDE8F05F07F0B2BFBDE8F09F4F
:100E4000F020002004150140001001402DE9F04180
:100E5000464D16460F46287818B145A1002004F0EB
:100E6000A7F9484C012F1DD0022F34D0032F4BD0AF
:100E7000042F62D0287818B143A1002004F098F91B
:100E8000206820F001002060606820F001006060B0
:100E9000A06820F00100A060E06820F00100E060A0
:100EA000BDE8F081206820F00100206028784EB174
:100EB00018B136A1002004F07BF9206820F0020070
:100EC0002060EDE718B135A1002004F071F9206829
:100ED00040F00200F4E7606820F0010060602878CC
:100EE0004EB118B12FA1002004F062F9606820F023
:100EF00002006060D4E718B12EA1002004F058F978
:100F0000606840F00200F4E7A06820F00100A060F3
:100F100028784EB118B129A1002004F049F9A06841
:100F200020F00200A060BBE718B128A1002004F067
:100F30003FF9A06840F00200F4E7E06820F001000B
:100F4000E060287846B118B123A1002004F030F900
:100F5000E06820F00200A2E718B123A1002004F00D
:100F600027F9E06840F0020099E70000F41F002034
:100F70006366675F63625F68616E646C65723A2086
:100F8000000000006C5200203F0D000073746F726F
:100F900065206661696C65640D00000073746F7292
:100FA00065640D006C6F6164206661696C65640D39
:100FB000000000006C6F616465640D00636C656126
:100FC00072206661696C65640D000000636C656188
:100FD0007265640D000000007570646174652066C0
:100FE00061696C65640D0000757064617465640D01
:100FF0000000000010B516A20121002004F0E3F863
:10100000184A0121002004F0DEF8012002F096FACF
:1010100008B115A204E0012002F0C2FB58B119A2E8
:101020000121002004F0CFF80E4A0121002004F035
:10103000CAF8012010BD19A20121002004F0C3F854
:10104000084A0121002004F0BEF8002010BD000075
:10105000636F6E6669675F696D753A20737461725C
:1010600074000000BCED0100696D755F696E697404
:101070003A2068616C5F696E6974206661696C65AD
:10108000640D0000636F6E6669675F696D753A2075
:10109000696E6974206661696C000000636F6E663A
:1010A00069675F696D753A20646F6E6500000000C6
:1010B0000448817819B10021817001207047002017
:1010C00070470000102E00202DE9F04117880646D9
:1010D000B81D14460D46984202D90C20BDE8F08197
:1010E0003188072206290AD34FF4486C4FF6FF7364
:1010F000614501D9994202D17088062801D2104673
:10110000ECE7604501D99842F9D1994203D0984261
:1011100001D08142F3D80520E85520881221401CD7
:1011200080B2208029542088401C80B22080411940
:10113000308809F057FD2188084480B22080411989
:10114000708809F04FFD2188084420800020C5E701
:10115000FDF736BEF8B5134803F060F8114D0026D0
:10116000114C0C3D30B16169B9B101208DF800001E
:10117000684611E0287820B1616971B18DF800608E
:10118000F6E7687858B1A168084800220068FDF7C2
:10119000CFFE10B1A16901B188472E70F8BD61681A
:1011A000F2E70000482000209C32002078B70200BF
:1011B00070B5044610A1002003F0FAFF2246012179
:1011C0004FF6FF7000F054F8050006D014A100207F
:1011D00003F0EEFF0425284670BD1BA10020226805
:1011E00003F0E6FF2168214A01EB410102EB810196
:1011F00002208872EFE700005B444D5D3A205265A3
:10120000717565737420746F20416C6C6F636174C9
:10121000696F6E20436F6E6E20496E73740D0A0005
:101220005B444D5D3A204E6F206672656520436FCA
:101230006E6E20496E73747320617661696C6162B1
:101240006C650D0A000000005B444D5D3A5B253083
:1012500032585D3A20436F6E6E20496E73742041A0
:101260006C6C6F63617465642E0D0A00B0330020EE
:1012700070B5094B044608209E7A00250E4208D01E
:10128000A4F57F40FF3802D01889A04202D1002087
:10129000156070BD052070BDB033002010B5044648
:1012A00002460AA1002003F083FF104804EB440229
:1012B00000EB8200012181724FF6FF710181FF2155
:1012C000C172002101608180817110BD5B444D5D60
:1012D0003A20496E697420436F6E6E20496E7374B4
:1012E000203078253034580D0A000000B03300203B
:1012F00038B502F0B6F8ADF80000274D274C6888E5
:10130000E1680844E060E98801EB8102491E01F0D0
:101310003F0101EB810105EB820205EB8101D389DD
:101320008969194401EBD171491091616278012AF0
:101330001CD0022A1AD00021032A2AD0042A28D03D
:10134000E98801EB810105EB8101C98909F006FFFC
:10135000E88800EB800005EB80008169E06808F018
:10136000EBFC0D2801D10120607038BDE98801EB4C
:10137000810105EB8101C98909F0F0FEE88800EBE5
:10138000800005EB80008169E068BDE8384008F026
:10139000D3BC617038BD0000E44300209C2D0020C8
:1013A00010B5134C207900071ED4A069401CA06121
:1013B000206908B104200AE002F03EFF08B10220D3
:1013C00005E0606960B16068C10704D00320BDE832
:1013D000104009F051B840F0010060600020F6E7CD
:1013E000BDE81040FFF752BCBDE8104009F03AB824
:1013F000B420002006494868020707D4820702D5B6
:1014000040F001004860022009F036B809F02AB81F
:10141000B420002010B5134C0828217803D30029EC
:1014200015D011A118E000EB0012164800EB421095
:10143000828A12B1521E828204E019B112A10020E8
:1014400003F0B6FE1649886810B1401E886010BDD2
:1014500020780028FBD013A1BDE81040002003F045
:10146000A7BE0000F41F00205265706F7274733ABB
:1014700020496E7374616E6365204572726F720DE0
:10148000000000008C5200205265706F7274733A35
:10149000204C656E677468204572726F720D000093
:1014A000442E00205265706F7274733A20546F742A
:1014B000616C205265636F726473204572726F7243
:1014C0000D0000002DE9FC410F4604463BA1002021
:1014D00003F06EFEA1786A46414807F0D5F8050092
:1014E00065D16378DFF8FC8003EB430108EB8100F2
:1014F000807A40062ED4022F2CD0A278012F30D033
:101500003949002003F054FE384E3649A078F839A6
:10151000C0EBC00001EB800100231C226846B047ED
:10152000050024D0022F40D020782E4900EB400047
:101530000C3101EB80002E49807A51F820202146A1
:1015400068469047050037D002462AA1002003F0E4
:101550002FFE2CE0A27835A1002003F029FE434E97
:10156000D3E743A1002003F023FE504ECDE7022F26
:1015700022D0607800EB400108EB8100817A21F0F5
:1015800040018172174960783439C0EBC00001EB2B
:1015900080011C231A466846B0470300C4D0A278D5
:1015A00043A1002003F004FEBEE7002D04D02A462C
:1015B0004FA1002003F0FCFDBDE8FC815B444D5DC4
:1015C0003A202D2D3E206465766963655F636F6EFA
:1015D000746578745F73746F72650D0A00000000A3
:1015E000AC200020B0330020B4BD020061A2020094
:1015F0008CB702005B444D5D3A204661696C6564BE
:1016000020746F2073746F726520736572766963DE
:101610006520636F6E746578742C20726561736FDA
:101620006E20253038580D0A000000005B444D5DE7
:101630003A5B444920253032585D3A5B43492025C6
:101640003032585D3A202D3E205570646174696EC9
:101650006720626F6E64696E6720696E666F726D77
:101660006174696F6E2E0D0A00000000BD890200D2
:101670005B444D5D3A5B444920253032585D3A5B0E
:10168000434920253032585D3A202D3E2053746F57
:1016900072696E6720626F6E64696E6720696E663C
:1016A0006F726D6174696F6E2E0D0A00F188020011
:1016B0005B444D5D3A5B3078253032585D3A466187
:1016C000696C656420746F2073746F726520626F3B
:1016D0006E6420696E666F726D6174696F6E2C2026
:1016E000726561736F6E203078253038580D0A00AE
:1016F0005B444D5D3A204661696C656420746F20DF
:1017000073746F72652064657669636520636F6EBC
:10171000746578742C20726561736F6E2025303883
:10172000580D0A002DE9FF47224E8846814648F2AF
:1017300043070024C4EBC40006EB800522462B7C43
:101740001DA1002003F034FDE87CAB7D6A7D297D7E
:101750008DE80F00AB7C6A7C21A1002003F028FDFE
:10176000A87EFF2806D0641C072CE3D304B03846BB
:10177000BDE8F08798F800000228C4EBC40006EB2F
:1017800080000BD0FD218176D8F800200261B8F8E6
:101790000420828298F80610817501E0FE2181768E
:1017A000002789F8004022461DA1384603F000FDBD
:1017B000DCE70000B83200205B444D5D3A5B4449F1
:1017C000203078253032585D3A204465766963656B
:1017D0002074797065203078253032582E0D0A003B
:1017E0005B444D5D3A2044657669636520416464DD
:1017F0007220307825303258203078253032582009
:1018000030782530325820307825303258203078E2
:1018100025303258203078253032582E0D0A0000FD
:101820005B444D5D3A20416C6C6F6361746564206C
:1018300044657620496E7374203078253032580D17
:101840000A0000002DE9FF4791468A4605004FF047
:1018500005070BD0E878AB796A7929798DE80F0014
:10186000AB786A781E49002003F0A2FCDFF8748090
:10187000002600BFC6EBC60108EB81043246237C7C
:1018800019A1002003F094FCE07CA37D627D217D02
:101890008DE80F00A37C627C1DA1002003F088FC72
:1018A0003DB104F1100007222946FAF7D5FE18B120
:1018B0000EE0218B49450BD1324625A1002003F0D3
:1018C00077FC2C4900270120CAF80060087002E06C
:1018D000761C072ECED304B03846BDE8F087000052
:1018E00060BB0200B83200205B444D5D3A5B444966
:1018F000203078253032585D3A204465766963653A
:101900002074797065203078253032582E0D0A0009
:101910005B444D5D3A2044657669636520416464AB
:1019200072203078253032582030782530325820D7
:1019300030782530325820307825303258203078B1
:1019400025303258203078253032582E0D0A0000CC
:101950005B444D5D3A20466F756E64204465762089
:10196000617420496E7374203078253032580D0A26
:1019700000000000F31F00207CB5054601466A46C2
:10198000094806F081FE04000CD12A4607A103F0A5
:101990000FFC5421684606F09FFE040002D1284641
:1019A00006F0FEFC20467CBDAC2000205B444D5D73
:1019B0003A5B4449203078253032585D3A204672EF
:1019C0006565696E6720496E7374616E63652E0D7F
:1019D0000A00000010B5100001D0FDF7F1F9002059
:1019E00010BD00001FB58DF80C0006F0BFFE08B159
:1019F000FDF7E6F903A800F0E9FC08B1FDF7E0F90E
:101A00000020CDF805008DF809009DF80500694615
:101A100020F0720040F00100303020F080008DF89E
:101A2000050007208DF8060010208DF807000648F5
:101A3000009001208DF80400044800F04BFF0028BE
:101A400001D0FDF7BDF91FBDD5190200F71F002019
:101A50002DE9FC4100250195087817468DF8000016
:101A6000254C01266079022801D000B329E023A18A
:101A7000002003F09DFB012F09D19DF80000A17902
:101A8000884204D103206071E670A6701EE000F069
:101A9000ABF81EA1002003F08BFB264881680020D4
:101AA00002F0A0FEE57025710A20E071657122A1A7
:101AB000002003F07DFB012F03D19DF80000882852
:101AC00012D0A07800280DD0012F0BD19DF8000076
:101AD000EA2807D1207B18B11BA1002003F068FB86
:101AE000A672A570BDE8FC8166712571E069A071E0
:101AF000A0780028EAD1F5E7E81F00204C454449CA
:101B00004420537461746520320D00004C454449F3
:101B1000442053746174652032202D3E203020759E
:101B200073657220636F6465206661696C65640D1E
:101B30000000000050B702004C4544494420537453
:101B400061746520300D0000456E61626C65204453
:101B500046550D002DE9F041ADF5027D174D0024ED
:101B6000274605F120064FF400788090684606F07D
:101B70007BFC40B1E888401CE880E86830616F7009
:101B8000287AFFF747FC31683069641C08446FF31A
:101B90000B008099A4B28190884201D14445E5D3DD
:101BA00007480078002804D0224606A1002003F050
:101BB000FFFA0DF5027DBDE8F0810000102E002037
:101BC000F41F00204F6C646573742025303175203C
:101BD0005265636F726473204469736361726465F4
:101BE000642E2E2E0D00000010B5084C1321608AC3
:101BF00076DF08B1FDF7E4F80420FDF75FFF08B1D8
:101C0000FDF7DEF80020607110BD0000E81F002025
:101C10002DE9F04F044691B0FF48FF250495007868
:101C20004FF0000900285ED0FC4E306800285AD0E2
:101C300003A800F0BFFB08B1FDF7C2F8201D069015
:101C40002C20ADF81C000027FF208DF80E008DF829
:101C50000C700297F14D20880C3DBB4610280FD028
:101C6000A08802AA0221FFF703FB48B9029800EB03
:101C7000400105EB8101C97A8DF80E108DF80D0039
:101C8000DFF898A3218804F10800AAF1400AAAF11C
:101C9000C408009019297CD014DC102926D0112901
:101CA00062D0132976D014291DD1DDA1002003F0C4
:101CB0007FFA029800EB400005EB8000C07AFF2815
:101CC00069D0A1E0DFF880831A2965D01E297CD075
:101CD000522908D1DDA1002003F06AFAB17A03A8E5
:101CE00058F82110884711B0BDE8F08F02A8FFF71F
:101CF0005FFA0028F7D111208DF8140002988DF8B2
:101D00000D0000EB400005EB8000A188018102215D
:101D10008172A1680160A1898180A17B8171E07DD0
:101D2000C10708D0BC49083101EB50000078FF28FA
:101D300009D0049007E04FF6FF7204A90098FFF75E
:101D400081FD00280FD10299049801EB410105EBB8
:101D50008101C8728A7A42F008028A728DF80E00F8
:101D600003A8FEF79DFAA5E2227AC3A1002003F0A2
:101D70001FFA029800EB400005EB8001887A20F002
:101D80000200887201070BD5000612D5002103A8B6
:101D900003E0D6E059E019E040E2FFF793FB08E0EA
:101DA0009DF80E00FF2804D006F0FAFAFF208DF807
