:020000040007F3
:10A000008868002059A5070061A5070063A507001F
:10A0100065A5070067A5070069A507000000000007
:10A0200000000000000000000000000015A4070070
:10A0300000000000000000006DA507006FA50700EC
:10A0400071A5070071A5070071A5070071A507009C
:10A0500071A5070071A5070071A5070071A507008C
:10A0600071A5070071A5070071A5070071A507007C
:10A0700071A5070071A5070071A5070071A507006C
:10A0800071A507001DA7070071A5070071A50700AE
:10A09000A7A9070071A50700ADA9070071A50700D2
:10A0A00071A5070071A5070071A5070071A507003C
:10A0B00071A5070071A50700000000000000000066
:10A0C00071A5070071A5070071A5070071A507001C
:10A0D00071A5070071A50700000000000000000046
:10A0E0000000000000000000000000000000000070
:10A0F0000000000000000000000000000000000060
:10A10000000000000000000000000000000000004F
:10A11000000000000000000000000000000000003F
:10A40000DFF80CD000F0F4F800480047C5D0070092
:10A41000886800206FF00200704502D1EFF30981D7
:10A4200001E0EFF30881886902380078004A10479C
:10A4300015A60700401E00BF00BF00BF00BF00BF41
:10A4400000BF00BF00BF00BF00BF00BF00BF00BF14
:10A4500000BF00BF00BF00BF00BF00BF00BF00BF04
:10A4600000BF00BF00BF00BF00BF00BF00BF00BFF4
:10A4700000BF00BF00BF00BF00BF00BF00BF00BFE4
:10A4800000BF00BF00BF00BF00BF00BF00BF00BFD4
:10A4900000BF00BF00BF00BF00BF00BF00BF00BFC4
:10A4A00000BF00BF00BFC5D170470000401E00BF05
:10A4B00000BF00BF00BF00BF00BF00BF00BF00BFA4
:10A4C00000BF00BF00BF00BF00BF00BF00BF00BF94
:10A4D00000BF00BF00BF00BF00BF00BF00BF00BF84
:10A4E00000BF00BF00BF00BF00BF00BF00BF00BF74
:10A4F00000BF00BF00BF00BF00BF00BF00BF00BF64
:10A5000000BF00BF00BF00BF00BF00BF00BF00BF53
:10A5100000BF00BF00BF00BF00BF00BF00BFC5D16C
:10A5200070470000056885F308884068FF2464B21E
:10A53000EFF30585002D01D1A646004725460646C6
:10A5400021273FBAF0B40024002500260027F0B4EC
:10A55000F92040B2004700000648804706480047FF
:10A56000FEE7FEE7FEE7FEE7FEE7FEE7FEE7FEE7C3
:10A57000FEE70000D1A9070001A4070040EA01039B
:10A580009B0703D009E008C9121F08C0042AFAD2A9
:10A5900003E011F8013B00F8013B521EF9D270476D
:10A5A000D2B201E000F8012B491EFBD27047002215
:10A5B000F6E710B513460A4604461946FFF7F0FFC2
:10A5C000204610BD30B504460020034600E05B1C69
:10A5D000934203D2E05CCD5C401BF8D030BD034613
:10A5E00011F8012B00F8012B002AF9D11846704709
:10A5F000064C074D06E0E06840F0010394E80700D0
:10A6000098471034AC42F6D3FFF7FEFEF8DE0700A1
:10A6100018DF070010B50C4610B10120086010BD0E
:10A62000216891B11148421A814213D03C2A0ED2BE
:10A6300001223C3011F13C0111F8013900F80139D7
:10A640001346521C3C2BF7D904E00E200BE03C22B1
:10A65000FFF794FF00223C21044801F049FD034923
:10A66000891E08800020206010BD0000827F00202D
:10A6700000F01F02012191404009800000F1E0201C
:10A68000C0F88012704700F01F020121914040097C
:10A69000800000F1E020C0F80011704700F01F02B8
:10A6A000012191404009800000F1E020C0F8001233
:10A6B00070474907090E002806DA00F00F0000F184
:10A6C000E02080F8141D704700F1E02080F80014AD
:10A6D00070470000BFF34F8F05480168054A01F439
:10A6E000E06111430160BFF34F8F00BFFDE7000041
:10A6F0000CED00E00400FA05BFF34F8F0548016838
:10A70000054A01F4E06111430160BFF34F8F00BFC0
:10A71000FDE700000CED00E00400FA050748002109
:10A72000C0F84011C0F84411C0F84811C0F84C11ED
:10A73000C0F80011C0F8041103F062BA0010014023
:10A740002DE9F047114F0446DDF8209038781D467A
:10A750001646884608B900F073FA3869A04211D944
:10A760000A4904EB440001EBC00134B1C1F8188080
:10A77000C1E907650020886248620020C1F82C907A
:10A78000BDE8F0874FF0FF30FAE7000000400020FE
:10A7900070B5074B0646144618780D4608B900F008
:10A7A0004FFA224629463046BDE8704000F002B814
:10A7B0000040002070B50E46144900EB400001EB4C
:10A7C000C0051446E86A183520B101280FD00228C8
:10A7D00005D113E0284600F069FAA04201D2002416
:10A7E00011E022463146284600F086FB0BE0284661
:10A7F00000F05CFAA042F4D20446F2E73146284663
:10A8000000F04DFB0446204670BD000000400020D3
:10A810002DE9F04198B0064607A802904020002597
:10A82000CDE90305CDE9055690460C4614F8011B09
:10A83000002973D0252908D002A800F011FB059843
:10A840000028F3DA18B0BDE8F08100200122217859
:10A8500023291ED02B2919D02D2902D0302908D127
:10A8600002E040F0010001E040F00200641C002A18
:10A87000EDD100222178A1F130030A2B0CD202EB9A
:10A88000820201EB4202303A641CF3E740F004001C
:10A89000ECE740F00800E9E70023CFB22E2F0BD100
:10A8A00014F8011FA1F130070A2F05D203EB83032F
:10A8B00001EB4303303BF3E76C290DD068290BD043
:10A8C000702954D00BDC252916D0582931D06329A2
:10A8D0000CD0642913D114E014F8011BECE77329A0
:10A8E00034D075291BD0782909D122E0D8F800008E
:10A8F000011DC8F80010017802A800F0B1FA641C2C
:10A900009DE7D8F800100F1DC8F800700968CDE960
:10A9100000200A2202A800F0D5F9F0E733E0D8F8C9
:10A9200000100F1DC8F800700968CDE900200A2248
:10A9300008E0D8F800100F1DC8F800700968CDE9CC
:10A940000020102202A800F021FAD8E7D8F8000071
:10A95000011DC8F80010076817F8011B0029CED0A8
:10A9600002A800F07DFA05980028F5DAC7E7D8F8C4
:10A970000000011DC8F8001001680820CDE900059D
:10A9800003461022DEE7059800287FF75BAF0498A6
:10A9900020B1024607A93046FFF7FAFEDDE90410B0
:10A9A000084405904EE703F0C7B80000074810B50B
:10A9B000406830B18047002807D0BDE8104000F063
:10A9C000AEBCBDE8104002F01BBA10BDD02C002078
:10A9D0002DE9F04191480022041D0378211D081D36
:10A9E0000125062B17D12678360714D10E78C6F329
:10A9F0000316032E03D1077817F0F00F0ED0042EA4
:10AA000003D1077817F0F00F08D0052E03D1067890
:10AA100016F0F00F02D0062B09D014E04FF080564C
:10AA2000D6F844627E4FC6F342363E6002E0267896
:10AA3000360708D10E78C6F30316032E03D1067825
:10AA400016F0F00F02D0062B06D01DE0754E3768C9
:10AA500027F0807737601AE02678360714D10E7811
:10AA6000C6F30316032E03D1077817F0F00F0ED0AC
:10AA7000042E03D1077817F0F00F08D0052E03D16C
:10AA8000067816F0F00F02D0062B0AD015E04FF032
:10AA90008046C6F80C21C6F81021614E361F326080
:10AAA00002E02678360708D10E78C6F30316032E87
:10AAB00003D1067816F0F00F02D0062B05D066E021
:10AAC000574C03236434236002E023781B075ED1D4
:10AAD0000978C1F30311052959D1007810F0F00F5E
:10AAE00055D151480068514908604F48001D006821
:10AAF000091D08604C4808300068091D08604A4874
:10AB00000C300068091D0860474810300068091DB6
:10AB10000860454814300068091D08604248183034
:10AB200000684249203108603F481C300068091D18
:10AB300008603D4820300068091D08603A4824300C
:10AB40000068091D0860384828300068091D086041
:10AB500035482C300068091D0860334830300068E3
:10AB6000324940310860304834300068091D0860BF
:10AB70002D4838300068091D08602B483C300068BB
:10AB8000091D0860284840300068091D08602548F4
:10AB90007438016841F470010160BFF34F8FBFF357
:10ABA0006F8F4FF01021D1F80C02214BC4072148C0
:10ABB00011D01D600468002CFCD0D1F80C4224F0A8
:10ABC0000104C1F80C4201680029FCD01A60016838
:10ABD0000029FCD01AE0D1F80042002C03DBD1F8A8
:10ABE0000042002C14DA1D600468002CFCD01524EF
:10ABF000C1F800420568002DFCD0C1F8044201688C
:10AC00000029FCD01A6001680029FCD0FFF774FD10
:10AC10000A4909480860BDE8F0810000E00F00F033
:10AC20003C050040FCED00E00404001020C500409D
:10AC300004E5014000E401400090D003E42C002032
:10AC400010B5114C02202061606110A0A061124873
:10AC5000E0614FF4006020620020A06260620BA1FE
:10AC6000A164E0620D49E16410212165A065606581
:10AC7000E0650BA1E01DFFF7B2FC0AA12046FFF73B
:10AC8000AEFC2020A07110BD004000205465726D04
:10AC9000696E616C0000000040340020403C0020E0
:10ACA0005254540053454747455200000269C16859
:10ACB0008A4203D88068401A104400E0501A401EAF
:10ACC000704700002DE9FC5F0E008146DDE90C476E
:10ACD000C6F1000098469346824600D408460125F6
:10ACE00003E000BF90FBFBF06D1C5845FADAA84565
:10ACF00000D9454624B1002E01DB780700D5641E3B
:10AD0000B80702D5B8F1000F0FD0F8070DD164B124
:10AD1000A5420AD220214846641E00F0A1F8D9F8C5
:10AD20000C000028F3DABDE8FC9FD9F80C000028DD
:10AD3000F9DB002E02DA56462D2102E0780707D50E
:10AD40002B21484600F08CF8D9F80C000028EADBEB
:10AD500007F0030002280FD1B8F1000F0CD15CB14D
:10AD6000A54209D230214846641E00F079F8D9F88E
:10AD70000C000028F3DAD6E7CDE9004743465A46EF
:10AD80003146484600F002F8CDE700002DE9F84FC3
:10AD90008246DDE90A4B0126984691460D46084653
:10ADA000374602E0B0FBF9F07F1C4845FAD2B845BF
:10ADB00000D947465FEACB7017D1B4B15FEA8B7018
:10ADC00002D5B8F1000F02D0202000900BE0302017
:10ADD000FBE75046641E009900F042F8DAF80C00D8
:10ADE000002838DB0CB1A742F3D3DAF80C000028B6
:10ADF00031DB00BFB8F1010F02D9A8F1010803E06F
:10AE0000B5FBF6F0484502D306FB09F6F2E7DFF89A
:10AE10004C8000BFB5FBF6F000FB165518F800108B
:10AE2000504600F01DF8DAF80C00002803DBB6FBF2
:10AE3000F9F6002EEED15FEACB700CD0002C0AD0D0
:10AE4000A74208D220215046641E00F009F8DAF823
:10AE50000C000028F2DABDE8F88F0000E8DE0700F9
:10AE600010B50446D4E90130421C934205D323684F
:10AE70001954A260E068401CE060D4E901028242FB
:10AE800009D321682069FFF783FCA168884203D0B9
:10AE90004FF0FF30E06010BD0020A06010BD2DE934
:10AEA000F047C4681746894606464FF000083069E7
:10AEB000A04201D9051B02E0B168201A0D1AB06842
:10AEC0006D1E001BA84200D80546BD4200D33D467A
:10AED00070682A4620444946FFF750FBB0687F1B44
:10AEE0002C44A844A944A04200D10024F460002FBF
:10AEF000DDD14046BDE8F0872DE9F041C668044643
:10AF0000174688468068851B6068BD4206D9304474
:10AF1000FFF734FBF019E060BDE8F0812A463044C9
:10AF2000FFF72CFB7E1B08EB050132466068FFF73C
:10AF300025FBE660F0E702E008C8121F08C1002AFE
:10AF4000FAD170477047002001E001C1121F002AAA
:10AF5000FBD170472DE9FC5F002516880746158058
:10AF6000406B14468946A8464FF00C0A11234FF057
:10AF7000020B98B101784846032E48D380F800B000
:10AF80002288521C92B2228083542288521C92B290
:10AF9000228009F802102088401C20803A6BDAB128
:10AFA0002088494600F11205B54230D80B5420885C
:10AFB0001023401C80B220800B542088401C20802D
:10AFC0000F202388155C401ECD54238840B25B1CA3
:10AFD00023800028F5DA454697F82E0030B1334635
:10AFE0002246494601F058FF050011D197F82D007F
:10AFF00030B132462146484600F012FC050007D128
:10B00000B87820B32088C846001DB04202D9504607
:10B01000BDE8FC9F684679DF0028F9D1218803202C
:10B0200008F8010020881921401C80B2208008F80F
:10B0300000102088401C80B2208000EB0801BDF881
:10B04000000002F01FFE0146208808442080F878A6
:10B05000B8B1228897F90310D31C4846B342D6D81A
:10B0600000F802B022880123521C92B2228083543D
:10B070002288521C92B2228009F802102088401CBB
:10B0800020807868B8B1218890F90020CB1C484610
:10B09000B342BCD800F801B021880A23491C89B208
:10B0A000218043542188491C89B2218009F801205C
:10B0B0002088401C2080388950B1CDE900464B469D
:10B0C0000622022107F1080002F04DFE05009FD183
:10B0D000388A50B1CDE900464B460722032107F1DB
:10B0E000100002F040FE050092D1388B50B1CDE93E
:10B0F00000464B461522142107F1180002F033FEDA
:10B10000050085D1386A30B133462246494600F001
:10B110007BFF0500DBD1786A30B1334622464946D1
:10B1200002F03CF80500D2D197F82C0038B1334634
:10B1300022464946384602F00BFC0500C7D1387854
:10B1400038B1334622464946384602F059F80500E0
:10B15000BDD128465CE7000010B50446114890B008
:10B16000382180798DF83A0041F23050ADF838003E
:10B170006846FFF71CFA02208DF8000000208DF8C9
:10B1800002000120ADF808000EA803908DF80340DE
:10B190000021684600F09BFA002801D000F0BFF8BB
:10B1A00010B010BDD43300202DE9F043264C8BB0F5
:10B1B000A078002834D118212448FFF7F8F9A046D8
:10B1C000E078224C00254FF02809012698B304F1BD
:10B1D000480700950195029510226946F81D0395D0
:10B1E000FFF7F0F9F8B1F81DCDE9080709A80490B8
:10B1F00008A806908DF814608DF81C600420FFF7F5
:10B20000ABFF25700220207204A8E060A4F8109023
:10B2100065820E4873DF08B100F081F888F802609B
:10B220000BB0BDE8F0830520FFF796FF267067603E
:10B2300025722582ECE7FFE70620FFF78DFF2570DA
:10B2400065602572E2E70000A02C0020BC330020DE
:10B250002DE9FF410546087A0E4681070AD00322F0
:10B260001146284600F00CFC002801D000F057F8E9
:10B27000BDE8FF812849009001F06CFD010011D16B
:10B28000254C7168143C009A6069FFF777F90098C3
:10B2900001F02CFD010005D169461F4801F036FD83
:10B2A000010003D0284601F0E3F8E1E70420019013
:10B2B0000098800802906069039001A801F0A2F84C
:10B2C00007000BD0092F10D0606901F0D9FC0100F4
:10B2D00002D0284601F0CCF83946E3E7307A2169FC
:10B2E000084420616069A061C2E7307A21690144A5
:10B2F000216160780028BBD06089401E0004000CEA
:10B300006081B5D1284600F083FB08B100F007F852
:10B3100020896081ACE70000B42C002070470EB596
:10B3200000210091CDE901106A4644F20100FFF7C7
:10B33000F5FF0EBD0148007870470000CC2C0020BE
:10B3400038B50C46064BE268097853F8225062681B
:10B350000092024604F10C006369A84738BD000062
:10B360002C2C002070B50F4B054605201C785E780C
:10B37000A64216D01C7818789E88B04201DA401C8C
:10B3800000E0002018705E88D86804FB0600286082
:10B39000986800EBC4039B880B8050F83400106061
:10B3A000002070BD342C00202DE9F84F254C81463B
:10B3B000924660880E46814241D800274FF6FF78BA
:10B3C0008DF80070684600F041F922786078A18815
:10B3D000884201DA401C00E00020C0B2904204D153
:10B3E0009DF8000000F056F927E065786078884203
:10B3F00001DA401C00E0002060709DF8000000F0C1
:10B4000049F9454519D0A068B9F1000F40F835A0B9
:10B410000DD066B16188E068324605FB01004946FF
:10B42000FFF7ACF8A06800EBC500868002E000EBF7
:10B43000C50087800020BDE8F88F0420FBE70920C5
:10B44000F9E70000342C00200EB504E0029ABDF8A4
:10B4500004100098904702AA01A96846FFF782FFEE
:10B460000028F3D00EBD000030B5CB0008339DB2EC
:10B4700093074FF0000401D0072030BD044B9A60C1
:10B480002A44DA605C701C7058809980002030BDBE
:10B49000342C0020074B9B6823B12AB120B10068EF
:10B4A000037C1BB10820704707207047417442613C
:10B4B00000207047442C002010B50446082902D013
:10B4C0000020FFF72CFFD4E90010BDE8104008472A
:10B4D0001CB5044ACDE9000108216846FFF764FF66
:10B4E0001CBD0000B9B407002DE9F047804699461D
:10B4F00014460F4690074FF0000634D11C4D8CB314
:10B5000002F072F90320C5F81490287004F11800B5
:10B51000002107EB4703AC6004EBC102491C167025
:10B5200056709770506000EBC3000329F4DBEE60A7
:10B530006E70AE701420FFF79BF806211420FFF701
:10B54000B8F81420FFF79FF80A49C1F800800621D7
:10B550001120FFF7AEF80748001F0068286100209F
:10B56000BDE8F08701E00720FAE7AE60FBE70000E6
:10B57000442C0020081501402DE9F843DFF87090B5
:10B580000D461746D9F80810044651B34CB3052DA3
:10B5900002D20720BDE8F883606910B3607C0128FF
:10B5A00021D0002602F0ACFBD9F80810804601EB50
:10B5B000C800694602F0C3FBB8B1012100F8041BC2
:10B5C0000C4910C0096880E8E200D9F8081001EBC6
:10B5D000C8009DF8001041701420FFF75FF80020AC
:10B5E000D8E70820D6E72E46DCE70420D2E70000A3
:10B5F000442C002004150140F8B5124E0446B168F1
:10B60000E1B1DCB16069C8B10027277402F078FBB2
:10B610000546B068694600EBC50002F090FB78B1C2
:10B62000022101704460B0689DF8001000EBC50075
:10B6300041701420FFF732F83846F8BD0820F8BDF5
:10B640000420F8BD442C002001F014BD30B5EFF308
:10B65000108172B60D4A9468012324B10370002949
:10B6600000D162B630BD93604FF0E023D3F8805133
:10B67000074C25401560C3F88041D3F884415460DD
:10B680005A17C3F8842100220270E8E7503C0020DA
:10B69000FC06FFBC0B498A68002A11D000280FD194
:10B6A000EFF3108072B60B684FF0E022C2F8003161
:10B6B0004B68C2F8043100228A60002800D162B6CB
:10B6C00070470000503C00204FF481707047F0B587
:10B6D0000C4693B01F210726ADF80010ADF80410FA
:10B6E000002750B1C17849070DD56A4602A9FFF776
:10B6F00031FC002808D102AD02E00025ADF8007051
:10B700006CB1E07810B1304613B0F0BD01AA0AA9BF
:10B710002046FFF71FFC0028F6D10AAA02E000220B
:10B72000ADF80470BDF80400C3B2BDF80000C1B2AA
:10B73000284672DFE8E7000070B5054601461C2286
:10B740000F48FEF71BFF0F4C00262670286830B10B
:10B75000016861604068A060201D7ADF02E009484E
:10B76000001D7BDF00280AD14FF6FF7060806670F5
:10B77000BDE87040044A00210448FFF78BBE70BD4D
:10B7800088300020082C0020A1DC070070DE0700B4
:10B7900070B51E4C068800251B49E289102E15D075
:10B7A0001B4B112E1CD0122E29D0502E17D130F841
:10B7B000061F914213D14189022910D1007B10F05C
:10B7C000010F11D0BDE8704000F064BC83884B804D
:10B7D0008369CB60C06908614D70002AF2D070BDEA
:10B7E0004FF6FF7048804D701868FFF705FF00287E
:10B7F000F5D0A1690029F2D0BDE870400847826801
:10B80000CA60C0680861DDE7082C0020883000208D
:10B8100070DE070001480068FFF7EEBE70DE07002B
:10B820007CB5054608880C460930904201D90C20A9
:10B830007CBD684671DF0028FAD121880820685451
:10B8400020881B21401C80B2208029542088401C65
:10B8500080B220802844DDF801100160BDF8051099
:10B8600081802088801D80B220809DF8001001B169
:10B87000012129542088401C208000207CBD00002C
:10B88000F0B585B00A4605002FD02888A0F57F4185
:10B89000FF392CD01748007848B3164C1020641C90
:10B8A0000127207007206070A7700320ADF81000FA
:10B8B0000026E11C104602F0EAF9BDF810100096CF
:10B8C0000844ADF81000019602960396288AADF858
:10B8D000000004A8CDE902048DF80270ADF8046000
:10B8E00028886946A6DF05B0F0BD0E20FBE70820DA
:10B8F000F9E700001C2C002030B585B00D4604008F
:10B9000039D0BDB36868A8B31C4B4FF6FF702080D8
:10B910000FCB0DF1040C8CE80F0041F23050ADF864
:10B92000000001A8811E63DF002821D1221D694685
:10B930000120A0DF00281BD19DF80200A071204645
:10B9400000F0BCFE002813D1204600F00CFD0028BA
:10B950000ED12946204600F035FF002808D168683E
:10B96000A062A86800B1E0620549012008700020CB
:10B9700005B030BDFFE70E20FAE7000074DE0700D7
:10B980001C2C00203EB500283CD000293AD0826A09
:10B99000002A37D00A88102A23D0112A33D0502AFF
:10B9A00021D0512A2ED104460A4611F8060F02284A
:10B9B00028D14888238A984224D1907B042821D01A
:10B9C00006281FD005281DD02046891C01F042FD05
:10B9D000002817D0E16A002914D003B0BDE8304038
:10B9E0000847898811E0CA8803899A420AD1082247
:10B9F0008DF800200A7C12318DF808200191826AAE
:10BA0000694690473EBD4FF6FF7101803EBD000084
:10BA1000F0B585B00A4605002BD02888A0F57F41F7
:10BA2000FF3928D01548007828B3144C1120641C25
:10BA3000012720700026ADF81070611C104602F03E
:10BA400026F9BDF8101000960844ADF810000196D4
:10BA500002960396288AADF8000004A8CDE90204F6
:10BA60008DF80270ADF8046028886946A6DF05B03D
:10BA7000F0BD0E20FBE70820F9E700001C2C002099
:10BA800030B585B028B30388A3F57F44FF3C22D0AE
:10BA9000124B1B78FBB1114B10255B1C00241D7051
:10BAA00059709A7001250321ADF81010009401948B
:10BAB00002940394018AADF8001004A9CDE90213A1
:10BAC0008DF80250ADF8044000886946A6DF05B045
:10BAD00030BD0E20FBE70820F9E700001C2C0020F9
:10BAE00010B50446FFF754FE21460448FFF74AFF0D
:10BAF0002046BDE8104001F0F9BB0000D43300201F
:10BB000030B51D498BB001F108020DF1140C3CCA8F
:10BB10008CE83C004968099120B105A818DF08B1FC
:10BB2000FFF7FDFB4FF4F02013DF08B1FFF7F7FB41
:10BB3000124B4822124909A801F08AFF08B1FFF709
:10BB4000EEFB01216A46084601F05CFF08B1FFF7F1
:10BB5000E6FB01208DF80C00684601F049FF08B1B2
:10BB6000FFF7DDFB074801F099FF002801D0FFF740
:10BB7000D6FB0BB030BD000058DE07003DDA0700F1
:10BB8000D02E002031DB070038B50068401C18D0EB
:10BB90000024684600F06CF90098017801290FD163
:10BBA000418851B181684FF440500022806800F014
:10BBB0009FFA00994988814201D1012400E00024C4
:10BBC000204638BD70B511DF08B1FFF7A8FB4FF074
:10BBD000E0210020D1F800315FF0010404FA00F206
:10BBE0001A420AD042B202F01F0504FA05F15209C6
:10BBF000920002F1E022C2F88011401C2028EDD30F
:10BC00004FF44054A06813DF08B1FFF788FBA06829
:10BC1000BDE8704000F02AB908B5684600F028F980
:10BC200000980178A52904D00079AA2801D0002025
:10BC300008BD012008BD10B500F050FE18B900F095
:10BC4000F1FA002813D0642001F028FB00F009FE6F
:10BC500008B1FFF764FB00F041FE08B1FFF75FFB9E
:10BC600000F0BEFA041E01D0FFF759FB204610BDBC
:10BC700000B587B01422084901A8FEF77FFC05989B
:10BC80000DF1040C00909CE80F0000F011F802F098
:10BC9000D1F807B0002000BD90DE070010B500F01D
:10BCA00033FC00F023FF044602F0C4F8204610BD28
:10BCB0002DE9F84304460E4617461D466846DDF852
:10BCC000208000F0D5F814F0FF024FEA1441334C05
:10BCD00033484FF001034FF0FF0C10D0012A14D06D
:10BCE000032A23D00021022A2DD0052A3FD0042A7E
:10BCF0004CD0062A01D104202070BDE8F883418091
:10BD00008560037080F804C00BE04180F11929447C
:10BD10008160A521017080F804C0C0F81880C66059
:10BD20000EE023701E4800F085F8E6E700990A78D7
:10BD300002704A88428089688160AA210171C660C8
:10BD4000C0E90475EDE7009A1578A52D0AD00570B5
:10BD5000558845809268826080F804C0C1600161A6
:10BD60004161DEE74180816080F800C0F4E700F0C7
:10BD70009DFE08B1FFF7D3FAFFF7DCFA022803D3E0
:10BD800008A1002001F092F90320B5E7418081600D
:10BD900080F800C0009909790171C3E7642C002084
:10BDA000983100200A0D4446555F54494D454F5582
:10BDB0005420696E20626F6F746C6F616465725F8E
:10BDC0006466755F7570646174655F70726F6365DA
:10BDD00073730D000EB5074A07CA8DE8070001F01E
:10BDE0006BFC05494FF4FE204860684601F084FC76
:10BDF0000EBD000084DE0700682C002038B5044624
:10BE0000684600F035F80098007820700098408867
:10BE1000608000988168A16001792171C168E1604A
:10BE200001692161416961618169A161C069E06164
:10BE300038BD000010B5044620210B4801F032FC4B
:10BE400008B1FFF76CFAFFF73FFCE0610023202206
:10BE50002146054801F062FC002803D0BDE81040EF
:10BE6000FFF75DBA10BD0000682C0020FEF75ABB3A
:10BE7000014901607047000000F0070070B5174CE1
:10BE80000F20217801EB410104EBC10214495369F1
:10BE900012F8045F4968012D0ED0032D0BD14FF02D
:10BEA0008050006980B2B3FBF0F0084428DF00281E
:10BEB00001D10121A17070BD0803516856690D1AA6
:10BEC0003118926818441044B5F5805F02D2AA0870
:10BED00029DFECE74FF4806229DFE8E7A430002097
:10BEE000242C002000EB40020548002100EBC2009A
:10BEF000022201718160C0E904218161C160704743
:10BF0000A43000202DE9F041134C069E65780A2DDF
:10BF10001FD027783D44EDB20A2D01D30A3DEDB282
:10BF200005EB450504EBC5052871AA61D1E90001BF
:10BF3000C5E90401C5E90236A178002021B9FFF75F
:10BF40009DFF112800D100206178491C6170BDE877
:10BF5000F0810420FBE70000A43000202DE9F05F11
:10BF60002648C168F1B3DFF898B00E688146DBF867
:10BF700000400769C078E11B21F07F45ED1CB0B996
:10BF8000DFF880804FF48030C8F84403C8F8040319
:10BF90001120FEF76DFB1120FEF775FB4FF0010A33
:10BFA000C8F800A02F20FEF781FA89F803A0B54257
:10BFB00000D23546124BE8193C3320F07F40186020
:10BFC000DBF800105A46091B21F07F41001B20F0CE
:10BFD0007F40C91C81420FD9106818602F20FEF7DE
:10BFE00065FA00E004E0BDE8F05F1120FEF756BB03
:10BFF000BDE8F05F01F0F8BBBDE8F09F442C0020E5
:10C0000004150140001001402DE9F0411788064653
:10C01000B81D14460D46984202D90C20BDE8F081A7
:10C020003188072206290AD34FF4486C4FF6FF7374
:10C03000614501D9994202D17088062801D2104683
:10C04000ECE7604501D99842F9D1994203D0984272
:10C0500001D08142F3D80520E85520881221401CE8
:10C0600080B2208029542088401C80B22080411951
:10C07000308801F007FE2188084480B220804119F1
:10C08000708801F0FFFD2188084420800020C5E76A
:10C09000FFF745B9F8B5134800F0EAFE114D002648
:10C0A000114C0C3D30B16169B9B101208DF800002F
:10C0B000684611E0287820B1616971B18DF800609F
:10C0C000F6E7687858B1A168084800220068FFF7D1
:10C0D00053FA10B1A16901B188472E70F8BD6168AB
:10C0E000F2E70000142C00208830002070DE0700EA
:10C0F00010B5044612B11088002211E04FF6FF700F
:10C10000FAE7030A43EA0023A05C5840C0F3031394
:10C11000584080EA003080B2C3B280EA4310521C1B
:10C120008A42EED310BD000030B5164C87B01648D9
:10C13000E16801F0B7FA08B1FFF7F1F81248E268D8
:10C14000083800234168083001F0E8FA050015D1ED
:10C15000142101A8FEF72BFA00208DF804000A48EC
:10C160000DF1040C20388088ADF80600E0680490DA
:10C17000059800909CE80F00FFF79AFD07B028464D
:10C1800030BD0000D8310020902C0020032161F345
:10C19000070008B50549064B898861F31F400ECB9F
:10C1A0000094FFF785FD002008BD0000702C0020E2
:10C1B000DC310020012138B561F307000649074B47
:10C1C000898861F31F404FF440518C680ECB009476
:10C1D000FFF76EFD002038BD702C0020DC31002000
:10C1E00000B58DB004A8FFF709FE089800280CD010
:10C1F000079860B107990A9808440021CDE900101A
:10C20000089880080290684618DF0DB000BD4FF412
:10C2100040508068C0F5F021C1F30C02891A00EB90
:10C220005100EAE700B58DB004A8FFF7E7FD0898D4
:10C2300000280FD0079878B107990A98084403217D
:10C2400000914FF4F021CDE9011008988008039087
:10C25000684618DF0DB000BD4FF440508068C0F54F
:10C26000F021C1F30C02891A00EB5100E7E700004E
:10C2700070B504000BD000223C210B48FFF738FFBB
:10C28000094DAD1E2988884203D00B2070BD0E20B9
:10C2900070BD3C2204492046FEF770F92888401CF6
:10C2A0002880002070BD0000827F002070B51546F8
:10C2B0000A4603281FD0042824D1134C39B1E08842
:10C2C000A0F57F41FF391DD0132176DF0DE0284610
:10C2D00000F0D6FC08B1FFF722F8A069A84211D1FE
:10C2E000012203210948FFF7CBFB00280AD0BDE853
:10C2F0007040FFF714B80121104600F0DCFF024641
:10C300000121EFE770BD0000A02C0020D4330020F5
:10C3100000B587B01422074901A8FEF72FF9059848
:10C320000DF1040C00909CE80F00FFF7C1FC07B072
:10C3300000BD0000A8DE070070471FB5032300936F
:10C34000CDE9010190080390684618DF04B010BDE4
:10C350001FB501230093CDE90101900803906846C1
:10C3600018DF04B010BD30B58FB005461C216846FB
:10C37000FEF71DF900249DF80000019440F018001C
:10C380008DF800000394049405940694A8798DF820
:10C39000360041F23150ADF834000C949DF8300075
:10C3A000142120F0FF008DF830009DF8310020F0BE
:10C3B0000F00401C20F0F00010308DF831009DF887
:10C3C000320020F00600801C20F0080040F0110030
:10C3D0008DF8320007A8FEF7EAF80DA807900CA820
:10C3E0000890ADF824401720ADF82640ADF828009D
:10C3F0000B94A88805F1100307AA6946A2DF0FB0C5
:10C4000030BD000070B5050004D0287A800703D045
:10C41000102070BD0E2070BD144C6078032803D02E
:10C42000042801D0052801D0082070BD6868E168A3
:10C430008600A0683044884204D94FF0FF30A060E5
:10C440000C2070BD00F014FB0028FAD1A968324618
:10C45000A368206901F062F90028F2D1A168314493
:10C46000A160E2689142ECD0092070BD702C0020E0
:10C4700010B50A4604460321104600F01CFF024690
:10C4800003212046FFF7FCFA002803D0BDE8104046
:10C49000FEF745BF10BD0000094810B540780728D9
:10C4A00001D0082010BD07480068FFF7A5F808B1C3
:10C4B000FEF735FF04488068BDE8104000470000E3
:10C4C000702C0020A4DE07006832002010B50D4C4F
:10C4D0006078052813D1D4E9020188420FD10620E3
:10C4E000607000F0C5FA002808D12069E168406852
:10C4F00000F092F8002801D10721617010BD0820DA
:10C5000010BD0000702C0020FEB51D4E1D4C06F124
:10C510001800002507C88DE80700A570A58004F164
:10C520002001684601F0E8F808B16570FEBD1549C4
:10C530004FF44050203180684860216AA161C0F505
:10C54000F021C1F30C02891A00EB51000D490E4A8B
:10C550001831486000210A48FEF79CFF08B1FEF739
:10C56000DEFE00224FF470213068FFF705F808B1B5
:10C57000FEF7D5FE0120A56060700020FEBD000022
:10C58000A4DE0700702C002055CA070010B5094C26
:10C590000820A16801B110BD61780429FBD1A17800
:10C5A000054800F047F810B10021A17010BD052129
:10C5B000617010BD702C0020E83100202DE9F041A1
:10C5C000134C07466078032805D0042805D00825B9
:10C5D0002846BDE8F08104206070A06808B10820FA
:10C5E000F7E700F045FA0500F3D178688600A078F7
:10C5F0008119802901D90920EBE7064AB96810445E
:10C600003246FDF7BBFFA0783044A070E0E70000A1
:10C61000702C0020E831002010B50022FFF768FDE3
:10C6200003490988884201D00B2010BD002010BDAD
:10C630007432002070B500250C290ED343180189EF
:10C64000044600EB4101581A0A38C2B21948022ABE
:10C65000027002D30A318B4201D2092070BD164804
:10C66000FDF78CFF4FF010214FF6FF70B1F88020DE
:10C67000824202D02388934219D1B1F882108142BC
:10C6800002D06088884212D120894FF6FE724FF4A2
:10C690004053A8420BD904EB45014989914204D08B
:10C6A0009E896D1CB6B2B142F3D1002070BD0B2043
:10C6B00070BD0000982C00207432002030B58FB07F
:10C6C00005461C216846FDF772FF00249DF8000016
:10C6D000019440F004008DF8000003940494059444
:10C6E0000694A8798DF8360041F23250ADF8340046
:10C6F0000C949DF83000142120F0FF008DF83000DC
:10C700009DF8310020F00F00401C20F0F0001030A8
:10C710008DF831009DF8320020F00600801C20F0DA
:10C72000180040F001008DF8320007A8FDF73FFF28
:10C730000DA807900CA80890ADF824401420ADF87F
:10C740002640ADF828000B94A88805F1080307AA35
:10C750006946A2DF0FB030BD084910B5A1F1200035
:10C76000016102214170C168203000F09BFF002868
:10C7700003D0BDE81040FEF7D2BD10BD902C0020C4
:10C78000084A10B5A2F118010A6102224A70014656
:10C79000044800F087FF002803D0BDE81040FEF7F2
:10C7A000BEBD10BD882C00200149486170470000C3
:10C7B000702C002038B5062565F307000094FFF7BC
:10C7C00077FA38BD70B58EB00E4605461C21684616
:10C7D000FDF7EDFE00249DF80000019440F00200FA
:10C7E0008DF800000394049405940694A8798DF8BC
:10C7F000360041F23450ADF834000C949DF830000E
:10C80000142120F00F00401C20F0F00010308DF8B3
:10C8100030009DF8310020F0FF008DF831009DF8C8
:10C82000320020F00600801C20F0180040F00100CB
:10C830008DF8320007A8FDF7BAFE0DA807900CA8E6
:10C8400008900220ADF82400ADF82640ADF828008D
:10C850000B96A88805F1200307AA6946A2DF0EB04F
:10C8600070BD2DE9F04188B06846FFF7C7FA03981C
:10C8700000282BD0069A00F580504FF4805190424A
:10C8800027D9A2F5805044081046039A00EB4406CD
:10C8900087184FF440500D46806801EB44089042E1
:10C8A0000ED204F5805004220146FFF751FD002806
:10C8B0000CD1294604220846FFF74AFD002805D17D
:10C8C000BA1B23464146304600F038F808B0BDE8B0
:10C8D000F081039A0698FFF73BFDF7E730B591B07A
:10C8E00002A8FFF78BFA0598002817D0089A00F5E0
:10C8F00080504FF48051904216D9A2F580504308E1
:10C9000010464FF44054059AA468059D024400EB7C
:10C91000430001EB4301AC4202D20E2011B030BD06
:10C92000121A00F00BF8F9E70CAB032083E80700BC
:10C93000059880080F900CA818DFEFE72DE9F0416B
:10C940001C4617460D460646FFF7F7FC002818D090
:10C95000B5F5805F07D92346291B301B1A46FFF720
:10C96000EDFF00280DD13A4629463046FFF7F0FC8E
:10C97000002806D13A4629463046BDE8F041FFF787
:10C98000DCBCBDE8F081000070B542682848D2E9FF
:10C990000043D2E90212C0E90212C0E90043007864
:10C9A000440701D5840705D19C0703D18C0701D129
:10C9B000940701D0062070BD1E4D0B441A44EA6056
:10C9C000B1F5E04F1AD81A4CC3074FF4405104F1A7
:10C9D00090040AD08868C0F5F02090420ED3164823
:10C9E000206016486060164813E08968C1F5F021A0
:10C9F000C1F30C03C91AB2EB510F01D90C2070BD61
:10CA00001049216010496160800701D50F4800E09E
:10CA10000F48A0606878012802D00826304670BD13
:10CA200000F026F80600FAD12168E8688847F5E7A3
:10CA3000D8310020702C002059C7070011C307000F
:10CA4000B5C1070081C7070039C307008DC10700C2
:10CA500029C1070068B5054E01253570052565F328
:10CA600007000094FFF724F968BD0000702C002037
:10CA70000C4810B5007808B1082010BD0A4C206899
:10CA8000FEF7BAFD08B1FEF74AFC00224FF4702110
:10CA90002068FEF771FD041E01D0FEF740FC204621
:10CAA00010BD0000702C0020A4DE070010B50E4C55
:10CAB00001202070E088A0F57F41FF3905D01321C7
:10CAC00076DF50B1FEF72BFC07E0A07828B174DFC9
:10CAD00008B1FEF724FC0020A070FEF79BFE08B111
:10CAE000FEF71DFC002010BDA02C002030B5404DED
:10CAF00087B000242C702C713E4800F06FFF002896
:10CB000070D13D48FFF750FE00F0A6F8002869D12B
:10CB10003A48FFF7ADFB002866D0684671DF08B1E0
:10CB2000FEF7FDFB9DF801006946401C8DF80100F1
:10CB3000002070DF08B1FEF7F2FB9DF8080030A17D
:10CB400020F00F00401C20F0F00010308DF808009D
:10CB5000082202A87CDF08B1FEF7E1FB00940C205C
:10CB6000ADF8000018200194ADF80200ADF80440C3
:10CB70004FF4C870ADF8060068467ADF08B1FEF7DA
:10CB8000CEFB4FF481700094ADF800001F48019077
:10CB90001F480290194869463038FEF7ADFE08B1CB
:10CBA000FEF7BDFB1C216846FDF701FD40F6CD40B8
:10CBB000CDE900404FF48040029003208DF80C0036
:10CBC0001448ADF80E408DF81040CDE90540684698
:10CBD000FEF7B2FD08B1FEF7A2FB00F077FEFEF70C
:10CBE000E3FA002007B030BD0120E870A5E700009F
:10CBF000A02C0020E1BA0700ADC2070004340020D9
:10CC00004C6576656C444655000000004DD5070024
:10CC1000D9D9070091C007000E4910B54A788C7821
:10CC20000023A24212D0521CD2B24A70022A00D172
:10CC30004B70084A4B78183252F82320026008697A
:10CC4000104420F07F400861012010BD03600020E7
:10CC500010BD0000442C002007480021074A017045
:10CC600002F5907002600822C0E90121C1600161F3
:10CC70004161816108467047992C00208032002074
:10CC8000F0B5194A0646916861B355691020691AD2
:10CC900001F00701D2F800700B46012401EBC10C32
:10CCA00007EB8C0CB44506D1956904FA01F6754082
:10CCB0000020956104E0491C01F007018D42EDD18F
:10CCC000491C956901F0070104FA03F31D420AD1DA
:10CCD0009368002B07D05B1E936053685B1C536006
:10CCE0000B46F1E70420F0BDA033002006492023C5
:10CCF0000A7C0968521E02F0070202EBC20203EB33
:10CD00008202885000207047A033002070B5D0B157
:10CD1000C9B10F4AD368C3B15B1ED36093685B1C73
:10CD200093605369156803EBC30405EB8406066042
:10CD3000202000EB84005B1C2858086003F00700EB
:10CD40005061002070BD0E2070BD042070BD000039
:10CD5000A033002010B5E9B100220A60104A5368E0
:10CD6000E3B1202818D85B1E5360D068401CD06007
:10CD70001069136800EBC00403EB84030B6001230C
:10CD800083409169401C194300F0070091611061D4
:10CD9000002010BD0E2010BD0C2010BD042010BDC1
:10CDA000A0330020FEB50446087A82070ED000F0BA
:10CDB0000302C2F104030022154604E04E68355414
:10CDC000401CC0B2521C9A42F8D308720120009055
:10CDD00048680290087A800801906846FFF7EEFBE9
:10CDE00000280BD0022100F066FA024602212046FC
:10CDF000FEF746FE002801D0FEF791FAFEBD0000C6
:10CE0000F8B51A4C207800282ED0206928B10026C9
:10CE1000E06820B1002526B110E00126F8E70125E1
:10CE2000F9E7684652DF052803D020B1FEF777FA0C
:10CE300004E0012602E021690098884785B96088EE
:10CE4000ADF800006946A06861DF052803D020B175
:10CE5000FEF765FA04E0012502E0D4E90201884703
:10CE6000002EDED0002DD6D0F8BD0000D02C002042
:10CE7000054940880A88904204D34988884201D8ED
:10CE800001207047002070470C2C0020800701D043
:10CE9000002070470120704730B51488E51C9D4282
:10CEA00001D90C2030BD02250D5513881C245B1CB4
:10CEB0009BB21380CC5413885B1C9BB21380012857
:10CEC00007D0022807D0032807D0042807D007205E
:10CED00030BD002004E0012002E0CD5401E0032039
:10CEE000C8541088401C1080002030BD2DE9F04748
:10CEF000DFF8ACA0DAF80C009AF8004080469AF807
:10CF00000460DAF80890DAF810703AE009EBC4052A
:10CF10002A7833E002EB42016B68521C03EBC1013B
:10CF2000AB78D2B2934200D100220B78022B02D010
:10CF3000032B23D11FE0D1F804C00346014603E0D0
:10CF4000614503D00B46C969C1B1F9E7B1B18B4264
:10CF500005D1C06918B9134F0126BE600027D1F86A
:10CF600000C0C969D96149B10B6863440B6005E031
:10CF70000174C06900E000210028F9D1697891426C
:10CF8000C8D1641EE4B2C1D2CAE903078AF80460BA
:10CF9000404502D00120BDE8F0870020FBE70000FB
:10CFA000442C0020001001402DE9F04705462F4891
:10CFB000002680460778D0F80C904BE0D8F808009F
:10CFC00000EBC70440E002D02846ED691EE020785F
:10CFD000616800EB4002401CC0B201EBC20120704E
:10CFE000A278904200D126700A784868012A2DD193
:10CFF000027C5ABB8A684260CA6882600A69C26061
:10D000004969816198F8041001B146604268D8F816
:10D010001030DFF85CC0D11A21F07F41614502D2A7
:10D020008268114406E0991A826821F07F418A42A1
:10D0300002D9511A016000E0066046600121866055
:10D040000174C66100F0BEFD002DBCD1207861786E
:10D050008842BCD17F1EFFB2B0D2D8F80C1049452F
:10D0600002D00120BDE8F0870020FBE7442C00201F
:10D07000FFFF7F0038B5094C207808B1002038BD8B
:10D080000125EB02064A07A100200095FDF758FB99
:10D0900008B1082038BD2570F0E70000C42C00203E
:10D0A000834000204E6F726D616C00000FB408B5B4
:10D0B00004A900916A460399FDF7AAFB01B05DF847
:10D0C00014FB00002F480168B1292ED05FF0000446
:10D0D000FEF7BAFA2C4B2D4A05210020FEF704FA80
:10D0E00008B1FEF71CF92A4A01212A48FEF7D2F9B5
:10D0F00008B1FEF714F9274D274928684860FEF764
:10D1000069FEFEF789FDA0B1FEF795FD08B1FEF7B7
:10D1100006F984F00100FEF7F3FC00F083FBFEF754
:10D12000A7FD58B1FEF7FBF808E0012400210160DB
:10D13000CEE70120FEF7E4FC00F074FB4FF440560C
:10D14000ACB100224FF4F0112868FEF715FA08B1CF
:10D15000FEF7E5F8FEF7A2FD08B1FEF7E0F8B068CB
:10D16000FEF712FD60B1FEF757FD30B108E0B06880
:10D17000FEF70AFD0028EDD0F1E7B068FEF722FDCA
:10D18000FDF7A8FA1C050040D1B40700082D0020C7
:10D1900035DB070058DE0700002C002070B5144670
:10D1A00082880E4605462088111D0144921C994232
:10D1B00001D8FE2A01D90C2070BD521C325420889F
:10D1C000FF21401C80B2208031542088401C80B256
:10D1D00020808119288800F055FD2188084480B2FC
:10D1E0002080AA8842B1A96841B13044FDF7C6F950
:10D1F0002088A98808442080002070BD072070BDC9
:10D20000F8B50E46017814460546012901D1687823
:10D2100030B12088821C9A422DD8012902D006E024
:10D220000720F8BD69780144891C994223D8181A4F
:10D23000801E87B2ADF800702188B01C0844694692
:10D240007DDF0028EDD12878022805D1BDF8001037
:10D25000B94201D809210AE00821012805D16878DE
:10D26000B84202D8ADF8000001E0ADF80070BDF89A
:10D270000000FE2801D90C20F8BD2288401CB054C3
:10D280002088401C80B2208031542088401C20809F
:10D29000BDF80010084420800020F8BD31B540F2F0
:10D2A000E73404E0401E00902046FDF7C3F80098E4
:10D2B0000028F7D138BD08280BD003DC38B1062888
:10D2C0000FD108E00B280AD00C280AD105E0012074
:10D2D00070470220704703207047042070470429DC
:10D2E00001D00620704705207047000030B5564C2D
:10D2F00002880021E588A7B0192A0AD01EDC112A6D
:10D300003DD008DC022A7DD0102A02D18088E0803E
:10D31000A17027B030BD4D49132A01F1180443D044
:10D32000142AF6D1028A4B8D00259A4200D1254657
:10D330000023CA1D8088294686DF1BE0512A65D05C
:10D340000EDC1A2A7DD01B2AE3D1007A0028E0D116
:10D35000A170E068401EE06047D0FDF725FFD8E7E8
:10D36000522A6ED0552AD4D180790028D1D11321E8
:10D37000284676DF0028CCD0FDF7D1FFC9E7802012
:10D38000ADF894003220E060012325AA05A92846C3
:10D39000AADF08B1FDF7C3FF207808B9FDF704FF45
:10D3A0004FF6FF70E080B4E72848C91D483850F8B0
:10D3B000482F09928288ADF8282080798DF82A00BC
:10D3C000102205A8FDF7DAF81C22214614A8FDF763
:10D3D000D5F805A810901C4A14A81C320F900BAB6E
:10D3E000852128467FDFC5E70CE01422184905A8EF
:10D3F000FDF7C4F8099805AC009094E80F00FEF71B
:10D4000057FC86E70021284667DFB3E781790029CA
:10D41000A5D0807B042803D0062801D005289ED102
:10D4200002290CD05FF001008DF804004FF4C170A8
:10D43000ADF8080001A92846A8DF9BE701E002201B
:10D44000F2E700F053FA95E7A02C00200434002006
:10D45000D4DE0700F0B58BB001274FF0020E054671
:10D460008DF80CE08DF812700889ADF81400488929
:10D47000ADF8160001F10C00002608960690ADF8F4
:10D4800020E007A8ADF8226009900C46A98A2888F8
:10D4900008AAA5DF18B1E96AC9B1884717E09DF865
:10D4A0001C0010F0010F12D0ADF81060288803A9FD
:10D4B000A8DF002812D1217B04F10D00092943D2F5
:10D4C000DFE801F0420E1D2326282A402C0040F2FE
:10D4D000FD10ADF81000288803A9A8DF0BB0F0BD3F
:10D4E0008DF800600DE006221DE000BF8DF8087089
:10D4F0000190AA6A6946284690470020EEE78DF819
:10D5000000706289022AF1D2EDE78DF800E0F0E7C1
:10D51000032012E0042010E005200EE060890328BB
:10D5200005D2032208212846FEF7AAFAD6E7B4F866
:10D530000D00ADF8040018B106208DF80000D8E702
:10D540000720FAE70920F8E70322ECE770B50D465B
:10D55000064609780120344C0A2916D2DFE801F08A
:10D560001F243E050D16565B415FFEF7AFFF0421F9
:10D57000FFF7A1FE0246042127E0FFF797FA08B162
:10D58000FDF7CDFEFEF788FF28B970BDFFF78EFAD4
:10D5900008B1FDF7C4FEBDE87040FFF70BB920717C
:10D5A00068680078607170BD20480068FEF724F854
:10D5B00002202071686800780128F4D1FEF7E6FFA8
:10D5C0000221FFF778FE024602213046FEF758FAA4
:10D5D0000028E8D0BDE87040FDF7A1BE032020710F
:10D5E00070BD227930462946012A07D0022A09D087
:10D5F000032AF5D1BDE87040FDF72ABEBDE87040B2
:10D6000000F056BABDE87040FFF7CCBB6070A88848
:10D610002081608170BD00206070208170BD304627
:10D620002169FEF72DF9D3E7A02C0020042C00205F
:10D6300006480378012B03D1012901D10221017091
:10D64000100001D0FDF76BBE70470000642C002075
:10D6500070B5124C1E4615466078012902D0032988
:10D6600014D107E0052811D163697BB13246294600
:10D6700004200AE0022809D10948406880470320B5
:10D680006070636913B1324629469847280003D079
:10D69000BDE87040FDF743BE70BD0000702C002057
:10D6A0006832002008B50B46002201460320009294
:10D6B000FEF728FC08BD000070B50D4E00240D4893
:10D6C000746025460470447084702846FEF70AFC96
:10D6D0006D1C0A2DF9D306493460002008317460AE
:10D6E00041F82040401C0228FAD3002070BD000001
:10D6F000242C0020A4300020074B1A68022A09D0ED
:10D700000A6003F10801006841F82200521C002061
:10D710001A60704704207047242C0020F8B5074693
:10D720001D4616460C460846FFF7B0FB58B1601977
:10D73000FFF7ACFB38B1334622463946012000954D
:10D74000FEF7E0FBF8BD1020F8BD000070B5244CDA
:10D7500006460022A078012841D100232146A3706B
:10D760000D78022E05EB450001EBC00103D0032E1E
:10D7700035D10D202EE01B484668761C466089682E
:10D78000B1EB063F15D843606078401E6070681C9E
:10D79000C0B220700A2801D30A38207005EB45007A
:10D7A00004EBC0011046091DFDF7CAFD2846FEF72F
:10D7B00099FB6078002812D0A07800280FD1FEF7DE
:10D7C0005DFB00280BD0112809D0217801EB410125
:10D7D00004EBC101BDE87040091DFDF7B1BD70BD8E
:10D7E000A4300020242C002070B5012670044FF0D6
:10D7F000E0210025C1F88001084C4010C4F848031E
:10D80000C4F8080366602F20FCF750FEA660044CA5
:10D810002F202561FCF74AFEE57070BD0010014025
:10D82000442C002010B5064A14210820FDF71CFEE8
:10D83000002803D0BDE81040FDF771BD10BD000009
:10D84000182F002010B50121202803DA1D4A81403D
:10D85000114004E0402803DAA0F12002914041B1D8
:10D86000002809DA00F00F0101F1E02191F8141D00
:10D8700006E042F2010010BD00F1E02191F8001431
:10D880004909082914D299B1012911D004290FD0CE
:10D8900005290DD00C4A946800F01F03012199401E
:10D8A000400944B152F820300B4342F8203007E0E1
:10D8B00042F2020010BD800000F1E020C0F800112B
:10D8C000002010BDFC06FFBC503C0020064801783B
:10D8D00021F07F01303121F080010170072141707A
:10D8E0001021817070470000BC2C002070B5164CD0
:10D8F0004FF6FF75E088A84201D1082070BDE1789D
:10D90000E1B1012308221149A9DF0028F6D1022341
:10D9100000221146E088A9DF0028EFD12A460C2119
:10D92000E088A7DFA0F54051023905D0082803D0D0
:10D93000A0F540510439E1D1002070BD00231A4602
:10D940001946A9DF70BD0000A02C0020383400204B
:10D950002DE9F0410746806A14468846C8B3002581
:10D9600031E000BFB96A05EB450001EB8006B088E5
:10D97000801CFE2802D90C20BDE8F0812288401CC2
:10D9800008F8020020881622401C80B2208008F887
:10D9900000202088401C80B2208000EB08013088E5
:10D9A00000F070F92188084480B22080B28842B12A
:10D9B000B16871B14044FCF7E1FD2088B1880844AA
:10D9C00020806D1CEDB297F82C00A842CAD8002028
:10D9D000D2E7FFE70720CFE7FDF7A1BC18B1034965
:10D9E000C860002070470E2070470000D02C002037
:10D9F0001CB5034901910091694660DF1CBD000020
:10DA0000002C002070B50E46054614461421104621
:10DA1000FCF7CDFD012020800021216121732672B9
:10DA2000657205B1A072002070BD10B511B1002063
:10DA3000FDF775FCBDE81040FFF7E2B90021024A8E
:10DA40000846FDF7B1BC00002BDA0700FDF766BC05
:10DA50002DE9F0411D4616460C460746FFF70AFB26
:10DA60000CB1A00702D00720BDE8F0812046094C88
:10DA70004FF0010E0849A06066803846656010DFEF
:10DA80000028F1D184F800E0BDE8F0411620FFF74E
:10DA9000D9BE0000D02C00204DDA070018B1034990
:10DAA0000861002070470E2070470000D02C002035
:10DAB00010B588B0044600200090019002900390B9
:10DAC00019481A4A40798DF800001068926804904D
:10DAD0006846CDE90502087A0C2805D003221CE02F
:10DAE000FDF71DFC08B010BD4868C278016862F3FC
:10DAF0001F610191C279416862F31F610291C17A8D
:10DB0000806861F31F60039004A8FEF73DFF0028C2
:10DB1000E8D00121FFF7CFFB024601212046FDF7A7
:10DB2000AFFF0028DCD1DDE7A02C0020C8DE070015
:10DB3000FFF70CBEFCF7CEFD2DE9F84F204C002579
:10DB40006846D4E903B6FFF767F88046FFF7CEF9D9
:10DB50000746A946B8F1000F25D00023009ACC460D
:10DB6000E06819E007680146974202D9BA1A0260D4
:10DB700014E0C1F800C0D1F80C80D21BC8693B4446
:10DB80008A46B8F1000F07D0F71827F07F47C1E9A0
:10DB90000178CAF81C500D460028E3D1E060284601
:10DBA000FFF702FA04E02846FFF7FEF900B917B1C3
:10DBB0005846FEF7D3F984F80490BDE8F88F0000CA
:10DBC000442C00200D4B10B5D96831B102680C68A7
:10DBD000A24204D8A21A0A60C161D86010BD0B46E7
:10DBE00003E00B46C969121B21B10C689442F8D3BB
:10DBF000A41A0C600260C161D86110BD442C0020E1
:10DC00002DE9F0411D4DEC68002C35D01C48002753
:10DC100000682969B846401A20F07F462068B04263
:10DC200015D82246361A0744E469107C68B182F898
:10DC300010806B6933B1D2E90501984728B1FDF72F
:10DC40006EFB02E0D2E905108847002CE6D1697826
:10DC5000A878814206D1401CC0B2A870022801D128
:10DC600085F802800548A978183040F82170BDE891
:10DC7000F0411420FCF712BDBDE8F081442C0020D7
:10DC8000041501400870000A4870022070470870AF
:10DC9000020A4A70020C8A70000EC8700420704795
:10DCA00038B515494888A0F57F42FF3A23D04A7815
:10DCB000124C521CD2B24A70237B93420AD3091DE4
:10DCC00075DF002817D0A169002914D001B0BDE884
:10DCD0003040084700254D70217C29B13B2176DF7B
:10DCE00010B1A16901B188476169002903D08DF89D
:10DCF00000506846884738BD082C00208830002036
:10DD0000EFF30580C005C00D13D0103840B20028D5
:10DD100006DA00F00F0000F1E02090F8140D03E0A7
:10DD200000F1E02090F800044009022803D0062802
:10DD300003D00220704700207047012070474278CE
:10DD40008378521CD2B2934200D1002203789342CE
:10DD500001D1002070470A704168407800EB400014
:10DD600001EBC00070472DE9FC411646DDE908547F
:10DD7000CDE900541F468046022200F00CF800282E
:10DD800007D1CDE900543B4610223146404600F011
:10DD900002F8BDE8FC812DE9FC5F0026DDE90C4BB3
:10DDA000994692468E4680462788354630E0D8F818
:10DDB0000400002200EB850069460068019001A87C
:10DDC00065DF002830D19DF8000050451FD10EB10D
:10DDD000002100E00221228808441118594522D868
:10DDE00046B9521C90B2208009F800E02088401CFF
:10DDF00020800126218801A801EB0902694665DF20
:10DE0000002811D120889DF80010084420806D1C46
:10DE1000B8F80000A842CADC56B12088C01B401EDA
:10DE200080B2FF2802D90C20BDE8FC9F09F807004A
:10DE30000020F9E710B5074C48DF08B1FDF76FFA8D
:10DE4000FDF702FB2078022803D0032801D0042824
:10DE5000F2D110BD642C0020E82C00200100000746
:10DE600002000000000000000000000000000000B0
:10DE70006830002023D1BCEA5F782315DEEF121250
:10DE80000000000031D60700000000000000000084
:10DE90000200000000000000000000000000000080
:10DEA00000000000B8310020040000000000000065
:10DEB00000000000000000000000000051D6070034
:10DEC000000000000000000003000000000000004F
:10DED000000000000500000000000000000000003D
:10DEE0000000000000000000303132333435363796
:10DEF000383941424344454618DF0700002C0020D2
:10DF0000E800000036AF070000E00700E82C002022
:10DF1000A03B000046AF070000000000000000002A
:10DF200000000000000000000000000000000000F1
:10DF300000000000000000000000000000000000E1
:10DF400000000000000000000000000000000000D1
:10DF500000000000000000000000000000000000C1
:10DF600000000000000000000000000000000000B1
:10DF700000000000000000000000000000000000A1
:10DF80000000000000000000000000000000000091
:10DF90000000000000000000000000000000000081
:10DFA0000000000000000000000000000000000071
:10DFB0000000000000000000000000000000FFFF63
:10DFC000000000003200000000000000000000001F
:10DFD0000000000000000000000000000000000041
:10DFE000FFFFFFFF02000000000000000000000033
:10DFF0000000000000000000000000000090D003BE
:020000041000EA
:041014000080070051
:020000041000EA
:0410180000E00700ED
:040000050007A4014B
:00000001FF
